:10400000603A002035CC0000A1AC0000A5AC000057
:10401000A70A0A010041000004180FAC20682A0119
:104020000000000000000000000000000000000090
:1040300000000000583003000000000000000000F5
:104040000000000000000000FFFFFFFFFFFFFFFF78
:10405000FFFFFFFF007003000000000000000000F1
:10406000FFFFFFFFFFFFFFFF110000000000000047
:104070000000000000000000000000000000000040
:104080000000000000000000A9540020A9540020F6
:10409000603A00205C580300882F030000310020A4
:0C40A000C53000200000040000000000FB
:10410000603A002035CC0000A1AC0000A5AC000056
:10411000EDB40000A9AC0000B1AC000031CC00004F
:1041200031CC000031CC000031CC000031CC00009B
:10413000B5AC000031CC000031CC000031CC000027
:10414000C157000089850200DDAF0000C97D020073
:10415000F585020095850200AD8502008D8502007F
:104160000D4D0000E14D0000D96A000010AE0000C6
:1041700010AE000010AE0000F542000010AE0000CE
:1041800010AE0000054E000010AE000075C7000024
:1041900010AE000010AE000010AE000010AE000027
:1041A00010AE000010AE000010AE0000F985020055
:1041B00091850200895500003986020010AE00008A
:0841C000AD71020010AE000019
:1041C800F8B500BFF8BC08BC9E467047F8B500BFFC
:1041D800F8BC08BC9E46704710B5054C237833B927
:1041E800044B13B10448AFF300800123237010BDC2
:1041F80078400020000000003C52030008B5034B43
:104208001BB103490348AFF3008008BD000000005C
:104218007C4000203C520300154B002B08BF134B79
:104228009D46A3F5803A00218B460F461348144A51
:10423800121A2EF08AFE0F4B002B00D098470E4B17
:10424800002B00D098470020002104000D000D48E5
:10425800002802D00C48AFF300802EF01FFE20008B
:10426800290027F0E5F82EF005FE00BF0000080041
:10427800603A0020000000000000000078400020A4
:10428800A9540020000000000000000070B5134C85
:104298008A00A31822449B781D09062D98BF104E4A
:1042A80003F00F0394BF755DFF25062B05719ABFB8
:1042B8000C4DEB5CFF234371FF3B18BF0123837157
:1042C800D37014F82130084C43705378837001463A
:1042D800204602F073FC0123A36070BD94400020C7
:1042E8008F2F0300882F0300002000407FB522494C
:1042F80022480022FF23CDE901228DF809300378F6
:104308004C6C8D6B03922C40E407DBB228D5022B52
:1043180026D88C6C1A4901EB8301A5B2CE781949CD
:1043280006B326041ED521F813201749012202FAE4
:1043380003F30A781343154A0B701378CBB10023A3
:104348001478DC40E407D9B20FD501701078012445
:1043580004FA03F34340DBB201A81370FFF796FF9A
:1043680004B070BD21F81350DFE70133032BE7D108
:10437800F6E703230370F3E700200040A040002085
:1043880094400020A4400020A2400020A14000202A
:1043980000207047002814BF022000207047012029
:1043A800704701207047012814BF02200020704781
:1043B800012070472DE9F74FDFF87C8007460D464E
:1043C8001446994603F10C0A4FF0010B15B903B0D6
:1043D800BDE8F08F102D2E46164A28BF1026F3B2DE
:1043E800494651F8040B42F8040B5145F9D10193A1
:1043F8009AF800101170104888F80F40002288F8C9
:104408000E2088F800B0013417F014F80B48019B0F
:10441800E4B23A4612F8011B10F801CF81EA0C0108
:1044280002F8011CD11BC9B29942F3D3AD1BADB23E
:104438001746CBE7AF400020AE400020AD4000203B
:104448002DE9F04F85B016460293BDF838900F9BC2
:10445800354A01930D468046034600F10C0153F896
:10446800040B42F8040B8B42F9D1304C1B781370C3
:104478004923237020464FEA1923A37384F80F9029
:1044880016F0D8FF237883EA1623237063784FF059
:10449800020A734063705246A34600271FE0C2F128
:1044A8001001F31B89B29BB28B42A2EB050028BF17
:1044B8000B46039029460398A1EB050C1FFA8CFCC8
:1044C80008189C45C0B21AD31A44D2B21F44102A05
:1044D8001D44BFB203D1204616F0ACFF0022B742FC
:1044E800DDD312B1584616F0A5FFBAF1010F4FF00F
:1044F8000002029D4E460BD04FF0010ACDE711F89D
:1045080001CB1BF800E08CEA0E0C0BF800C0D2E7D8
:10451800064B01991B6801980B604346042105B0BE
:10452800BDE8F04FFFF746BFAF400020AE40002087
:10453800F7B5099FBDF82040CDE9004706461D465E
:10454800FFF77EFF2CB13346012221462846FFF7AC
:1045580031FF002003B0F0BD2DE9F743BDF8287006
:104568000F4C1E4605468846914603463946304656
:104578000122FFF71FFF33464A4641462846CDE948
:104588000074FFF75DFF042221460B982EF0AAFC69
:10459800002814BF7E20002003B0BDE8F08300BFD0
:1045A800AA40002073B51C46044D8B181E592E6076
:1045B800CDE90045FFF7D0FF02B070BDBE40002036
:1045C8000020704701207047012070470020704785
:1045D8000120704700207047002070470120704775
:1045E800002070470120704770477047002814BFAB
:1045F8000220002070470020704770B516468518C5
:104608000AB9304470BD01F00F030A2B34BF3024BF
:1046180037242344013A090905F8013DD2B2EFE7EE
:10462800F0B5F9B100281CDA2D23B0F1004F137052
:1046380000D04042012115E0801B8642ECB205F112
:104648000105F9D904B927B14D1C30345454012758
:10465800E9B20133092B09D1303050540131C8B2C5
:10466800F0BD00210023DFF80CC01F465CF8236072
:104678000025E2E7982F03002DE9F04F95B04FF0A1
:10468800000B02AC81468A4617461D465E46A04688
:104698003B7863B902ABE41AE4B2224619465046A5
:1046A800C847002840F093803444E0B290E0252BBE
:1046B80013D0BBF1000F14D12370013412AB9C420C
:1046C8006DD3A4EB0804E4B2224641465046C847DD
:1046D80000287CD12644F6B260E0BBF1000F00D17F
:1046E80001373B78632B00F092801BD8392B09D80F
:1046F800302B80F09E80002BCCD0252B51D04FF052
:10470800000BDBE7582B00F08B80622BF7D12B686E
:1047180001936B6800934FF0000B009B9B4543D1BE
:104728000835ECE7702B1ED017D8642B01D06C2B02
:10473800E5D16C2B05F1040B28686CD17B78752BBF
:1047480014BF0121002101D0642B00D1013722467A
:10475800FFF766FF04445D46D1E7752BE9D0782B57
:104768005ED0732BCBD1A4EB0804E4B2224602A995
:10477800504605F1040B2D68C84740BB2644F6B2E5
:10478800C4B201302B5D002BFAD12246294650468F
:10479800C847E0B926445D46F6B283464446013729
:1047A80076E723700134AAE7019B204613F80B1023
:1047B8000222FFF722FF12AB984204460ED3A0EB69
:1047C8000804E4B2224641465046C84718B10020C2
:1047D80015B0BDE8F08F2644F6B24446009B013B75
:1047E8005B4582BF20232370013412AB9C420BD35C
:1047F800A4EB0804E4B2224641465046C8470028C4
:10480800E5D12644F6B244460BF1010B85E72B6847
:1048180023700435C6E7752B0CBF0021012196E7EC
:10482800204602222978FFF7E8FE05F1040B04462A
:1048380091E77A7802F0DF02582A19D1322B07F172
:10484800010B09D129882F1D04222046FFF7D5FE28
:104858003D4604465F4652E7342B09D12F1D2D688B
:104868000422290C2046FFF7C8FE0422A9B2EDE76E
:104878004FF0010B22E700002DE9F04F9B46584B03
:1048880085B01B78109F9DF844A0DDF8508006463F
:1048980089461546002B00F09280072A00F2918085
:1048A8000E9B002B00F08D800F9B002B00F0898061
:1048B800129BB3F5006F00F38480012801D1002F0B
:1048C8007FD0484B03EB05131B7B002B7BD0464C5A
:1048D8001022002168462EF038FB04EB4514102204
:1048E800B9F1000F5CD1494620462EF02EFBA37883
:1048F80043F01003A370E37843F03003E370BAF198
:10490800000F03D1DBB243F00303E3703649129B77
:10491800CDF800B06A01013B885A01EB020C63F341
:104928000E1088520E9BCCF808300F9BCCF8043040
:104938009DF84C109CF80330012E61F383038CF82A
:10494800033042D11323CCF80C309CE80F000CF153
:10495800100E8EE80F00DCF81C20CCF814706FF0F5
:10496800030161F39F02B9F1010FCCF81C2004D1B7
:104978000F9BCCF81830CCF804701A492A018B1810
:1049880041F802800027159A5A6028469F605E7396
:104998002246694603F090FA384605B0BDE8F08F24
:1049A800002120462EF0D1FA1023A3700323E370D0
:1049B800BAF1000FAAD1DBB243F03003A5E70B48E8
:1049C800EBE70B48E9E70B48E7E7B8F1000FD4D16C
:1049D8009CF8023068F304138CF80230CDE700BF6E
:1049E80044420020C440002044410020028000F0DE
:1049F800018000F0078000F038B5104B1B780546A1
:104A0800BBB1C0B102F05DFD0D49002301EB0312FB
:104A1800147B3CB92B6001231373146002F057FD1B
:104A2800204638BD0133082BF0D102F050FD05486F
:104A3800F7E70548F5E70548F3E700BF44420020DB
:104A4800C4400020048000F0028000F0018000F0E3
:104A580038B502F036FD0B4A05460023D1180C7B09
:104A68005CB91033802BF9D103F0DCF9064B2846EA
:104A78001C7002F02CFD204638BD284602F027FDA8
:104A88000248F9E7C440002044420020058000F0B5
:104A98000D4B1B7810B5044693B1072812D802F0C5
:104AA80010FD0A4B03EB04131A7B2AB100241C7374
:104AB80002F00DFD204610BD02F009FD0448FAE79A
:104AC8000448F8E70448F6E744420020C4400020C0
:104AD800068000F0028000F0018000F013B5164B4C
:104AE8001868019000238DF8043002F0EAFC134B9B
:104AF8001C7824B102F0EBFC114802B010BD012271
:104B08001A7002F0E4FC0F4B1C731C7783F82C40DE
:104B180083F83C4083F84C4083F85C4083F86C4051
:104B280083F87C4004230DEB03008DF8073003F075
:104B380099F92046E1E700BFBC2F0300444200205A
:104B4800038000F0C440002010B588B00E9C079484
:104B58000D9C06949DF8304005940B9C04949DF898
:104B6800284003940024CDE9013400920B46024604
:104B780021462046FFF780FE08B010BD10B588B06A
:104B88000E9C07940D9C06949DF8304005940B9C50
:104B980004949DF8284003940024CDE90134009240
:104BA8000B46024601212046FFF766FE08B010BDFD
:104BB80008B50A4B1B785BB107280BD8084B03EBE9
:104BC80000131B7B43B1002103F042F9002008BD0C
:104BD8000448FCE70448FAE70448F8E744420020A0
:104BE800C4400020028000F0018000F0078000F03F
:104BF80008B50A4B1B785BB107280BD8084B03EBA9
:104C080000131B7B43B1012103F022F9002008BDEA
:104C18000448FCE70448FAE70448F8E7444200205F
:104C2800C4400020028000F0018000F0078000F0FE
:104C380008B50A4B1B7853B107280AD8084B03EB71
:104C480000131B7B3BB103F089F9002008BD054820
:104C5800FCE70548FAE70548F8E700BF44420020AA
:104C6800C4400020028000F0018000F0078000F0BE
:104C78000D4B1B7893B1072812D889B10B4B03EB66
:104C880000131B7B73B10A4B1A6A012303FA00F065
:104C980010401ABF00200B70087070470548704715
:104CA800054870470548704744420020C44000202A
:104CB80000200E40028000F0018000F0078000F024
:104CC8000B4B1B7810B50C4663B107280CD859B1AB
:104CD800084B03EB00131B7B43B103F055F920602D
:104CE800002010BD0448FCE70448FAE70448F8E748
:104CF80044420020C4400020028000F0018000F0FF
:104D0800078000F02DE9F843174E326EF36E12EA71
:104D1800030800D5FEE7154CDFF85490012700255D
:104D280018EA070F16D02368B7669BB1A1686268B6
:104D38000131A16028469847637B012B0AD148B905
:104D480009EB4513197B1A7F60F3410160F34102B7
:104D580019731A770135082D4FEA470704F1100433
:104D6800DED1BDE8F88300BF00200E40C44000201B
:104D78004441002070B5094E0446012504B970BDB0
:104D880094FAA4F0B0FA80F005FA00F324EA0304D8
:104D980056F82030002BF1D09847EFE74842002022
:104DA800054B4FF40032C3F880211A604FF40072AB
:104DB800C3F880211A60704700E100E038B5044666
:104DC8000D4602F07EFB034B43F82450BDE8384003
:104DD80002F07DBB48420020074BD3F82804D3F8E3
:104DE8001C24104020F42A5020F02A004004400CD3
:104DF800C3F82404FFF7BEBF00A00040074BD3F858
:104E08002804D3F81C24104020F4AA4020F05500B0
:104E18000004000CC3F82404FFF7ACBF00A0004056
:104E2800104A4161136830B51546ABB9106083600C
:104E380011E0091B9C6841611A467CB123465C69F4
:104E48008C42F6D9002CF4D052B19060836013B133
:104E58005A69511A596130BD0022F0E72346F4E738
:104E68002860F3E7A042002010B500F025FB094BAD
:104E7800094A196831B11368C41A4B69A34203D3AC
:104E88001B1B4B61106003E0C01A002310604B61CC
:104E980010BD00BFA04200208C42002038B50F4D45
:104EA8002B685C690E4B1B6802201C4400F032FB27
:104EB800204600F007FB0B492A6800230B70D088B6
:104EC800800702D501230B7038BD9268002AFBD0F9
:104ED80050690344012BF2D9F6E700BFA042002035
:104EE8008C4200209442002070B59DF81450057142
:104EF800002516468560049ABDF81850C5800446FA
:104F08000260C0E903360D4629B961610BB111464B
:104F1800984796B1354602F0D4FA0646FFF7A4FF43
:104F280029462046FFF77CFF054B1B68A34201D1A9
:104F3800FFF7B4FF304602F0CAFA002070BD00BF88
:104F4800A04200200C4A136800217BB183420AD199
:104F5800836879B18B6083681BB15A6941690A44D7
:104F68005A610020704719469B68EEE70028EFD089
:104F7800022070471360EEE7A042002070B5144D80
:104F880002F09FFA2C780646D4B9124B1C60124BDB
:104F98001C60124B1C8000F04DFA012000F0BAFA98
:104FA80000F006FB0E4B0246186070B123460D4810
:104FB80040F2E7312DF0DEFD0B4B186001232B701A
:104FC800304602F084FA002070BD2320FCE700BFC1
:104FD80088420020A04200208C42002096420020F7
:104FE8009C42002018FCFFFF904200202DE9F04170
:104FF8000546F8B102F065FA0F4F0646FFF734FF91
:105008002846D7F80080FFF79DFF044628B13046B0
:1050180002F05DFA2046BDE8F081A8453B6803D15F
:1050280023B1FFF73BFFF2E7002BF0D1022000F09D
:105038007FFAECE72224EDE7A0420020F0B50D4608
:1050480085B016461F46044680B1FFF7CFFFBDF86E
:105058002C3002939DF828300022CDE900732946B0
:1050680033462046FFF740FF05B0F0BD2220FBE79E
:1050780038B50C46054698B191B100230B7002F083
:1050880020FA084B1B6801210BB122781AB102F0F3
:105098001EFA002038BD9D420CBF21709B68F3E7C3
:1050A8002220F7E7A0420020F0B587B01F46002372
:1050B8000D4616468DF817300446A0B10DF11701BC
:1050C800FFF7D6FF9DF817207AB9BDF83430029360
:1050D8009DF830302946CDE9007320463346FFF766
:1050E80003FF07B0F0BD2220FBE70320F9E700002B
:1050F800F8B50C460646C8B1C1B102F0E2F905465A
:10510800FFF7B2FE73692360134B1B68B3420FD0DD
:1051180023B9284602F0DBF903201CE0596922680C
:105128009B680A442260F1E700230FE0222012E086
:105138000A4E276800F0C0F93368C01A8742F3D9CD
:1051480000F0BAF93368C01A23681B1A284623608E
:1051580002F0BDF90020F8BDA04200208C420020DA
:10516800F8B507460E4602F0ACF9124B1B68054627
:10517800002423B9284602F0AAF91B2015E05A6931
:105188001444DA88BA4213D10B4F00F095F93B6802
:10519800C01AA0420AD200F08FF93B68C01A201A40
:1051A8003060284602F093F90020F8BD0020F7E7A8
:1051B8009B68DEE7A04200208C420020014B187853
:1051C800704700BF9442002038B502F07AF90546CE
:1051D80000F072F90446284602F079F9204638BDF5
:1051E80070B502F06EF9064600F066F9094B1C88A6
:1051F80005460120A4B200F0B3F918B100F05CF93B
:1052080001340546304602F062F9002242EA050000
:10521800214670BD96420020014B1868704700BFB8
:105228009C4200200A4B1B68834210B50C460CD3E5
:10523800084B19684FF47A720023A0FB01012DF086
:1052480099FC01302060002010BD2120FCE700BF40
:10525800904200209C420020104B1A684FF47A7349
:1052680010B5A0FB0301A2B1531E134211D1B2FA2B
:1052780082F2C2F11F02C2F12004A2F1200301FA56
:1052880004F420FA02F2224321FA03F342EA03006B
:1052980010BD00232DF06EFCFAE700BF9C420020F1
:1052A800F8B516461BA3D3E900238B4208BF8242F8
:1052B8002AD3174B1A684FF47A73A0FB034503FBF4
:1052C8000155C2B1531E13EA020014D1B2FA82F298
:1052D800C2F11F02C2F12007A2F1200124FA02F351
:1052E80005FA07F73B4325FA01F10B4325FA02F2C9
:1052F800C6E90032F8BD0023204629462DF03AFCC5
:10530800C6E900010020F5E72120F3E7AFF30080AC
:105318009C420020EFA7C64B37894100C2072DE900
:10532800F84F04460BD53F4A138801339BB21380CC
:10533800FFF79AFD3C4B1B680BB1FFF7AFFDA307C6
:105348006DD53A4F00F0B8F83D688046451B02F02D
:10535800B8F8002683463246B246334B1C6814B16F
:105368006369AB4214D9012E314B51D1D288022A3C
:105378004ED11E70002C4ED06369C7F800805D1BAB
:105388006561FFF78BFD5846BDE8F84F02F09FB8FE
:10539800C7F8008023462A465969914209D81879E6
:1053A80094F804C0844588BF1C469B68521A002B99
:1053B800F2D1584602F08BF8D4F814B0C4F814A00F
:1053C80002F07FF881462046FFF7BCFD484602F010
:1053D8007EF823694BB102F074F8216981462046B2
:1053E800FFF71EFD484602F072F8E36813B1216822
:1053F8002046984700F060F8D844A5EB0805814698
:10540800054402F05EF8013683462246C846A4E702
:1054180000221A70AEE7022000F08AF8B3E7BDE870
:10542800F88F00BF96420020A04200208C42002046
:105438009842002010B51C4B86B05968186803AA1A
:1054480003C2197A53F8090F117001909A88174806
:105458009B79ADF8082001218DF80A30002401F06D
:105468008FFC03A88DF80C408DF8104002F05AFF0D
:1054780001A901208DF8044002F034FF0C4A536A58
:1054880023F4FF6323F00703536240F2FF731362B0
:105498000120946002F040FF064B4FF00052C3F821
:1054A80080211A6006B010BDC02F0300A0091400A7
:1054B8000020044000E100E0014B9868704700BFFD
:1054C80000200440114A9368516D9269520704D430
:1054D800CA1A022A01D899420DD1C21A012A98BFC4
:1054E800981C0A4BB0F1FF3F28BF013058655A6A33
:1054F80042F004025A62064A137833B103490B6D2D
:1055080043F002030B65002313707047002004402A
:10551800A83A00208207054A00F00103516A48BFF3
:1055280043F004030B435362704700BF002004405C
:10553800830700F0010209D5074B012119700749BB
:105548000B6D23F0030342F004020B6503494B6A19
:1055580023EA02034B627047A83A00200020044067
:10556800064B01289B6904D0022805D1C3F38000AB
:10557800704703F001007047002070470020044086
:1055880010B501F09EFF094A93690446590703F0D4
:10559800010003F0070348BF40F002001362FFF761
:1055A800BDFE2046BDE8104001F091BF0020044038
:1055B800014801F01BBD00BFA0091400044B1B6883
:1055C80000EB8000A3EBE00080F30800704700BF09
:1055D800A8420020174B402870B59C6824DD50284D
:1055E800B4BF012302231449144A154DDE00314487
:1055F80003C982E80300134A324492E80300012CED
:1056080085E8030003D10B4A4AF6E8519160012B63
:105618000CD0022B0CD0002002F044FB012C02D14C
:10562800044B00229A6070BD0023DCE70120F3E7F9
:105638000220F1E700300E40B0420020F042002086
:1056480020430020C8420020FFF7C4BF044B4FF09E
:105658004042DA621A6B22F040421A63704700BF78
:1056680000300E402C48F0B5002203682B4D11463F
:1056780054592CB11E68AC18002E36D1234601218E
:105688000832302AF4D101B103602549254E0B6850
:105698000022144695592DB11F68B518002F2BD13B
:1056A8002B4601240832302AF4D104B10B6000687B
:1056B8001D4B026842B3DA69007922F0FF02024307
:1056C800DA611A6B42F0804209681A630A68164B5D
:1056D800F2B1DA69097922F47F4242EA0122DA61F9
:1056E8001A6B42F000421A63F0BD1E792779B7425F
:1056F80084BF23460121C3E71F7995F804C0BC4540
:105708003CBF2B460124CDE71A6B22F08042DBE731
:105718001A6B22F00042E6E7E0420020F042002047
:10572800E44200202043002000300E4008490B6A64
:105738000A6ADBB2D2B29342F9D1064A0520DB00ED
:10574800B3FBF0F31068C31A03F3070040B27047C5
:1057580000300E40AC42002070B5144C226B616AD8
:105768000A4011D5124B1B681E6836B100251D6012
:105778005D60FFF7DBFF2946B0474FF00043E36267
:10578800BDE87040FFF76EBF5300F9D5094B1B68A1
:105798001C6834B100221A605A60FFF7C7FF012164
:1057A800A047024B4FF08042DA62E9E700300E4032
:1057B800E4420020E0420020FFF7CEBF2D4B37B572
:1057C80001221A70002130222B482DF0BEFB302216
:1057D80000212A482DF0B9FB294A2A4B13602A498F
:1057E8002A4A13600A684B6DC2F30742FF2A02D0A7
:1057F800DBB2FF2B01D19023192202EB820124484E
:1058080003EBD1010160DB000521B3FBF1F3134485
:10581800204A01A8136002F0B9FD9DF80530012B5C
:105828001BD14120FFF7CAFE1B4C1C4920713920AF
:105838002160FFF7C3FE05465020FFF7BFFE184A58
:105848002073157391604820A160FFF7B7FE1075AB
:105858001161FFF76BFFFFF7BDFEFFF7F7FE114B76
:105868000122C3F880211A60FFF7FCFE002003B074
:1058780030BD00BFA4420020F04200202043002099
:10588800E0420020E8420020B081E00FE44200201E
:10589800A8420020AC420020B0420020515600002F
:1058A800C842002000E100E038B141B1013AB2F548
:1058B800006F044838BF002070470348704701480C
:1058C800704700BF037000F0027000F038B504465E
:1058D8000D4601F0F6FDA28892B222B92A6001F0C5
:1058E800F6FD064838BD6388142202FB03430833DB
:1058F8002B6001F0ECFD0020F4E700BF0B7000F016
:1059080038B504460D4601F0DCFDA3889BB223B9E7
:105918002B6001F0DCFD0C4838BD6388E188142257
:1059280002FB034308332B6063885A1C92FBF1F394
:1059380001FB13239BB26380A388013B9BB2A38026
:1059480001F0C5FD0020E7E70B7000F0034610B535
:1059580093F832300068012B0AD102F04BFB044661
:10596800FFF75AFC24235843B0FBF4F0013010BD74
:1059780002F010FEF3E70000427E30235343044A4E
:105988001A44437F03EBC2039B001868C0B27047F8
:105998001CA0104213B51D4A002352F82340617F12
:1059A80081420ED00133042BF7D102B010BD00287C
:1059B800FBD19DF80730002BF7D06068FFF7F8F8A7
:1059C800F3E794F83130022BEFD12046FFF7D4FFEC
:1059D800637D2075022BE8D194F82E3003F0FF0286
:1059E800002BE2D102A9606801F8012DFFF740F908
:1059F800237D1BB194F82F30002BD8D0002384F8D6
:105A08002F306068FFF7F4F8CFE700BF504300205D
:105A180090F8323053B903680122DA601A69D00766
:105A2800FCD55A6F42F001025A677047012B0CD11E
:105A380003685A6C9107FCD401225A609A68D2070D
:105A4800FCD55A6D42F001025A65704790F8323021
:105A58003BB903685A6F22F001025A670222DA60E2
:105A68007047012B09D103685A6C9207FCD45A6D10
:105A780022F001025A6502225A6070470F49104B02
:105A88000A782AB9C3E90022C3E9022201220A706E
:105A9800002253F82210814208D00132042AF8D19A
:105AA800002153F821201AB943F82100002070473B
:105AB80001310429F5D10348704700BF6043002035
:105AC80050430020027000F010B50446FFF706F8B6
:105AD8000021201DFEF790FF014608B1044810BDC3
:105AE80004F10800FEF788FF0028F8D0F6E700BFA9
:105AF8000E7000F0F8B5044617460D4601F0E1FCBB
:105B0800A388E2889A42064605D800233B6001F044
:105B1800DEFC1648F8BD2388142202FB0343083331
:105B280005F1100C2A4603CA6245186059601546EB
:105B380003F10803F6D1106818602388E18814225D
:105B480002FB034308333B6023885A1C92FBF1F3A2
:105B580001FB13239BB22380A38801339BB23046F9
:105B6800A38001F0B4FC0020D4E700BF0A7000F065
:105B780038B5044601F0A5FC616B0139054661633F
:105B880019B9044A012005F039FD2846BDE8384016
:105B980001F09DBCFC2F030037B591F832200B684B
:105BA800012A0BBF9C681C69C4F3C004C4F34014E9
:105BB8000D46084634B1FFF7DBFF022385F838307D
:105BC80003B030BDFFF7C2FECDE9004401462B46C5
:105BD800024A0348FFF768FAF2E700BFA15B00003A
:105BE8006C4E002038B5044601F06BFC636B05462B
:105BF80023B90121054A084605F000FD636B01330E
:105C080063632846BDE8384001F061BCFC2F0300FF
:105C18007FB5012380F82C3090F8323093B90C4AC4
:105C2800036803920022049002924A6801920122BA
:105C380000920A68016980681C33FEF79FFF07B06D
:105C48005DF804FB012BEAD0002380F82C30F6E73E
:105C5800DD630000F0B5012380F82D3090F8323074
:105C680089B004460F465BBB0568343501F029FC52
:105C78000DF11F0106461948FFF7FAF940B99DF8DA
:105C88001F302BB11548FFF7B1F92046FFF770FF19
:105C98003046012601F01BFC204684F83860FFF7E7
:105CA800A1FF0F4B03930023049402937B68E168E0
:105CB8006068CDE900632A463B68FEF745FF0BE0C4
:105CC800012B06D105682B6843F4005345F8283B9F
:105CD800CCE7002380F82D3009B0F0BD6C4E0020D1
:105CE800ED5C0000F0B585B003A9906A1446FFF793
:105CF800EDFD06462046FFF729FE0025234601460E
:105D0800CDE900551A4A1B48FFF7CEF91A4B9E42B7
:105D18001FD0039B1D619D6001F0D3FB039AD768D8
:105D2800064627B1D2E9002329462046B84703A9E9
:105D3800A06AFFF7E5FDA06A83889BB263B103A957
:105D4800FFF7C4FD03992046FFF784FF304601F0B2
:105D5800BEFB012005B0F0BD84F82D3094F8323038
:105D6800012B01BF2268136823F400531360EDE789
:105D7800A15B00006C4E00200B7000F073B5044668
:105D88000D46C07DE67E002934D001230422314629
:105D980002F006F801230222217F207E02F000F89B
:105DA80094F83130022B16D100230122617F607EE6
:105DB80001F0F6FF00230422A07EA17F01F0F0FF8E
:105DC8000123627F607E01930093114601F09CFFDE
:105DD800002002B070BD032BFAD100230122617F9D
:105DE800607E01F0DDFF00230422A17FA07E01F088
:105DF800D7FFEDE70B460A46314601F0D1FF2B46A7
:105E08002A46217F207E01F0CBFF94F83130022B07
:105E180010D12B462A46617F607E01F0C1FF2B46D8
:105E28002A46A07EA17F01F0BBFF627F607E0195BC
:105E38000123C9E7032BCBD12B462A46617F607E1D
:105E480001F0AEFF2B462A46CFE790F8323013B95F
:105E5800036818697047012B1CD103689B6803F01D
:105E68000200DA0748BF40F00100590748BF40F078
:105E780008001A0748BF40F02000D90648BF40F084
:105E880040009A0648BF40F080005B0603D540F406
:105E980000507047002070472DE9F3410D46044635
:105EA800002879D001F00DFB012D06463BD1A36AED
:105EB8009B889BB2002B3DD06068FEF7B9FE00239B
:105EC800A06A84F82D3083889BB273B101A9FFF7CB
:105ED800FDFC01996068364F0831FEF7F1FE019B21
:105EE8001F61A06A83889BB253BB2046FFF7ADFFB2
:105EF8008304FAD5023D012D10D8A068FEF798FE5C
:105F08000023606A84F82C3083889BB23BBB94F8EA
:105F18003130032B02D02046FFF798FD304601F0C0
:105F2800D6FA002009E0022D38D1636A9B889BB21B
:105F3800002BDFD101F0CBFA1E4802B0BDE8F0819A
:105F480001A9FFF7DDFC019BD3F80C80B8F1000F25
:105F5800C7D09B68002239462046C047C1E769463A
:105F6800FFF7B4FC0099A068114F0831FEF7A8FEAE
:105F7800009B1F61606A83889BB2002BC7D069466B
:105F8800FFF7BEFC009BDD68002DF3D09B68002264
:105F980039462046A847EDE70748CEE7032DA9D1A3
:105FA800A36A9B889BB2002B86D1636A80E700BFF7
:105FB800097000F0087000F0027000F0436A9888D9
:105FC800C0B270472DE9F3410546406A8488984677
:105FD800A4B200230E461746CDE900333CB169460A
:105FE800FFF774FC01A90446A868FEF769FE00994A
:105FF80071B16CB94868019BC01A3860C8F80030A4
:106008000B6833602846FFF720FF02B0BDE8F08137
:106018000021C8F8001039603160F3E7836A988876
:10602800C0B270472DE9F3410546806A84889846D6
:10603800A4B200230E461746CDE900333CB16946A9
:10604800FFF744FC01A904466868FEF739FE009989
:1060580071B16CB94868019BC01A3860C8F8003043
:106068000B6833602846FFF7F0FE02B0BDE8F08108
:106078000021C8F8001039603160F3E7007D7047EF
:106088002DE9F04104460E461746FFF70DFC804601
:1060980050BB082001F03AFA0546A26A93889BB2E1
:1060A80013B194F82E3013B394F8322022BB23682E
:1060B8001D6915F0020533D0012384F83030002A19
:1060C8003FD13744BE42206836D103699E06FCD5CD
:1060D80055B994F83230002B42D123685A6F22F018
:1060E80002025A670822DA604046BDE8F081002DB6
:1060F800D4D0FEF707FED0E7012A1BD123689D689C
:1061080015F00205D8D1596C8807FCD404215960D0
:1061180099688907FCD5596D41F002015965CBE7AB
:106128000421D96019698907FCD5596F41F002012A
:106138005967C1E70025BFE716F8011B02F0A4FA6A
:10614800C0E7012AD0D13744B742206803D1836819
:106158001907FCD5BCE716F8011B01F07FFFF3E730
:10616800012BC1D123685A6C9207FCD45A6D22F0D6
:1061780002025A6508225A60B6E7000010B50446C4
:10618800B0B190F82E3033B990F83130022B0AD0E4
:106198006068FEF70DFD94F82E300133DBB284F809
:1061A8002E30002010BDFFF7E7FB0028F3D1EFE702
:1061B8000048F7E7027000F010B50446D0B190F837
:1061C8002E30CBB190F82E30012B06D190F831301B
:1061D800022B0AD06068FEF70BFD94F82E30013BC5
:1061E800DBB284F82E30002010BDFFF7C5FB002875
:1061F800F3D1EFE70148F7E70148F5E7027000F04F
:10620800057000F037B590F83150022D044618D1CA
:10621800A37F407D01229A40A37E30215943134B2E
:106228000B4410B903F1806303E0012805D103F1A1
:10623800C0631A60002003B030BD217D0029F6D16B
:10624800F0E7012DF6D1037D73B911238DF80730DE
:10625800FFF794FF2A460DF107012046FFF710FFCC
:106268002046FFF7A9FFE5E71323EFE70CA000405E
:1062780090F83130032B05D00229417518BF0175FC
:10628800FFF7C0BF00487047057000F037B50446F7
:10629800002868D0354B1B7843B1354A002352F8A3
:1062A80023108C424FD1002142F8231003212046AD
:1062B800FFF7F2FD00212046FFF7DAFF0021204614
:1062C800FFF75CFD94F83230002B40D123680A2296
:1062D800DA600021206A00F053FD94F83130032B76
:1062E80003D00021607FFEF769FD6068FEF7D0FBF0
:1062F800A068FEF7CDFBFEF7ABFB626A00231380B4
:1063080053809380A26A13805380938001F0D9F858
:106318000DF1070105461748FEF7AAFE28B99DF8B2
:10632800073013B11348FEF761FE284601F0CFF895
:10633800636B002B04DD012363632046FFF718FC21
:10634800002003B030BD0133042BA8D1AEE7012BE8
:10635800BFD1206801F06EFE23685A6C9207FCD406
:106368000A225A60B5E70448EBE700BF6043002003
:10637800504300206C4E0020027000F0F0B587B04A
:1063880004461646FFF790FA0546F0B9CDE901161E
:1063980004936A460E4B606A039601A90593FFF7BA
:1063A800A9FB054688B994F82C3073B92046FFF745
:1063B8002FFB00992046FFF72BFC94F83130032B74
:1063C80003D025752046FFF71DFF284607B0F0BD0E
:1063D800017000F073B5506A01A91446FFF776FA08
:1063E800334B98422FD094F83200019B002836D1C5
:1063F8002268116C11F4007128D02E491961986037
:106408004FF40073936401F05CF80199CD68064677
:1064180035B14A688B682046D31A0A680969A847C3
:1064280001A9606AFFF76CFA606A8588ADB2002D31
:106438002FD001A9FFF74AFA01992046FFF7E8FB98
:10644800304601F044F8012002B070BD106CC5055B
:106458001BD51948186199604FF48073D2E7012859
:1064680013D12268D16A11F0800106D0114919614F
:106478000021996080235363C5E7D06A400604D59C
:106488000D48186199604023F5E700221A619A6067
:10649800B9E7012323752046FFF7B4FE94F831309D
:1064A80084F82C50032BCBD02046FFF7CFFAC7E750
:1064B8000B7000F00D7000F00C7000F02DE9F04149
:1064C800094F04460D460FCF88B001AE0FC697E8B6
:1064D800070086E80700002C00F0388245B9034E13
:1064E800304608B0BDE8F081E02F0300037000F0EB
:1064F8003C22002120462CF028FD2046FFF7BEFA5A
:1065080006460028ECD12B7C84F8313001222B6818
:1065180084F83820C64A2360934284F8320040F059
:106528007B81C44B2362C44BE3604FF44023236157
:10653800D5E906230026626216805680968084F884
:106548002C60A3621E805E809E806B6803936B89BB
:10655800ADF81430AB89ADF81230AB7B8DF8103044
:106568000121EB7BB54884F82D6084F82F6005275E
:106578008DF816308DF8117000F002FC0121B0483A
:1065880000F0FEFB0121206A00F0FAFB01A928684F
:106598008DF8046002F03AF828686A7A816F2B7ADD
:1065A800DFF88CC221F4F85121F01F01114341EAB0
:1065B80003218167032141672068604540F04881D5
:1065C800BB4216D9981F042840F25E81A3F10B0044
:1065D800B84240F25B81A3F11100062840F25881CD
:1065E800A3F11801062940F255811F2B14BFFF267D
:1065F8003E46042AE67540F24F81511F042940F2B5
:106608004D81A2F10A01052940F24A81A2F1100147
:10661800062940F24781A2F11701072940F2448177
:106628001F2A14BFFF2100212176002B58D0012BEF
:1066380056D0022B54D0032B52D0042B50D0052B0C
:106648004ED0062B00F03A81072B00F03981082B39
:1066580000F03881092B00F037810A2B00F03681D1
:106668000B2B00F041810C2B00F020810D2B00F04A
:106678001F810E2B00F01E810F2B00F01D81102BA7
:1066880000F01C81112B00F01581122B00F01481F1
:10669800132B00F01381142B00F01281152B00F03E
:1066A8001181162B00F01081172B00F00F81182B89
:1066B80000F00E81192B00F00D811A2B00F00C81CF
:1066C8001B2B00F00B811C2B00F00A811D2B00F006
:1066D80009811E2B00F008811F2B0CBF0723FF2305
:1066E800E376002A00F01481012A00F01381022ABF
:1066F80000F01281032A00F01181042A00F01081B1
:10670800052A00F0F980062A00F0F880072A00F030
:10671800F780082A00F0F680092A00F0F5800A2A96
:1067280000F000810B2A00F0FF800C2A00F0DE80C8
:106738000D2A00F0DD800E2A00F0DC800F2A00F020
:10674800DB80102A00F0D480112A00F0D380122AAE
:1067580000F0D280132A00F0D180142A00F0D080F3
:10676800152A00F0CF80162A00F0CE80172A00F0F4
:10677800CD80182A00F0CC80192A00F0CB801A2A84
:1067880000F0CA801B2A00F0C9801C2A00F0C880CB
:106798001D2A00F0C7801E2A00F0C6801F2A14BFD9
:1067A800FF23002323776B7C6376AB7C6377EB7CDA
:1067B800A3762B7DA37701212046FFF7DFFA064653
:1067C80000287FF48DAE00F07CFE2F7C032F8046DE
:1067D80040F0AC802B682A8CDA675A6E42F00402CB
:1067E8005A665A6F42F030025A6728684FF0FF33F2
:1067F80083642B7C032B0CBF0521042101F0DCFEF4
:106808002B684FF44062DA602046FFF75DF90646D0
:10681800404600F05CFE63E60A4A93427FF45FAEAE
:10682800094B2362094BE3604FF450237FE600BF16
:10683800000001400022040001000C004041050056
:1068480000250A00000401400032040001000D0088
:10685800DFF804C160457FF442AE052B7FF6C9AE70
:10686800981F042810D9A3F10B0005280ED9A3F10D
:10687800110006280CD9A3F1180106290AD91F2BE3
:1068880014BFFF260526B4E60126B2E60226B0E6C6
:106898000E46AEE63E46ACE60021C5E60121C3E65B
:1068A8000221C1E60321BFE60521BDE6072317E75C
:1068B800082315E7092313E70A2311E70B230FE73A
:1068C8000C230DE70D230BE70E2309E70F2307E73A
:1068D800002305E7012303E7022301E70323FFE67B
:1068E8000423FDE60523FBE60623F9E6082359E71A
:1068F800092357E70A2355E70B2353E70C2351E7EE
:106908000D234FE70E234DE70F234BE7002349E7FD
:10691800012347E7022345E7032343E7042341E72D
:1069280005233FE706233DE707233BE7022F7FF4D4
:106938005CAF607F0649FEF741FAFEF731FAA675AB
:10694800267567752046FFF75DFC4EE7014EC7E5E3
:106958009D590000027000F00004014090F83120B9
:10696800012A10B5034610D102290ED0827D8A4231
:1069780001D1002010BD997511B9FFF71DFCF8E78A
:106988000129F6D1FFF7FAFBF3E70148F2E700BF68
:10699800057000F0F0B587B004461646FEF784FF90
:1069A800054600BBCDE9011604936A460F4BA06A61
:1069B800039601A90593FFF79DF8054698B994F841
:1069C8002D3083B900F07DFDA36A9B889BB20646F3
:1069D80033B100992046FFF73DF9012384F83030A0
:1069E800304600F074FD284607B0F0BD017000F095
:1069F80070B588B00D220021294C2A4E04A82CF02D
:106A0800A4FA00250223012127488DF81010CDE9AA
:106A1800015503958DF80A3000F0B2F9294601AA0C
:106A2800204601F020FD4FF6FF73E3618DF8125008
:106A3800354604A9204601F0C3FC1C4800F0D6FAEC
:106A48009DF81230D8400133DBB20A2B30608DF844
:106A5800123002D8164B9842EBD81648164C00F064
:106A6800C5FA1649B1FBF0F12868154A0025E1FB83
:106A780000450023204629462CF07CF8114B084A93
:106A88001860114B00201870936923F0100393616C
:106A98000E4B4FF48062C3F880211A6008B070BDB5
:106AA80000800140644300200002040040410500CA
:106AB80080841E007000020020A1070000B0710B46
:106AC80040420F00684300206C43002000E100E0D2
:106AD800044BDA68D20604D510225A61024B01220F
:106AE8001A707047008001406C4300202D4B002A2B
:106AF80070B52D4D446B08BF1D462C4B14BF102696
:106B0800002698423AD102293FD004D8B9B10129C8
:106B180021D000232DE0062931D0812935D0032941
:106B2800F7D1234B1A6819681B68120C1B0C03F069
:106B3800F00302F4FE421A43C1F3034318E01D496F
:106B48000B680A6803F4FE4302F00F021A430B684D
:106B580003F0F0030CE0174A1368116812681B0C65
:106B6800120C02F0F00203F4FE431343C1F3034294
:106B78001343B3402C400D4A2343536370BD0E4B5F
:106B88001A681B6802F00F02E2E7094A13681168E5
:106B9800126803F4FE4301F00F010B4302F0F00208
:106BA800E6E700BF0080FFFFFFFF008000200040F5
:106BB8001482E00F1082E00F1882E00F38B50C46FF
:106BC80002238360002289780546FFF78FFF227928
:106BD80060786179130243EA006343EA0143E1788C
:106BE80043EAC103E17909B143F00053217A09B1BD
:106BF80043F00403A17909B143F00203617A09B1B2
:106C080043F00103F32AA17806D129B903289CBFD0
:106C180023F0706343F0806348B20028ACBF43EAB6
:106C2800411343F0E0032B616B69002823F4F2134E
:106C380023F00703BCBF21F080010B43217843EA0E
:106C48004143E17A09B143F480436B616B0103F17D
:106C58008443A17A99606B0103F1844303F5C86307
:106C6800F32A0CBF012200221A60EB6FD5F880309E
:106C7800EB6838BD0C4B984210D90C4B984210D990
:106C8800022201230A490B600A49D1F8003123F096
:106C9800807343EA0263C1F800317047002213464B
:106CA800F0E70122FBE700BF0048E8010090D003AD
:106CB8004000C84300400E400A490B4B88425A68BE
:106CC8000BD90A4988420AD902F040715A6822F061
:106CD800407242EA01625A6070470021F6E70121DA
:106CE800F4E700BF40787D0100000E40005A6202C0
:106CF80038B5064C41F67133256C236401F03AFD32
:106D0800FFF7DAFF0DB10023236438BD00000E4001
:106D1800044BD3F84421D20703D4D3F840211042BE
:106D2800FBD1704700400E400C4AD2F89030516AAF
:106D38000B4B21F0300141F0100110B55162146B7A
:106D4800C0F3C31103310F2903EA040328BF0F213D
:106D5800034343EA0173136310BD00BF00400E40B4
:106D680000F8FF0F38B5054C41F67133256C2364E4
:106D7800FFF7A2FF0DB10023236438BD00000E40C9
:106D8800C0F30322013A38B50546092A13D8DFE8CB
:106D980002F023131212051619121C20104C0020A1
:106DA800C5F3043508B1FFF7B3FF04F1047405EB2C
:106DB800C404A400216038BD00200A4CF0E701207B
:106DC800094CEDE71020094CEAE74FF48030084CF5
:106DD800E6E70020074CE3E70020074CE0E700BFA8
:106DE800B0400E40C0400E40E0400E40E8400E402B
:106DF800F0400E4050410E4000400E40C0F30313D7
:106E0800013B092B3FD8DFE803F0050B0F193E3E85
:106E18001F232C351D4BD3F80001C0F30420704705
:106E28001A4BD3F81401F8E7184BD3F80001C0F354
:106E38000060431C0120984001387047134BD3F879
:106E48000C01C0F308207047104BD3F80801F8E78D
:106E58000F4B984217D10D4BD3F8203103F00F0395
:106E6800E8E70C4B98420ED1084BD3F8283103F0D1
:106E78000303DFE7084B984205D1044BD3F83001F0
:106E880000F00F0070470020704700BF00400E4020
:106E98008006160090071A00A009140008B5FFF72D
:106EA800ADFF013008BD000000F00F0001380728D1
:106EB80048D8DFE800F0040F1947232D4735244B45
:106EC800D3F8943003F00703023B022B3CD8214A45
:106ED800D05C70471E4BD3F8803003F00703013BAA
:106EE800032B33D81C4AF3E7194BD3F8843003F04B
:106EF8000703013B032B29D8184AE9E7144BD3F8B9
:106F0800883003F00703013B032B1FD8144ADFE73F
:106F18000F4B1B6F13F0010F14BF09200720704798
:106F28000B4BD3F85C3103F03003202B06D0302B09
:106F380006D0102B0CBF0720012070470420704793
:106F480008207047002070470520704701207047CF
:106F580000400E4004300300073003000B300300EC
:106F68000730030008B50146FFF79EFF1B4B994207
:106F780011D01B4B994212D01A4B994204D11A4B8B
:106F8800D3F8800000F007000138032824D8DFE890
:106F980000F00A0E1612144BD3F88400F2E7124BD5
:106FA800D3F88800EEE7BDE8084001F059BCBDE819
:106FB800084001F05BBCBDE8084001F054BC01F09A
:106FC800DDFB094BD3F80031C3F300635A1C0123DE
:106FD8009340B0FBF3F008BD0020FCE7030020005D
:106FE8000500240002001E0000400E4000F4781343
:106FF800B3F5A01F10B5044659D01FD8B3F5202FFC
:1070080007D00AD8B3F5003F46D0B3F5802F38D063
:10701800ABBBBDE8104001F0B1BBB3F5602F5DD04C
:10702800B3F5801F6FD0B3F5402F28D101F0A6FB30
:10703800404BD3F81431C3F3042329E0B3F5001F00
:107048003FD013D8B3F5D01F3DD0B3F5F01F29D0EA
:10705800B3F5B01F13D13848FFF784FF354BD3F889
:10706800202102F00F020123934012E0B3F5481FDC
:107078003CD0B3F5781F53D0B3F5101F2CD00020A7
:1070880010BD01F07BFB2B4BD3F80C31C3F3082365
:107098000133B0FBF3F0F3E701F070FB254BD3F8B5
:1070A8000831F3E72448BDE81040FFF75BBF2348E9
:1070B800FFF758FF1F4BD3F8303103F00F03D840C8
:1070C800DEE71F48EFE71E48FFF74CFF194BD3F8E0
:1070D800282102F00302C6E71848E4E71948FFF739
:1070E800E3FE07280FD00928C9D192E71648FFF711
:1070F800DBFE072807D0082808D00428BFD1BDE840
:10710800104001F071BB114B1868B9E701F036FB6C
:10711800084BD3F80031C3F3042303FB0000AFE7A7
:1071280001F02CFB01462046FFF7B8FEB1FBF0F05A
:10713800A6E700BF00400E4002001E000500240024
:107148000300200006000E00B8003200AC3A002010
:107158000E4B5A6A12F0300F04D0202913D0302970
:1071680000D011B94FF4400200E0094AD3F890105A
:1071780032EA0101FAD1520246BFD3F8A000C0F3A7
:107188008020012070474FF40002EFE700400E40D6
:10719800FF03E10702280AD129B1064B4FF48060AA
:1071A800C3F8A800596612B10220FFF7D1BF012029
:1071B800704700BF00400E40F8B504284ED8DFE8FD
:1071C80000F00A03116D720080264024062307256B
:1071D80000294FD046E04FF400764FF4807408231E
:1071E8000925F5E7002942D0314C636A13F0300FC6
:1071F80035D1636ADB0705D5636A23F0300343F0B2
:1072080010036362042402230325294E3466294EA1
:1072180033449B001F68002FFCD0FAB13544AD0001
:107228002B68002BFCD0022818D1B9B1204E716A06
:1072380011F0010118D001222021FFF7ABFFD6F889
:107248009C70012200210220FFF7B6FFC7F30A0055
:10725800FFF76AFD34662B68002BFCD0F8BD0424C8
:10726800022303250021D0E7FFF772FFE7E708268E
:10727800022303250E4901200E6600FA03F3D1F814
:1072880090001842FBD1002AE8D00123084A03FAEB
:1072980005F5D2F890302B42FBD1DFE70124022616
:1072A8000023254694E720261024042305258FE78C
:1072B80000400E408004F21000F00F00013810B5B5
:1072C800072843D8DFE800F00F043E423C5C4267E1
:1072D8004A4C0139092939D8DFE801F050394038DA
:1072E800384738383836023903292FD8DFE801F013
:1072F8002502191F0120032401221146FFF75CFF14
:10730800FFF7F6FC3E4B5C6701F05CFA044601F0BF
:1073180035FAFFF7AFFC20460021BDE81040FFF723
:1073280021BD3848FFF7A6FC02200446E4E73548AB
:10733800FFF7A0FC01240320DEE700200424DBE79C
:10734800314CC6E7314CC4E70423236010BD012249
:1073580011460020FFF730FF0223F6E7012211460D
:107368001046FFF729FF0123EFE701F007FAFFF7BF
:1073780081FC274B01221A600323E6E70023E4E798
:10738800072904D00929E1D11D4B012201E01C4B3A
:1073980000221A67DAE701390729D7D801A353F879
:1073A80021F000BFFF730000557300005573000003
:1073B800F17300005573000055730000E37300007B
:1073C800CD73000003220E49D1F85C3123F030035D
:1073D80043EA0213C1F85C31B8E7012211460420E0
:1073E800FFF7EAFE0122EEE7012211460220FFF72D
:1073F800E3FE0222E7E70022E5E700BF80400E40F7
:1074080000400E400148E80188400E4084400E408C
:107418000016C84310B504461120FFF745FD0122A8
:1074280000210220FFF7C8FE1A4A217C536A23F084
:107438000103022908BF43F001035362164B217868
:107448001960936AE17A23F007030B439362A188DA
:10745800637A43EAC123D362136BA07A217A03F0DB
:107468007F630343E08843EAC02343EAC11303313F
:107478000F2928BF0F2143EA01731363A37B617BA4
:107488001B0143EA0133E17B0B43217B43EA0143C0
:10749800536310BD00400E40A004C84372B6704745
:1074A80062B67047EFF3108072B6704700B962B6E3
:1074B8007047602383F311887047002383F3118892
:1074C8007047EFF31180602383F31188704780F3CE
:1074D80011887047EFF31083DB0706D4EFF31180B0
:1074E8005F2894BF002001207047012070470000EA
:1074F8004109054A00F01F0352F82100D840C04353
:1075080000F00100704700BF00E100E010B504463C
:10751800EFF31083DB0733D4FFF7EAFF00282ED1FF
:10752800002CA7BF04F1604404F5614404F00F0483
:10753800144BACBF94F800231A5D5209EFF3118382
:1075480013B1B2EB531F1BD20F4C6368C3F308038C
:10755800ABB1103BDBB259B20029B5BF03F00F0342
:1075680001F16043043B03F56143B6BF1B1993F86F
:107578000003187E4009824234BF0020012010BD5C
:107588000120FCE714ED00E000ED00E01848194B7D
:10759800C26C1B88C2F303222833013202EB82013A
:1075A80003EB5303B3FBF1F3C16C013B072B21F051
:1075B800EE6128BF072341F4801141EA0363C364E5
:1075C8000D4BB3F90030002B10DB2833510801EBC9
:1075D800420203EB5303B3FBF2F3026D072B28BF00
:1075E800072322F0700242EA03130365704700BFC5
:1075F80000300E407643002078430020084B1A786C
:10760800013A012A0BD8074A126C02F00302012A38
:1076180003D105490A68D203FCD503221A707047C2
:107628008043002000300E407C300E40054A064B57
:10763800D16C1960D36C23F47F4343F4EE43D364D5
:10764800FFF7A4BF00300E407C43002008B5054B6F
:10765800D3F89020044B11201A60FFF725FC034B48
:10766800187008BD00400E40704300208143002080
:10767800114A38B545F60E03104CD2F88051C2F8BD
:107688008031216821F0AA01C905C90D11660C4A8B
:107698001178052902D01120FFF70EFE2368DA07BA
:1076A8005EBF054B02221A66EB0742BF024B00225F
:1076B800C3F8802138BD00BF00400E407043002051
:1076C800814300207047000010B5044608B1FFF759
:1076D800BDFF0E4A136943F004031361FFF7A6FFC9
:1076E800FFF78CFFFFF7EEFF30BF04F0DBF8084B25
:1076F8001A68084BDA64FFF749FF1CB1BDE810406F
:10770800FFF7B6BFBDE8104001F05CB800ED00E03F
:107718007C43002000300E4010B5044608B1FFF746
:1077280095FF164BD3F8802145F60E01D20748BFC6
:107738000022C3F880114FF42071196648BFC3F8BE
:1077480080210F4A136943F004031361FFF76EFFAA
:10775800FFF754FFFFF7B6FF30BF04F0A3F8094B5B
:107768001A68094BDA64FFF711FF1CB1BDE8104035
:10777800FFF77EBFBDE8104001F024B800400E407E
:1077880000ED00E07C43002000300E40FFF75EBFB4
:10779800FFF76EBF704700000378002B437870B581
:1077A8000E4C14BF04260026002B8378A16914BF51
:1077B80002250025002B037921F03F0143EA01034C
:1077C800C17814BF08220022012908BF43F0010331
:1077D80033432B431343A36170BD00BF00300E40F9
:1077E800194B4AF6E85210B55C6B5A639A6FD20788
:1077F800FCD41B6C13F003031EBF144A0121116053
:10780800834203D108B9114B186010BD23B9012870
:1078180002BF0F4B02221A700B4A1146936FDB0707
:10782800FCD4136C23F00303034313648B6F13F02E
:107838000103FBD10030054A18BF0120012C10605C
:1078480008BF4B63E1E700BF00300E40B40AC643EF
:107858008043002070B51D4D4AF6E852AC69AE6908
:10786800AA60A86924F4403410F0010044F40034FC
:1078780046F4403607D12B6C03F00303013B012B80
:1078880001D8FFF7ADFFAB69DB070FD572B6104B18
:107898004AF6E8521A600F4A136843F080031360EF
:1078A800A2F58872136843F480731360FFF7BEFE75
:1078B800FFF7A4FE054B9C619E619C619E619C61E3
:1078C8009E619C619E619C6170BD00BF00300E404E
:1078D80090310E4098310E40A0F5E163B3F5966FF4
:1078E8002DE9F04703D900210846BDE8F0875F4C31
:1078F8005F4BD4F86851DB6CB0F5E16F1FBF4FEAFE
:10790800156AC5F307484FF496694FF4E16701BF5C
:10791800C5F3072A5FFA85F84FF416794FF496678E
:10792800B0F5E166C3F3017C18BF012646EA0C2EC8
:1079380040F201139E455BD0BEF5817F09D2BEF1AE
:10794800010F1BD05DD3BEF5807F5DD000252B468F
:1079580019E040F201239E4550D005D8BEF5007FBE
:10796800F4D1D4F870310BE0BEF5407F4FD040F22F
:1079780001339E45EAD1D4F878313BE0D4F874312C
:10798800C3F30725DBB2C71BAAEB080E07FB0EFEE5
:10799800BEFBF9FEC644D645A5D8A5EB030807FBF0
:1079A80008F7B7FBF9F73B44AB424FF000079AD80A
:1079B80082B1DFF8BC80D8F85C5025F4FE4525F08C
:1079C8000205B0F5E16F45EA0E2518BF02273D43D1
:1079D800C8F85C50002946D0226DD2B2032A19D8C3
:1079E800B0F5E16FD4F87C211FD0C2F307221DE067
:1079F800D4F874311D0EC3F30743C4E7D4F87831C3
:107A0800BEE7D4F86C31BBE7D4F86C31F2E7D4F8B0
:107A18007031EFE7BCF1020FD4F880211ED0BCF121
:107A2800030F1ED0BCF1010FDFD0D2B2120312F443
:107A3800702F7FF458AF0E4CE06E20F47040024374
:107A4800E266626E22F4FF72E72B22F0010228BF81
:107A5800E723324342EA4303636645E7C2F307423A
:107A6800E4E7120EE2E701213EE700BFB081E00F34
:107A780000300E40194B1A6FD96CC90702F0070283
:107A880014D5012A12D9132823D9143813288CBFE6
:107A9800102308231148013BC26C190322F47F42CA
:107AA80041EA03231343C364FFF770BDDB6CD907B6
:107AB80006D4012A04D809280BD90A380928E6E788
:107AC800064BDB6C13F00103E4D0012A03D8272806
:107AD800DDE70423DEE70023DCE700BF00300E40CB
:107AE800054A064B1B68136F23F007031843044B22
:107AF80010671888FFF7BEBF00300E408009C643E4
:107B080074430020544B022273B59A639B6B03F0B5
:107B18000F039342054603D00024204602B070BDEF
:107B28004E4BD3F86C3101331DD04D4B1A68043BD2
:107B38001B681A604B4B1A68043B1B681A604A4B57
:107B48001A68043B1B681A60484B1A68043B1B6898
:107B58001A60474B1A68043B1B681A60454B1A6841
:107B6800043B1B681A60E988A888B5F90C604A29A3
:107B780065D9B1F5FA7F64D340F6C313994294BF2F
:107B88004FF000514FF04051334CE36C23F0405319
:107B980023F00103002EA8BF43F001030B43E36465
:107BA800354B1880E36E43F08073E366334B1868F7
:107BB80000B10420FFF794FF236E23F0C04323662F
:107BC800E36C43F0060301A8E36400F0DFFB9DF8D3
:107BD8000500012812D19DF80430022B0ED828493F
:107BE8000B785BB9274A136843F001031360236ECF
:107BF800254A1A40254B134323660870244B2989CC
:107C08001980244BB5F90C20A8881A80FFF732FF99
:107C1800AB7BCBB1012B1BD0012211466888FFF743
:107C28005BFE044600283FF477AFAB7A1A4A6878BF
:107C3800003318BF01231360FFF7D2FD6DE7002161
:107C4800A2E74FF080519FE7034B144A9A65E3E798
:107C5800014B134AFAE700BF00300E40B081E00F35
:107C68003C80E00F4480E00F4C80E00F5480E00F30
:107C78005C80E00F6480E00F744300208009C643F5
:107C88008043002044300E40000F0EF0B4C0400B7B
:107C980076430020784300209407C6437740205756
:107CA800372110B7144B1A6830B5002814BF0225C5
:107CB8000025012A06BF4AF6E85119600022022869
:107CC8000E4804680CBF24F0740444F07404046083
:107CD8000B48046844F0080404600A4C216821F445
:107CE800406141EA85212160016821F008010160B5
:107CF8000AB100221A6030BD90310E4064310E4046
:107D08009C310E403C400E40072A70B501F003013B
:107D18004FF00F0523D896001A4CB540256004F1A2
:107D28000074B04020600320B04001FA06F61649FE
:107D3800086001F100710E601449114489000B605C
:107D48009DF81030C1F88030012303FA02F2104B7D
:107D5800C3F824249DF81430C1F8003370BDA2F193
:107D68000804A4000B4EA54035600B4DA0402860C8
:107D78000320A04001FA04F40849086001F10071E9
:107D88000C60D9E700A4004408A4004480208510B2
:107D980000A0004004A4004404A400460CA400442D
:107DA800F0B54AB130261E4C012546438D40344477
:107DB8000BB304F1C06425603024444304F18044CB
:107DC800072904F5204419D865688E000F27B740A5
:107DD80025EA070502FA06F63543656052B901221D
:107DE80002FA01F1302250430D4A0244A3B102F1D4
:107DF800C0621160F0BD04F18064DCE701F18045E8
:107E0800083DA668AD000F27AF4026EA070602FA2C
:107E180005F53543A560E1E702F18062E9E700BFB7
:107E28000CA00040084B4FF48072C3F88020BFF3C9
:107E38004F8FBFF36F8F054B0021D9664FF48A40EF
:107E48001962FEF79DBF00BF00E100E000200E4070
:107E5800034B03449B0081F001011960704700BF88
:107E6800A001F11010B5044601214FF48A40FEF735
:107E780087FFB4F8013022785BBA9BB243EA026309
:107E88000B4A136000231362D36253634FF000431D
:107E9800D3664FF0FF339366064A4FF48071C2F8F9
:107EA8008011E3785B01DBB282F80833116010BD02
:107EB80000200E4000E100E02DE9F041254D91F849
:107EC8000BE091F80AC00F7B0C464FF03008C3B2A4
:107ED800012608FB00509E402368497BC0F880308B
:107EE8004FEA0E5343EA0C4343EA475322F0030296
:107EF800C0F88810C0F88430C0F89820AE66FFF744
:107F0800E0FAEB6E3343EB66237A13B16B6B3343C2
:107F18006B63637A13B1EB6A3343EB6222792B68A4
:107F280022B1D243120262F47F42134062790AB14D
:107F380043EA0223A2790AB123EA0203E27902B1F1
:107F48001343044A1360044B1E60D663BDE8F04136
:107F5800FFF7BDBA00200E4028200E4410B5C0B26D
:107F680001248440FFF7ADFA054AD36E23EA0403DF
:107F7800D366044B1C60BDE81040FFF7A8BA00BFE9
:107F880000200E4020200E44F8B5C3B201259D40C4
:107F98000446FFF796FA0A4B30221E6E9F6A02FBD0
:107FA8000434D4F88C40FFF792FA3D4206D1C4F36A
:107FB8000A1008B9354200D10130F8BD0020FCE7AD
:107FC80000200E40036CDB0702D4436C0B42FCD14B
:107FD80070470000064B0B4003F58073B0FBF3F2CB
:107FE80003FB12000002B0FBF3F000EB0220704725
:107FF800F8FF0100074B984210B5044607D1064820
:10800800FEF7F4FFE168BDE81040FFF7E3BF00208A
:1080180010BD00BF00A0044090071A00CB435B00CE
:1080280003F00A0310B541EA03020221FFF7CAFF71
:10803800426010BD436C002BFCD101220264EA228D
:10804800426040F2F9720360C36003614361836375
:108058004263C363436583650364704710B5024692
:108068000C469368DB06FCD540211046FFF7AAFFB3
:10807800946210BD0F4A70B5002308258B4201D1C8
:10808800002070BD50F8234094610B4CD56001333B
:10809800D669F60705D514B96FF00200F1E7013C7F
:1080A800F6E7002CF8D0D469A407E7D56FF00100F3
:1080B800E7E700BF00000E4080969800044B41F6A9
:1080C80071321A649A6822F001029A60704700BF00
:1080D80000000E40034B9A6822F001029A600022C9
:1080E8001A64704700000E40094A0A4BD969C9074B
:1080F80005D512B96FF002007047013AF6E7002A79
:10810800F8D001221861DA60D86940F3800070471E
:108118008096980000000E4009B1FFF7ABBF0846F3
:1081280070470000234B2DE9F0470F4641F67131A7
:108138001E6C1964996841F001018146B6B29960D4
:108148004FEA9208BA46002545450ED30020D9F8D3
:1081580000203B689A420ED04846FFF7C5FF50B949
:1081680001213846FFF786FF05E009EB8504204624
:10817800FFF7BAFF48B10F4B9A6822F001029A60E4
:108188000EB100221A64BDE8F087C4F30A04C4F5EE
:108198000064A408A8EB05039C4228BF1C4621469E
:1081A8005046FFF7B9FF0028D1D125440AEB840ACD
:1081B800CAE700BF00000E401E4B41F671311A6C31
:1081C80010B51964996841F001019960012118619D
:1081D800D960D9694C0792B209D5996821F0010193
:1081E80099600AB100221A644FF0FF301FE00221A3
:1081F800114CD9601946D869C00700D56CB9C8694F
:108208008B6810F0020023F001038B6007D00AB1DD
:1082180000230B646FF0010009E0013CEBE724B98F
:1082280002B10C646FF0020001E00AB1086410BDED
:108238001046FCE700000E4080969800FFF772BFDA
:1082480010B590FAA0F2054C2368B2FA82F223EA3C
:10825800000091400143216010BD00BF00500E4056
:10826800014B01229A60704700500E40194BF0B53F
:108278005C68194D194E1A4F00231846D6F800C0ED
:10828800EA181CF0040F51685A5908D1B2F5806FEA
:1082980003D018D8B2F5007F01D141F48071D7F826
:1082A80000C01CF4807F18BF21F01C01144202D0CA
:1082B800214208BF10430833482BDFD1C30348BF0E
:1082C80020F01C00F0BDB2F5006FE6D0B2F5803F9B
:1082D800E2E700BF00500E4010300300E841E00F15
:1082E80088300E408B784A789B0143EA82030A78EB
:1082F8001343CA7843EA02130A7943EAC2234A7944
:1083080043EA02338A79043043EA42430001014ACE
:108318001350704700200440014B1860704700BF9D
:1083280000008442427801790378002A827870B587
:1083380014BF04260026002AC27814BF1025002581
:10834800002A42794FEA023242EA012242EA030253
:10835800837914BF20240024002BC37942EA034305
:1083680043EA0603027A43EA050314BF4FF40041C7
:1083780000212343002A14BF4FF4003200220B438C
:108388001343014A136070BD002004400B4A53692F
:1083980011699B0003F03C03C1F381110B43837007
:1083A800136903F03F0343709369D26903F0F00344
:1083B800C2F3031213430370704700BFD0FF0FE0EE
:1083C8002DE9F04F0C780CB9022343600023436277
:1083D8004B78CA7891F802B08D7A91F808A091F894
:1083E800069091F80780002B4B7A4FEA024214BF9F
:1083F8004FF0400E4FF0000E42EA0B62002B14BF04
:108408008023002342EA0A02002DCD7A42EA89221B
:1084180014BF4FF0200C4FF0000C42EA0822002D48
:108428000D7B42EA0E0214BF102700271343002DCC
:108438000D79497943EA0C0314BF082600263B430B
:10844800002D14BF4FF4005500253343002914BFF5
:108458004FF0805100212B430B4303600CB10123E3
:108468004360BDE8F08FF0B5537814781B0643EAF3
:10847800846394792343947843EA0443D47843EAA1
:108488000433147943EA8423547943EA0423D479DE
:10849800002C147A14BF4FF080470027002C547A20
:1084A80014BF4FF000560026002C947AD27A43EA83
:1084B800027343EA070314BF102500253343002C39
:1084C80001F1060114BF042400242B4309012343AE
:1084D8004350F0BD70B5054616461C4619B91448F8
:1084E800FEF784FD0146202C08D001D8ECB170BD00
:1084F800402C18D0602CFAD1042200E0082206FB98
:1085080002F35A0802EB4112B2FBF3F2094B203A8C
:1085180003EAC2022B6823F060032B602B681C431C
:108528002C606A61E3E70622E9E71022E7E700BF6B
:1085380040410500F8FF7F00F8B5154F14460F407D
:108548001ABB202B07D0402B07D0002B0CBF1025BF
:108558004025012603E01D46FBE78025032607F595
:1085680080777E430023324619462AF003FB5443A2
:1085780000FB05F705FB0344A2FB05012144324635
:1085880000232AF0F7FA3844F8BD80250024E0E7F4
:10859800F8FF7F0070B5044605680648FEF726FD1B
:1085A8002368616905F0010203F06003BDE87040CB
:1085B800FFF7C2BF40410500CB435B0003F00A034D
:1085C800C360C1607047000040F6AA63C36041F20F
:1085D80005020023036042600A4A83604361C36462
:1085E8008264094A03669042436702F580628367A2
:1085F800C36701D0904200D103659042836508BFEC
:10860800C3657047F9FF01000000014038B5054611
:108618000C46FFF7D9FF8B7C1BB1036843F08043FE
:108628000360E37C1BB1237D43F08003AB65228AA2
:10863800637B1343E28913436B60D4E90112237B04
:108648002846FFF747FF637D1BB12B6843F480334F
:108658002B60A37DE27D1B07120502F4E00203F004
:10866800E04313432B666B6F23F030036B676A6F2D
:10867800237E13436B672378EB6038BD03691B06C1
:10868800FCD5C069C0B2704703695B06FCD541637D
:1086980070470368DB060FD447F231538268D2076C
:1086A80001D5013BFAD1036803F001038B421EBFD9
:1086B80000F104704001016070470368D90707D5CD
:1086C80083689A0704D48368DB07FCD401234360DA
:1086D80070474B78CA78002B8B782DE9F04114BF8E
:1086E8004FF0020E4FF0000E002B14BF042300239E
:1086F800002A0A7991F807800C7814BF4FF0080C0B
:108708004FF0000C002A4A7914BF20270027002ABE
:108718008A7914BF40260026002A0A7A4FEA0222E4
:1087280042EA083291F8098042EA0402CC7A897A4E
:1087380042EA084242EA016242EA0E0243EA0203BE
:1087480043EA0C0343EA070314BF1025002533430B
:10875800002C14BF4FF0004400242B43234347F25E
:1087680031528168C90701D5013AFAD10360BDE8E1
:10877800F08100000048704700F049020D4AD2F825
:10878800943003F00703032B11D0042B03D0022BE2
:108798000BD1094B00E0094B1868D2F80031C3F33C
:1087A80004230133B0FBF3F07047054BF4E74FF4B3
:1087B8000040F2E700400E40B43A0020BC3A0020E6
:1087C800B83A002008B5FFF7D9FF054BD3F80831B0
:1087D800C3F308230133B0FBF3F0024B186008BD64
:1087E80000400E40B03A0020014B1868704700BFA7
:1087F800B43A0020054B1860054BD3F8943003F0C9
:108808000703022B01D1FFF7DDBF7047B43A002000
:1088180000400E400E4B0F4A9A60D3F8882042F46D
:108828007002C3F888200C4B5A6D42F400525A6506
:108838001A6C22F003021A64084A136823F0010331
:10884800136052F8143C23F0805342F8143C7047EC
:1088580000ED00E00041000000300E4074300E4092
:108868004FF4004070474FF47A707047014B186816
:10887800704700BFBC3A002008B50C4B198A40F677
:10888800A73291420AD11B8B1B0A012B0CD101285C
:108898000AD840F2022004F0AFFA05E040F62803B7
:1088A8001B689B69DB02F2D4012008BD00000000B0
:1088B8000E4B198A40F6A732914206D11B8B1B0A30
:1088C800012B10D04FF6FF70704740F628031B6845
:1088D8009B68C3F30340C3F30362000240EA02301B
:1088E800DBB21843704700F003B800BF0000000077
:1088F800054B198A40F6A732914217BF40F6280364
:10890800588B1B68588970470000000070B5043800
:10891800C6B0FB2801F25D87DFE810F02C025B0F80
:108928005B0F5B0F35025B0F5B0F5B0F5B0F5B0F22
:108938005B0F5B0FDD03CB035B0F5B0F9D0A3B04F3
:1089480046049403A3035B0F87045B0F5B0F9F042C
:108958004401F1021B031C01AE035B0F5B0F5708B8
:108968005B0F5B0FFF013E02F20C620D110DFE0C56
:10897800DF0C3E0D8F0D5B0F5B0F4F050A07A6013D
:10898800F30588053906D20666060703FC00B3011D
:10899800E8015B0F1A0423065B055B0F5B0F5B0F97
:1089A8005B0F5B0F5B0F5B0F530197017E015B0F42
:1089B8005B0F5B0FD407B4065B0F5B0F5B0F5B0F9E
:1089C8005B0F5B0F5B0F5B0FC107AA0439075307E7
:1089D800BC04D10439051F055B0F080590075B0F20
:1089E8004909B30ACD0AC409DA098F09150B440AE3
:1089F8005B0F280B990C0A0AF20A690B5D0BAA098E
:108A080094094C0B5B0FBC0189038E025B0F5B0F53
:108A18007207F2045B0F5B0FC105010E9E0D200E5D
:108A2800380E140E2C0EC20DD80DAA0DEB0DB60D76
:108A38005B0F5B0F5B0F5B0F5B0F5B0F5B0F5B0FDE
:108A48009E065B0F5B0F630451045B0F00015B0F15
:108A58005B0F440E5B0F7E0E400FBA0EF00E120F26
:108A6800A40E5B0F7A0B9C0B5B0F5B0F5B0F5B0F0E
:108A7800A7076809D50E83097508CC0830090009CD
:108A88005B0F5B0F5B0F29045C085B0F6808C3086A
:108A98001D08EF08160CC402DB02E6025B0F5B0F31
:108AA800C80B5B0FFF0B260C5B0F5B0F5B0F5B0F9D
:108AB8006F0A12097504B9025B0F3001F408350812
:108AC80029088F08B2080508110841084C08820CCB
:108AD8009E0CBA0CAE0C720C6D0C5B0F5B0F5B0F2F
:108AE8005B0F5B0F060F5B0F610E5B0F230F340FDD
:108AF800910E62075B0F5B0F5B0FE3048507D10CD8
:108B0800BE08C003540377033F0326035B0F5E02CE
:108B1800F20753020124204646B070BD12AB019300
:108B28000AAB00930CAA24ABBB49012024F010F92E
:108B3800BDF848309DF828202499BDF8300012F07F
:108B480091F946AAB54902F8EC0D002024F000F985
:108B58000124E0E724AB0CAAB149012024F0F8F87D
:108B680024999DF8300028F005FA46AAAB4902F886
:108B7800D00D002024F0ECF80124CCE70CAB24AA9B
:108B8800A849012024F0E4F89DF83010249809F051
:108B9800ADFA46AAA14902F8D00D002024F0D8F871
:108BA8000124B8E724A823F0A9FE24A80BF0CAFCE6
:108BB80046AA9A4902F8D00D002024F0C9F80124E9
:108BC800A9E70CAA9549012024F0C2F824A99DF828
:108BD800300028F0CDF946AA904902F8D00D0020BF
:108BE80024F0B6F824A9082023F072FE9DF8980016
:108BF80023F036FEBDF89A0023F042FE9DF89C0053
:108C080023F02EFE9DF89D0023F02AFE9DF89E007D
:108C180023F026FE01247EE786230BAA7F498DF8E0
:108C28004830012024F094F824A99DF82C0028F05D
:108C3800A8F946AA12AB02F8E80D7B490093002078
:108C480024AB24F085F8012465E724A812F0F2FC8F
:108C580046AA724902F8D00D002024F079F824A819
:108C680024F03FF8012456E724A812F0DFFC46AAB6
:108C780024AB02F8D00D6D49002024F069F80124D6
:108C880049E746AA012402F8884D6449002024F0E7
:108C98005FF840E70CAA6149012024F059F824A99B
:108CA8009DF8300013F094FF46AA5C4902F8D00DF5
:108CB800002024F04DF8BDF8900023F0E1FD9DF868
:108CC800920023F0CDFD9DF8930023F0C9FD9DF897
:108CD800940023F0C5FD9DF8950023F0C1FD0DF12A
:108CE8009601082023F0F4FD012414E746AB08227E
:108CF80003F8EC2D4E4924AA012024F029F812A9E2
:108D080024A814F015FB46AA12AB02F8E80D444952
:108D1800002024F01DF80124FDE624A912A828F05B
:108D2800EFF846AA12AB02F8E80D4049002024F0FB
:108D38000FF824A9082023F0CBFDBDF8980023F0F4
:108D48009FFD9DF89A0023F08BFD9DF89B0023F072
:108D580087FD9DF89C0023F083FDBDF89E0023F05D
:108D68008FFD9DF8A00023F07BFD299823F09CFD42
:108D78000124D0E646AA012402F8884D274900209C
:108D880023F0E6FFC7E646AA002002F8880D23492B
:108D980023F0DEFF0124BEE612AC0823214624A8F6
:108DA8008DF8303028F0D3F846AA0CAB02F8EC0D59
:108DB800204901940093002024AB23F0C9FF01242B
:108DC800A9E609F0BBFA46AA144902F8880D002062
:108DD80023F0BEFF01249EE60CAA1049012023F0CF
:108DE800B7FF24A99DF8300009F044FA46AA0B49B8
:108DF80002F8D00D002023F0ABFF9DF8900023F07F
:108E08002FFD9DF8910023F02BFD9DF8920023F093
:108E180027FD01247FE600BF98300300E8300300F7
:108E28009D300300B7300300B9500300D73003006A
:108E380025390300A03003000CAABE49012023F005
:108E480087FF24A99DF8300012F07AFE46AAB94996
:108E580002F8D00D002023F07BFFBDF8900023F02E
:108E68000FFDBDF8920023F00BFD9DF8940023F050
:108E7800F7FC9DF8950023F0F3FC9DF8960023F08D
:108E8800EFFC9DF8970023F0EBFC012443E627F064
:108E9800DBFF46AAA74902F8880D002023F058FFF7
:108EA800012438E612AC0BAAA249012023F050FF96
:108EB800224624A99DF82C0027F0C8FF46AA24AB17
:108EC80002F8E80D9C490094002023F041FF01249A
:108ED80021E627F0BFFF46AA964902F8880D002030
:108EE80023F036FF012416E627F0B2FF46AA91497F
:108EF80002F8880D002023F02BFF01240BE60CAAB2
:108F08008C49012023F024FF24A823F0F7FC24A98E
:108F18009DF830000BF0B4FB46AA864902F8D00D44
:108F2800002023F015FF0124F5E50BAA8149012053
:108F380023F00EFF0CAA12AB8049012023F008FF92
:108F480046AA012402F8884D7A49002023F000FF40
:108F5800E1E50CF0ADFE46AA764902F8880D00203E
:108F680023F0F6FE0124D6E512AB00930BAA0CAB56
:108F78007349012023F0ECFE9DF848209DF830103D
:108F88009DF82C0016F012FB46AA6A4902F8880DD3
:108F9800002023F0DDFE0124BDE512AB0CAA6949CF
:108FA800012023F0D5FE9DF948109DF8300016F0F9
:108FB800FBFA46AA5F4902F8880D002023F0C8FE94
:108FC8000124A8E512AB02930CAB01930BAB009301
:108FD8000DF126020AAB5C49012023F0B9FE9DF889
:108FE80048409DF930309DF82C209DF828100094B9
:108FF8009DF8260016F0D4FA46AA4E4902F8880DC4
:10900800002023F0A5FE012485E512AA4949012084
:1090180023F09EFE9DF8480016F0C4FA46AA45497A
:1090280002F8880D002023F093FE012473E513F065
:10903800C1FD46AA3F4902F8880D002023F088FEAA
:10904800012468E524A823F0D9FC24A80BF078FBB8
:1090580046AA384902F8D00D002023F079FE0124F1
:1090680059E509F0C9F846AA324902F8880D0020E6
:1090780023F06EFE01244EE512AA2E49012023F0AA
:1090880067FE9DF848000AF063FE46AA294902F8DF
:10909800880D002023F05CFE01243CE521F0D0FD82
:1090A80046AA244902F8880D002023F051FE012425
:1090B80031E512AA1F49012023F04AFE9DF8480015
:1090C80028F079FB46AA1B4902F8880D002023F0F6
:1090D8003FFE01241FE50AAB04930DF12603039319
:1090E80009AB029324AB019312AB00930DF122025A
:1090F8000CAB1649012023F02BFE9DF82840029462
:109108009DF8264001949DF82440BDF89030BDF8A4
:109118004820BDF8301000949DF8220028F04DFB3F
:1091280046AA044902F8EC0D002023F011FE0124A0
:10913800F1E400BFE8300300A4300300AB300300C3
:10914800B2300300E1320300A8300300AE30030060
:1091580024A823F0D3FD24A812F06AFA46AAAA4943
:1091680002F8D00D002023F0F3FD0124D3E412AA65
:10917800A549012023F0ECFD9DF848000AF0DCFF2A
:1091880046AAA14902F8880D002023F0E1FD012438
:10919800C1E424AA9D49012023F0DAFD9C4BBDF8C7
:1091A80090201A800124B6E424AA9849012023F0CB
:1091B800CFFD984BBDF890201A800124ABE412AA89
:1091C8009149012023F0C4FD9DF848000AF08CFF66
:1091D80046AA8D4902F8880D002023F0B9FD012424
:1091E80099E412AA8C49012023F0B2FD9DF94800A8
:1091F80009F080F846AA844902F8880D002023F077
:10920800A7FD012487E412AA7F49012023F0A0FDCD
:109218009DF8480027F016FE46AA7B4902F8880DFB
:10922800002023F095FD012475E40CAB00930BAAF4
:1092380024AB7A49012023F08BFD9DF83020249936
:109248009DF82C0008F0B4FE46AA6F4902F8D00D2C
:10925800002023F07DFD01245DE408F039FF46AAD3
:10926800694902F8880D002023F072FD012452E4B8
:1092780012AA6549012023F06BFD9DF8480011F002
:10928800C6F946AA604902F8880D002023F060FD5F
:10929800012440E408230CAA5B498DF848300120DA
:1092A80023F056FD24A99DF8300011F029FF12ABD8
:1092B80024AA5B49002023F04BFD01242BE412AAC9
:1092C8005149012023F044FD9DF8480011F030FF7A
:1092D80046AA4E4922F8880D002023F039FD0124C2
:1092E80019E424A80BF070FE46AA474902F8D00DED
:1092F800002023F02DFD24A823F047FB01240AE4D5
:1093080046AB082203F8E82D454924AA012023F09A
:109318001FFD24A811F0EEFF46AA3B4902F8D00D24
:10932800002023F015FD0124FFF7F5BB0CAA3649F0
:10933800012023F00DFD24A99DF8300027F0B0FD91
:1093480046AA314902F8D00D002023F001FD24A8D7
:1093580023F008FB0124FFF7DEBB082312AA2B49E0
:109368008DF83030012023F0F3FC24A9BDF8480023
:1093780009F044F946AA0CAB02F8EC0D2949009310
:10938800002024AB23F0E4FC0124FFF7C4BB46AB68
:10939800082203F8E82D224924AA012023F0D8FC4A
:1093A80024A809F003F946AA184922F8D00D00208C
:1093B80023F0CEFC0124FFF7AEBB0FF0F5FE46AA62
:1093C800114902F8880D002023F0C2FC0124FFF7A0
:1093D800A2BB0CAB009324AA0BAB1349012023F0CA
:1093E800B7FC9DF830209DF82C10BDF8900027F0B0
:1093F80053FA46AA044902F8D00D002023F0A8FC2D
:109408000124FFF788BB00BFE8300300A230030047
:109418005C3F0020623F0020EE500300B63003009E
:1094280025390300B9500300BA30030008AB0BAA72
:10943800B449009301200CAB23F08AFC24A823F044
:1094480079FA09AB12AACDE9003202930DF1210293
:109458000DF12203AC49012023F07AFC129B0393FF
:109468009DF8243002939DF8223001930AAC9DF8B0
:1094780021309DF82020BDF8301004940093BDF8E9
:109488002C0024AB27F083FC46AA234602F8F20DF1
:109498009E49002023F05CFC0124FFF73CBB082315
:1094A8008DF821308DF826300DF1220302930BAB95
:1094B80001930DF1210324AC009308AA12AB94493F
:1094C80001200AAE0CAD23F043FC9DF82230BDF814
:1094D8002C20009412A99DF820000296019527F0EF
:1094E800BBFC46AA0DF1260302F8F40D8849009347
:1094F800CDE901562346002023F02AFC0124FFF77A
:109508000ABB0CAA8349012023F022FC24A823F0DB
:1095180011FA0DF1260312AACDE9003202930DF1DA
:10952800220209AB7849012023F012FC129901911B
:109538000BAC9DF826109DF824309DF8222002944B
:109548000091BDF8300024A927F0B8FB46AA2346AD
:1095580002F8F00D6D49002023F0FAFB0124FFF713
:10956800DABA0CAB24AA6C49012023F0F1FB9DF870
:109578003010BDF890000CF023FF46AA674902F8A6
:10958800D00D002023F0E4FB0124FFF7C4BA24A87F
:1095980023F0D0F90AAB12AACDE9013203930DF1F9
:1095A800260300930DF1220209AB5D49012023F047
:1095B800CFFB129801900CAC9DF828009DF826303E
:1095C8009DF824209DF822100294009024A827F0EA
:1095D80081FB46AA234602F8EC0D4C49002023F0F3
:1095E800B7FB0124FFF797BA24A823F0A3F90DF1DC
:1095F800260312AACDE90332059309AB02930DF1B4
:10960800220301930CAB009308AA0DF121034549ED
:10961800012023F09DFB129803909DF826000290EC
:109628009DF8240001900BAC9DF82200BDF8303065
:109638009DF821209DF820100494009024A827F07C
:1096480077FB46AA234602F8F00D3049002023F0A4
:109658007FFB0124FFF75FBA0CAA009224AB3249C2
:10966800012023F075FB24999DF8300027F03DFB7D
:1096780046AA2A4902F8D00D002023F069FB0124EC
:10968800FFF749BA0CAB0AAA02930BABCDE900234A
:10969800264924AB012023F05BFB9DF830309DF870
:1096A8002C2024999DF8280027F02CFB46AA1B495A
:1096B80002F8D00D002023F04BFB0124FFF72BBA52
:1096C8000CAA1449012023F043FB24A823F032F903
:1096D8000AAA009212AB1449012023F039FB129B0D
:1096E8009DF82820BDF8300024A927F07FFB46AA62
:1096F8000A4902F8EC0D002023F02AFB0124FFF7A9
:109708000ABA00BFBE300300C8300300D7300300D8
:10971800C2300300A2300300C4300300E830030065
:10972800C7300300CD300300BE500300D53003001E
:109738000CAB0DF12202C749012023F009FB24A834
:1097480023F0F8F80DF1260312AA01930092C249FA
:1097580009AA012023F0FCFA129A01920BAC9DF899
:1097680026209DF82430BDF83010029400929DF810
:10977800220024AA27F09AFA46AA234602F8F00DF6
:10978800B649002023F0E4FA0124FFF7C4B90823FE
:109798008DF830300CAB0BAA0093B14924AB0120F3
:1097A80023F0D6FA24A99DF82C0011F0C7FD46AA8B
:1097B800AC4902F8D00D002023F0CAFA0124FFF7C3
:1097C800AAB924AB12AAA349012023F0C1FABDF813
:1097D80090109DF8480011F07DFC0124FFF79BB91B
:1097E80024A80BF01DFC46AA9E4902F8D00D0020C3
:1097F80023F0AEFA24A823F0C8F80124FFF78BB9A8
:1098080046AB082203F8E82D12AA0092964924AA2A
:10981800012023F09DFA9DF8481024A811F0BEFD00
:109828000124FFF778B924AA9049012023F090FA7F
:1098380024980DF0E3FF0124FFF76DB90CAA8949BC
:10984800012023F085FA24A823F096F824A99DF88E
:10985800300027F03DFB46AA824902F8D00D0020CF
:1098680023F076FA0124FFF756B90BAB24AA01932B
:1098780000927F4912AA012023F06AFA249A9DF8DF
:109888002C10BDF8480004F096FF46AA754902F866
:10989800E80D002023F05CFA0124FFF73CB912AA76
:1098A8007049012023F054FA9DF8480027F067FB1F
:1098B80046AA6E4942F8880D002023F049FA01248F
:1098C800FFF729B908238DF8283012AB01930AABAA
:1098D80000930CAA24AB6749012023F039FABDF89C
:1098E8004820BDF8300024A927F047FB46AA5D4967
:1098F80002F8EC0D002023F02BFA0124FFF70BB936
:1099080012AA5849012023F023FA9DF848000AF0CA
:10991800CDFB46AA534902F8880D002023F018FA17
:109928000124FFF7F8B81AF03BFD46AA4F4942F860
:10993800880D002023F00CFA0124FFF7ECB81AF088
:1099480035FD46AA494942F8880D002023F000FA5F
:109958000124FFF7E0B81AF0F4FC46AA414902F8DE
:10996800880D002023F0F4F90124FFF7D4B824AAC5
:109978004149012023F0ECF9BDF890001AF004FDEC
:109988000124FFF7C8B824AA3649012023F0E0F9DA
:109998009DF890001AF0A2F80124FFF7BCB824AA99
:1099A8003249012023F0D4F924981AF005FD012446
:1099B800FFF7B1B824AA2D49012023F0C9F924984A
:1099C8001AF000FD0124FFF7A6B81AF073FC012471
:1099D800FFF7A1B81AF07BF946AA224902F8880DC8
:1099E800002023F0B5F90124FFF795B824A912A89F
:1099F8001AF098FC12A823F037F824A823F065F889
:109A08000124FFF788B824A823F00AF80CAB0BAAA6
:109A18001A49012023F09CF99DF930209DF82C105B
:109A280024A819F0FDFD46AA0E4902F8D00D002021
:109A380023F08EF90124FFF76EB819F06DFF46AADE
:109A4800084902F8880D002023F082F90124FFF765
:109A580062B800BFF1300300C9300300D7300300FB
:109A6800B9500300E8300300E73003009E300300DC
:109A7800DA300300DE300300A2300300E1320300D5
:109A88001AF0B4F846AAC24902F8880D002023F05B
:109A98005FF90124FFF73FB81AF09CF80124FFF79B
:109AA8003AB824A822F0F9FF24A81AF044FC0124AB
:109AB800FFF731B812A9102022F0C4FE22F0FEFEF2
:109AC800249022F0B7FE0DF195018DF89400102036
:109AD80022F0B8FE0DF1A501102022F0B3FE24A952
:109AE80012A819F092FF46AAA94902F8E80D002029
:109AF80023F02EF90124FFF70EB81BF0ECFB01242C
:109B0800FFF709B824AAA249012023F021F99DF8FA
:109B180090001AF0D5F80124FEF7FDBF24AA9D494C
:109B2800012023F015F924981AF08EF846AA9849CE
