:1040000080390020D1CC000091540000955400006C
:10401000A70A0A010041000004180FAC1069D6007D
:104020000000000000000000000000000000000090
:1040300000000000B838030000000000000000008D
:104040000000000000000000FFFFFFFFFFFFFFFF78
:10405000FFFFFFFF007003000000000000000000F1
:10406000FFFFFFFFFFFFFFFF110000000000000047
:104070000000000000000000000000000000000040
:104080000000000000000000AE520020AE520020F0
:1040900080390020665903000031030020300020E1
:0C40A000F52F00200000040000000000CC
:1041000080390020D1CC000091540000955400006B
:10411000095D000099540000A1540000CFCC0000BC
:10412000CFCC0000CFCC0000CFCC0000CFCC000023
:10413000A5540000CFCC0000CFCC0000CFCC0000B5
:10414000C99200001DFD0200F557000095F5020020
:1041500075FD020029FD020041FD020021FD020063
:104160000D880000E18800000DA600001D48000039
:10417000285600002856000071AB000028560000A9
:104180002856000005890000285600002856000027
:104190002856000028560000285600002856000027
:1041A00028560000285600002856000079FD02001D
:1041B00025FD020091900000B1FD0200285600008C
:0841C000FDE802002856000092
:1041C800F8B500BFF8BC08BC9E467047F8B500BFFC
:1041D800F8BC08BC9E46704710B5054C237833B927
:1041E800044B13B10448AFF300800123237010BDC2
:1041F800C03F0020000000008053030008B5034BB7
:104208001BB103490348AFF3008008BD000000005C
:10421800C43F002080530300154B002B08BF134BED
:104228009D46A3F5803A00218B460F461348144A51
:10423800121A2EF046FF0F4B002B00D098470E4B5A
:10424800002B00D098470020002104000D000D48E5
:10425800002802D00C48AFF300802EF0DBFE2000CF
:10426800290026F097FA2EF0C1FE00BF00000800D2
:104278008039002000000000000000005E3F0020A0
:10428800AE520020000000000000000008B510F049
:1042980083FF00280CBFA520002008BD012070471F
:1042A8002DE9F0472422FF2106461E481E4FDFF85D
:1042B8008C80DFF88C902EF004FF4FF49572FF216C
:1042C8001A482EF0FEFE00242425E25D14F8093079
:1042D80014F808A00132521003B11932144B1548D2
:1042E80033F8141003320AFB02F209F0A7FABAF104
:1042F800010F1CBF0D4B23F8145004F1010418BF23
:104308005544242CE1D123464FF4B0610A484FF4B8
:10431800805209F093FA30460249BDE8F0470AF0A6
:1043280063BC00BFE64F0020243803000A50002079
:104338002837030016310300313103000437030026
:1043480000380300F0B501288BB006468E46944627
:104358001F4601D0202820D1114D0FCD6C460FC427
:104368000FCD0FC495E80300731E022B84E80300E9
:1043780001D9202E11D1022F08BF4FF440536946AE
:104388003046CDF804E0ADF80CC008BFADF80A30EF
:1043980000F0BCFBC0B20BB0F0BD0120FBE700BFD2
:1043A8008C31030008B500F0EBFAC0B208BD00F08C
:1043B80032BB08B500F038FBC0B208BD0EB403B577
:1043C80003AB014653F8042B0448019306F068F93F
:1043D800002002B05DF804EB03B070477B46000094
:1043E800012803D0202801D0002070470120704701
:1043F800C289418A0D4B10B5514304460068083103
:104408000144A06905F044FDA06905F079FB012885
:1044180003D90021A06905F0B5FC638AA18A01339C
:1044280093FBF1F201FB1233638210BDF1460000E9
:10443800012808B506D0202804D040F2831102488C
:1044480000F0AEFE014808BDB4310300C4410020AD
:104458007FB545686B880446083302AA01A91D4444
:10446800806903AB05F080FB636803999A88521A48
:104478000299521AD6B25A881B8893420ED2618981
:104488000B4BA0698A1A294606F00EF870B96568C0
:10449800A37AAA78D21A3244D6B20835044BA06956
:1044A8003246294606F000F800B9607304B070BDC2
:1044B800AD460000F8B503460D461646FFF790FFD7
:1044C80038B11846FFF7B4FF037B044613B1012344
:1044D8004373F8BD437B1BB1BDE8F840FFF7B8BF95
:1044E800084B80693246294605F0DEFF0028F0D0E7
:1044F800044FA0693B463246294605F0D5FF0028FF
:10450800F7D1E6E7AD4600002DE9F74F81468A4628
:104518001746FFF765FF002849D04846FFF788FF90
:1045280044682188083105460C440AEB070BD0463D
:104538000026D84531D06A686B8902E0297B0029BA
:1045480039D191888B42F9D902F031FD6B6818F89E
:1045580001CB1A88991881F808C0511C6A8991FB07
:10456800F2FC02FB1C1299881A80013189B29980E9
:10457800019202F022FD019AA8EB0A03DBB2002A9D
:10458800D7D19A1B2146D2B248460193FFF792FF32
:104598006C68019B08341E46CBE7B74205D9BA1BA5
:1045A80092B221464846FFF785FF002000E001202F
:1045B80003B0BDE8F08F2220FAE72DE9F04385B07B
:1045C8000346FFF70DFF00284BD01846FFF708FFFA
:1045D800002846D01846FFF72BFF044602F0E7FCF8
:1045E80002AA03AB01A90746A06905F08DFA256860
:1045F800029EB4F8089002F0DAFCEA881FFA86F8FE
:1046080090450FD92B88A5F806809B1A13FA86F6D1
:1046180096FBF9F309FB1366AB882E8043449B1A7B
:104628009BB2AB8002F0C9FC384602F0C6FCA06918
:1046380005F0C6FA012814D123689A8823899B1AA1
:10464800228A93420DDBA06990F83130022B0BD0FF
:10465800A36993F83130012B03D10021A06905F03B
:1046680091FB05B0BDE8F08305F04AFA0128F4D8BB
:10467800EEE770B504460D461646FFF7B1FE70B179
:104688002046FFF7D5FE03462046FFF7A9FE30B1C6
:10469800324629469869BDE8704005F093BA012072
:1046A80070BD000038B50F4DAA69824219D16A68F9
:1046B80091888B428ABF94889CB2A4B202F077FC9E
:1046C8006A686D895388234493FBF5F105FB113320
:1046D800538093881C1BA4B29480BDE8384002F034
:1046E8006CBC38BDC44100202DE9F8431E46204B60
:1046F800994207463AD01F4CA369984236D125689B
:10470800B4F8089002F053FCEA881FFA86F890453E
:104718000FD92B88A5F806809B1A13FA86F696FB04
:10472800F9F309FB1366AB882E809B1A43449BB2AE
:10473800AB8002F042FC23680E4D0022DA80384636
:1047480005F0DEF9022811D82368E1899A882389BF
:10475800A3EB4103934203DB2846FFF749FEEEE74C
:1047680038460121BDE8F84305F00CBBBDE8F883E5
:10477800097000F0C441002070B505460C46FFF7EB
:1047880057FE012D014601D0202D3FD18B6993F8AA
:10479800326018681E4B04254FF40062D6B9856450
:1047A800C3F8802144B1C16C2943C1641A60052152
:1047B800BDE8704003F080BCC56C25F00405C564F5
:1047C800C3F88020BFF34F8FBFF36F8F8B692146EB
:1047D8001868EDE74563C3F880214CB1816B41F05F
:1047E800040181631A600521BDE8704003F096B9A1
:1047F800856B25F004058563C3F88020BFF34F8FD0
:10480800BFF36F8F8B6921461868EDE770BD00BF55
:1048180000E100E0F8B5274C2748A36993F8316018
:10482800012E254640D103691B0616D503F0A6FCC8
:10483800112801460AD1A069002105F019FE0023BC
:1048480023732046BDE8F840FFF702BE1329A0698C
:1048580004D1314605F00CFE2673F8BD236826897D
:104868009C88341BA4B264B11A889F18013239722B
:1048780092FBF6F106FB11221A809A88013292B255
:104888009A8005F09DF940B9EB89A342E5D301214F
:10489800A869BDE8F84005F075BA0128DDD12B8A72
:1048A800A342DAD80021F3E7C36C23F00403C364FE
:1048B800D3E700BFC441002000000140014610B901
:1048C800074803F0F9BB074B4FF40062C3F8802197
:1048D8001A60034AD36C43F00403D364704700BFE3
:1048E8000000014000E100E018B90521074803F085
:1048F800E3BB074B4FF40062C3F88021C3F8802064
:10490800BFF34F8FBFF36F8F704700BF00000140A8
:1049180000E100E008B50346FFF762FD40B1184624
:10492800FFF786FD806905F04BF9431E5842584150
:1049380008BD10B50346FFF753FD08B9002010BDA8
:104948001846FFF775FD0446806905F020F88304D2
:10495800F4D563689B889BB2002BEFD1A06905F062
:10496800FFF80028EAD1A06990F83230002BE5D191
:1049780005F00DF810F4403F0CBF01200020DEE7E1
:10498800F8B505460F46FFF72BFD00283FD028460F
:10499800FFF74EFD04462846FFF70FFE23689B8865
:1049A8009BB2002B35D002F002FB23685A881344CF
:1049B80006461B7A3B70226820895388013393FB93
:1049C800F0F100FB113353809388013B9BB2938035
:1049D8002846FFF705FD20B9304602F0EEFA002020
:1049E800F8BDA36993F83130012BF5D0A06905F023
:1049F80087F80128F0D82368E1899A882389A3EBEE
:104A080041039342E8DB2046FFF7F2FCEEE7012082
:104A1800E6E72620E4E708B5FFF70AFD4368408982
:104A28009B88C01A80B208BD07B503468DF80710E9
:104A3800FFF7D6FC40B101220DF107011846FFF738
:104A480063FD03B05DF804FB0120FAE770B5064684
:104A5800FFF7EEFC044605683046FFF7C1FC78B165
:104A6800A06990F83130012B0AD0022104F0B6FF7A
:104A7800002320466382FFF7BBFC2046FFF7B8FC03
:104A880002F095FA0023AB802B806B80EB80BDE8A9
:104A9800704002F092BA08B50346FFF7A1FC08B9C6
:104AA800012008BD1846FFF7C3FC0028F8D00068AD
:104AB800B0FA80F04009F4E738B50446FFF790FCF7
:104AC80010B32046FFF7E7FFE0B92046FFF7BEFF27
:104AD8002046FFF7ADFC05462046FFF781FC60B194
:104AE800A86905F05DF980B9AB6993F83130012BFD
:104AF80003D101462046FFF73FFE1C22002128462D
:104B08002EF0DFFA002000E0012038BDF8B5054698
:104B18000F46FFF765FC88B12846FFF7BCFF10B9C0
:104B28002846FFF7C9FF2846FFF782FC04462846B7
:104B3800FFF77EFC012D03D0202D01D001264FE088
:104B4800304B0360304B43604FF08013836028463E
:104B5800FFF746FC002852D0012D39D0202D37D040
:104B68000020012DA06101D0202DE7D1274BBB618A
:104B7800274BFB61F98CBB8CE3818B42218229D8BE
:104B880090F83120012A0CD02689B6FBF3F203FBFA
:104B9800126292B2F2B9B1FBF3F203FB12139BB2A9
:104BA800C3B9394605F014FA0646C8B9A069012305
:104BB800017F007E022202F073FE397C012911D1A7
:104BC8002846FFF7D9FD3146A06905F0DBF807E074
:104BD8001048C6E71C22002120462EF072FA022651
:104BE8003046F8BD2389E2896682B3FBF2F320469A
:104BF800A382FFF7FDFB2046FFF7FAFBF0E7064626
:104C0800EEE700BF56470020DE470020003A0020AC
:104C1800803A0020C8460020382070473820704766
:104C28003820704738207047382070470020704778
:104C380038207047382070477047002070470000C0
:104C4800014B03221A807047FC4C0020382026F0C4
:104C5800C5BFFFF7FBBF7047704770477047704785
:104C6800704770477047000000B51E4B1B888BB01B
:104C78004FF6FF72934214BF1A464FF4E1324FF4D5
:104C88008051194B0093ADF80A1000230121ADF8AB
:104C98000830ADF80C308DF80E308DF80F308DF8E7
:104CA80010108DF811308DF812308DF813308DF802
:104CB8001430CDE90633ADF8203069464FF01013B3
:104CC800202009930192FFF721FF10F0FF0F03D076
:104CD8004821064800F064FA0CF050FE0BB05DF86D
:104CE80004FB00BF3E00E00F000001403D3203001E
:104CF80038B50F4D0CF0FCFE2A886AB90D4C238894
:104D080063B900230A4823800DF0B0F8288820B141
:104D180012F05CFA084B1860012038BD08F020F941
:104D2800064B1B88C01A238880B28342E9D3EDE77B
:104D38009C48002074480020FC4D00207648002044
:104D4800034B1A881AB103493C2027F020BB70474F
:104D58009C480020293B030038B5074C0546FFF75F
:104D6800EFFF294620880CF065FE00232380BDE86C
:104D780038400CF0BDBE00BF9C480020002273B52F
:104D8800064610460C4612F068FB054630B1054B46
:104D980000211A880094334612F0E5FD284602B037
:104DA80070BD00BF9C48002008B5034B188812F05E
:104DB80029FAC0B208BD00BF9C480020014601483E
:104DC80012F03EBD9C48002038B50021094812F079
:104DD80088FC054612F016FA074B044628461D8043
:104DE80012F0F4F9054B1860054B50FA84F41C6076
:104DF800012038BD504700209C480020FC4D002071
:104E0800544F002010B5044608F0AAF8024B188049
:104E1800024B1C8010BD00BF76480020744800205B
:104E2800704700F10473102A30B54FEA43131AD1C2
:104E380001221A60D1E90054D1E90223C0F81051C7
:104E4800C0F81041C0F81021C0F81031D1E904545D
:104E5800D1E90623C0F81051C0F81041C0F810215C
:104E6800C0F8103130BD00221A60D1E90054D1E9F0
:104E780002234562446242624362F3E7F0B58B075E
:104E880089B0064615461FD0082A0B466C4610D135
:104E980001F1100718685968224603C20833BB425B
:104EA8001446F7D12A4669463046FFF7BAFF09B0DB
:104EB800F0BD01F1200718685968224603C208337B
:104EC800BB421446F7D1EDE700910099EDE72422A3
:104ED80000212EF0F6B838B514460D4624220021DC
:104EE8002EF0EFF8802C034602D0B4F5807F08D16D
:104EF8001846E20840F8044B29462EF0BEF8002078
:104F080038BD6FF07100FBE72DE9F8431446894678
:104F18002422002106462EF0D4F8802C02D0B4F5C5
:104F2800807F2CD1346000F0B9F80023436003601F
:104F3800054602F02DF8802C0CBF08271027804664
:104F48003A4649462846FFF799FF404602F024F8BA
:104F58000523AB602C6914F00204FBD102F018F8A9
:104F68003A46311D804628460DF0E0FA404602F0E8
:104F780013F8284600F09CF82046BDE8F8836FF047
:104F88007100FAE72DE9F0431E460368802B87B0CD
:104F980081460F46154602D0B3F5807F7BD100F0DD
:104FA8007DF8002343600360044601F0F1FFD9F85F
:104FB8000030802B0CBF0822102209F10401804622
:104FC8002046FFF75BFFA90749D02A4602F1100CDB
:104FD80002AD106851682B4603C3083262451D466E
:104FE800F7D1029BC4F88030039BC4F88030049B3F
:104FF800C4F88030059BC4F88030404601F0CCFFEF
:10500800012F0CBF05230623A36023699A07FCD44C
:1050180001F0BEFFB30707462ED0D4F88000D4F8BD
:105028008010D4F88020D4F88030CDE90201CDE991
:10503800042302AD334606AE2A4603CAB2421860BC
:105048005960154603F10803F6D1384601F0A4FF6C
:10505800204600F02DF8002007B0BDE8F083019548
:10506800019BD3E90001D3E90223C4F88000C4F806
:105078008010C4F88020BEE70296029BD4F88050C6
:10508800D4F88000D4F88010D4F88020C3E9005008
:10509800C3E90212D9E76FF07100DDE7024B03485C
:1050A80001221A60704700BF0416C84300000F4071
:1050B800054B984206D103F16E7303F58B33043325
:1050C80000221A60704700BF00000F4070470000C0
:1050D80010B501210A4801F0C9FB0121094801F076
:1050E800C5FB002304220E21012002F0D9FB002376
:1050F80004220F210120BDE8104002F0D1BB00BFFF
:105108004041050000250A00064B03EBC00213F8D6
:105118003030516801228A4030215943024B5A509D
:10512800704700BFB03203000CA00046064B03EBEB
:10513800C00213F83030516801228A4030215943A7
:10514800024B5A50704700BFB03203000CA0004415
:1051580010B10020FFF7D8BFFFF7E8BF70B50D4CBE
:105168000D4E07F002FF236832780546C31A42B194
:10517800BB2B05D90120FFF7D9FF00233370256029
:1051880070BD41F270729342FAD90120FFF7BCFF5B
:105198000123F3E70C440020A94B002042DE7047AE
:1051A80038B504460D460FF0AFFF00F059FB01F08B
:1051B800F6FE2946204627F0E9F82B4622460549FF
:1051C8000120FFF7FBF829462046BDE83840FFF7E5
:1051D800E5BF00BFC03203006D4B2DE9F0416D4CB7
:1051E8005A68A2655A6AE2656B4AD2F800122166CB
:1051F800D2F8042262669A6AA266DA6AE2661A6BD2
:1052080022675A6B6267DB6BA26BA367D4E90F5303
:1052180012F0040F18BF1D4607F07EFE00228542DB
:105228000346606522655CD35C4A954259D8AA69F1
:105238006264E969A164B4F85810C1F30801062949
:1052480053D157498A4250D356498A424DD2118880
:105258004DF64262914248D16268C4F89420A2682F
:10526800C4F8982040F201704F4A5049934238BF21
:1052780013460A468B423BD3D31AE3640023C4E99E
:105288001F33C4E92133C4E92333484E444FDFF8C0
:1052980014C1AE4232D8D4E91FC7D4E92165D4E994
:1052A80023124FF0000E013BDBB2FF2B41D1BEF1C0
:1052B800000F05D0C4E91FC7C4E92165C4E923125A
:1052C800B4F85830C3F30803DA1E0F2A55D8DFE8BC
:1052D80002F03A5B474A5454545454515454545469
:1052E800543E0022C4E911221D464FF42060BBE75A
:1052F8001E68B6F1CD3FBFD10433BBE756F8042D85
:10530800BA42C6D36245C4D2D107C2D5002104EB44
:10531800010EDEF87CE09645BBD004311829F6D1A1
:105328000BB9052301E0013BDBB204EB8301CA673B
:10533800AFE7E0464FF0010EBC4637462E460D4615
:1053480011464246AFE740F60120BDE8F081184B10
:10535800DB6913F0020F40F2025318BF1846F4E756
:1053680040F60320F1E740F60423B0F5206F08BFAC
:105378001846EAE740F60520E7E7013B40F6072232
:10538800302B98BF1046E0E740F60220DDE700BF6B
:1053980000ED00E00000002000E100E0603900209E
:1053A800E0410000003103009C000020803900200B
:1053B8000020054049BA89B24840C0F30311414072
:1053C800080380B24840C3B280EA43107047000027
:1053D80010B502F0CBFC044602F0C2FC0022012109
:1053E80001FA02F3234014D01B4B33F812301B4A46
:1053F800062B13D040F207218B420DD118491948CA
:105408000C68844208D14CF23C334B800B881380E3
:1054180012E00132112AE3D1104AF8E7104B5888FC
:105428004FF20F01884214D11988B1F5406F10D29C
:1054380011804CF23C325A80084B1A8840F20173B2
:105448009A4201BF084A094BD2E90001C3E90001A9
:1054580010BD4FF4C061EBE7D4320300E8480020E8
:105468000000002007020FF094000020CC44002028
:10547800014B1888000A7047E8480020014B18883B
:10548800704700BFE848002000F00CB800F00AB8E8
:1054980000F008B800F006B800F004B800F002B850
:1054A80000F000B872B61EF0080F09D01EF0040F05
:1054B8000DD0DFF850E0AEE8FF1F6FF002000CE0FF
:1054C800DFF840E0AEE8FF1F6FF00E0005E0DFF800
:1054D80034E0AEE8FF1F6FF006006946EFF309827B
:1054E8008EE8070086460848084C854501D3A5453F
:1054F80001D384F30888FFF76FFE84F3088807F068
:10550800C9FC000004000020603000208039002021
:1055180070B58AB001F047FD294B01AA03F11006C6
:10552800154618685968144603C40833B34222461E
:10553800F7D1284602F05CF8224B05AA03F11006C1
:10554800154618685968144603C40833B3422246FE
:10555800F7D11B882380684607F076FC28B3BDF88E
:105568000030ADF81A30284601F0CAFC164802F09F
:10557800C1FE0421112001F015FC00221146032070
:1055880001F090FB0321114801F00CFC03211048A5
:1055980001F008FC03210F4801F004FCFFF798FD17
:1055A80000F026F900200AB070BD0DF1020108468E
:1055B80007F058FC0028D6D0BDF80230D1E700BF6C
:1055C800F63203000633030000F0490202001E0011
:1055D800030020000500240038B50B4C002222707F
:1055E80022784AB927F0B6FE054630B92378074A2B
:1055F800DBB21370284638BD022540F2A9210448C1
:10560800FFF7CEFDF2E700BF093F0020FE3E002075
:1056180018330300014B1878704700BFFE3E002086
:10562800FFF73EBF37B57F2A14BF154600254BF25A
:1056380034629142044619D17F2241F20201684640
:105648000823FFF7EFFF0822264968462DF006FDDC
:1056580030B908237F2241F2F0116846FFF7E2FFD4
:105668006B4603CB2060616003B030BD41F2F0129D
:10567800914219D11C490A6C496C01381D1F002B35
:10568800F2D0013B9D4200F8012F4FEA1222F6D1D9
:10569800033400229A42E7D00132042A04F8011F99
:1056A8004FEA1121F6D1DFE701F47042B2F5805FCD
:1056B8000BD1C1F30B0404F17E641A4603FB0541C8
:1056C80003B0BDE830402DF0D8BC01F46042B2F51B
:1056D800005FC9D1C1F30B0404F17E6404F5804472
:1056E800EBE700BF1D340300B081E00F70B505463D
:1056F80016461C46DBB14BF23463994210D1082C94
:1057080028BF08247F2241F202012346FFF78AFFBF
:105718002246074928462DF0A1FC40B941F2F01174
:10572800234632462846BDE87040FFF77BBF70BD70
:105738001D3403002DE9F8431646C20704460F46F8
:1057480003D5DD212748FFF72BFDF30703D5DE211D
:105758002448FFF725FD04F47043B3F5805F21D199
:10576800C4F30B0404F17E64731E1F4A234493425E
:10577800254603D9E3211B48FFF712FDDFF86490A3
:1057880005EB0608454522D156B37208394620462E
:1057980007F0DEFA20B340F20F111248BDE8F843D3
:1057A800FFF7FEBC04F46043B3F5005F07D1C4F310
:1057B8000B0404F17E6404F580442546DEE7EA2103
:1057C8000848FFF7EDFC6FF00F050024D6E715F841
:1057D800013BFF2BD6D0F4214846FFF7E1FCD1E787
:1057E800BDE8F883AA330300FF07E00FFFF74CBEBC
:1057F8001FB501211648174C01F038F8012211464F
:10580800104601F04FFA0421072002F099FA124AD3
:105818001068516801AB03C39068186001238DF8C4
:1058280004300D238DF80C3001A9032320468DF890
:105838000D3002F0CEFC094B04220221C3F880216E
:1058480061621A60A36A0B43A36204B010BD00BF73
:1058580030053E00002005402534030000E100E04B
:10586800014802F0AABC00BF00200540A52803D1CA
:105878000021024802F08DBC704700BF002005409F
:10588800024B186800F00100704700BF0020054077
:10589800024A9368002BFCD1704700BF00200540E6
:1058A80000207047002070477047000037B572B677
:1058B80001F075FB734B74495B698B6000230B76B1
:1058C800E0204B768B764023C87608774877887730
:1058D800CB776E4B8022602481F8202081F821004C
:1058E80081F8220081F8232083F8002383F80143FC
:1058F800202483F8024383F8032383F8042383F8DE
:10590800052383F8062383F8072383F8082383F8FD
:10591800092383F80A2383F80B2383F80C2383F8DD
:105928000D2383F80E2383F80F2383F8102383F8BD
:10593800112383F8122383F8132383F8142383F89D
:10594800152383F8162383F8172383F8182383F87D
:10595800192383F81A2383F81B2383F81C2383F85D
:105968001D2383F81E2383F81F2383F8202383F83D
:10597800214383F8220383F8230383F8240383F85D
:10598800250383F8260383F82703CB6823F4E06311
:105998001B041B0C43F0BF6343F40133CB604B691A
:1059A80043F400734B614B6943F010034B614FF4B0
:1059B800E0234B6200F02AF9FFF70AFDEFF30883B2
:1059C800334A043B4FF0CD3193422ED2314A32480C
:1059D80092B200212DF075FB62B6304B01225A6459
:1059E8002F4BDC6C6846240E02F050FA8E2C1FD820
:1059F8002C49D1F8B00040F00403C1F8B0302A4B6C
:105A08004FF050121A601A631A66C3F89020C3F850
:105A1800C020C3F8F020C1F8B000224AD36A23F0AE
:105A28007F0343F02003D36204E01960043BCBE713
:105A38008F2CF2D99DF80130012B01BF1B4A136846
:105A480043F0040313601A4B00241C60194B012512
:105A58001D61FFF75DFD03F035FC684600948DF885
:105A680004408DF8035001F00DFC00F031FC07F004
:105A780089FA00F03BFC27F0FDFD0F4826F03EFEBA
:105A880003B030BD0040000000ED00E000E100E0A0
:105A980020300020552F0000A000002000000E40FC
:105AA800B081E00F00400E4000A0004064310E407D
:105AB800B40AC64300300E40603F030040F2016064
:105AC80007F0E8B904F0FFBE08B500210B2004F088
:105AD800F2FEBDE8084004F0F7BE08B107F08CB844
:105AE80007F08BB8032000F0E7BC000010B5FFF703
:105AF800BFFC0446FFF7C2FCC0B228B9012C24D170
:105B080064F07F04E4B216E0072CF9D801A353F837
:105B180024F000BF3F5B0000095B00003D5B000014
:105B2800435B0000435B0000475B00004B5B0000E9
:105B38004F5B00000924204610BD0224FBE7032424
:105B4800F9E70B24F7E70624F5E70446F3E700BF77
:105B580082B2074B42B11A80000C064B0ABF4FF6BF
:105B6800CE2218801A8070474BF6EF62F3E700BF29
:105B7800D83E0020DA3E0020094B1888020448BFAE
:105B880080F0620042001A80064A1388190444BF54
:105B980083F4805383F00B035900118058407047F9
:105BA800D83E0020DA3E0020BFF34F8FBFF36F8F3F
:105BB800054A536A23F480335362D2F8943023F0B1
:105BC8000103C2F89430704700ED00E0013A42EA60
:105BD800520242EA920242EA121242EA122230B514
:105BE80042EA12420132B2F5807F38BF4FF4807228
:105BF8005442044015198D4205D31C60039B1D6057
:105C0800049B1A6030BD5200F2E700002DE9F04312
:105C1800354E364CDFF8E080DFF8E090002387B09F
:105C2800CDE90333FFF7C0FF3568A5604FF0005397
:105C3800E3606F1C2E4B2361C845376041D005AB2C
:105C4800019304ABA8EB090248460093414603AB15
:105C5800FFF7BCFFDDE90313059AA7605FEAD20CE2
:105C68004FF0010008BF4FF0200CA3EB0803B3FB73
:105C7800FCF300FA03F3013BB2FA82F25FFA83FE07
:105C8800C2F11E0208F1FF335B1AA9EB0109B3FB4D
:105C9800FCF352000344B9FBFCFC00FA0CF00EFACA
:105CA80003F3013802F03E02034342F0407203F06E
:105CB800FF0342F0011242EA03220235E160226149
:105CC8003560BFF34F8FBFF36F8F0A4A05236360B8
:105CD800536A43F480335362BFF34F8FBFF36F8F20
:105CE80007B0BDE8F08300BFC444002090ED00E099
:105CF8003900011300ED00E0C03900208039002090
:105D080008B5FFF7C7FB08BD054B1A782AB95B78B9
:105D1800002B14BF0220032070470120704700BFEA
:105D2800D84B00200329F8B598BF124B06460F46FA
:105D380094BF5C5C0024032805D8DFE800F0020863
:105D48000B0E44F002040C4B1D684DB9F8BD44F02D
:105D58000804F8E744F02004F5E744F08004F2E78B
:105D68006B681A68144203D05B6839463046984716
:105D78002D68EAE73834030054440020F8B5154C80
:105D8800154D01F005F92378074683B1134E337892
:105D98001BB100F0E6F900233370002000F0E2F9AF
:105DA80018B10023237000F0DFF923786BB90121C3
:105DB8002878FFF7B7FF01232B70094B2A781A7050
:105DC8003846BDE8F84001F0E7B8064B01221A70E2
:105DD800F3E700BFAF4B0020574B0020AB4B002030
:105DE800604B0020B04B002070B5124D01F0D0F888
:105DF8002A7806468AB902F041FE044620B13046A8
:105E080001F0CAF8204670BD02F088FF0A4B1860FE
:105E18000A4800F0F9F90A4B1C6000F049F900F053
:105E2800E1F9084B1860012330462B70002401F07B
:105E3800B3F8E7E7AD4B0020244600205444002087
:105E480010470020F4430020F8B50E46044601F040
:105E58009FF8184A0546601E002E135C164C14BFA6
:105E68000121FF210B442178135401291CD9FFF784
:105E78004BFF8142074617D9104E33781BB100F00B
:105E880070F9002333700E4A137843B1002313705E
:105E98000C4A0120137000F065F900F065F93946E5
:105EA8002078FFF73FFF27702846BDE8F84001F04B
:105EB80073B800BFD84B0020574B0020AB4B0020D5
:105EC800AF4B0020B04B002038B54160044601F0CC
:105ED8005FF821460546044800F099F92846BDE8D0
:105EE800384001F059B800BF54440020054B1B68E6
:105EF800584300F57420044B00F23F20B0FBF3F048
:105F0800704700BF2446002040420F000120704720
:105F1800002070472DE9FF4701F03AF80446FFF7E3
:105F2800F5FF002800F08B80564FDFF87C813D4656
:105F38003B782BB1544A1378013B137000233B7014
:105F4800FFF7E2FEB0B102384FF00109484518D812
:105F580003A9002002F086FE824690B94B4B039AB3
:105F68001B689A4271D8484A85F800901378013323
:105F7800137006E02B7823B1434A28701378013B4D
:105F88001370FFF7C1FE0128064604D9404B1B7861
:105F98000BB900F0C5F8DFF8149199F80000B04289
:105FA800CA4607D03B4B1B7813B93146FFF7BAFEF8
:105FB80089F80060012E0CD9354E33784BB9364B31
:105FC8001B7823B900F0CCF8344B01221A70012356
:105FD800337099F8000000F0EFF800F09BF92046C4
:105FE80000F0DAFF00F0D4FF0446404602F080FDDE
:105FF800FFF78EFF064600289AD1254B1A7872B112
:106008001870264F234B18703B7813B100F0A9F88D
:106018003E70002000F0A6F848B300F0A5F82B78F1
:106028002BB1194A1378013B137000232B70002100
:106038009AF80000FFF776FE00238AF80030204621
:1060480000F0AAFF04B0BDE8F087154B1E6800F009
:10605800CDF803993044884285D20223CDE900A3C4
:10606800091A53460F4A404602F06AFD89E70120A3
:1060780000F0A2F8204600F08FFF00F089FF0446E8
:10608800C7E700BFDB4B0020D84B0020F4430020BB
:10609800AF4B0020B04B0020DA4B0020AB4B002068
:1060A80010470020855D0000A8410020574B0020C4
:1060B80007B502A8002300F8043D01F0E1F8134BEE
:1060C800D3F8903003F00403002B114B14BF0122C6
:1060D80000221A7005D04FF41670FFF707FF0D4B1A
:1060E80018600D4B1B680120C3F303239840C0F1CF
:1060F800010000EB80006430FFF7F8FE074A1368E0
:106108001844106003B05DF804FB00BF00400E4067
:10611800AC4B0020EC4300200020044058440020F1
:1061280001F0AAB808B50B4B1B7893B1022002F016
:106138009BFF70B102F0C4FD58B10022012102207A
:1061480000F0B0FD02F0C2FD034B1860034B0122C2
:106158001A7008BDAC4B0020E8430020AA4B002071
:10616800704770470120704738B50E4D0E4C2A789D
:106178002AB923781BB102F0A9FD0C4B186001F075
:106188007DF823786BB10A4AD2F890301B07FBD50B
:1061980002F09CFD054B1B68C01A064B18600023D3
:1061A8002B7038BDAA4B0020AC4B0020E8430020E0
:1061B80000400E40EC43002002280AD003280BD0F0
:1061C80001280CD1064A136923F00403136130BF78
:1061D8007047002000F0EEBF002001F013B87047B0
:1061E80000ED00E04FF41670FFF780BE044B1B680B
:1061F8000BB103EBD303034A10681844704700BF80
:10620800EC430020584400200023036070470368D3
:106218000B6001607047000038B50D46044688BB26
:10622800284B4A1E186050425041013DFEF746FB7C
:10623800032D46D8DFE805F002131E200121084689
:1062480006F0DCFCFFF71CFB1F4B187010B1A520F3
:10625800FFF70CFB0120BDE83840FEF72FBB0221F9
:10626800012006F0CBFCFFF70BFB50B3BDE838402C
:10627800FFF70EBB0421F3E705210120BDE83840F4
:1062880006F0BCBC104B1B781BB101210F4801F074
:1062980080FF631E58425841013CFEF725FB032C42
:1062A8000FD8DFE804F002080A0C0120FEF71CFBF7
:1062B80001210020E2E70221FBE70421F9E705219B
:1062C800F7E738BD0C470020F14C002000200540BE
:1062D800044AD2F81C341B0C1B04C2F82434024AAA
:1062E8001360704700A000402043002008B5FFF766
:1062F8007BFD18B18C210448FEF752FF034904487E
:10630800BDE80840FFF7E0BD3C340300703B0020C7
:1063180098430020134A1449D2F82834D2F81C2490
:106328001340124A9BB21360D1F80001800502D5D0
:106338000868800506D4D1F80001800305D50968EE
:10634800880302D543F480331360074BD3F8001158
:10635800890006D51B689B0042BF136843F40033CD
:106368001360704700A0004000E100E00C470020E7
:10637800012810B50AD0831E012B1CD904281CD073
:10638800052801D100F0DCFF002400E00446204687
:106398000B4A0121FFF758FD00F0F6FD00F003FE5F
:1063A800FFF7B8FD00F0F2FD2046054A0021BDE8E0
:1063B8001040FFF749BD0224E9E70324E7E700BFDF
:1063C800B1340300FFF7D4BF232910B40C4607D813
:1063D8000B49097889B1E1B25DF8044B08F0F4BEC5
:1063E800FF2903D95DF8044BFFF780B940F29511F6
:1063F80004485DF8044BFEF7D3BE5DF8044B7047C4
:10640800E54C00204838030037B5104C0123002024
:106418002370FDF745FF254640B10020FDF740FFFA
:1064280020B100232370492003B030BD02230DF1B1
:1064380006007F220021FFF7C7FFBDF806300020C5
:10644800B3F57F7F1CBF28700720EDE7E54C0020DF
:1064580023282DE9F0410546884616461F4616D8DA
:10646800124B1B788BB1124C237823B14FF4D071A7
:106478001048FEF795FE0123237042463B463146FD
:10648800E8B209F003F800232370BDE8F081FF2883
:1064980005D931461A46BDE8F041FFF74BB94FF42C
:1064A800D6710448BDE8F041FEF77ABEE54C0020FD
:1064B800EF4B002048380300024B1B780BB109F062
:1064C800E3B87047E54C0020232970B50546164609
:1064D8001C4607D8194C2478B4B1C9B2BDE870403D
:1064E80008F0FABAFF2921D97F2A01F4704308BFBE
:1064F8000026B3F5805F08D1C1F30B0141F07E613E
:1065080014FB06F42144296070BDB3F5405F06D141
:10651800C1F30B0141F07E6141F48041F0E74FF493
:10652800EE710748FEF73CFE0021ECE74FF4F171ED
:106538000348BDE87040FEF733BE00BFE54C0020BD
:106548004838030008B50C4B198A40F6A732914227
:106558000AD11B8B1B0A012B0CD101280AD840F247
:10656800022006F097FC05E040F628031B689B69AB
:10657800DB02F2D4012008BD000000000E4B198A8E
:1065880040F6A732914206D11B8B1B0A012B10D073
:106598004FF6FF70704740F628031B689B68C3F3EB
:1065A8000340C3F30362000240EA0230DBB218433F
:1065B800704700F003B800BF00000000054B198ABF
:1065C80040F6A732914217BF40F62803588B1B6844
:1065D80058897047000000002D4B002A70B52D4DDA
:1065E800446B08BF1D462C4B14BF1026002698424A
:1065F8003AD102293FD004D8B9B1012921D00023CA
:106608002DE0062931D0812935D00329F7D1234B34
:106618001A6819681B68120C1B0C03F0F00302F4CB
:10662800FE421A43C1F3034318E01D490B680A6888
:1066380003F4FE4302F00F021A430B6803F0F00361
:106648000CE0174A1368116812681B0C120C02F050
:10665800F00203F4FE431343C1F303421343B34070
:106668002C400D4A2343536370BD0E4B1A681B68B8
:1066780002F00F02E2E7094A13681168126803F48E
:10668800FE4301F00F010B4302F0F002E6E700BF02
:106698000080FFFFFFFF0080002000401482E00F11
:1066A8001082E00F1882E00F38B50C460223836091
:1066B800002289780546FFF78FFF22796078617993
:1066C800130243EA006343EA0143E17843EAC10362
:1066D800E17909B143F00053217A09B143F0040389
:1066E800A17909B143F00203617A09B143F00103CA
:1066F800F32AA17806D129B903289CBF23F0706337
:1067080043F0806348B20028ACBF43EA411343F02A
:10671800E0032B616B69002823F4F21323F00703CD
:10672800BCBF21F080010B43217843EA4143E17A61
:1067380009B143F480436B616B0103F18443A17A8F
:1067480099606B0103F1844303F5C863F32A0CBF16
:10675800012200221A60EB6FD5F88030EB6838BD53
:106768000C4B984210D90C4B984210D902220123A5
:106778000A490B600A49D1F8003123F0807343EAD3
:106788000263C1F80031704700221346F0E7012286
:10679800FBE700BF0048E8010090D0034000C84371
:1067A80000400E400A490B4B88425A680BD90A49E7
:1067B80088420AD902F040715A6822F0407242EACF
:1067C80001625A6070470021F6E70121F4E700BF33
:1067D80040787D0100000E40005A620238B5064C30
:1067E80041F67133256C236401F044FDFFF7DAFFAD
:1067F8000DB10023236438BD00000E40044BD3F8CC
:106808004421D20703D4D3F840211042FBD170476A
:1068180000400E400C4AD2F89030516A0B4B21F0E0
:10682800300141F0100110B55162146BC0F3C3116F
:1068380003310F2903EA040328BF0F21034343EA66
:106848000173136310BD00BF00400E4000F8FF0F36
:1068580038B5054C41F67133256C2364FFF7A2FF68
:106868000DB10023236438BD00000E40C0F303229D
:10687800013A38B50546092A13D8DFE802F0231390
:106888001212051619121C20104C0020C5F30435ED
:1068980008B1FFF7B3FF04F1047405EBC404A400C6
:1068A800216038BD00200A4CF0E70120094CEDE7D3
:1068B8001020094CEAE74FF48030084CE6E7002046
:1068C800074CE3E70020074CE0E700BFB0400E406C
:1068D800C0400E40E0400E40E8400E40F0400E4000
:1068E80050410E4000400E40C0F30313013B092BFA
:1068F8003FD8DFE803F0050B0F193E3E1F232C3568
:106908001D4BD3F80001C0F3042070471A4BD3F88D
:106918001401F8E7184BD3F80001C0F30060431CDA
:106928000120984001387047134BD3F80C01C0F38D
:1069380008207047104BD3F80801F8E70F4B98422E
:1069480017D10D4BD3F8203103F00F03E8E70C4BB8
:1069580098420ED1084BD3F8283103F00303DFE740
:10696800084B984205D1044BD3F8300100F00F00D2
:1069780070470020704700BF00400E408006160098
:1069880090071A00A009140008B5FFF7ADFF013001
:1069980008BD000000F00F000138072848D8DFE8DC
:1069A80000F0040F1947232D4735244BD3F89430B2
:1069B80003F00703023B022B3CD8214AD05C704706
:1069C8001E4BD3F8803003F00703013B032B33D869
:1069D8001C4AF3E7194BD3F8843003F00703013B53
:1069E800032B29D8184AE9E7144BD3F8883003F069
:1069F8000703013B032B1FD8144ADFE70F4B1B6F1C
:106A080013F0010F14BF0920072070470B4BD3F870
:106A18005C3103F03003202B06D0302B06D0102B2E
:106A28000CBF0720012070470420704708207047DA
:106A380000207047052070470120704700400E4035
:106A4800F8380300FB380300FF380300FB38030065
:106A580008B50146FFF79EFF1B4B994211D01B4B0F
:106A6800994212D01A4B994204D11A4BD3F880009C
:106A780000F007000138032824D8DFE800F00A0EE8
:106A88001612144BD3F88400F2E7124BD3F888009F
:106A9800EEE7BDE8084001F063BCBDE8084001F03E
:106AA80065BCBDE8084001F05EBC01F0E7FB094B9E
:106AB800D3F80031C3F300635A1C01239340B0FBA1
:106AC800F3F008BD0020FCE70300200005002400C7
:106AD80002001E0000400E4000F47813B3F5A01F1A
:106AE80010B5044659D01FD8B3F5202F07D00AD8BF
:106AF800B3F5003F46D0B3F5802F38D0ABBBBDE827
:106B0800104001F0BBBBB3F5602F5DD0B3F5801F1B
:106B18006FD0B3F5402F28D101F0B0FB404BD3F82C
:106B28001431C3F3042329E0B3F5001F3FD013D871
:106B3800B3F5D01F3DD0B3F5F01F29D0B3F5B01F82
:106B480013D13848FFF784FF354BD3F8202102F0E2
:106B58000F020123934012E0B3F5481F3CD0B3F570
:106B6800781F53D0B3F5101F2CD0002010BD01F0B2
:106B780085FB2B4BD3F80C31C3F308230133B0FB4F
:106B8800F3F0F3E701F07AFB254BD3F80831F3E78C
:106B98002448BDE81040FFF75BBF2348FFF758FFC4
:106BA8001F4BD3F8303103F00F03D840DEE71F48FE
:106BB800EFE71E48FFF74CFF194BD3F8282102F0E6
:106BC8000302C6E71848E4E71948FFF7E3FE072879
:106BD8000FD00928C9D192E71648FFF7DBFE07282E
:106BE80007D0082808D00428BFD1BDE8104001F01C
:106BF8007BBB114B1868B9E701F040FB084BD3F891
:106C08000031C3F3042303FB0000AFE701F036FBB8
:106C180001462046FFF7B8FEB1FBF0F0A6E700BF3B
:106C280000400E4002001E00050024000300200062
:106C380006000E00B8003200FC3900200E4B5A6ADC
:106C480012F0300F04D0202913D0302900D011B908
:106C58004FF4400200E0094AD3F8901032EA0101EB
:106C6800FAD1520246BFD3F8A000C0F38020012019
:106C780070474FF40002EFE700400E40FF03E107C2
:106C880002280AD129B1064B4FF48060C3F8A80046
:106C9800596612B10220FFF7D1BF0120704700BF2B
:106CA80000400E40F8B504284ED8DFE800F00A038B
:106CB800116D7200802640240623072500294FD035
:106CC80046E04FF400764FF4807408230925F5E771
:106CD800002942D0314C636A13F0300F35D1636A12
:106CE800DB0705D5636A23F0300343F010036362C2
:106CF800042402230325294E3466294E33449B007D
:106D08001F68002FFCD0FAB13544AD002B68002B6A
:106D1800FCD0022818D1B9B1204E716A11F00101D6
:106D280018D001222021FFF7ABFFD6F89C70012272
:106D380000210220FFF7B6FFC7F30A00FFF76AFD3C
:106D480034662B68002BFCD0F8BD042402230325ED
:106D58000021D0E7FFF772FFE7E7082602230325A3
:106D68000E4901200E6600FA03F3D1F8900018428C
:106D7800FBD1002AE8D00123084A03FA05F5D2F826
:106D880090302B42FBD1DFE7012402260023254661
:106D980094E720261024042305258FE700400E40A1
:106DA8008004F21000F00F00013810B5072843D80E
:106DB800DFE800F00F043E423C5C42674A4C013970
:106DC800092939D8DFE801F05039403838473838D0
:106DD8003836023903292FD8DFE801F02502191FB8
:106DE8000120032401221146FFF75CFFFFF7F6FCA0
:106DF8003E4B5C6701F066FA044601F03FFAFFF784
:106E0800AFFC20460021BDE81040FFF721BD3848FF
:106E1800FFF7A6FC02200446E4E73548FFF7A0FC8C
:106E280001240320DEE700200424DBE7314CC6E719
:106E3800314CC4E70423236010BD01221146002011
:106E4800FFF730FF0223F6E7012211461046FFF74D
:106E580029FF0123EFE701F011FAFFF781FC274B27
:106E680001221A600323E6E70023E4E7072904D098
:106E78000929E1D11D4B012201E01C4B00221A67B0
:106E8800DAE701390729D7D801A353F821F000BF61
:106E9800EB6E0000416E0000416E0000DD6E0000E8
:106EA800416E0000416E0000CF6E0000B96E000018
:106EB80003220E49D1F85C3123F0300343EA021370
:106EC800C1F85C31B8E7012211460420FFF7EAFE59
:106ED8000122EEE7012211460220FFF7E3FE02221B
:106EE800E7E70022E5E700BF80400E4000400E4083
:106EF8000148E80188400E4084400E400016C8430F
:106F080010B504461120FFF745FD0122002102209B
:106F1800FFF7C8FE1A4A217C536A23F001030229AD
:106F280008BF43F001035362164B21781960936A36
:106F3800E17A23F007030B439362A188637A43EA5B
:106F4800C123D362136BA07A217A03F07F630343D2
:106F5800E08843EAC02343EAC11303310F2928BF5D
:106F68000F2143EA01731363A37B617B1B0143EA8F
:106F78000133E17B0B43217B43EA0143536310BD9B
:106F880000400E40A004C84372B6704762B670470E
:106F9800EFF3108072B6704700B962B6704760238D
:106FA80083F311887047002383F311887047EFF348
:106FB8001180602383F31188704780F3118870472C
:106FC800EFF31083DB0706D4EFF311805F2894BF3B
:106FD8000020012070470120704700004109054A40
:106FE80000F01F0352F82100D840C04300F0010010
:106FF800704700BF00E100E010B50446EFF31083CE
:10700800DB0733D4FFF7EAFF00282ED1002CA7BFF7
:1070180004F1604404F5614404F00F04144BACBF60
:1070280094F800231A5D5209EFF3118313B1B2EB00
:10703800531F1BD20F4C6368C3F30803ABB1103B5B
:10704800DBB259B20029B5BF03F00F0301F1604369
:10705800043B03F56143B6BF1B1993F80003187E80
:107068004009824234BF0020012010BD0120FCE706
:1070780014ED00E000ED00E01848194BC26C1B88C5
:10708800C2F303222833013202EB820103EB5303DC
:10709800B3FBF1F3C16C013B072B21F0EE6128BF74
:1070A800072341F4801141EA0363C3640D4BB3F92C
:1070B8000030002B10DB2833510801EB420203EBB0
:1070C8005303B3FBF2F3026D072B28BF072322F00B
:1070D800700242EA03130365704700BF00300E4098
:1070E8006E48002070480020084B1A78013A012A9F
:1070F8000BD8074A126C02F00302012A03D1054992
:107108000A68D203FCD503221A7070479B4B0020F3
:1071180000300E407C300E40054A064BD16C196099
:10712800D36C23F47F4343F4EE43D364FFF7A4BF47
:1071380000300E405843002008B5054BD3F8902086
:10714800044B11201A60FFF725FC034B187008BD8B
:1071580000400E40C0410020A54B0020114A38B520
:1071680045F60E03104CD2F88051C2F880312168E0
:1071780021F0AA01C905C90D11660C4A1178052923
:1071880002D01120FFF70EFE2368DA075EBF054B19
:1071980002221A66EB0742BF024B0022C3F8802185
:1071A80038BD00BF00400E40C0410020A54B002064
:1071B8007047000010B5044608B1FFF7BDFF0E4A3E
:1071C800136943F004031361FFF7A6FFFFF78CFF71
:1071D800FFF7EEFF30BFFEF7A5FF084B1A68084B14
:1071E800DA64FFF749FF1CB1BDE81040FFF7B6BFEE
:1071F800BDE8104001F066B800ED00E058430020FB
:1072080000300E4010B5044608B1FFF795FF164B45
:10721800D3F8802145F60E01D20748BF0022C3F8F3
:1072280080114FF42071196648BFC3F880210F4AB6
:10723800136943F004031361FFF76EFFFFF754FF70
:10724800FFF7B6FF30BFFEF76DFF094B1A68094B11
:10725800DA64FFF711FF1CB1BDE81040FFF77EBFED
:10726800BDE8104001F02EB800400E4000ED00E0EF
:107278005843002000300E40FFF75EBFFFF76EBF97
:10728800704700000378002B437870B50E4C14BF8C
:1072980004260026002B8378A16914BF0225002547
:1072A800002B037921F03F0143EA0103C17814BFA1
:1072B80008220022012908BF43F0010333432B436E
:1072C8001343A36170BD00BF00300E40194B4AF64E
:1072D800E85210B55C6B5A639A6FD207FCD41B6CEA
:1072E80013F003031EBF144A01211160834203D126
:1072F80008B9114B186010BD23B9012802BF0F4B04
:1073080002221A700B4A1146936FDB07FCD4136CE8
:1073180023F00303034313648B6F13F00103FBD1C2
:107328000030054A18BF0120012C106008BF4B63CC
:10733800E1E700BF00300E40B40AC6439B4B002073
:1073480070B51D4D4AF6E852AC69AE69AA60A869E5
:1073580024F4403410F0010044F4003446F440367C
:1073680007D12B6C03F00303013B012B01D8FFF776
:10737800ADFFAB69DB070FD572B6104B4AF6E85282
:107388001A600F4A136843F080031360A2F58872ED
:10739800136843F480731360FFF7BEFEFFF7A4FE83
:1073A800054B9C619E619C619E619C619E619C6194
:1073B8009E619C6170BD00BF00300E4090310E4050
:1073C80098310E40A0F5E163B3F5966F2DE9F047CB
:1073D80003D900210846BDE8F0875F4C5F4BD4F81D
:1073E8006851DB6CB0F5E16F1FBF4FEA156AC5F352
:1073F80007484FF496694FF4E16701BFC5F3072AC0
:107408005FFA85F84FF416794FF49667B0F5E166A0
:10741800C3F3017C18BF012646EA0C2E40F2011383
:107428009E455BD0BEF5817F09D2BEF1010F1BD00E
:107438005DD3BEF5807F5DD000252B4619E040F274
:1074480001239E4550D005D8BEF5007FF4D1D4F86D
:1074580070310BE0BEF5407F4FD040F201339E45BE
:10746800EAD1D4F878313BE0D4F87431C3F3072576
:10747800DBB2C71BAAEB080E07FB0EFEBEFBF9FE2C
:10748800C644D645A5D8A5EB030807FB08F7B7FB04
:10749800F9F73B44AB424FF000079AD882B1DFF8C6
:1074A800BC80D8F85C5025F4FE4525F00205B0F5FF
:1074B800E16F45EA0E2518BF02273D43C8F85C5026
:1074C800002946D0226DD2B2032A19D8B0F5E16F4F
:1074D800D4F87C211FD0C2F307221DE0D4F8743100
:1074E8001D0EC3F30743C4E7D4F87831BEE7D4F8D8
:1074F8006C31BBE7D4F86C31F2E7D4F87031EFE7C0
:10750800BCF1020FD4F880211ED0BCF1030F1ED0AD
:10751800BCF1010FDFD0D2B2120312F4702F7FF446
:1075280058AF0E4CE06E20F470400243E266626E83
:1075380022F4FF72E72B22F0010228BFE72332432F
:1075480042EA4303636645E7C2F30742E4E7120EE3
:10755800E2E701213EE700BFB081E00F00300E40B6
:10756800194B1A6FD96CC90702F0070214D5012A02
:1075780012D9132823D9143813288CBF10230823B1
:107588001148013BC26C190322F47F4241EA0323EC
:107598001343C364FFF770BDDB6CD90706D4012A17
:1075A80004D809280BD90A380928E6E7064BDB6C0A
:1075B80013F00103E4D0012A03D82728DDE70423C8
:1075C800DEE70023DCE700BF00300E40054A064B2B
:1075D8001B68136F23F007031843044B10671888C0
:1075E800FFF7BEBF00300E408009C6436C4800203C
:1075F800544B022273B59A639B6B03F00F039342BB
:10760800054603D00024204602B070BD4E4BD3F887
:107618006C3101331DD04D4B1A68043B1B681A604E
:107628004B4B1A68043B1B681A604A4B1A68043BA8
:107638001B681A60484B1A68043B1B681A60474B62
:107648001A68043B1B681A60454B1A68043B1B68A0
:107658001A60E988A888B5F90C604A2965D9B1F596
:10766800FA7F64D340F6C313994294BF4FF0005198
:107678004FF04051334CE36C23F0405323F00103A7
:10768800002EA8BF43F001030B43E364354B188079
:10769800E36E43F08073E366334B186800B104204F
:1076A800FFF794FF236E23F0C0432366E36C43F097
:1076B800060301A8E36400F0E9FB9DF80500012832
:1076C80012D19DF80430022B0ED828490B785BB9EB
:1076D800274A136843F001031360236E254A1A40B2
:1076E800254B134323660870244B29891980244BA2
:1076F800B5F90C20A8881A80FFF732FFAB7BCBB115
:10770800012B1BD0012211466888FFF75BFE044657
:1077180000283FF477AFAB7A1A4A6878003318BF6D
:1077280001231360FFF7D2FD6DE70021A2E74FF0B8
:1077380080519FE7034B144A9A65E3E7014B134ACC
:10774800FAE700BF00300E40B081E00F3C80E00F48
:107758004480E00F4C80E00F5480E00F5C80E00F25
:107768006480E00F6C4800208009C6439B4B0020D2
:1077780044300E40000F0EF0B4C0400B6E4800209D
:10778800704800209407C64377402057372110B728
:10779800144B1A6830B5002814BF02250025012AA9
:1077A80006BF4AF6E8511960002202280E4804680C
:1077B8000CBF24F0740444F0740404600B4804689B
:1077C80044F0080404600A4C216821F4406141EA4D
:1077D80085212160016821F0080101600AB10022B9
:1077E8001A6030BD90310E4064310E409C310E401D
:1077F8003C400E4070B505460E461446FFF7C8FBE0
:107808002A68544004EA060151402960BDE87040E6
:10781800FFF7C2BB072AF8B501F0030615461F4655
:107828004FF00F0120D8940000FA04F2A140164846
:10783800FFF7E0FF0321154806FA04F2A140FFF71D
:10784800D9FF134B9DF818202B449B001F60C3F8E9
:107858008020012202FA05F50E4AC2F824549DF848
:107868001C20C3F80023F8BDA2F10804A40000FA04
:1078780004F2A1400848FFF7BDFF032106FA04F20D
:10788800A1400648DBE700BF00A4004008A4004070
:107898008020851000A0004004A400400CA40040F3
:1078A800F0B54AB130261E4C012546438D4034447C
:1078B8000BB304F1C06425603024444304F18044D0
:1078C800072904F5204419D865688E000F27B740AA
:1078D80025EA070502FA06F63543656052B9012222
:1078E80002FA01F1302250430D4A0244A3B102F1D9
:1078F800C0621160F0BD04F18064DCE701F18045ED
:10790800083DA668AD000F27AF4026EA070602FA31
:1079180005F53543A560E1E702F18062E9E700BFBC
:107928000CA00040084B4FF48072C3F88020BFF3CE
:107938004F8FBFF36F8F054B0021D9664FF48A40F4
:107948001962FEF793BF00BF00E100E000200E407F
:10795800034B03449B0081F001011960704700BF8D
:10796800A001F11010B5044601214FF48A40FEF73A
:107978007DFFB4F8013022785BBA9BB243EA026318
:107988000B4A136000231362D36253634FF0004322
:10799800D3664FF0FF339366064A4FF48071C2F8FE
:1079A8008011E3785B01DBB282F80833116010BD07
:1079B80000200E4000E100E02DE9F041254D91F84E
:1079C8000BE091F80AC00F7B0C464FF03008C3B2A9
:1079D800012608FB00509E402368497BC0F8803090
:1079E8004FEA0E5343EA0C4343EA475322F003029B
:1079F800C0F88810C0F88430C0F89820AE66FFF749
:107A0800D6FAEB6E3343EB66237A13B16B6B3343D1
:107A18006B63637A13B1EB6A3343EB6222792B68A9
:107A280022B1D243120262F47F42134062790AB152
:107A380043EA0223A2790AB123EA0203E27902B1F6
:107A48001343044A1360044B1E60D663BDE8F0413B
:107A5800FFF7B3BA00200E4028200E4410B5C0B27C
:107A680001248440FFF7A3FA054AD36E23EA0403EE
:107A7800D366044B1C60BDE81040FFF79EBA00BFF8
:107A880000200E4020200E44F8B5C3B201259D40C9
:107A98000446FFF78CFA0A4B30221E6E9F6A02FBDF
:107AA8000434D4F88C40FFF788FA3D4206D1C4F379
:107AB8000A1008B9354200D10130F8BD0020FCE7B2
:107AC80000200E40036CDB0702D4436C0B42FCD150
:107AD80070470000064B0B4003F58073B0FBF3F2D0
:107AE80003FB12000002B0FBF3F000EB022070472A
:107AF800F8FF0100074B984210B5044607D1064825
:107B0800FEF7EAFFE168BDE81040FFF7E3BF002099
:107B180010BD00BF00A0044090071A00CB435B00D3
:107B280003F00A0310B541EA03020221FFF7CAFF76
:107B3800426010BD436C002BFCD101220264EA2292
:107B4800426040F2F9720360C3600361436183637A
:107B58004263C363436583650364704710B5024697
:107B68000C469368DB06FCD540211046FFF7AAFFB8
:107B7800946210BD0F4A70B5002308258B4201D1CD
:107B8800002070BD50F8234094610B4CD560013340
:107B9800D669F60705D514B96FF00200F1E7013C84
:107BA800F6E7002CF8D0D469A407E7D56FF00100F8
:107BB800E7E700BF00000E4080969800044B41F6AE
:107BC80071321A649A6822F001029A60704700BF05
:107BD80000000E40034B9A6822F001029A600022CE
:107BE8001A64704700000E40094A0A4BD969C90750
:107BF80005D512B96FF002007047013AF6E7002A7E
:107C0800F8D001221861DA60D86940F38000704723
:107C18008096980000000E4009B1FFF7ABBF0846F8
:107C280070470000234B2DE9F0470F4641F67131AC
:107C38001E6C1964996841F001018146B6B29960D9
:107C48004FEA9208BA46002545450ED30020D9F8D8
:107C580000203B689A420ED04846FFF7C5FF50B94E
:107C680001213846FFF786FF05E009EB8504204629
:107C7800FFF7BAFF48B10F4B9A6822F001029A60E9
:107C88000EB100221A64BDE8F087C4F30A04C4F5F3
:107C98000064A408A8EB05039C4228BF1C462146A3
:107CA8005046FFF7B9FF0028D1D125440AEB840AD2
:107CB800CAE700BF00000E401E4B41F671311A6C36
:107CC80010B51964996841F00101996001211861A2
:107CD800D960D9694C0792B209D5996821F0010198
:107CE80099600AB100221A644FF0FF301FE00221A8
:107CF800114CD9601946D869C00700D56CB9C86954
:107D08008B6810F0020023F001038B6007D00AB1E2
:107D180000230B646FF0010009E0013CEBE724B994
:107D280002B10C646FF0020001E00AB1086410BDF2
:107D38001046FCE700000E4080969800FFF772BFDF
:107D480010B590FAA0F2054C2368B2FA82F223EA41
:107D5800000091400143216010BD00BF00500E405B
:107D6800014B01229A60704700500E40194BF0B544
:107D78005C68194D194E1A4F00231846D6F800C0F2
:107D8800EA181CF0040F51685A5908D1B2F5806FEF
:107D980003D018D8B2F5007F01D141F48071D7F82B
:107DA80000C01CF4807F18BF21F01C01144202D0CF
:107DB800214208BF10430833482BDFD1C30348BF13
:107DC80020F01C00F0BDB2F5006FE6D0B2F5803FA0
:107DD800E2E700BF00500E4004390300E841E00F1D
:107DE80088300E408B784A789B0143EA82030A78F0
:107DF8001343CA7843EA02130A7943EAC2234A7949
:107E080043EA02338A79043043EA42430001014AD3
:107E18001350704700200440014B1860704700BFA2
:107E280000008442427801790378002A827870B58C
:107E380014BF04260026002AC27814BF1025002586
:107E4800002A42794FEA023242EA012242EA030258
:107E5800837914BF20240024002BC37942EA03430A
:107E680043EA0603027A43EA050314BF4FF40041CC
:107E780000212343002A14BF4FF4003200220B4391
:107E88001343014A136070BD002004400B4A536934
:107E980011699B0003F03C03C1F381110B4383700C
:107EA800136903F03F0343709369D26903F0F00349
:107EB800C2F3031213430370704700BFD0FF0FE0F3
:107EC8002DE9F04F0C780CB902234360002343627C
:107ED8004B78CA7891F802B08D7A91F808A091F899
:107EE800069091F80780002B4B7A4FEA024214BFA4
:107EF8004FF0400E4FF0000E42EA0B62002B14BF09
:107F08008023002342EA0A02002DCD7A42EA892220
:107F180014BF4FF0200C4FF0000C42EA0822002D4D
:107F28000D7B42EA0E0214BF102700271343002DD1
:107F38000D79497943EA0C0314BF082600263B4310
:107F4800002D14BF4FF4005500253343002914BFFA
:107F58004FF0805100212B430B4303600CB10123E8
:107F68004360BDE8F08FF0B5537814781B0643EAF8
:107F7800846394792343947843EA0443D47843EAA6
:107F88000433147943EA8423547943EA0423D479E3
:107F9800002C147A14BF4FF080470027002C547A25
:107FA80014BF4FF000560026002C947AD27A43EA88
:107FB800027343EA070314BF102500253343002C3E
:107FC80001F1060114BF042400242B4309012343B3
:107FD8004350F0BD70B5054616461C4619B91448FD
:107FE800FEF77AFD0146202C08D001D8ECB170BD0F
:107FF800402C18D0602CFAD1042200E0082206FB9D
:1080080002F35A0802EB4112B2FBF3F2094B203A91
:1080180003EAC2022B6823F060032B602B681C4321
:108028002C606A61E3E70622E9E71022E7E700BF70
:1080380040410500F8FF7F00F8B5154F14460F4082
:108048001ABB202B07D0402B07D0002B0CBF1025C4
:108058004025012603E01D46FBE78025032607F59A
:1080680080777E430023324619462AF03FFE544368
:1080780000FB05F705FB0344A2FB0501214432463A
:1080880000232AF033FE3844F8BD80250024E0E7B9
:10809800F8FF7F0070B5044605680648FEF71CFD2A
:1080A8002368616905F0010203F06003BDE87040D0
:1080B800FFF7C2BF40410500CB435B0003F00A0352
:1080C800C360C1607047000040F6AA63C36041F214
:1080D80005020023036042600A4A83604361C36467
:1080E8008264094A03669042436702F580628367A7
:1080F800C36701D0904200D103659042836508BFF1
:10810800C3657047F9FF01000000014038B5054616
:108118000C46FFF7D9FF8B7C1BB1036843F0804303
:108128000360E37C1BB1237D43F08003AB65228AA7
:10813800637B1343E28913436B60D4E90112237B09
:108148002846FFF747FF637D1BB12B6843F4803354
:108158002B60A37DE27D1B07120502F4E00203F009
:10816800E04313432B666B6F23F030036B676A6F32
:10817800237E13436B672378EB6038BD03691B06C6
:10818800FCD5C069C0B2704703695B06FCD5416382
:1081980070470368DB060FD447F231538268D20771
:1081A80001D5013BFAD1036803F001038B421EBFDE
:1081B80000F104704001016070470368D90707D5D2
:1081C80083689A0704D48368DB07FCD401234360DF
:1081D80070474B78CA78002B8B782DE9F04114BF93
:1081E8004FF0020E4FF0000E002B14BF04230023A3
:1081F800002A0A7991F807800C7814BF4FF0080C10
:108208004FF0000C002A4A7914BF20270027002AC3
:108218008A7914BF40260026002A0A7A4FEA0222E9
:1082280042EA083291F8098042EA0402CC7A897A53
:1082380042EA084242EA016242EA0E0243EA0203C3
:1082480043EA0C0343EA070314BF10250025334310
:10825800002C14BF4FF0004400242B43234347F263
:1082680031528168C90701D5013AFAD10360BDE8E6
:10827800F08100000048704700F049020D4AD2F82A
:10828800943003F00703032B11D0042B03D0022BE7
:108298000BD1094B00E0094B1868D2F80031C3F341
:1082A80004230133B0FBF3F07047054BF4E74FF4B8
:1082B8000040F2E700400E40F0390020F839002075
:1082C800F439002008B5FFF7D9FF054BD3F808317A
:1082D800C3F308230133B0FBF3F0024B186008BD69
:1082E80000400E40EC390020014B1868704700BF71
:1082F800F0390020054B1860054BD3F8943003F093
:108308000703022B01D1FFF7DDBF7047F0390020CA
:1083180000400E400E4B0F4A9A60D3F8882042F472
:108328007002C3F888200C4B5A6D42F400525A650B
:108338001A6C22F003021A64084A136823F0010336
:10834800136052F8143C23F0805342F8143C7047F1
:1083580000ED00E00041000000300E4074300E4097
:108368004FF4004070474FF47A707047014B18681B
:10837800704700BFF83900202DE9F04F9B46584B55
:1083880085B01B78109F9DF844A0DDF85080064604
:1083980089461546002B00F09280072A00F291804A
:1083A8000E9B002B00F08D800F9B002B00F0898026
:1083B800129BB3F5006F00F38480012801D1002FD0
:1083C8007FD0484B03EB05131B7B002B7BD0464C1F
:1083D8001022002168462AF074FE04EB451410228E
:1083E800B9F1000F5CD1494620462AF06AFEA3780D
:1083F80043F01003A370E37843F03003E370BAF15D
:10840800000F03D1DBB243F00303E3703649129B3C
:10841800CDF800B06A01013B885A01EB020C63F306
:108428000E1088520E9BCCF808300F9BCCF8043005
:108438009DF84C109CF80330012E61F383038CF8EF
:10844800033042D11323CCF80C309CE80F000CF118
:10845800100E8EE80F00DCF81C20CCF814706FF0BA
:10846800030161F39F02B9F1010FCCF81C2004D17C
:108478000F9BCCF81830CCF804701A492A018B18D5
:1084880041F802800027159A5A6028469F605E735B
:1084980022466946FFF790FA384605B0BDE8F08FE6
:1084A800002120462AF00DFE1023A3700323E37059
:1084B800BAF1000FAAD1DBB243F03003A5E70B48AD
:1084C800EBE70B48E9E70B48E7E7B8F1000FD4D131
:1084D8009CF8023068F304138CF80230CDE700BF33
:1084E800A84B00202841002020420020028000F0F4
:1084F800018000F0078000F038B5104B1B78054666
:10850800BBB1C0B1FEF753FD0D49002301EB0312C7
:10851800147B3CB92B60012313731460FEF74DFDE7
:10852800204638BD0133082BF0D1FEF746FD05483B
:10853800F7E70548F5E70548F3E700BFA84B002033
:1085480028410020048000F0028000F0018000F043
:1085580038B5FEF72CFD0B4A05460023D1180C7BD5
:108568005CB91033802BF9D1FFF7DCF9064B2846AC
:108578001C70FEF722FD204638BD2846FEF71DFD7B
:108588000248F9E728410020A84B0020058000F0A8
:108598000D4B1B7810B5044693B1072812D8FEF787
:1085A80006FD0A4B03EB04131A7B2AB100241C7343
:1085B800FEF703FD204610BDFEF7FFFC0448FAE76E
:1085C8000448F8E70448F6E7A84B002028410020B3
:1085D800068000F0028000F0018000F013B5164B11
:1085E8001868019000238DF80430FEF7E0FC134B67
:1085F8001C7824B1FEF7E1FC114802B010BD01223D
:108608001A70FEF7DAFC0F4B1C731C7783F82C40AA
:1086180083F83C4083F84C4083F85C4083F86C4016
:1086280083F87C4004230DEB03008DF80730FFF737
:1086380099F92046E1E700BF4C390300A84B002018
:10864800038000F02841002010B588B00E9C0794E4
:108658000D9C06949DF8304005940B9C04949DF85D
:10866800284003940024CDE9013400920B460246C9
:1086780021462046FFF780FE08B010BD10B588B02F
:108688000E9C07940D9C06949DF8304005940B9C15
:1086980004949DF8284003940024CDE90134009205
:1086A8000B46024601212046FFF766FE08B010BDC2
:1086B80008B50A4B1B785BB107280BD8084B03EBAE
:1086C80000131B7B43B10021FFF742F9002008BDCE
:1086D8000448FCE70448FAE70448F8E7A84B0020F8
:1086E80028410020028000F0018000F0078000F09F
:1086F80008B50A4B1B785BB107280BD8084B03EB6E
:1087080000131B7B43B10121FFF722F9002008BDAC
:108718000448FCE70448FAE70448F8E7A84B0020B7
:1087280028410020028000F0018000F0078000F05E
:1087380008B50A4B1B7853B107280AD8084B03EB36
:1087480000131B7B3BB1FFF789F9002008BD0548E2
:10875800FCE70548FAE70548F8E700BFA84B002002
:1087680028410020028000F0018000F0078000F01E
:108778000D4B1B7893B1072812D889B10B4B03EB2B
:1087880000131B7B73B10A4B1A6A012303FA00F02A
:1087980010401ABF00200B700870704705487047DA
:1087A8000548704705487047A84B0020284100201D
:1087B80000200E40028000F0018000F0078000F0E9
:1087C8000B4B1B7810B50C4663B107280CD859B170
:1087D800084B03EB00131B7B43B1FFF755F92060EF
:1087E800002010BD0448FCE70448FAE70448F8E70D
:1087F800A84B002028410020028000F0018000F0F2
:10880800078000F02DE9F843174E326EF36E12EA36
:10881800030800D5FEE7154CDFF854900127002522
:1088280018EA070F16D02368B7669BB1A16862687B
:108838000131A16028469847637B012B0AD148B9CA
:1088480009EB4513197B1A7F60F3410160F341027C
:1088580019731A770135082D4FEA470704F11004F8
:10886800DED1BDE8F88300BF00200E40284100207B
:108878002042002070B5094E0446012504B970BD98
:1088880094FAA4F0B0FA80F005FA00F324EA03049D
:1088980056F82030002BF1D09847EFE7A44300208A
:1088A800054B4FF40032C3F880211A604FF4007270
:1088B800C3F880211A60704700E100E038B504462B
:1088C8000D46FEF774FB034B43F82450BDE83840CF
:1088D800FEF773BBA4430020074BD3F82804D3F852
:1088E8001C24104020F42A5020F02A004004400C98
:1088F800C3F82404FFF7BEBF00A00040074BD3F81D
:108908002804D3F81C24104020F4AA4020F0550075
:108918000004000CC3F82404FFF7ACBF00A000401B
:10892800104A4161136830B51546ABB910608360D1
:1089380011E0091B9C6841611A467CB123465C69B9
:108948008C42F6D9002CF4D052B19060836013B1F8
:108958005A69511A596130BD0022F0E72346F4E7FD
:108968002860F3E7B046002010B500F029FB094B5A
:10897800094A196831B11368C41A4B69A34203D371
:108988001B1B4B61106003E0C01A002310604B6191
:1089980010BD00BFB04600201844002038B50F4D68
:1089A8002B685C690E4B1B6802201C4400F036FBE8
:1089B800204600F00BFB0B492A6800230B70D08877
:1089C800800702D501230B7038BD9268002AFBD0BE
:1089D80050690344012BF2D9F6E700BFB0460020E6
:1089E80018440020CC4B002070B59DF81450057138
:1089F800002516468560049ABDF81850C5800446BF
:108A08000260C0E903360D4629B961610BB1114610
:108A1800984796B13546FEF7CAFA0646FFF7A4FF0F
:108A280029462046FFF77CFF054B1B68A34201D16E
:108A3800FFF7B4FF3046FEF7C0FA002070BD00BF54
:108A4800B04600200C4A136800217BB183420AD14A
:108A5800836879B18B6083681BB15A6941690A449C
:108A68005A610020704719469B68EEE70028EFD04E
:108A7800022070471360EEE7B046002070B5154E2F
:108A8800FEF795FA34780546FCB9134B1C60134B76
:108A98001C60134B1C8000F051FA012000F0BEFA54
:108AA80000F00AFB0F4B0246186020B92846FEF773
:108AB80084FA232070BD23460B4840F2E7312AF0A0
:108AC80015F90A4B1860012333702846FEF775FA2A
:108AD8000020EFE7AE4B0020B046002018440020ED
:108AE800C8480020AC46002018FCFFFF20440020A6
:108AF8002DE9F0410546F8B1FEF759FA0F4F064641
:108B0800FFF732FF2846D7F80080FFF79BFF04469F
:108B180028B13046FEF751FA2046BDE8F081A84555
:108B28003B6803D123B1FFF739FFF2E7002BF0D1FF
:108B3800022000F081FAECE72224EDE7B04600209D
:108B4800F0B50D4685B016461F46044680B1FFF7BE
:108B5800CFFFBDF82C3002939DF828300022CDE9D4
:108B68000073294633462046FFF73EFF05B0F0BDA7
:108B78002220FBE738B50C46054698B191B1002391
:108B88000B70FEF714FA084B1B6801210BB1227811
:108B98001AB1FEF712FA002038BD9D420CBF2170B1
:108BA8009B68F3E72220F7E7B0460020F0B587B0CE
:108BB8001F4600230D4616468DF817300446A0B10F
:108BC8000DF11701FFF7D6FF9DF817207AB9BDF808
:108BD800343002939DF830302946CDE900732046A1
:108BE8003346FFF701FF07B0F0BD2220FBE7032063
:108BF800F9E70000F8B50C460646C8B1C1B1FEF762
:108C0800D6F90546FFF7B0FE73692360134B1B685E
:108C1800B3420FD023B92846FEF7CFF903201CE052
:108C2800596922689B680A442260F1E700230FE033
:108C3800222012E00A4E276800F0C2F93368C01AF1
:108C48008742F3D900F0BCF93368C01A23681B1AAD
:108C580028462360FEF7B1F90020F8BDB046002091
:108C680018440020F8B507460E46FEF7A0F9124B47
:108C78001B680546002423B92846FEF79EF91B20E9
:108C880015E05A691444DA88BA4213D10B4F00F040
:108C980097F93B68C01AA0420AD200F091F93B68E4
:108CA800C01A201A30602846FEF787F90020F8BD60
:108CB8000020F7E79B68DEE7B04600201844002054
:108CC800014B1878704700BFCC4B002038B5FEF731
:108CD8006EF9054600F074F904462846FEF76DF96A
:108CE800204638BD70B5FEF762F9064600F068F90F
:108CF800094B1C8805460120A4B200F0B5F918B14B
:108D080000F05EF9013405463046FEF756F90022B8
:108D180042EA0500214670BDC8480020014B18688A
:108D2800704700BFAC4600200A4B1B68834210B551
:108D38000C460CD3084B19684FF47A720023A0FB39
:108D4800010129F0D3FF01302060002010BD21204F
:108D5800FCE700BF20440020AC460020104B1A68F6
:108D68004FF47A7310B5A0FB0301A2B1531E13424E
:108D780011D1B2FA82F2C2F11F02C2F12004A2F1AB
:108D8800200301FA04F420FA02F2224321FA03F341
:108D980042EA030010BD002329F0A8FFFAE700BF4C
:108DA800AC46002000000000F8B516461BA3D3E926
:108DB80000238B4208BF82422AD3174B1A684FF40C
:108DC8007A73A0FB034503FB0155C2B1531E13EA96
:108DD800020014D1B2FA82F2C2F11F02C2F12007D6
:108DE800A2F1200124FA02F305FA07F73B4325FA1A
:108DF80001F10B4325FA02F2C6E90032F8BD00235F
:108E08002046294629F072FFC6E900010020F5E74F
:108E18002120F3E7AFF30080AC460020EFA7C64B54
:108E280037894100C2072DE9F84F04460BD53F4A60
:108E3800138801339BB21380FFF796FD3C4B1B68E8
:108E48000BB1FFF7ABFDA3076DD53A4F00F0B8F8AB
:108E58003D688046451BFEF7AAF800268346324641
:108E6800B246334B1C6814B16369AB4214D9012E66
:108E7800314B51D1D288022A4ED11E70002C4ED0CF
:108E88006369C7F800805D1B6561FFF787FD584679
:108E9800BDE8F84FFEF791B8C7F8008023462A4688
:108EA8005969914209D8187994F804C0844588BF53
:108EB8001C469B68521A002BF2D15846FEF77DF8E3
:108EC800D4F814B0C4F814A0FEF771F8814620460F
:108ED800FFF7B8FD4846FEF770F823694BB1FEF777
:108EE80066F8216981462046FFF71AFD4846FEF7D5
:108EF80064F8E36813B121682046984700F060F8E9
:108F0800D844A5EB080581460544FEF750F801361C
:108F180083462246C846A4E700221A70AEE702201C
:108F280000F08AF8B3E7BDE8F88F00BFC848002012
:108F3800B046002018440020F64B002010B51C4B0A
:108F480086B05968186803AA03C2197A53F8090F3A
:108F5800117001909A8817489B79ADF80820012173
:108F68008DF80A300024FDF781FC03A88DF80C4029
:108F78008DF81040FEF756FF01A901208DF8044036
:108F8800FEF730FF0C4A536A23F4FF6323F007030C
:108F9800536240F2FF73136201209460FEF73CFFB6
:108FA800064B4FF00052C3F880211A6006B010BD7E
:108FB80050390300A00914000020044000E100E03B
:108FC800014B9868704700BF00200440114A93681D
:108FD800516D9269520704D4CA1A022A01D89942DB
:108FE8000DD1C21A012A98BF981C0A4BB0F1FF3F55
:108FF80028BF013058655A6A42F004025A62064A8C
:10900800137833B103490B6D43F002030B6500235A
:109018001370704700200440053F00208207054A6E
:1090280000F00103516A48BF43F004030B43536245
:10903800704700BF00200440830700F0010209D5F3
:10904800074B0121197007490B6D23F0030342F008
:1090580004020B6503494B6A23EA02034B6270471B
:10906800053F002000200440064B01289B6904D0DE
:10907800022805D1C3F38000704703F00100704750
:10908800002070470020044010B5FDF790FF094A02
:1090980093690446590703F0010003F0070348BF2A
:1090A80040F002001362FFF7BDFE2046BDE8104005
:1090B800FDF783BF002004400148FDF70DBD00BF48
:1090C800A0091400044B1B6800EB8000A3EBE00030
:1090D80080F30800704700BF20410020174B40284C
:1090E80070B59C6824DD5028B4BF012302231449BD
:1090F800144A154DDE00314403C982E80300134ABF
:10910800324492E80300012C85E8030003D10B4A9E
:109118004AF6E8519160012B0CD0022B0CD00020AC
:10912800FEF736FB012C02D1044B00229A6070BD79
:109138000023DCE70120F3E70220F1E700300E40CE
:1091480060430020484600207846002078430020ED
:10915800FFF7C4BF044B4FF04042DA621A6B22F0AB
:1091680040421A63704700BF00300E402C48F0B5EB
:10917800002203682B4D114654592CB11E68AC18B7
:10918800002E36D1234601210832302AF4D101B10C
:1091980003602549254E0B680022144695592DB1C8
:1091A8001F68B518002F2BD12B4601240832302A0E
:1091B800F4D104B10B6000681D4B026842B3DA6950
:1091C800007922F0FF020243DA611A6B42F0804212
:1091D80009681A630A68164BF2B1DA69097922F448
:1091E8007F4242EA0122DA611A6B42F000421A63B6
:1091F800F0BD1E792779B74284BF23460121C3E712
:109208001F7995F804C0BC453CBF2B460124CDE727
:109218001A6B22F08042DBE71A6B22F00042E6E785
:10922800F0430020484600201C44002078460020D7
:1092380000300E4008490B6A0A6ADBB2D2B2934288
:10924800F9D1064A0520DB00B3FBF0F31068C31A16
:1092580003F3070040B2704700300E40244100205D
:1092680070B5144C226B616A0A4011D5124B1B6809
:109278001E6836B100251D605D60FFF7DBFF2946DB
:10928800B0474FF00043E362BDE87040FFF76EBFA0
:109298005300F9D5094B1B681C6834B100221A60C9
:1092A8005A60FFF7C7FF0121A047024B4FF08042E9
:1092B800DA62E9E700300E401C440020F043002049
:1092C800FFF7CEBF2D4B37B501221A70002130228F
:1092D8002B4829F0F6FE302200212A4829F0F1FE19
:1092E800294A2A4B13602A492A4A13600A684B6D97
:1092F800C2F30742FF2A02D0DBB2FF2B01D1902331
:10930800192202EB8201244803EBD1010160DB0042
:109318000521B3FBF1F31344204A01A81360FEF7BB
:10932800B5FD9DF80530012B1BD14120FFF7CAFE82
:109338001B4C1C49207139202160FFF7C3FE0546EC
:109348005020FFF7BFFE184A20731573916048201C
:10935800A160FFF7B7FE10751161FFF76BFFFFF70C
:10936800BDFEFFF7F7FE114B0122C3F880211A60FA
:10937800FFF7FCFE002003B030BD00BF1D4B0020EE
:109388004846002078460020F04300204C44002046
:10939800B081E00F1C44002020410020244100201F
:1093A80060430020599100007843002000E100E06C
:1093B80038B141B1013AB2F5006F044838BF002016
:1093C8007047034870470148704700BF037000F0BA
:1093D800027000F038B504460D46FDF7E8FDA28896
:1093E80092B222B92A60FDF7E8FD064838BD6388C5
:1093F800142202FB034308332B60FDF7DEFD002037
:10940800F4E700BF0B7000F038B504460D46FDF7D1
:10941800CEFDA3889BB223B92B60FDF7CEFD0C4887
:1094280038BD6388E188142202FB034308332B60AC
:1094380063885A1C92FBF1F301FB13239BB26380F0
:10944800A388013B9BB2A380FDF7B7FD0020E7E7A7
:109458000B7000F0F8B5044617460D46FDF7A7FD5A
:10946800A388E2889A42064605D800233B60FDF7A8
:10947800A4FD1648F8BD2388142202FB03430833D1
:1094880005F1100C2A4603CA624518605960154652
:1094980003F10803F6D1106818602388E1881422C4
:1094A80002FB034308333B6023885A1C92FBF1F309
:1094B80001FB13239BB22380A38801339BB2304660
:1094C800A380FDF77AFD0020D4E700BF0A7000F002
:1094D800034610B593F832300068012B0AD1FEF725
:1094E80009FB0446FFF71AFC24235843B0FBF4F0A9
:1094F800013010BDFEF7CEFDF3E70000427E3023B9
:109508005343044A1A44437F03EBC2039B00186881
:10951800C0B270471CA0104213B51D4A002352F870
:109528002340617F81420ED00133042BF7D102B072
:1095380010BD0028FBD19DF80730002BF7D06068DC
:10954800FFF7B6F8F3E794F83130022BEFD1204655
:10955800FFF7D4FF637D2075022BE8D194F82E30F5
:1095680003F0FF02002BE2D102A9606801F8012D87
:10957800FFF7FEF8237D1BB194F82F30002BD8D0CD
:10958800002384F82F306068FFF7B2F8CFE700BFF8
:10959800B846002090F8323053B903680422DA60E4
:1095A8001A699007FCD55A6F42F002025A67704751
:1095B800012B0CD103685A6C9107FCD404225A6021
:1095C8009A689207FCD55A6D42F002025A657047B4
:1095D80090F8323053B903680122DA601A69D0076B
:1095E800FCD55A6F42F001025A677047012B0CD123
:1095F80003685A6C9107FCD401225A609A68D20712
:10960800FCD55A6D42F001025A65704790F8323025
:109618003BB903685A6F22F001025A670222DA60E6
:109628007047012B09D103685A6C9207FCD45A6D14
:1096380022F001025A6502225A6070470F49104B06
:109648000A782AB9C3E90022C3E9022201220A7072
:10965800002253F82210814208D00132042AF8D19E
:10966800002153F821201AB943F82100002070473F
:1096780001310429F5D10348704700BFEC4C0020A4
:10968800B8460020027000F010B50446FEF7A6FFA9
:109698000021201DFEF730FF014608B1044810BD27
:1096A80004F10800FEF728FF0028F8D0F6E700BF0D
:1096B8000E7000F038B50446FDF779FC616B01398E
:1096C8000546616319B9044A0120FCF7BDFB284629
:1096D800BDE83840FDF771BC8C39030037B591F807
:1096E80032200B68012A0BBF9C681C69C4F3C004B4
:1096F800C4F340140D46084634B1FFF7DBFF0223DC
:1097080085F8383003B030BDFFF7E2FECDE90044FC
:1097180001462B46024A0348FFF748FAF2E700BF22
:10972800E5960000004E002038B50446FDF73FFCE2
:10973800636B054623B90121054A0846FCF784FBFB
:10974800636B013363632846BDE83840FDF735BCD9
:109758008C3903007FB5012380F82C3090F8323023
:1097680093B90C4A036803920022049002924A6853
:109778000192012200920A68016980681C33FEF791
:109788007DFF07B05DF804FB012BEAD0002380F8C9
:109798002C30F6E7F19E0000F0B5012380F82D305B
:1097A80090F8323089B004460F465BBB0568343503
:1097B800FDF7FDFB0DF11F0106461948FFF7DAF921
:1097C80040B99DF81F302BB11548FFF791F9204695
:1097D800FFF770FF30460126FDF7EFFB204684F8BF
:1097E8003860FFF7A1FF0F4B039300230494029303
:1097F8007B68E1686068CDE900632A463B68FEF74C
:1098080023FF0BE0012B06D105682B6843F40053B6
:1098180045F8283BCCE7002380F82D3009B0F0BD8F
:10982800004E002031980000F0B585B003A9906A79
:109838001446FFF7CFFD06462046FFF749FE0025F0
:1098480023460146CDE900551A4A1B48FFF7AEF9F1
:109858001A4B9E421FD0039B1D619D60FDF7A7FB1D
:10986800039AD768064627B1D2E90023294620463D
:10987800B84703A9A06AFFF7C7FDA06A83889BB20F
:1098880063B103A9FFF7A6FD03992046FFF784FFFC
:109898003046FDF792FB012005B0F0BD84F82D306D
:1098A80094F83230012B01BF2268136823F4005367
:1098B8001360EDE7E5960000004E00200B7000F005
:1098C80073B504460D46C07DE67E002934D00123D9
:1098D80004223146FDF7E4FF01230222217F207E86
:1098E800FDF7DEFF94F83130022B16D10023012258
:1098F800617F607EFDF7D4FF00230422A07EA17F54
:10990800FDF7CEFF0123627F607E0193009311462D
:10991800FDF780FF002002B070BD032BFAD10023B1
:109928000122617F607EFDF7BBFF00230422A17F37
:10993800A07EFDF7B5FFEDE70B460A463146FDF779
:10994800AFFF2B462A46217F207EFDF7A9FF94F81A
:109958003130022B10D12B462A46617F607EFDF7FD
:109968009FFF2B462A46A07EA17FFDF799FF627FC5
:10997800607E01950123C9E7032BCBD12B462A46EC
:10998800617F607EFDF78CFF2B462A46CFE790F873
:10999800323013B9036818697047012B1CD103686A
:1099A8009B6803F00200DA0748BF40F0010059073E
:1099B80048BF40F008001A0748BF40F02000D90609
:1099C80048BF40F040009A0648BF40F080005B0660
:1099D80003D540F400507047002070472DE9F3414B
:1099E8000D460446002879D0FDF7E1FA012D064618
:1099F8003BD1A36A9B889BB2002B3DD06068FEF7E1
:109A080097FE0023A06A84F82D3083889BB273B137
:109A180001A9FFF7DFFC01996068364F0831FEF7AE
:109A2800CFFE019B1F61A06A83889BB253BB20466F
:109A3800FFF7ADFF8304FAD5023D012D10D8A068C9
:109A4800FEF776FE0023606A84F82C3083889BB288
:109A58003BBB94F83130032B02D02046FFF7D6FDEC
:109A68003046FDF7AAFA002009E0022D38D1636AD2
:109A78009B889BB2002BDFD1FDF79FFA1E4802B0EE
:109A8800BDE8F08101A9FFF7BFFC019BD3F80C806A
:109A9800B8F1000FC7D09B68002239462046C0475E
:109AA800C1E76946FFF796FC0099A068114F083195
:109AB800FEF786FE009B1F61606A83889BB2002BBD
:109AC800C7D06946FFF7A0FC009BDD68002DF3D0E6
:109AD8009B68002239462046A847EDE70748CEE7AD
:109AE800032DA9D1A36A9B889BB2002B86D1636AF8
:109AF80080E700BF097000F0087000F0027000F005
:109B0800436A9888C0B270472DE9F3410546406A18
:109B180084889846A4B200230E461746CDE9003340
:109B28003CB16946FFF756FC01A90446A868FEF750
