:104000008039002091270100A1AC0000A5AC000080
:10401000A70A0A010041000004180FAC0168F10072
:104020000000000000000000000000000000000090
:1040300000000000B8300300000000000000000095
:104040000000000000000000FFFFFFFFFFFFFFFF78
:10405000FFFFFFFF007003000000000000000000F1
:10406000FFFFFFFFFFFFFFFF110000000000000047
:104070000000000000000000000000000000000040
:104080000000000000000000645300206453002082
:104090008039002000580300282F03002030002022
:0C40A000F52F00200000040000000000CC
:104100008039002091270100A1AC0000A5AC00007F
:10411000EDB40000A9AC0000B1AC00008F27010095
:104120008F2701008F2701008F2701008F270100B3
:10413000B5AC00008F2701008F2701008F270100F9
:104140006178000049A80100DDAF000089A00100EE
:10415000B5A8010055A801006DA801004DA80100F7
:10416000AD6D0000816E0000798B000010AE000084
:1041700010AE000010AE00009563000010AE00000D
:1041800010AE0000A56E000010AE000075C7000064
:1041900010AE000010AE000010AE000010AE000027
:1041A00010AE000010AE000010AE0000B9A8010073
:1041B00051A8010029760000F9A8010010AE000006
:0841C000E190010010AE0000C7
:1041C800F8B500BFF8BC08BC9E467047F8B500BFFC
:1041D800F8BC08BC9E46704710B5054C237833B927
:1041E800044B13B10448AFF300800123237010BDC2
:1041F800983F002000000000E051030008B5034B81
:104208001BB103490348AFF3008008BD000000005C
:104218009C3F0020E0510300154B002B08BF134BB7
:104228009D46A3F5803A00218B460F461348144A51
:10423800121A2EF05CFE0F4B002B00D098470E4B45
:10424800002B00D098470020002104000D000D48E5
:10425800002802D00C48AFF300802EF0F1FD2000BA
:1042680029000CF067FC2EF0D7FD00BF0000080005
:10427800803900200000000000000000983F002066
:1042880064530020000000000000000070B50438EE
:10429800C6B0FB2801F25D87DFE810F02C025B0F47
:1042A8005B0F5B0F35025B0F5B0F5B0F5B0F5B0FE9
:1042B8005B0F5B0FDD03CB035B0F5B0F9D0A3B04BA
:1042C80046049403A3035B0F87045B0F5B0F9F04F3
:1042D8004401F1021B031C01AE035B0F5B0F57087F
:1042E8005B0F5B0FFF013E02F20C620D110DFE0C1D
:1042F800DF0C3E0D8F0D5B0F5B0F4F050A07A60104
:10430800F30588053906D20666060703FC00B301E3
:10431800E8015B0F1A0423065B055B0F5B0F5B0F5D
:104328005B0F5B0F5B0F5B0F530197017E015B0F08
:104338005B0F5B0FD407B4065B0F5B0F5B0F5B0F64
:104348005B0F5B0F5B0F5B0FC107AA0439075307AD
:10435800BC04D10439051F055B0F080590075B0FE6
:104368004909B30ACD0AC409DA098F09150B440AA9
:104378005B0F280B990C0A0AF20A690B5D0BAA0954
:1043880094094C0B5B0FBC0189038E025B0F5B0F1A
:104398007207F2045B0F5B0FC105010E9E0D200E24
:1043A800380E140E2C0EC20DD80DAA0DEB0DB60D3D
:1043B8005B0F5B0F5B0F5B0F5B0F5B0F5B0F5B0FA5
:1043C8009E065B0F5B0F630451045B0F00015B0FDC
:1043D8005B0F440E5B0F7E0E400FBA0EF00E120FED
:1043E800A40E5B0F7A0B9C0B5B0F5B0F5B0F5B0FD5
:1043F800A7076809D50E83097508CC083009000994
:104408005B0F5B0F5B0F29045C085B0F6808C30830
:104418001D08EF08160CC402DB02E6025B0F5B0FF7
:10442800C80B5B0FFF0B260C5B0F5B0F5B0F5B0F63
:104438006F0A12097504B9025B0F3001F4083508D8
:1044480029088F08B2080508110841084C08820C91
:104458009E0CBA0CAE0C720C6D0C5B0F5B0F5B0FF5
:104468005B0F5B0F060F5B0F610E5B0F230F340FA3
:10447800910E62075B0F5B0F5B0FE3048507D10C9E
:10448800BE08C003540377033F0326035B0F5E0295
:10449800F20753020124204646B070BD12AB0193C7
:1044A8000AAB00930CAA24ABBB4901200DF0C6FF50
:1044B800BDF848309DF828202499BDF8300023F035
:1044C800C1FD46AAB54902F8EC0D00200DF0B6FF73
:1044D8000124E0E724AB0CAAB14901200DF0AEFF9E
:1044E80024999DF8300009F081FF46AAAB4902F8EB
:1044F800D00D00200DF0A2FF0124CCE70CAB24AABC
:10450800A84901200DF09AFF9DF8301024981AF060
:104518007DFB46AAA14902F8D00D00200DF08EFFC0
:104528000124B8E724A80DF05FFD24A81DF024F9A4
:1045380046AA9A4902F8D00D00200DF07FFF012409
:10454800A9E70CAA954901200DF078FF24A99DF848
:10455800300009F049FF46AA904902F8D00D002022
:104568000DF06CFF24A908200DF028FD9DF8980097
:104578000DF0ECFCBDF89A000DF0F8FC9DF89C00DD
:104588000DF0E4FC9DF89D000DF0E0FC9DF89E0008
:104598000DF0DCFC01247EE786230BAA7F498DF809
:1045A800483001200DF04AFF24A99DF82C0009F09D
:1045B80024FF46AA12AB02F8E80D7B4900930020BD
:1045C80024AB0DF03BFF012465E724A824F022F971
:1045D80046AA724902F8D00D00200DF02FFF24A83A
:1045E8000DF0F5FE012456E724A824F00FF946AA99
:1045F80024AB02F8D00D6D4900200DF01FFF0124F7
:1046080049E746AA012402F8884D644900200DF0C4
:1046180015FF40E70CAA614901200DF00FFF24A9FE
:104628009DF8300025F0C4FB46AA5C4902F8D00D7D
:1046380000200DF003FFBDF890000DF097FC9DF8E9
:1046480092000DF083FC9DF893000DF07FFC9DF81F
:1046580094000DF07BFC9DF895000DF077FC0DF1B2
:10466800960108200DF0AAFC012414E746AB0822A5
:1046780003F8EC2D4E4924AA01200DF0DFFE12A903
:1046880024A825F045FF46AA12AB02F8E80D4449D4
:1046980000200DF0D3FE0124FDE624A912A809F09C
:1046A80069FE46AA12AB02F8E80D404900200DF059
:1046B800C5FE24A908200DF081FCBDF898000DF076
:1046C80055FC9DF89A000DF041FC9DF89B000DF0FB
:1046D8003DFC9DF89C000DF039FCBDF89E000DF0E6
:1046E80045FC9DF8A0000DF031FC29980DF052FC16
:1046F8000124D0E646AA012402F8884D2749002063
:104708000DF09CFEC7E646AA002002F8880D234952
:104718000DF094FE0124BEE612AC0823214624A81D
:104728008DF8303009F04EFE46AA0CAB02F8EC0DBD
:10473800204901940093002024AB0DF07FFE012452
:10474800A9E61AF085FB46AA144902F8880D00204C
:104758000DF074FE01249EE60CAA104901200DF00C
:104768006DFE24A99DF830001AF00EFB46AA0B49ED
:1047780002F8D00D00200DF061FE9DF890000DF0BC
:10478800E5FB9DF891000DF0E1FB9DF892000DF01E
:10479800DDFB01247FE600BF282F0300782F0300EC
:1047A8002D2F0300472F0300D1390300672F030083
:1047B8003E3A0300302F03000CAABE4901200DF039
:1047C8003DFE24A99DF8300024F0AAFA46AAB9496A
:1047D80002F8D00D00200DF031FEBDF890000DF06C
:1047E800C5FBBDF892000DF0C1FB9DF894000DF0DB
:1047F800ADFB9DF895000DF0A9FB9DF896000DF016
:10480800A5FB9DF897000DF0A1FB012443E609F0F4
:1048180055FD46AAA74902F8880D00200DF00EFEA6
:10482800012438E612AC0BAAA24901200DF006FEBD
:10483800224624A99DF82C0009F042FD46AA24AB83
:1048480002F8E80D9C49009400200DF0F7FD0124C2
:1048580021E609F039FD46AA964902F8880D00209C
:104868000DF0ECFD012416E609F02CFD46AA91494D
:1048780002F8880D00200DF0E1FD01240BE60CAADA
:104888008C4901200DF0DAFD24A80DF0ADFB24A918
:104898009DF830001DF00EF846AA864902F8D00DA2
:1048A80000200DF0CBFD0124F5E50BAA814901207C
:1048B8000DF0C4FD0CAA12AB804901200DF0BEFD1D
:1048C80046AA012402F8884D7A4900200DF0B6FD69
:1048D800E1E51EF007FB46AA764902F8880D00209C
:1048E8000DF0ACFD0124D6E512AB00930BAA0CAB7E
:1048F800734901200DF0A2FD9DF848209DF8301065
:104908009DF82C0027F09AFF46AA6A4902F8880DFC
:1049180000200DF093FD0124BDE512AB0CAA6949F6
:1049280001200DF08BFD9DF948109DF8300027F00F
:1049380083FF46AA5F4902F8880D00200DF07EFD2E
:104948000124A8E512AB02930CAB01930BAB0093C7
:104958000DF126020AAB5C4901200DF06FFD9DF8B0
:1049680048409DF930309DF82C209DF8281000947F
:104978009DF8260027F05CFF46AA4E4902F8880DEC
:1049880000200DF05BFD012485E512AA49490120AC
:104998000DF054FD9DF8480027F04CFF46AA454904
:1049A80002F8880D00200DF049FD012473E525F07B
:1049B800F1F946AA3F4902F8880D00200DF03EFDA6
:1049C800012468E524A80DF08FFB24A81CF0D2FF71
:1049D80046AA384902F8D00D00200DF02FFD012419
:1049E80059E51AF093F946AA324902F8880D0020D1
:1049F8000DF024FD01244EE512AA2E4901200DF0E8
:104A08001DFD9DF848001CF0BDFA46AA294902F888
:104A1800880D00200DF012FD01243CE52AF010FB62
:104A280046AA244902F8880D00200DF007FD01244C
:104A380031E512AA1F4901200DF000FD9DF848003C
:104A48000AF0D7F846AA1B4902F8880D00200DF095
:104A5800F5FC01241FE50AAB04930DF1260303932B
:104A680009AB029324AB019312AB00930DF1220220
:104A78000CAB164901200DF0E1FC9DF8284002948A
:104A88009DF8264001949DF82440BDF89030BDF86B
:104A98004820BDF8301000949DF822000AF0ABF8C9
:104AA80046AA044902F8EC0D00200DF0C7FC0124C9
:104AB800F1E400BF782F0300342F03003B2F0300DD
:104AC800422F030089320300382F03003E2F0300D2
:104AD80024A80DF089FC24A823F09AFE46AAAA4926
:104AE80002F8D00D00200DF0A9FC0124D3E412AA8D
:104AF800A54901200DF0A2FC9DF848001CF036FCE9
:104B080046AAA14902F8880D00200DF097FC01245F
:104B1800C1E424AA9D4901200DF090FC9C4BBDF8EE
:104B280090201A800124B6E424AA984901200DF0A7
:104B380085FC984BBDF890201A800124ABE412AA9A
:104B4800914901200DF07AFC9DF848001CF0E6FB25
:104B580046AA8D4902F8880D00200DF06FFC01244B
:104B680099E412AA8C4901200DF068FC9DF94800CF
:104B78001AF04AF946AA844902F8880D00200DF077
:104B88005DFC012487E412AA7F4901200DF056FC40
:104B98009DF8480009F090FB46AA7B4902F8880D69
:104BA80000200DF04BFC012475E40CAB00930BAA1C
:104BB80024AB7A4901200DF041FC9DF8302024995E
:104BC8009DF82C0019F084FF46AA6F4902F8D00D11
:104BD80000200DF033FC01245DE41AF009F846AA20
:104BE800694902F8880D00200DF028FC012452E4E0
:104BF80012AA654901200DF021FC9DF8480022F019
:104C0800F6FD46AA604902F8880D00200DF016FC52
:104C1800012440E408230CAA5B498DF848300120A0
:104C28000DF00CFC24A99DF8300023F059FB12ABC1
:104C380024AA5B4900200DF001FC01242BE412AAF0
:104C4800514901200DF0FAFB9DF8480023F060FB64
:104C580046AA4E4922F8880D00200DF0EFFB0124EA
:104C680019E424A81DF0CAFA46AA474902F8D00D4B
:104C780000200DF0E3FB24A80DF0FDF901240AE45F
:104C880046AB082203F8E82D454924AA01200DF077
:104C9800D5FB24A823F01EFC46AA3B4902F8D00DF8
:104CA80000200DF0CBFB0124FFF7F5BB0CAA364919
:104CB80001200DF0C3FB24A99DF8300009F02AFB60
:104CC80046AA314902F8D00D00200DF0B7FB24A800
:104CD8000DF0BEF90124FFF7DEBB082312AA2B4909
:104CE8008DF8303001200DF0A9FB24A9BDF848004B
:104CF8001AF034FA46AA0CAB02F8EC0D29490093D5
:104D0800002024AB0DF09AFB0124FFF7C4BB46AB8F
:104D1800082203F8E82D224924AA01200DF08EFB71
:104D280024A81AF0F3F946AA184922F8D00D002051
:104D38000DF084FB0124FFF7AEBB21F039FB46AA36
:104D4800114902F8880D00200DF078FB0124FFF7C7
:104D5800A2BB0CAB009324AA0BAB134901200DF0A6
:104D68006DFB9DF830209DF82C10BDF8900008F0E0
:104D7800CDFF46AA044902F8D00D00200DF05EFBD5
:104D88000124FFF788BB00BF782F0300322F0300F0
:104D98001C3F0020223F0020063A0300462F030054
:104DA8003E3A0300D13903004A2F030008AB0BAA8F
:104DB800B449009301200CAB0DF040FB24A80DF082
:104DC8002FF909AB12AACDE9003202930DF12102A5
:104DD8000DF12203AC4901200DF030FB129B039327
:104DE8009DF8243002939DF8223001930AAC9DF877
:104DF80021309DF82020BDF8301004940093BDF8B0
:104E08002C0024AB09F0FDF946AA234602F8F20D5E
:104E18009E4900200DF012FB0124FFF73CBB08233C
:104E28008DF821308DF826300DF1220302930BAB5B
:104E380001930DF1210324AC009308AA12AB944905
:104E480001200AAE0CAD0DF0F9FA9DF82230BDF83C
:104E58002C20009412A99DF820000296019509F0D3
:104E680035FA46AA0DF1260302F8F40D8849009395
:104E7800CDE90156234600200DF0E0FA0124FFF7A2
:104E88000ABB0CAA834901200DF0D8FA24A80DF01A
:104E9800C7F80DF1260312AACDE9003202930DF1ED
:104EA800220209AB784901200DF0C8FA1299019144
:104EB8000BAC9DF826109DF824309DF82220029412
:104EC8000091BDF8300024A909F032F946AA23461A
:104ED80002F8F00D6D4900200DF0B0FA0124FFF73B
:104EE800DABA0CAB24AA6C4901200DF0A7FA9DF898
:104EF8003010BDF890001EF071FB46AA674902F811
:104F0800D00D00200DF09AFA0124FFF7C4BA24A8A6
:104F18000DF086F80AAB12AACDE9013203930DF120
:104F2800260300930DF1220209AB5D4901200DF023
:104F380085FA129801900CAC9DF828009DF826304F
:104F48009DF824209DF822100294009024A809F0CE
:104F5800FBF846AA234602F8EC0D4C4900200DF058
:104F68006DFA0124FFF797BA24A80DF059F80DF14E
:104F7800260312AACDE90332059309AB02930DF17A
:104F8800220301930CAB009308AA0DF121034549B4
:104F980001200DF053FA129803909DF82600029014
:104FA8009DF8240001900BAC9DF82200BDF830302C
:104FB8009DF821209DF820100494009024A809F061
:104FC800F1F846AA234602F8F00D304900200DF00A
:104FD80035FA0124FFF75FBA0CAA009224AB3249D4
:104FE80001200DF02BFA24999DF8300009F0B7F84C
:104FF80046AA2A4902F8D00D00200DF01FFA012414
:10500800FFF749BA0CAB0AAA02930BABCDE9002310
:10501800264924AB01200DF011FA9DF830309DF897
:105028002C2024999DF8280009F0A6F846AA1B49C7
:1050380002F8D00D00200DF001FA0124FFF72BBA79
:105048000CAA144901200DF0F9F924A80CF0E8FF86
:105058000AAA009212AB144901200DF0EFF9129B35
:105068009DF82820BDF8300024A909F0F9F846AACF
:105078000A4902F8EC0D00200DF0E0F90124FFF7D1
:105088000ABA00BF4E2F0300582F0300672F0300F2
:10509800522F0300322F0300542F0300782F0300F0
:1050A800572F03005D2F0300D6390300652F030037
:1050B8000CAB0DF12202C74901200DF0BFF924A85D
:1050C8000CF0AEFF0DF1260312AA01930092C2491B
:1050D80009AA01200DF0B2F9129A01920BAC9DF8C1
:1050E80026209DF82430BDF83010029400929DF8D7
:1050F800220024AA09F014F846AA234602F8F00D63
:10510800B64900200DF09AF90124FFF7C4B9082325
:105118008DF830300CAB0BAA0093B14924AB0120B9
:105128000DF08CF924A99DF82C0023F0F7F946AA74
:10513800AC4902F8D00D00200DF080F90124FFF7EA
:10514800AAB924AB12AAA34901200DF077F9BDF83A
:1051580090109DF8480023F0ADF80124FFF79BB9A3
:1051680024A81DF077F846AA9E4902F8D00D002021
:105178000DF064F924A80CF07EFF0124FFF78BB929
:1051880046AB082203F8E82D12AA0092964924AAF1
:1051980001200DF053F99DF8481024A823F0EEF9EA
:1051A8000124FFF778B924AA904901200DF046F9A7
:1051B80024981FF029FC0124FFF76DB90CAA89492E
:1051C80001200DF03BF924A80CF04CFF24A99DF810
:1051D800300009F0B7F846AA824902F8D00D00203D
:1051E8000DF02CF90124FFF756B90BAB24AA019353
:1051F80000927F4912AA01200DF020F9249A9DF807
:105208002C10BDF8480009F0E2FE46AA754902F8DC
:10521800E80D00200DF012F90124FFF73CB912AA9D
:10522800704901200DF00AF99DF8480009F0E3F8EB
:1052380046AA6E4942F8880D00200DF0FFF80124B7
:10524800FFF729B908238DF8283012AB01930AAB70
:1052580000930CAA24AB674901200DF0EFF8BDF8C4
:105268004820BDF8300024A909F0C3F846AA5D49D2
:1052780002F8EC0D00200DF0E1F80124FFF70BB95E
:1052880012AA584901200DF0D9F89DF848001CF0E1
:1052980027F846AA534902F8880D00200DF0CEF8E9
:1052A8000124FFF7F8B82BF0A5F846AA4F4942F8B1
:1052B800880D00200DF0C2F80124FFF7ECB82BF0A0
:1052C8009FF846AA494942F8880D00200DF0B6F823
:1052D8000124FFF7E0B82BF05EF846AA414902F82E
:1052E800880D00200DF0AAF80124FFF7D4B824AAED
:1052F800414901200DF0A2F8BDF890002BF06EF89E
:105308000124FFF7C8B824AA364901200DF096F801
:105318009DF890002AF00CFC0124FFF7BCB824AAE1
:10532800324901200DF08AF824982BF06FF80124F7
:10533800FFF7B1B824AA2D4901200DF07FF8249871
:105348002BF06AF80124FFF7A6B82AF0DDFF012444
:10535800FFF7A1B82AF0E5FC46AA224902F8880D11
:1053680000200DF06BF80124FFF795B824A912A8C6
:105378002BF002F812A80CF0EDFE24A80CF01BFF8D
:105388000124FFF788B824A80CF0C0FE0CAB0BAAC8
:105398001A4901200DF052F89DF930209DF82C1083
:1053A80024A80FF0BBFF46AA0E4902F8D00D002032
:1053B8000DF044F80124FFF76EB82AF0D7FA46AA90
:1053C800084902F8880D00200DF038F80124FFF78D
:1053D80062B800BF812F0300592F0300672F030015
:1053E800D1390300782F0300772F03002E2F0300F5
:1053F8006A2F03006E2F0300322F03008932030047
:105408002AF01EFC46AAC24902F8880D00200DF0B9
:1054180015F80124FFF73FB82AF006FC0124FFF72E
:105428003AB824A80CF0AFFE24A82AF0AEFF012455
:10543800FFF731B812A910200CF07AFD0CF0B4FD7A
:1054480024900CF06DFD0DF195018DF8940010205D
:105458000CF06EFD0DF1A50110200CF069FD24A9DA
:1054680012A82AF0FCFA46AAA94902F8E80D002079
:105478000CF0E4FF0124FFF70EB82BF056FF0124CF
:10548800FFF709B824AAA24901200CF0D7FF9DF81C
:1054980090002AF03FFC0124FEF7FDBF24AA9D4995
:1054A80001200CF0CBFF24982AF0F8FB46AA984973
:1054B80002F8D00D00200CF0C1FF0124FEF7EBBF6D
:1054C8000CF072FD24900CF02BFD0DF195018DF878
:1054D800940010200CF02CFD0DF1A50110200CF00B
:1054E80027FD24A82AF0B6FA46AA894902F8D00D61
:1054F80000200CF0A3FF0124FEF7CDBF0CAB0093F6
:1055080024AA0BAB844901200CF098FF9DF83020A9
:105518009DF92C1024982AF011FB46AA7C4902F820
:10552800D00D00200CF08AFF0124FEF7B4BF46AB73
:10553800082203F8F02D0BAA0092784912AA01203C
:105548000CF07CFF24A910200CF0F2FC24AA9DF892
:105558002C1012A807F02AFE46AA6D4902F8E80D99
:1055680000200CF06BFF0124FEF795BF46AB082224
:1055780003F8EC2D6A4912AA01200CF05FFF24A958
:1055880010200CF0D5FC24A912A80FF0DAFC46AACA
:105598005F4902F8E80D00200CF050FF0124FEF7E7
:1055A8007ABF07F067FE46AA594902F8880D00201D
:1055B8000CF044FF0124FEF76EBF07F033FF01240F
:1055C800FEF769BF12AA524901200CF037FF0023E9
:1055D8001A469DF84810012007F074FD46AA4C4968
:1055E80002F8880D00200CF029FF0124FEF753BFB4
:1055F80046AB082203F8EC2D0CAA0092474924AACE
:1056080001200CF01BFF9DF8301024A807F054FD72
:1056180046AA3F4902F8D00D00200CF00FFF0124E4
:10562800FEF739BF24A827F043F946AA384902F8FB
:10563800D00D00200CF002FFBDF890000CF096FC95
:105648000DF1920108200CF0B9FC0124FEF723BFEC
:105658000CAA2F4901200CF0F1FE24A99DF8300076
:1056680028F0ACF846AA2A4902F8D00D00200CF020
:10567800E5FEBDF890000CF079FC9DF892000CF066
:1056880065FC0DF1930110200CF098FC29980CF0A2
:1056980081FC2A980CF07EFC9DF8AC000CF056FCBE
:1056A8000DF1AD0108200CF089FC0124FEF7F3BED2
:1056B8000CAA174901200CF0C1FE24A99DF830005E
:1056C80007F0F0FC46AA124902F8D00D00200CF0B1
:1056D800B5FEBDF890000CF049FC9DF892000CF066
:1056E80035FC0DF1930110200CF068FC29980CF0A2
:1056F80051FC2A980CF04EFC9DF8AC000CF026FCEE
:105708000DF1AD0108200CF059FC0124FEF7C3BED1
:10571800782F03002E2F0300722F0300772F03002A
:105728003E3A03000CAABB4901200CF087FE24A9CD
:105738009DF8300008F014F846AAB64902F8D00DD2
:1057480000200CF07BFE24A908200CF037FC26A9C9
:1057580010200CF033FC2A980CF01CFCBDF8AC00AF
:105768000CF004FCBDF8AE000CF000FC9DF8B00095
:105778000CF0ECFB0124FEF78EBE46AB082403F8C0
:10578800EC4D12AAA44901200CF058FE24A912A835
:105798000FF0DCFB46AA9F4902F8E80D00200CF048
:1057A8004DFE204624A90CF009FC26A910200CF077
:1057B80005FC2A980CF0EEFBBDF8AC000CF0D6FB0B
:1057C800BDF8AE000CF0D2FB9DF8B0000CF0BEFBAB
:1057D8000124FEF760BE46AB082203F8E82D8E4987
:1057E80024AA01200CF02AFE24A828F05DF946AA74
:1057F800884902F8D00D00200CF020FE0124FEF7A5
:105808004ABE08238DF82C300BAB12AA00938349AB
:1058180024AB01200CF012FE24A9BDF8480029F0A1
:10582800F5FA46AA7B4902F8E80D00200CF006FEBE
:105838000124FEF730BE0CF0A3FB46AC0DF192013B
:1058480024F8880D10200CF073FB0DF1A201102034
:105858000CF06EFB0CF064FB0DF1B3018DF8B20097
:1058680008200CF065FB204627F01EF946AA694976
:1058780002F8D00D00200CF0E1FD0124FEF70BBE6C
:1058880008238DF828300BAB01930AAB0DF12602E3
:105898000093634912AB01200CF0D0FD24A910201D
:1058A8000CF046FB24AB12AA9DF82610002007F046
:1058B80009FC46AA574902F8E80D00200CF0BEFD85
:1058C8000124FEF7E8BD12AA524901200CF0B6FDEA
:1058D8009DF8480028F0C0F946AA4E4902F8880DFC
:1058E80000200CF0ABFD0124FEF7D5BD12A80CF08A
:1058F800F1FB0AAB0CAA24AC0193009249490DF1C3
:10590800260201200CF09AFD0C9B9DF828209DF89A
:105918002610009412A80FF0FCFA46AA3D4902F896
:10592800EC0D00200CF08AFD20460CF0C8FB012489
:10593800FEF7B1BD24A910200CF0FAFA24A829F02A
:1059480081FA46AA334902F8D00D00200CF076FD02
:105958000124FEF7A0BD28F025FF46AA2D4902F82C
:10596800880D00200CF06AFD0124FEF794BD24A9DF
:1059780010200CF0DDFA24A828F00AFF46AA2549D1
:1059880002F8D00D00200CF059FD0124FEF783BD6C
:1059980008238DF826308DF828300AAB24AC029302
:1059A8000DF12603019400930CAA12AB1E490120A5
:1059B8000CF044FD224612A9BDF8300028F04EFE36
:1059C80046AA144902F8EC0D00200CF037FD01241A
:1059D800FEF761BD08238DF828300AAB0CAA0093A6
:1059E8000E4912AB01200CF029FD24A910200CF05F
:1059F8009FFA24AA12A9BDF8300028F067FE46AA2B
:105A0800044902F8EC0D00200CF018FD0124FEF703
:105A180042BD00BF782F03003E3A0300872F0300E2
:105A2800762F0300592F03007A2F03000DF122036C
:105A38000DF12102C24901200CF000FD24A80CF050
:105A4800E6FB0CAA0DF1260303920AAACDE901325E
:105A580012AA0092BB4909AA01200CF0EFFCBDF87C
:105A6800302003929DF828200292129A01929DF804
:105A780026209DF824309DF8221000929DF82100E0
:105A880024AA09F061FD46AAAF4902F8EC0D0020EE
:105A98000CF0D4FC0124FEF7FEBC0CAAAA49012094
:105AA8000CF0CCFC24A99DF830000AF039F946AA7C
:105AB800A54902F8D00D00200CF0C0FC24A80CF079
:105AC80010FC0124FEF7E7BC24A80CF0A0FB24A8D6
:105AD8000AF080F946AA9C4902F8D00D00200CF083
:105AE800ADFC0124FEF7D7BC08230AAA97498DF814
:105AF8001F3001200CF0A2FC12A80CF088FB0DF15D
:105B08001F0303930DF126030CAC019309AB0DF1B0
:105B18001E02029400938E490DF12203012024AD48
:105B28000CF08CFC294610200CF002FA08AB0BAAEA
:105B3800884901200CF082FC9DF8201005910B99F2
:105B4800BDF822309DF81E200294CDE90351BDF81E
:105B580026100191BDF8241000910A9812A90AF0A4
:105B68007FFC46AA784902F8F70D00200CF066FC85
:105B78000124FEF790BC0AF0DBFE0124FEF78BBC83
:105B880024A80CF044FB24A80AF0A4FD46AA6E49F8
:105B980002F8D00D00200CF051FC0124FEF77BBC6C
:105BA8000CAA694901200CF049FC24A99DF8300091
:105BB8000AF0C8FD46AA644902F8D00D00200CF08E
:105BC8003DFC24A80CF0DCFB0124FEF764BC0AF0C1
:105BD80065FF0124FEF75FBC24A80CF018FB24A87D
:105BE8000AF02EFD46AA584902F8D00D00200CF004
:105BF80025FC0124FEF74FBC24AA534901200CF0D0
:105C08001DFC9DF890000AF0ABFE0124FEF743BC92
:105C18000CAA4D4901200CF011FC24A80CF089FBBA
:105C280024A99DF830000AF0ADFE46AA464902F8BC
:105C3800D00D00200CF002FC0124FEF72CBC24AB94
:105C480012AA454901200CF0F9FB24999DF8480057
:105C58000AF01CFD0124FEF71EBC12AA3A490120D5
:105C68000CF0ECFB9DF8480021F0BEFD46AA364931
:105C780002F8880D00200CF0E1FB0124FEF70BBCB4
:105C88002BF092FE46AA304902F8880D00200CF04D
:105C9800D5FB0124FEF7FFBB12AA2B4901200CF00B
:105CA800CDFB9DF8480007F01CF946AA264902F8E2
:105CB800880D00200CF0C2FB0124FEF7ECBB0CAAF7
:105CC800214901200CF0BAFB24A99DF830002BF0E3
:105CD80089FC46AA1C4902F8D00D00200CF0AEFB46
:105CE8009DF890000CF032F99DF891000CF02EF917
:105CF800BDF892000CF03AF99DF894000CF026F9E2
:105D08000DF1950108200CF059F99DF89D000CF053
:105D18001DF90124FEF7BFBB12AA0B4901200CF0A4
:105D28008DFB9DF848002BF055FC46AA0B4922F83C
:105D3800880D00200CF082FB0124FEF7ACBB00BFED
:105D4800672F03007E2F0300782F03002E2F0300F8
:105D5800842F0300472F03002D2F0300322F030049
:105D68000CAACC4901200CF069FB0CF0D9F88DF88D
:105D780090000CF0D5F88DF891000CF001F9ADF811
:105D880092000CF0CDF80DF195018DF894000820E3
:105D98000CF0CEF80CF0C4F824A98DF89D009DF8FD
:105DA800300007F085F846AABA4902F8D00D00205D
:105DB8000CF044FB0124FEF76EBB24AB12AAB649D3
:105DC80001200CF03BFBBDF890109DF848002BF02B
:105DD8003DFC0124FEF75FBB07F082FD46AAAD49F2
:105DE80002F8880D00200CF029FB0124FEF753BBB4
:105DF80007F02EFE46AAA74902F8880D00200CF0ED
:105E08001DFB0124FEF747BB07F040FE46AAA34945
:105E180002F8880D00200CF011FB0124FEF73BBBB3
:105E28000CAA009224AB9E4901200CF007FB249990
:105E38009DF830000EF05AF946AA964902F8D00D9E
:105E480000200CF0FBFA0124FEF725BB12AA9149A9
:105E580001200CF0F3FA9DF8480007F0E5FD46AA8A
:105E68008C4902F8880D00200CF0E8FA0124FEF7AE
:105E780012BB0CAB24AA8B4901200CF0DFFA9DF968
:105E88003010BDF8900007F0E7FD46AA814902F8F6
:105E9800D00D00200CF0D2FA0124FEF7FCBA12AAA9
:105EA8007C4901200CF0CAFA9DF848000EF016F95A
:105EB80046AA784902F8880D00200CF0BFFA0124A0
:105EC800FEF7E9BA07F056FD46AA724902F8880DAE
:105ED80000200CF0B3FA0124FEF7DDBA07F028FD24
:105EE80046AA6C4902F8880D00200CF0A7FA012494
:105EF800FEF7D1BA07F04EFD46AA664902F8880DAA
:105F080000200CF09BFA0124FEF7C5BA07F020FD2B
:105F180046AA604902F8880D00200CF08FFA012487
:105F2800FEF7B9BA0BAA5B4901200CF087FA24A93D
:105F380030200BF0FDFF12A916200BF0F9FF12AA72
:105F480024A99DF82C0007F0C7FD46AA514902F87C
:105F5800E80D00200CF072FA0124FEF79CBA0BAA97
:105F68004C4901200CF06AFA24A94A200BF0E0FF02
:105F780012A925200BF0DCFF12AA24A99DF82C00F9
:105F88000EF078F846AA434902F8E80D00200CF014
:105F980055FA0124FEF77FBA12AA3E4901200CF0F7
:105FA8004DFA9DF8480007F0A0FD46AA394902F8C5
:105FB800880D00200CF042FA0124FEF76CBA12AAF0
:105FC800344901200CF03AFA9DF848000EF05BF8CD
:105FD80046AA304902F8880D00200CF02FFA012457
:105FE800FEF759BA0CAA009224AB2D4901200CF0F7
:105FF80025FA24999DF8300007F09CFD46AA25490A
:1060080002F8D00D00200CF019FA0124FEF743BA6B
:106018000CA910200BF08CFF24A930200BF088FF6E
:1060280012A92A200BF084FF12AA24A90CA80EF0AA
:106038002CF846AA174902F8EC0D00200CF0FEF9DE
:106048000124FEF728BA0CA910200BF071FF24A92F
:106058004A200BF06DFF12A948200BF069FF12AA25
:1060680024A90CA80FF03FFA46AA0A4902F8EC0D39
:1060780000200CF0E3F90124FEF70DBA07F02EFD1D
:1060880046AA044902F8880D00200CF0D7F901242B
:10609800FEF701BA782F0300812F0300063A0300A8
:1060A800D63903008A2F03000DF0E6FF46AA2A49D5
:1060B80002F8880D00200CF0C1F90124FEF7EBB9B5
:1060C80024A807F010FD46AA234902F8D00D0020A5
:1060D8000CF0B4F924A930200BF070FF0124FEF76E
:1060E800DAB924A80DF0CBFF46AA1B4902F8D00D57
:1060F80000200CF0A3F924A94A200BF05FFF01242B
:10610800FEF7C9B907F02CFD46AA134902F8880D15
:1061180000200CF093F90124FEF7BDB912A916204E
:106128000BF006FF24A930200BF002FF0CA9152064
:106138000BF0FEFE0CAA24A912A807F0D2FC46AA6E
:10614800054902F8EC0D00200CF078F90124FEF75F
:10615800A2B90024FEF79FB9782F030010B50446B2
:106168000DF0D8FF20460EF0F7FE204608F056F94D
:106178002046BDE810400BF08DBA08F09FB910B565
:10618800044607F013FD20460DF0D3FF20460EF01D
:1061980013FF204608F0C4F92046BDE810400BF074
:1061A800FDBA10B5044606F0ADFE20460EF02EFFEF
:1061B800204608F0F3FA20460FF0BAF82046BDE86A
:1061C80010400AF09FBDFFF7ECBF10B5044606F07B
:1061D800B1FE204607F01AFD20460EF04BFF204680
:1061E80008F07AFE204608F009FB20460FF0BAF8BE
:1061F8002046BDE810400AF0B3BD10B5044606F0CD
:1062080099FE204607F002FD20460EF05BFF20466F
:1062180008F072FE204608F03FFB20460FF0A2F877
:106228002046BDE810400AF0CDBD08B52BF082FB32
:10623800BDE8084008F0D6BC10B5044606F0F4FCEA
:106248002046BDE8104007F0F9BC00F018B808B5C2
:1062580005F036FDBDE8084000F012B882B002AB88
:1062680003E9060002B0704700207047002070471D
:1062780070479DF804007047704770477047704733
:10628800704770200BF062BE38B5A0F14303054695
:106298000A2B32D8DFE803F0060A0A12123131312C
:1062A80031311100BDE838400DF0B6BE0DF0CAFE20
:1062B80020B10DF0B1FE0028FBD138BD124C20787A
:1062C8000028FAD10123443D237006F051FC032D28
:1062D8000DD8DFE805F00606090240F601000CF0CB
:1062E80039FB00232370E8E740F60200F7E74FF494
:1062F8009271064804F05CFBF3E74FF49B71034886
:10630800BDE8384004F054BBB43F00208D2F030093
:106318007047002070470020704701207047012017
:10632800704700207047704717F096BB70B5134C44
:106338008A00A31822449B781D09062D98BF104E89
:1063480003F00F0394BF755DFF25062B05719ABFF7
:106358000C4DEB5CFF234371FF3B18BF0123837196
:10636800D37014F82130084C437053788370014679
:10637800204602F073FC0123A36070BDB53F0020E6
:10638800EF2F0300E82F0300002000407FB52249CB
:1063980022480022FF23CDE901228DF80930037835
:1063A8004C6C8D6B03922C40E407DBB228D5022B92
:1063B80026D88C6C1A4901EB8301A5B2CE7819490D
:1063C80006B326041ED521F813201749012202FA24
:1063D80003F30A781343154A0B701378CBB10023E3
:1063E8001478DC40E407D9B20FD501701078012485
:1063F80004FA03F34340DBB201A81370FFF796FFDA
:1064080004B070BD21F81350DFE70133032BE7D147
:10641800F6E703230370F3E700200040C13F0020A4
:10642800B53F0020C43F0020C33F0020C23F0020EA
:1064380000207047002814BF022000207047012068
:10644800704701207047012814BF022000207047C0
:10645800012070472DE9F74FDFF87C8007460D468D
:106468001446994603F10C0A4FF0010B15B903B015
:10647800BDE8F08F102D2E46164A28BF1026F3B21D
:10648800494651F8040B42F8040B5145F9D10193E0
:106498009AF800101170104888F80F40002288F808
:1064A8000E2088F800B0013422F0B4F80B48019BA4
:1064B800E4B23A4612F8011B10F801CF81EA0C0148
:1064C80002F8011CD11BC9B29942F3D3AD1BADB27E
:1064D8001746CBE7CF3F0020CE3F0020CD3F00201E
:1064E8002DE9F04F85B016460293BDF838900F9B02
:1064F800354A01930D468046034600F10C0153F8D6
:10650800040B42F8040B8B42F9D1304C1B78137002
:106518004923237020464FEA1923A37384F80F9068
:1065280022F078F8237883EA1623237063784FF0F3
:10653800020A734063705246A34600271FE0C2F167
:106548001001F31B89B29BB28B42A2EB050028BF56
:106558000B46039029460398A1EB050C1FFA8CFC07
:1065680008189C45C0B21AD31A44D2B21F44102A44
:106578001D44BFB203D1204622F04CF80022B74296
:10658800DDD312B1584622F045F8BAF1010F4FF0A9
:106598000002029D4E460BD04FF0010ACDE711F8DC
:1065A80001CB1BF800E08CEA0E0C0BF800C0D2E718
:1065B800064B01991B6801980B604346042105B0FE
:1065C800BDE8F04FFFF746BFCF3F0020CE3F002089
:1065D800F7B5099FBDF82040CDE9004706461D469E
:1065E800FFF77EFF2CB13346012221462846FFF7EC
:1065F80031FF002003B0F0BD2DE9F743BDF8287046
:106608000F4C1E4605468846914603463946304695
:106618000122FFF71FFF33464A4641462846CDE987
:106628000074FFF75DFF042221460B982CF02CFC28
:10663800002814BF7E20002003B0BDE8F08300BF0F
:10664800CA3F002073B51C46044D8B181E592E6096
:10665800CDE90045FFF7D0FF02B070BDDE3F002056
:1066680000207047012070470120704700207047C4
:1066780001207047002070470020704701207047B4
:10668800002070470120704770477047002814BFEA
:106698000220002070470020704770B51646851804
:1066A8000AB9304470BD01F00F030A2B34BF3024FF
:1066B80037242344013A090905F8013DD2B2EFE72E
:1066C800F0B5F9B100281CDA2D23B0F1004F137092
:1066D80000D04042012115E0801B8642ECB205F152
:1066E8000105F9D904B927B14D1C30345454012798
:1066F800E9B20133092B09D1303050540131C8B205
:10670800F0BD00210023DFF80CC01F465CF82360B1
:106718000025E2E7F82F03002DE9F04F95B04FF080
:10672800000B02AC81468A4617461D465E46A046C7
:106738003B7863B902ABE41AE4B2224619465046E4
:10674800C847002840F093803444E0B290E0252BFD
:1067580013D0BBF1000F14D12370013412AB9C424B
:106768006DD3A4EB0804E4B2224641465046C8471C
:1067780000287CD12644F6B260E0BBF1000F00D1BE
:1067880001373B78632B00F092801BD8392B09D84E
:10679800302B80F09E80002BCCD0252B51D04FF091
:1067A800000BDBE7582B00F08B80622BF7D12B68AE
:1067B80001936B6800934FF0000B009B9B4543D1FE
:1067C8000835ECE7702B1ED017D8642B01D06C2B42
:1067D800E5D16C2B05F1040B28686CD17B78752BFF
:1067E80014BF0121002101D0642B00D101372246BA
:1067F800FFF766FF04445D46D1E7752BE9D0782B97
:106808005ED0732BCBD1A4EB0804E4B2224602A9D4
:10681800504605F1040B2D68C84740BB2644F6B224
:10682800C4B201302B5D002BFAD1224629465046CE
:10683800C847E0B926445D46F6B283464446013768
:1068480076E723700134AAE7019B204613F80B1062
:106858000222FFF722FF12AB984204460ED3A0EBA8
:106868000804E4B2224641465046C84718B1002001
:1068780015B0BDE8F08F2644F6B24446009B013BB4
:106888005B4582BF20232370013412AB9C420BD39B
:10689800A4EB0804E4B2224641465046C847002803
:1068A800E5D12644F6B244460BF1010B85E72B6887
:1068B80023700435C6E7752B0CBF0021012196E72C
:1068C800204602222978FFF7E8FE05F1040B04466A
:1068D80091E77A7802F0DF02582A19D1322B07F1B2
:1068E800010B09D129882F1D04222046FFF7D5FE68
:1068F8003D4604465F4652E7342B09D12F1D2D68CB
:106908000422290C2046FFF7C8FE0422A9B2EDE7AD
:106918004FF0010B22E700002DE9F04F9B46584B42
:1069280085B01B78109F9DF844A0DDF8508006467E
:1069380089461546002B00F09280072A00F29180C4
:106948000E9B002B00F08D800F9B002B00F08980A0
:10695800129BB3F5006F00F38480012801D1002F4A
:106968007FD0484B03EB05131B7B002B7BD0464C99
:106978001022002168462CF0BAFA04EB45141022C4
:10698800B9F1000F5CD1494620462CF0B0FAA37843
:1069980043F01003A370E37843F03003E370BAF1D7
:1069A800000F03D1DBB243F00303E3703649129BB7
:1069B800CDF800B06A01013B885A01EB020C63F381
:1069C8000E1088520E9BCCF808300F9BCCF8043080
:1069D8009DF84C109CF80330012E61F383038CF86A
:1069E800033042D11323CCF80C309CE80F000CF193
:1069F800100E8EE80F00DCF81C20CCF814706FF035
:106A0800030161F39F02B9F1010FCCF81C2004D1F6
:106A18000F9BCCF81830CCF804701A492A018B184F
:106A280041F802800027159A5A6028469F605E73D5
:106A38002246694603F090FA384605B0BDE8F08F63
:106A4800002120462CF053FA1023A3700323E3708F
:106A5800BAF1000FAAD1DBB243F03003A5E70B4827
:106A6800EBE70B48E9E70B48E7E7B8F1000FD4D1AB
:106A78009CF8023068F304138CF80230CDE700BFAD
:106A880064410020E43F002064400020028000F0C0
:106A9800018000F0078000F038B5104B1B780546E0
:106AA800BBB1C0B102F05DFD0D49002301EB03123B
:106AB800147B3CB92B6001231373146002F057FD5B
:106AC800204638BD0133082BF0D102F050FD0548AF
:106AD800F7E70548F5E70548F3E700BF64410020FC
:106AE800E43F0020048000F0028000F0018000F004
:106AF80038B502F036FD0B4A05460023D1180C7B49
:106B08005CB91033802BF9D103F0DCF9064B284629
:106B18001C7002F02CFD204638BD284602F027FDE7
:106B28000248F9E7E43F002064410020058000F0B6
:106B38000D4B1B7810B5044693B1072812D802F004
:106B480010FD0A4B03EB04131A7B2AB100241C73B3
:106B580002F00DFD204610BD02F009FD0448FAE7D9
:106B68000448F8E70448F6E764410020E43F0020C1
:106B7800068000F0028000F0018000F013B5164B8B
:106B88001868019000238DF8043002F0EAFC134BDA
:106B98001C7824B102F0EBFC114802B010BD0122B0
:106BA8001A7002F0E4FC0F4B1C731C7783F82C401E
:106BB80083F83C4083F84C4083F85C4083F86C4091
:106BC80083F87C4004230DEB03008DF8073003F0B5
:106BD80099F92046E1E700BF1C300300644100201A
:106BE800038000F0E43F002010B588B00E9C0794A5
:106BF8000D9C06949DF8304005940B9C04949DF8D8
:106C0800284003940024CDE9013400920B46024643
:106C180021462046FFF780FE08B010BD10B588B0A9
:106C28000E9C07940D9C06949DF8304005940B9C8F
:106C380004949DF8284003940024CDE9013400927F
:106C48000B46024601212046FFF766FE08B010BD3C
:106C580008B50A4B1B785BB107280BD8084B03EB28
:106C680000131B7B43B1002103F042F9002008BD4B
:106C78000448FCE70448FAE70448F8E764410020C0
:106C8800E43F0020028000F0018000F0078000F05F
:106C980008B50A4B1B785BB107280BD8084B03EBE8
:106CA80000131B7B43B1012103F022F9002008BD2A
:106CB8000448FCE70448FAE70448F8E76441002080
:106CC800E43F0020028000F0018000F0078000F01F
:106CD80008B50A4B1B7853B107280AD8084B03EBB1
:106CE80000131B7B3BB103F089F9002008BD054860
:106CF800FCE70548FAE70548F8E700BF64410020CB
:106D0800E43F0020028000F0018000F0078000F0DE
:106D18000D4B1B7893B1072812D889B10B4B03EBA5
:106D280000131B7B73B10A4B1A6A012303FA00F0A4
:106D380010401ABF00200B70087070470548704754
:106D4800054870470548704764410020E43F00202B
:106D580000200E40028000F0018000F0078000F063
:106D68000B4B1B7810B50C4663B107280CD859B1EA
:106D7800084B03EB00131B7B43B103F055F920606C
:106D8800002010BD0448FCE70448FAE70448F8E787
:106D980064410020E43F0020028000F0018000F000
:106DA800078000F02DE9F843174E326EF36E12EAB1
:106DB800030800D5FEE7154CDFF85490012700259D
:106DC80018EA070F16D02368B7669BB1A1686268F6
:106DD8000131A16028469847637B012B0AD148B945
:106DE80009EB4513197B1A7F60F3410160F34102F7
:106DF80019731A770135082D4FEA470704F1100473
:106E0800DED1BDE8F88300BF00200E40E43F00203B
:106E18006440002070B5094E0446012504B970BDD0
:106E280094FAA4F0B0FA80F005FA00F324EA030417
:106E380056F82030002BF1D09847EFE76841002042
:106E4800054B4FF40032C3F880211A604FF40072EA
:106E5800C3F880211A60704700E100E038B50446A5
:106E68000D4602F07EFB034B43F82450BDE8384042
:106E780002F07DBB68410020074BD3F82804D3F803
:106E88001C24104020F42A5020F02A004004400C12
:106E9800C3F82404FFF7BEBF00A00040074BD3F897
:106EA8002804D3F81C24104020F4AA4020F05500F0
:106EB8000004000CC3F82404FFF7ACBF00A0004096
:106EC800104A4161136830B51546ABB9106083604C
:106ED80011E0091B9C6841611A467CB123465C6934
:106EE8008C42F6D9002CF4D052B19060836013B173
:106EF8005A69511A596130BD0022F0E72346F4E778
:106F08002860F3E7C041002010B500F025FB094BCD
:106F1800094A196831B11368C41A4B69A34203D3EB
:106F28001B1B4B61106003E0C01A002310604B610B
:106F380010BD00BFC0410020AC41002038B50F4D46
:106F48002B685C690E4B1B6802201C4400F032FB66
:106F5800204600F007FB0B492A6800230B70D088F5
:106F6800800702D501230B7038BD9268002AFBD038
:106F780050690344012BF2D9F6E700BFC041002055
:106F8800AC410020B441002070B59DF81450057143
:106F9800002516468560049ABDF81850C580044639
:106FA8000260C0E903360D4629B961610BB111468B
:106FB800984796B1354602F0D4FA0646FFF7A4FF83
:106FC80029462046FFF77CFF054B1B68A34201D1E9
:106FD800FFF7B4FF304602F0CAFA002070BD00BFC8
:106FE800C04100200C4A136800217BB183420AD1BA
:106FF800836879B18B6083681BB15A6941690A4417
:107008005A610020704719469B68EEE70028EFD0C8
:10701800022070471360EEE7C041002070B5144DA0
:1070280002F09FFA2C780646D4B9124B1C60124B1A
:107038001C60124B1C8000F04DFA012000F0BAFAD7
:1070480000F006FB0E4B0246186070B123460D484F
:1070580040F2E7312BF060FD0B4B186001232B70D9
:10706800304602F084FA002070BD2320FCE700BF00
:10707800A8410020C0410020AC410020B6410020BA
:10708800BC41002018FCFFFFB04100202DE9F04171
:107098000546F8B102F065FA0F4F0646FFF734FFD0
:1070A8002846D7F80080FFF79DFF044628B13046F0
:1070B80002F05DFA2046BDE8F081A8453B6803D19F
:1070C80023B1FFF73BFFF2E7002BF0D1022000F0DD
:1070D8007FFAECE72224EDE7C0410020F0B50D4629
:1070E80085B016461F46044680B1FFF7CFFFBDF8AE
:1070F8002C3002939DF828300022CDE900732946F0
:1071080033462046FFF740FF05B0F0BD2220FBE7DD
:1071180038B50C46054698B191B100230B7002F0C2
:1071280020FA084B1B6801210BB122781AB102F032
:107138001EFA002038BD9D420CBF21709B68F3E702
:107148002220F7E7C0410020F0B587B01F46002392
:107158000D4616468DF817300446A0B10DF11701FB
:10716800FFF7D6FF9DF817207AB9BDF8343002939F
:107178009DF830302946CDE9007320463346FFF7A5
:1071880003FF07B0F0BD2220FBE70320F9E700006A
:10719800F8B50C460646C8B1C1B102F0E2F9054699
:1071A800FFF7B2FE73692360134B1B68B3420FD01D
:1071B80023B9284602F0DBF903201CE0596922684C
:1071C8009B680A442260F1E700230FE0222012E0C6
:1071D8000A4E276800F0C0F93368C01A8742F3D90D
:1071E80000F0BAF93368C01A23681B1A28462360CE
:1071F80002F0BDF90020F8BDC0410020AC410020DC
:10720800F8B507460E4602F0ACF9124B1B68054666
:10721800002423B9284602F0AAF91B2015E05A6970
:107228001444DA88BA4213D10B4F00F095F93B6841
:10723800C01AA0420AD200F08FF93B68C01A201A7F
:107248003060284602F093F90020F8BD0020F7E7E7
:107258009B68DEE7C0410020AC410020014B187854
:10726800704700BFB441002038B502F07AF90546EE
:1072780000F072F90446284602F079F9204638BD34
:1072880070B502F06EF9064600F066F9094B1C88E5
:1072980005460120A4B200F0B3F918B100F05CF97A
:1072A80001340546304602F062F9002242EA050040
:1072B800214670BDB6410020014B1868704700BFD9
:1072C800BC4100200A4B1B68834210B50C460CD306
:1072D800084B19684FF47A720023A0FB01012BF0C8
:1072E8001BFC01302060002010BD2120FCE700BFFE
:1072F800B0410020BC410020104B1A684FF47A734B
:1073080010B5A0FB0301A2B1531E134211D1B2FA6A
:1073180082F2C2F11F02C2F12004A2F1200301FA95
:1073280004F420FA02F2224321FA03F342EA0300AA
:1073380010BD00232BF0F0FBFAE700BFBC41002092
:10734800F8B516461BA3D3E900238B4208BF824237
:107358002AD3174B1A684FF47A73A0FB034503FB33
:107368000155C2B1531E13EA020014D1B2FA82F2D7
:10737800C2F11F02C2F12007A2F1200124FA02F390
:1073880005FA07F73B4325FA01F10B4325FA02F208
:10739800C6E90032F8BD0023204629462BF0BCFB85
:1073A800C6E900010020F5E72120F3E7AFF30080EC
:1073B800BC410020EFA7C64B37894100C2072DE921
:1073C800F84F04460BD53F4A138801339BB213800C
:1073D800FFF79AFD3C4B1B680BB1FFF7AFFDA30706
:1073E8006DD53A4F00F0B8F83D688046451B02F06D
:1073F800B8F8002683463246B246334B1C6814B1AF
:107408006369AB4214D9012E314B51D1D288022A7B
:107418004ED11E70002C4ED06369C7F800805D1BEA
:107428006561FFF78BFD5846BDE8F84F02F09FB83D
:10743800C7F8008023462A465969914209D8187925
:1074480094F804C0844588BF1C469B68521A002BD8
:10745800F2D1584602F08BF8D4F814B0C4F814A04E
:1074680002F07FF881462046FFF7BCFD484602F04F
:107478007EF823694BB102F074F8216981462046F1
:10748800FFF71EFD484602F072F8E36813B1216861
:107498002046984700F060F8D844A5EB08058146D7
:1074A800054402F05EF8013683462246C846A4E742
:1074B80000221A70AEE7022000F08AF8B3E7BDE8B0
:1074C800F88F00BFB6410020C0410020AC41002029
:1074D800B841002010B51C4B86B05968186803AA3B
:1074E80003C2197A53F8090F117001909A88174846
:1074F8009B79ADF8082001218DF80A30002401F0AD
:107508008FFC03A88DF80C408DF8104002F05AFF4C
:1075180001A901208DF8044002F034FF0C4A536A97
:1075280023F4FF6323F00703536240F2FF731362EF
:107538000120946002F040FF064B4FF00052C3F860
:1075480080211A6006B010BD20300300A009140085
:107558000020044000E100E0014B9868704700BF3C
:1075680000200440114A9368516D9269520704D46F
:10757800CA1A022A01D899420DD1C21A012A98BF03
:10758800981C0A4BB0F1FF3F28BF013058655A6A72
:1075980042F004025A62064A137833B103490B6D6C
:1075A80043F002030B65002313707047002004406A
:1075B800C83900208207054A00F00103516A48BF14
:1075C80043F004030B435362704700BF002004409C
:1075D800830700F0010209D5074B012119700749FB
:1075E8000B6D23F0030342F004020B6503494B6A59
:1075F80023EA02034B627047C83900200020044088
:10760800064B01289B6904D0022805D1C3F38000EA
:10761800704703F0010070470020704700200440C5
:1076280010B501F09EFF094A93690446590703F013
:10763800010003F0070348BF40F002001362FFF7A0
:10764800BDFE2046BDE8104001F091BF0020044077
:10765800014801F01BBD00BFA0091400044B1B68C2
:1076680000EB8000A3EBE00080F30800704700BF48
:10767800C8410020174B402870B59C6824DD50286D
:10768800B4BF012302231449144A154DDE003144C6
:1076980003C982E80300134A324492E80300012C2C
:1076A80085E8030003D10B4A4AF6E8519160012BA3
:1076B8000CD0022B0CD0002002F044FB012C02D18C
:1076C800044B00229A6070BD0023DCE70120F3E739
:1076D8000220F1E700300E40D04100201042002087
:1076E80040420020E8410020FFF7C4BF044B4FF0A0
:1076F8004042DA621A6B22F040421A63704700BFB8
:1077080000300E402C48F0B5002203682B4D11467E
:1077180054592CB11E68AC18002E36D123460121CD
:107728000832302AF4D101B103602549254E0B688F
:107738000022144695592DB11F68B518002F2BD17A
:107748002B4601240832302AF4D104B10B600068BA
:107758001D4B026842B3DA69007922F0FF02024346
:10776800DA611A6B42F0804209681A630A68164B9C
:10777800F2B1DA69097922F47F4242EA0122DA6138
:107788001A6B42F000421A63F0BD1E792779B7429E
:1077980084BF23460121C3E71F7995F804C0BC457F
:1077A8003CBF2B460124CDE71A6B22F08042DBE771
:1077B8001A6B22F00042E6E7004200201042002047
:1077C800044200204042002000300E4008490B6A65
:1077D8000A6ADBB2D2B29342F9D1064A0520DB002D
:1077E800B3FBF0F31068C31A03F3070040B2704705
:1077F80000300E40CC41002070B5144C226B616AF9
:107808000A4011D5124B1B681E6836B100251D6051
:107818005D60FFF7DBFF2946B0474FF00043E362A6
:10782800BDE87040FFF76EBF5300F9D5094B1B68E0
:107838001C6834B100221A605A60FFF7C7FF0121A3
:10784800A047024B4FF08042DA62E9E700300E4071
:107858000442002000420020FFF7CEBF2D4B37B571
:1078680001221A70002130222B482BF040FB3022D5
:1078780000212A482BF03BFB294A2A4B13602A494E
:107888002A4A13600A684B6DC2F30742FF2A02D0E6
:10789800DBB2FF2B01D19023192202EB820124488D
:1078A80003EBD1010160DB000521B3FBF1F31344C5
:1078B800204A01A8136002F0B9FD9DF80530012B9C
:1078C8001BD14120FFF7CAFE1B4C1C4920713920EF
:1078D8002160FFF7C3FE05465020FFF7BFFE184A98
:1078E8002073157391604820A160FFF7B7FE1075EB
:1078F8001161FFF76BFFFFF7BDFEFFF7F7FE114BB6
:107908000122C3F880211A60FFF7FCFE002003B0B3
:1079180030BD00BFC441002010420020404200207A
:107928000042002008420020B081E00F04420020FD
:10793800C8410020CC410020D0410020F176000051
:10794800E841002000E100E038B141B1013AB2F568
:10795800006F044838BF002070470348704701484B
:10796800704700BF037000F0027000F038B504469D
:107978000D4601F0F6FDA28892B222B92A6001F004
:10798800F6FD064838BD6388142202FB034308331A
:107998002B6001F0ECFD0020F4E700BF0B7000F055
:1079A80038B504460D4601F0DCFDA3889BB223B927
:1079B8002B6001F0DCFD0C4838BD6388E188142297
:1079C80002FB034308332B6063885A1C92FBF1F3D4
:1079D80001FB13239BB26380A388013B9BB2A38066
:1079E80001F0C5FD0020E7E70B7000F0034610B575
:1079F80093F832300068012B0AD102F04BFB0446A1
:107A0800FFF75AFC24235843B0FBF4F0013010BDB3
:107A180002F010FEF3E70000427E30235343044A8D
:107A28001A44437F03EBC2039B001868C0B2704737
:107A38001CA0104213B51D4A002352F82340617F51
:107A480081420ED00133042BF7D102B010BD0028BB
:107A5800FBD19DF80730002BF7D06068FFF7F8F8E6
:107A6800F3E794F83130022BEFD12046FFF7D4FF2B
:107A7800637D2075022BE8D194F82E3003F0FF02C5
:107A8800002BE2D102A9606801F8012DFFF740F947
:107A9800237D1BB194F82F30002BD8D0002384F815
:107AA8002F306068FFF7F4F8CFE700BF704200207E
:107AB80090F8323053B903680122DA601A69D007A6
:107AC800FCD55A6F42F001025A677047012B0CD15E
:107AD80003685A6C9107FCD401225A609A68D2074D
:107AE800FCD55A6D42F001025A65704790F8323061
:107AF8003BB903685A6F22F001025A670222DA6022
:107B08007047012B09D103685A6C9207FCD45A6D4F
:107B180022F001025A6502225A6070470F49104B41
:107B28000A782AB9C3E90022C3E9022201220A70AD
:107B3800002253F82210814208D00132042AF8D1D9
:107B4800002153F821201AB943F82100002070477A
:107B580001310429F5D10348704700BF8042002055
:107B680070420020027000F010B50446FFF706F8D6
:107B78000021201DFEF790FF014608B1044810BD02
:107B880004F10800FEF788FF0028F8D0F6E700BFE8
:107B98000E7000F0F8B5044617460D4601F0E1FCFA
:107BA800A388E2889A42064605D800233B6001F084
:107BB800DEFC1648F8BD2388142202FB0343083371
:107BC80005F1100C2A4603CA62451860596015462B
:107BD80003F10803F6D1106818602388E18814229D
:107BE80002FB034308333B6023885A1C92FBF1F3E2
:107BF80001FB13239BB22380A38801339BB2304639
:107C0800A38001F0B4FC0020D4E700BF0A7000F0A4
:107C180038B5044601F0A5FC616B0139054661637E
:107C280019B9044A012003F0E9FC2846BDE83840A8
:107C380001F09DBC5C30030037B591F832200B6829
:107C4800012A0BBF9C681C69C4F3C004C4F3401428
:107C58000D46084634B1FFF7DBFF022385F83830BC
:107C680003B030BDFFF7C2FECDE9004401462B4604
:107C7800024A0348FFF768FAF2E700BF417C0000B8
:107C88008C4D002038B5044601F06BFC636B05464B
:107C980023B90121054A084603F0B0FC636B0133A0
:107CA80063632846BDE8384001F061BC5C300300DE
:107CB8007FB5012380F82C3090F8323093B90C4A04
:107CC800036803920022049002924A6801920122FA
:107CD80000920A68016980681C33FEF79FFF07B0AD
:107CE8005DF804FB012BEAD0002380F82C30F6E77E
:107CF8007D840000F0B5012380F82D3090F83230F3
:107D080089B004460F465BBB0568343501F029FC91
:107D18000DF11F0106461948FFF7FAF940B99DF819
:107D28001F302BB11548FFF7B1F92046FFF770FF58
:107D38003046012601F01BFC204684F83860FFF726
:107D4800A1FF0F4B03930023049402937B68E1681F
:107D58006068CDE900632A463B68FEF745FF0BE003
:107D6800012B06D105682B6843F4005345F8283BDE
:107D7800CCE7002380F82D3009B0F0BD8C4D0020F1
:107D88008D7D0000F0B585B003A9906A1446FFF711
:107D9800EDFD06462046FFF729FE0025234601464D
:107DA800CDE900551A4A1B48FFF7CEF91A4B9E42F7
:107DB8001FD0039B1D619D6001F0D3FB039AD76818
:107DC800064627B1D2E9002329462046B84703A929
:107DD800A06AFFF7E5FDA06A83889BB263B103A997
:107DE800FFF7C4FD03992046FFF784FF304601F0F2
:107DF800BEFB012005B0F0BD84F82D3094F8323078
:107E0800012B01BF2268136823F400531360EDE7C8
:107E1800417C00008C4D00200B7000F073B50446C7
:107E28000D46C07DE67E002934D001230422314668
:107E380002F006F801230222217F207E02F000F8DA
:107E480094F83130022B16D100230122617F607E25
:107E580001F0F6FF00230422A07EA17F01F0F0FFCD
:107E68000123627F607E01930093114601F09CFF1D
:107E7800002002B070BD032BFAD100230122617FDC
:107E8800607E01F0DDFF00230422A17FA07E01F0C7
:107E9800D7FFEDE70B460A46314601F0D1FF2B46E6
:107EA8002A46217F207E01F0CBFF94F83130022B47
:107EB80010D12B462A46617F607E01F0C1FF2B4618
:107EC8002A46A07EA17F01F0BBFF627F607E0195FC
:107ED8000123C9E7032BCBD12B462A46617F607E5D
:107EE80001F0AEFF2B462A46CFE790F8323013B99F
:107EF800036818697047012B1CD103689B6803F05D
:107F08000200DA0748BF40F00100590748BF40F0B7
:107F180008001A0748BF40F02000D90648BF40F0C3
:107F280040009A0648BF40F080005B0603D540F445
:107F380000507047002070472DE9F3410D46044674
:107F4800002879D001F00DFB012D06463BD1A36A2C
:107F58009B889BB2002B3DD06068FEF7B9FE0023DA
:107F6800A06A84F82D3083889BB273B101A9FFF70A
:107F7800FDFC01996068364F0831FEF7F1FE019B60
:107F88001F61A06A83889BB253BB2046FFF7ADFFF1
:107F98008304FAD5023D012D10D8A068FEF798FE9B
:107FA8000023606A84F82C3083889BB23BBB94F82A
:107FB8003130032B02D02046FFF798FD304601F000
:107FC800D6FA002009E0022D38D1636A9B889BB25B
:107FD800002BDFD101F0CBFA1E4802B0BDE8F081DA
:107FE80001A9FFF7DDFC019BD3F80C80B8F1000F65
:107FF800C7D09B68002239462046C047C1E769467A
:10800800FFF7B4FC0099A068114F0831FEF7A8FEED
:10801800009B1F61606A83889BB2002BC7D06946AA
:10802800FFF7BEFC009BDD68002DF3D09B680022A3
:1080380039462046A847EDE70748CEE7032DA9D1E2
:10804800A36A9B889BB2002B86D1636A80E700BF36
:10805800097000F0087000F0027000F0436A988818
:10806800C0B270472DE9F3410546406A84889846B6
:10807800A4B200230E461746CDE900333CB1694649
:10808800FFF774FC01A90446A868FEF769FE009989
:1080980071B16CB94868019BC01A3860C8F80030E3
:1080A8000B6833602846FFF720FF02B0BDE8F08177
:1080B8000021C8F8001039603160F3E7836A9888B6
:1080C800C0B270472DE9F3410546806A8488984616
:1080D800A4B200230E461746CDE900333CB16946E9
:1080E800FFF744FC01A904466868FEF739FE0099C9
:1080F80071B16CB94868019BC01A3860C8F8003083
:108108000B6833602846FFF7F0FE02B0BDE8F08147
:108118000021C8F8001039603160F3E7007D70472E
:108128002DE9F04104460E461746FFF70DFC804640
:1081380050BB082001F03AFA0546A26A93889BB220
:1081480013B194F82E3013B394F8322022BB23686D
:108158001D6915F0020533D0012384F83030002A58
:108168003FD13744BE42206836D103699E06FCD50C
:1081780055B994F83230002B42D123685A6F22F057
:1081880002025A670822DA604046BDE8F081002DF5
:10819800D4D0FEF707FED0E7012A1BD123689D68DB
:1081A80015F00205D8D1596C8807FCD40421596010
:1081B80099688907FCD5596D41F002015965CBE7EB
:1081C8000421D96019698907FCD5596F41F002016A
:1081D8005967C1E70025BFE716F8011B02F0A4FAAA
:1081E800C0E7012AD0D13744B742206803D1836859
:1081F8001907FCD5BCE716F8011B01F07FFFF3E770
:10820800012BC1D123685A6C9207FCD45A6D22F015
:1082180002025A6508225A60B6E7000010B5044603
:10822800B0B190F82E3033B990F83130022B0AD023
:108238006068FEF70DFD94F82E300133DBB284F848
:108248002E30002010BDFFF7E7FB0028F3D1EFE741
:108258000048F7E7027000F010B50446D0B190F876
:108268002E30CBB190F82E30012B06D190F831305A
:10827800022B0AD06068FEF70BFD94F82E30013B04
:10828800DBB284F82E30002010BDFFF7C5FB0028B4
:10829800F3D1EFE70148F7E70148F5E7027000F08E
:1082A800057000F037B590F83150022D044618D10A
:1082B800A37F407D01229A40A37E30215943134B6E
:1082C8000B4410B903F1806303E0012805D103F1E1
:1082D800C0631A60002003B030BD217D0029F6D1AB
:1082E800F0E7012DF6D1037D73B911238DF807301E
:1082F800FFF794FF2A460DF107012046FFF710FF0C
:108308002046FFF7A9FFE5E71323EFE70CA000409D
:1083180090F83130032B05D00229417518BF01753B
:10832800FFF7C0BF00487047057000F037B5044636
:10833800002868D0354B1B7843B1354A002352F8E2
:1083480023108C424FD1002142F8231003212046EC
:10835800FFF7F2FD00212046FFF7DAFF0021204653
:10836800FFF75CFD94F83230002B40D123680A22D5
:10837800DA600021206A00F053FD94F83130032BB5
:1083880003D00021607FFEF769FD6068FEF7D0FB2F
:10839800A068FEF7CDFBFEF7ABFB626A00231380F3
:1083A80053809380A26A13805380938001F0D9F898
:1083B8000DF1070105461748FEF7AAFE28B99DF8F2
:1083C800073013B11348FEF761FE284601F0CFF8D5
:1083D800636B002B04DD012363632046FFF718FC61
:1083E800002003B030BD0133042BA8D1AEE7012B28
:1083F800BFD1206801F06EFE23685A6C9207FCD446
:108408000A225A60B5E70448EBE700BF8042002023
:10841800704200208C4D0020027000F0F0B587B04B
:1084280004461646FFF790FA0546F0B9CDE901165D
:1084380004936A460E4B606A039601A90593FFF7F9
:10844800A9FB054688B994F82C3073B92046FFF784
:108458002FFB00992046FFF72BFC94F83130032BB3
:1084680003D025752046FFF71DFF284607B0F0BD4D
:10847800017000F073B5506A01A91446FFF776FA47
:10848800334B98422FD094F83200019B002836D104
:108498002268116C11F4007128D02E491961986076
:1084A8004FF40073936401F05CF80199CD680646B7
:1084B80035B14A688B682046D31A0A680969A84703
:1084C80001A9606AFFF76CFA606A8588ADB2002D71
:1084D8002FD001A9FFF74AFA01992046FFF7E8FBD8
:1084E800304601F044F8012002B070BD106CC5059B
:1084F8001BD51948186199604FF48073D2E7012899
:1085080013D12268D16A11F0800106D0114919618E
:108518000021996080235363C5E7D06A400604D5DB
:108528000D48186199604023F5E700221A619A60A6
:10853800B9E7012323752046FFF7B4FE94F83130DC
:1085480084F82C50032BCBD02046FFF7CFFAC7E78F
:108558000B7000F00D7000F00C7000F02DE9F04188
:10856800094F04460D460FCF88B001AE0FC697E8F5
:10857800070086E80700002C00F0388245B9034E52
:10858800304608B0BDE8F08140300300037000F0C9
:108598003C22002120462AF0AAFC2046FFF7BEFA1A
:1085A80006460028ECD12B7C84F8313001222B6858
:1085B80084F83820C64A2360934284F8320040F099
:1085C8007B81C44B2362C44BE3604FF44023236197
:1085D800D5E906230026626216805680968084F8C4
:1085E8002C60A3621E805E809E806B6803936B89FB
:1085F800ADF81430AB89ADF81230AB7B8DF8103084
:108608000121EB7BB54884F82D6084F82F6005279D
:108618008DF816308DF8117000F002FC0121B04879
:1086280000F0FEFB0121206A00F0FAFB01A928688E
:108638008DF8046002F03AF828686A7A816F2B7A1C
:10864800DFF88CC221F4F85121F01F01114341EAEF
:1086580003218167032141672068604540F0488114
:10866800BB4216D9981F042840F25E81A3F10B0083
:10867800B84240F25B81A3F11100062840F258810C
:10868800A3F11801062940F255811F2B14BFFF26BC
:108698003E46042AE67540F24F81511F042940F2F4
:1086A8004D81A2F10A01052940F24A81A2F1100187
:1086B800062940F24781A2F11701072940F24481B7
:1086C8001F2A14BFFF2100212176002B58D0012B2F
:1086D80056D0022B54D0032B52D0042B50D0052B4C
:1086E8004ED0062B00F03A81072B00F03981082B79
:1086F80000F03881092B00F037810A2B00F0368111
:108708000B2B00F041810C2B00F020810D2B00F089
:108718001F810E2B00F01E810F2B00F01D81102BE6
:1087280000F01C81112B00F01581122B00F0148130
:10873800132B00F01381142B00F01281152B00F07D
:108748001181162B00F01081172B00F00F81182BC8
:1087580000F00E81192B00F00D811A2B00F00C810E
:108768001B2B00F00B811C2B00F00A811D2B00F045
:1087780009811E2B00F008811F2B0CBF0723FF2344
:10878800E376002A00F01481012A00F01381022AFE
:1087980000F01281032A00F01181042A00F01081F0
:1087A800052A00F0F980062A00F0F880072A00F070
:1087B800F780082A00F0F680092A00F0F5800A2AD6
:1087C80000F000810B2A00F0FF800C2A00F0DE8008
:1087D8000D2A00F0DD800E2A00F0DC800F2A00F060
:1087E800DB80102A00F0D480112A00F0D380122AEE
:1087F80000F0D280132A00F0D180142A00F0D08033
:10880800152A00F0CF80162A00F0CE80172A00F033
:10881800CD80182A00F0CC80192A00F0CB801A2AC3
:1088280000F0CA801B2A00F0C9801C2A00F0C8800A
:108838001D2A00F0C7801E2A00F0C6801F2A14BF18
:10884800FF23002323776B7C6376AB7C6377EB7C19
:10885800A3762B7DA37701212046FFF7DFFA064692
:1088680000287FF48DAE00F07CFE2F7C032F80461D
:1088780040F0AC802B682A8CDA675A6E42F004020A
:108888005A665A6F42F030025A6728684FF0FF3331
:1088980083642B7C032B0CBF0521042101F0DCFE33
:1088A8002B684FF44062DA602046FFF75DF9064610
:1088B800404600F05CFE63E60A4A93427FF45FAEEE
:1088C800094B2362094BE3604FF450237FE600BF56
:1088D800000001400022040001000C004041050096
:1088E80000250A00000401400032040001000D00C8
:1088F800DFF804C160457FF442AE052B7FF6C9AEB0
:10890800981F042810D9A3F10B0005280ED9A3F14C
:10891800110006280CD9A3F1180106290AD91F2B22
:1089280014BFFF260526B4E60126B2E60226B0E605
:108938000E46AEE63E46ACE60021C5E60121C3E69A
:108948000221C1E60321BFE60521BDE6072317E79B
:10895800082315E7092313E70A2311E70B230FE779
:108968000C230DE70D230BE70E2309E70F2307E779
:10897800002305E7012303E7022301E70323FFE6BA
:108988000423FDE60523FBE60623F9E6082359E759
:10899800092357E70A2355E70B2353E70C2351E72D
:1089A8000D234FE70E234DE70F234BE7002349E73D
:1089B800012347E7022345E7032343E7042341E76D
:1089C80005233FE706233DE707233BE7022F7FF414
:1089D8005CAF607F0649FEF741FAFEF731FAA675EB
:1089E800267567752046FFF75DFC4EE7014EC7E523
:1089F8003D7A0000027000F00004014090F8312038
:108A0800012A10B5034610D102290ED0827D8A4270
:108A180001D1002010BD997511B9FFF71DFCF8E7C9
:108A28000129F6D1FFF7FAFBF3E70148F2E700BFA7
:108A3800057000F0F0B587B004461646FEF784FFCF
:108A4800054600BBCDE9011604936A460F4BA06AA0
:108A5800039601A90593FFF79DF8054698B994F880
:108A68002D3083B900F07DFDA36A9B889BB2064632
:108A780033B100992046FFF73DF9012384F83030DF
:108A8800304600F074FD284607B0F0BD017000F0D4
:108A980070B588B00D220021294C2A4E04A82AF06E
:108AA80026FA00250223012127488DF81010CDE968
:108AB800015503958DF80A3000F0B2F9294601AA4C
:108AC800204601F020FD4FF6FF73E3618DF8125048
:108AD800354604A9204601F0C3FC1C4800F0D6FA2C
:108AE8009DF81230D8400133DBB20A2B30608DF884
:108AF800123002D8164B9842EBD81648164C00F0A4
:108B0800C5FA1649B1FBF0F12868154A0025E1FBC2
:108B1800004500232046294629F0FEFF114B084A4C
:108B28001860114B00201870936923F010039361AB
:108B38000E4B4FF48062C3F880211A6008B070BDF4
:108B480000800140844200200002040040410500EA
:108B580080841E007000020020A1070000B0710B85
:108B680040420F00884200208C42002000E100E0D3
:108B7800044BDA68D20604D510225A61024B01224E
:108B88001A707047008001408C4200202D4B002A4B
:108B980070B52D4D446B08BF1D462C4B14BF1026D5
:108BA800002698423AD102293FD004D8B9B1012908
:108BB80021D000232DE0062931D0812935D0032981
:108BC800F7D1234B1A6819681B68120C1B0C03F0A9
:108BD800F00302F4FE421A43C1F3034318E01D49AF
:108BE8000B680A6803F4FE4302F00F021A430B688D
:108BF80003F0F0030CE0174A1368116812681B0CA5
:108C0800120C02F0F00203F4FE431343C1F30342D3
:108C18001343B3402C400D4A2343536370BD0E4B9E
:108C28001A681B6802F00F02E2E7094A1368116824
:108C3800126803F4FE4301F00F010B4302F0F00247
:108C4800E6E700BF0080FFFFFFFF00800020004034
:108C58001482E00F1082E00F1882E00F38B50C463E
:108C680002238360002289780546FFF78FFF227967
:108C780060786179130243EA006343EA0143E178CB
:108C880043EAC103E17909B143F00053217A09B1FC
:108C980043F00403A17909B143F00203617A09B1F1
:108CA80043F00103F32AA17806D129B903289CBF10
:108CB80023F0706343F0806348B20028ACBF43EAF6
:108CC800411343F0E0032B616B69002823F4F2138E
:108CD80023F00703BCBF21F080010B43217843EA4E
:108CE8004143E17A09B143F480436B616B0103F1BD
:108CF8008443A17A99606B0103F1844303F5C86347
:108D0800F32A0CBF012200221A60EB6FD5F88030DD
:108D1800EB6838BD0C4B984210D90C4B984210D9CF
:108D2800022201230A490B600A49D1F8003123F0D5
:108D3800807343EA0263C1F800317047002213468A
:108D4800F0E70122FBE700BF0048E8010090D003EC
:108D58004000C84300400E400A490B4B88425A68FD
:108D68000BD90A4988420AD902F040715A6822F0A0
:108D7800407242EA01625A6070470021F6E7012119
:108D8800F4E700BF40787D0100000E40005A6202FF
:108D980038B5064C41F67133256C236401F03AFD71
:108DA800FFF7DAFF0DB10023236438BD00000E4041
:108DB800044BD3F84421D20703D4D3F840211042FE
:108DC800FBD1704700400E400C4AD2F89030516AEF
:108DD8000B4B21F0300141F0100110B55162146BBA
:108DE800C0F3C31103310F2903EA040328BF0F217D
:108DF800034343EA0173136310BD00BF00400E40F4
:108E080000F8FF0F38B5054C41F67133256C236423
:108E1800FFF7A2FF0DB10023236438BD00000E4008
:108E2800C0F30322013A38B50546092A13D8DFE80A
:108E380002F023131212051619121C20104C0020E0
:108E4800C5F3043508B1FFF7B3FF04F1047405EB6B
:108E5800C404A400216038BD00200A4CF0E70120BA
:108E6800094CEDE71020094CEAE74FF48030084C34
:108E7800E6E70020074CE3E70020074CE0E700BFE7
:108E8800B0400E40C0400E40E0400E40E8400E406A
:108E9800F0400E4050410E4000400E40C0F3031316
:108EA800013B092B3FD8DFE803F0050B0F193E3EC5
:108EB8001F232C351D4BD3F80001C0F30420704745
:108EC8001A4BD3F81401F8E7184BD3F80001C0F394
:108ED8000060431C0120984001387047134BD3F8B9
:108EE8000C01C0F308207047104BD3F80801F8E7CD
:108EF8000F4B984217D10D4BD3F8203103F00F03D5
:108F0800E8E70C4B98420ED1084BD3F8283103F010
:108F18000303DFE7084B984205D1044BD3F830012F
:108F280000F00F0070470020704700BF00400E405F
:108F38008006160090071A00A009140008B5FFF76C
:108F4800ADFF013008BD000000F00F000138072810
:108F580048D8DFE800F0040F1947232D4735244B84
:108F6800D3F8943003F00703023B022B3CD8214A84
:108F7800D05C70471E4BD3F8803003F00703013BE9
:108F8800032B33D81C4AF3E7194BD3F8843003F08A
:108F98000703013B032B29D8184AE9E7144BD3F8F8
:108FA800883003F00703013B032B1FD8144ADFE77F
:108FB8000F4B1B6F13F0010F14BF092007207047D8
:108FC8000B4BD3F85C3103F03003202B06D0302B49
:108FD80006D0102B0CBF07200120704704207047D3
:108FE800082070470020704705207047012070470F
:108FF80000400E4064300300673003006B3003000C
:109008006730030008B50146FFF79EFF1B4B9942E6
:1090180011D01B4B994212D01A4B994204D11A4BCA
:10902800D3F8800000F007000138032824D8DFE8CF
:1090380000F00A0E1612144BD3F88400F2E7124B14
:10904800D3F88800EEE7BDE8084001F059BCBDE858
:10905800084001F05BBCBDE8084001F054BC01F0D9
:10906800DDFB094BD3F80031C3F300635A1C01231D
:109078009340B0FBF3F008BD0020FCE7030020009C
:109088000500240002001E0000400E4000F4781382
:10909800B3F5A01F10B5044659D01FD8B3F5202F3B
:1090A80007D00AD8B3F5003F46D0B3F5802F38D0A3
:1090B800ABBBBDE8104001F0B1BBB3F5602F5DD08C
:1090C800B3F5801F6FD0B3F5402F28D101F0A6FB70
:1090D800404BD3F81431C3F3042329E0B3F5001F40
:1090E8003FD013D8B3F5D01F3DD0B3F5F01F29D02A
:1090F800B3F5B01F13D13848FFF784FF354BD3F8C9
:10910800202102F00F020123934012E0B3F5481F1B
:109118003CD0B3F5781F53D0B3F5101F2CD00020E6
:1091280010BD01F07BFB2B4BD3F80C31C3F30823A4
:109138000133B0FBF3F0F3E701F070FB254BD3F8F4
:109148000831F3E72448BDE81040FFF75BBF234828
:10915800FFF758FF1F4BD3F8303103F00F03D84007
:10916800DEE71F48EFE71E48FFF74CFF194BD3F81F
:10917800282102F00302C6E71848E4E71948FFF778
:10918800E3FE07280FD00928C9D192E71648FFF750
:10919800DBFE072807D0082808D00428BFD1BDE87F
:1091A800104001F071BB114B1868B9E701F036FBAC
:1091B800084BD3F80031C3F3042303FB0000AFE7E7
:1091C80001F02CFB01462046FFF7B8FEB1FBF0F09A
:1091D800A6E700BF00400E4002001E000500240064
:1091E8000300200006000E00B8003200CC39002031
:1091F8000E4B5A6A12F0300F04D0202913D03029B0
:1092080000D011B94FF4400200E0094AD3F8901099
:1092180032EA0101FAD1520246BFD3F8A000C0F3E6
:109228008020012070474FF40002EFE700400E4015
:10923800FF03E10702280AD129B1064B4FF48060E9
:10924800C3F8A800596612B10220FFF7D1BF012068
:10925800704700BF00400E40F8B504284ED8DFE83C
:1092680000F00A03116D72008026402406230725AA
:1092780000294FD046E04FF400764FF4807408235D
:109288000925F5E7002942D0314C636A13F0300F05
:1092980035D1636ADB0705D5636A23F0300343F0F1
:1092A80010036362042402230325294E3466294EE1
:1092B80033449B001F68002FFCD0FAB13544AD0041
:1092C8002B68002BFCD0022818D1B9B1204E716A46
:1092D80011F0010118D001222021FFF7ABFFD6F8C9
:1092E8009C70012200210220FFF7B6FFC7F30A0095
:1092F800FFF76AFD34662B68002BFCD0F8BD042408
:10930800022303250021D0E7FFF772FFE7E70826CD
:10931800022303250E4901200E6600FA03F3D1F853
:1093280090001842FBD1002AE8D00123084A03FA2A
:1093380005F5D2F890302B42FBD1DFE70124022655
:109348000023254694E720261024042305258FE7CB
:1093580000400E408004F21000F00F00013810B5F4
:10936800072843D8DFE800F00F043E423C5C426720
:109378004A4C0139092939D8DFE801F05039403819
:10938800384738383836023903292FD8DFE801F052
:109398002502191F0120032401221146FFF75CFF53
:1093A800FFF7F6FC3E4B5C6701F05CFA044601F0FF
:1093B80035FAFFF7AFFC20460021BDE81040FFF763
:1093C80021BD3848FFF7A6FC02200446E4E73548EB
:1093D800FFF7A0FC01240320DEE700200424DBE7DC
:1093E800314CC6E7314CC4E70423236010BD012289
:1093F80011460020FFF730FF0223F6E7012211464D
:109408001046FFF729FF0123EFE701F007FAFFF7FE
:1094180081FC274B01221A600323E6E70023E4E7D7
:10942800072904D00929E1D11D4B012201E01C4B79
:1094380000221A67DAE701390729D7D801A353F8B8
:1094480021F000BF9F940000F5930000F593000001
:1094580091940000F5930000F593000083940000B8
:109468006D94000003220E49D1F85C3123F03003DB
:1094780043EA0213C1F85C31B8E70122114604201F
:10948800FFF7EAFE0122EEE7012211460220FFF76C
:10949800E3FE0222E7E70022E5E700BF80400E4036
:1094A80000400E400148E80188400E4084400E40CC
:1094B8000016C84310B504461120FFF745FD0122E8
:1094C80000210220FFF7C8FE1A4A217C536A23F0C4
:1094D8000103022908BF43F001035362164B2178A8
:1094E8001960936AE17A23F007030B439362A1881A
:1094F800637A43EAC123D362136BA07A217A03F01B
:109508007F630343E08843EAC02343EAC11303317E
:109518000F2928BF0F2143EA01731363A37B617BE3
:109528001B0143EA0133E17B0B43217B43EA0143FF
:10953800536310BD00400E40A004C84372B6704784
:1095480062B67047EFF3108072B6704700B962B622
:109558007047602383F311887047002383F31188D1
:109568007047EFF31180602383F31188704780F30D
:1095780011887047EFF31083DB0706D4EFF31180EF
:109588005F2894BF00200120704701207047000029
:109598004109054A00F01F0352F82100D840C04392
:1095A80000F00100704700BF00E100E010B504467C
:1095B800EFF31083DB0733D4FFF7EAFF00282ED13F
:1095C800002CA7BF04F1604404F5614404F00F04C3
:1095D800144BACBF94F800231A5D5209EFF31183C2
:1095E80013B1B2EB531F1BD20F4C6368C3F30803CC
:1095F800ABB1103BDBB259B20029B5BF03F00F0382
:1096080001F16043043B03F56143B6BF1B1993F8AE
:109618000003187E4009824234BF0020012010BD9B
:109628000120FCE714ED00E000ED00E01848194BBC
:10963800C26C1B88C2F303222833013202EB820179
:1096480003EB5303B3FBF1F3C16C013B072B21F090
:10965800EE6128BF072341F4801141EA0363C36424
:109668000D4BB3F90030002B10DB2833510801EB08
:10967800420203EB5303B3FBF2F3026D072B28BF3F
:10968800072322F0700242EA03130365704700BF04
:1096980000300E409642002098420020084B1A786D
:1096A800013A012A0BD8074A126C02F00302012A78
:1096B80003D105490A68D203FCD503221A70704702
:1096C800A042002000300E407C300E40054A064B78
:1096D800D16C1960D36C23F47F4343F4EE43D36415
:1096E800FFF7A4BF00300E409C42002008B5054B90
:1096F800D3F89020044B11201A60FFF725FC034B88
:10970800187008BD00400E4090420020A142002081
:10971800114A38B545F60E03104CD2F88051C2F8FC
:109728008031216821F0AA01C905C90D11660C4ACA
:109738001178052902D01120FFF70EFE2368DA07F9
:109748005EBF054B02221A66EB0742BF024B00229E
:10975800C3F8802138BD00BF00400E409042002071
:10976800A14200207047000010B5044608B1FFF779
:10977800BDFF0E4A136943F004031361FFF7A6FF08
:10978800FFF78CFFFFF7EEFF30BF02F08BF8084BB6
:109798001A68084BDA64FFF749FF1CB1BDE81040AE
:1097A800FFF7B6BFBDE8104001F05CB800ED00E07F
:1097B8009C42002000300E4010B5044608B1FFF767
:1097C80095FF164BD3F8802145F60E01D20748BF06
:1097D8000022C3F880114FF42071196648BFC3F8FE
:1097E80080210F4A136943F004031361FFF76EFFEA
:1097F800FFF754FFFFF7B6FF30BF02F053F8094BED
:109808001A68094BDA64FFF711FF1CB1BDE8104074
:10981800FFF77EBFBDE8104001F024B800400E40BD
:1098280000ED00E09C42002000300E40FFF75EBFD4
:10983800FFF76EBF704700000378002B437870B5C0
:109848000E4C14BF04260026002B8378A16914BF90
:1098580002250025002B037921F03F0143EA01038B
:10986800C17814BF08220022012908BF43F0010370
:1098780033432B431343A36170BD00BF00300E4038
:10988800194B4AF6E85210B55C6B5A639A6FD207C7
:10989800FCD41B6C13F003031EBF144A0121116092
:1098A800834203D108B9114B186010BD23B90128B0
:1098B80002BF0F4B02221A700B4A1146936FDB0747
:1098C800FCD4136C23F00303034313648B6F13F06E
:1098D8000103FBD10030054A18BF0120012C10609C
:1098E80008BF4B63E1E700BF00300E40B40AC6432F
:1098F800A042002070B51D4D4AF6E852AC69AE6929
:10990800AA60A86924F4403410F0010044F400343B
:1099180046F4403607D12B6C03F00303013B012BBF
:1099280001D8FFF7ADFFAB69DB070FD572B6104B57
:109938004AF6E8521A600F4A136843F0800313602E
:10994800A2F58872136843F480731360FFF7BEFEB4
:10995800FFF7A4FE054B9C619E619C619E619C6122
:109968009E619C619E619C6170BD00BF00300E408D
:1099780090310E4098310E40A0F5E163B3F5966F33
:109988002DE9F04703D900210846BDE8F0875F4C70
:109998005F4BD4F86851DB6CB0F5E16F1FBF4FEA3D
:1099A800156AC5F307484FF496694FF4E16701BF9C
:1099B800C5F3072A5FFA85F84FF416794FF49667CE
:1099C800B0F5E166C3F3017C18BF012646EA0C2E08
:1099D80040F201139E455BD0BEF5817F09D2BEF1EE
:1099E800010F1BD05DD3BEF5807F5DD000252B46CF
:1099F80019E040F201239E4550D005D8BEF5007FFE
:109A0800F4D1D4F870310BE0BEF5407F4FD040F26E
:109A180001339E45EAD1D4F878313BE0D4F874316B
:109A2800C3F30725DBB2C71BAAEB080E07FB0EFE24
:109A3800BEFBF9FEC644D645A5D8A5EB030807FB2F
:109A480008F7B7FBF9F73B44AB424FF000079AD849
:109A580082B1DFF8BC80D8F85C5025F4FE4525F0CB
:109A68000205B0F5E16F45EA0E2518BF02273D4310
:109A7800C8F85C50002946D0226DD2B2032A19D802
:109A8800B0F5E16FD4F87C211FD0C2F307221DE0A6
:109A9800D4F874311D0EC3F30743C4E7D4F8783102
:109AA800BEE7D4F86C31BBE7D4F86C31F2E7D4F8F0
:109AB8007031EFE7BCF1020FD4F880211ED0BCF161
:109AC800030F1ED0BCF1010FDFD0D2B2120312F483
:109AD800702F7FF458AF0E4CE06E20F470400243B4
:109AE800E266626E22F4FF72E72B22F0010228BFC1
:109AF800E723324342EA4303636645E7C2F307427A
:109B0800E4E7120EE2E701213EE700BFB081E00F73
:109B180000300E40194B1A6FD96CC90702F00702C2
:109B280014D5012A12D9132823D9143813288CBF25
