S0150000656C656C6162732D656C723032332E73333702
S31500000000E01F002095E60200F5670000F967000092
S31500000010A70A0A010001000004180FAC6067470137
S3150000002000000000000000000000000000000000CA
S3150000003000000000DCEE02000000000000000000EE
S315000000400000000000000000FFFFFFFFFFFFFFFFB2
S31500000050FFFFFFFF00700700000000000000000027
S31500000060FFFFFFFFFFFFFFFF28000000000000006A
S31500000070000000000000000000000000000000007A
S315000000800000000000000000943600209436002096
S31500000090E01F0020DC210300E8ED020080160020AE
S311000000A0571600200000080000000000B9
S31500000100E01F002095E60200F5670000F967000091
S31500000110E1700000FD6700000568000091E602003E
S3150000012091E6020091E6020091E6020091E60200E5
S315000001300968000091E6020091E6020091E60200DD
S3150000014015170000C1DF0000ED6B000040690000DC
S3150000015039D700002DE00000CDDF0000E5DF00000C
S31500000160C5DF0000350D0000090E0000052900005E
S31500000170A17E0000406900004069000029030000DC
S3150000018091E60200406900002D0E00004069000063
S3150000019040690000406900004069000040690000B5
S315000001A040690000406900004069000040690000A5
S315000001B031E00000C9DF000015C50000D5140000BD
S315000001C071E0000040690000F5C4000040690000CD
S315000001D04069000040690000406900004069000075
S315000001E04069000091E6020091E6020040690000C5
S311000001F0406900004069000091E6020032
S315000001FCF8B500BFF8BC08BC9E467047F8B500BF02
S3150000020CF8BC08BC9E46704710B5054C237833B92C
S3150000021C044B13B10448AFF300800123237010BDC7
S3150000022C4025002000000000741C030008B5034B99
S3150000023C1BB103490348AFF3008008BD0000000062
S3150000024C44250020741C0300154B002B08BF134BD0
S3150000025C9D46A3F5803A00218B460F461348144A57
S3150000026C121A2EF0A8FD0F4B002B00D098470E4B00
S3150000027C002B00D098470020002104000D000D48EB
S3150000028C002802D00C48AFF300802EF065FD20004C
S3150000029C290026F0DBFF2EF04BFD00BF0000080006
S315000002ACE01F002000000000000000004025002098
S315000002BC94360020000000000000000070B5134CBE
S315000002CC8A00A31822449B781D09062D98BF104E50
S315000002DC03F00F0394BF755DFF25062B05719ABFBE
S315000002EC0C4DEB5CFF234371FF3B18BF012383715D
S315000002FCD37014F82130084C437053788370014640
S3150000030C204602F06FFB0123A36070BD5C25002024
S3150000031CEFED0200E8ED0200002000407FB5224917
S3150000032C22480022FF23CDE901228DF809300378FB
S3150000033C4C6C8D6B03922C40E407DBB228D5022B58
S3150000034C26D88C6C1A4901EB8301A5B2CE781949D3
S3150000035C06B326041ED521F813201749012202FAEA
S3150000036C03F30A781343154A0B701378CBB10023A9
S3150000037C1478DC40E407D9B20FD50170107801244B
S3150000038C04FA03F34340DBB201A81370FFF796FFA0
S3150000039C04B070BD21F81350DFE70133032BE7D10E
S315000003ACF6E703230370F3E70020004068250020DE
S315000003BC5C2500206C2500206A250020692500207C
S315000003CC00207047002814BF02200020704701202F
S315000003DC704701207047012814BF02200020704787
S315000003EC012070472DE9F84F184E80460D461446ED
S315000003FC994606F1010A0DB9BDE8F88F102D4FF09C
S3150000040C0D02494650462F4628BF102706F094FA8F
S3150000041C012333700D48F4730023B37301341AF0BF
S3150000042CAFFD0B495FFA87FBE4B2424612F8013B7B
S3150000043C11F8010F434002F8013CA2EB0803DBB2B2
S3150000044C5B45F3D3ED1BADB29046D4E77625002081
S3150000045C752500202DE9F04F374D85B01746BDF8B0
S3150000046C3880019003930D220F9B02930E46014692
S3150000047C681C06F061FA49232B7028464FEA1823AC
S3150000048CAB7385F80F801AF07BFD2B7883EA172364
S3150000049C2B706B784FF002097B406B704C46AA466A
S315000004AC4FF0000B21E0C4F1100CA7EB0B031FFA65
S315000004BC8CFC9BB2634528BF63463046A11B00EB00
S315000004CC010C5FFA8CF2A0EB060C1FFA8CFC9C4517
S315000004DC1BD31C44E4B29B44102C1E441FFA8BFB0A
S315000004EC03D128461AF04CFD0024BB45DBD314B1CE
S315000004FC50461AF045FDB9F1010F4FF00004039E6A
S3150000050C47460BD04FF00109CAE710F801CB1AF891
S3150000051C02E08CEA0E0C0AF802C0D0E702980649F3
S3150000052C042206F009FA019B02982246042105B022
S3150000053CBDE8F04FFFF756BF76250020F7B5099FAB
S3150000054CBDF82040CDE9004706461D46FFF782FF61
S3150000055C2CB13346012221462846FFF743FF0020E3
S3150000056C03B0F0BD2DE9F743BDF828700F4C1E46BD
S3150000057C0546884691460346394630460122FFF722
S3150000058C31FF33464A4641462846CDE90074FFF70B
S3150000059C61FF042221460B9806F031FA002814BF9D
S315000005AC7E20002003B0BDE8F08300BF722500203A
S315000005BC2DE9F3410A4F0C46991815461E468046FE
S315000005CC21443846042206F0B7F9CDE900676319D1
S315000005DC2A4621464046FFF7C5FF02B0BDE8F0812A
S315000005EC86250020002070470120704701207047A7
S315000005FC002070470120704700207047002070478C
S3150000060C01207047002070470120704770477047E3
S3150000061C002814BF0220002070470020704770B5D8
S3150000062C164685180AB9304470BD01F00F030A2B23
S3150000063C34BF302437242344013A090905F8013D17
S3150000064CD2B2EFE7F0B5F9B100281CDA2D23B0F1E0
S3150000065C004F137000D04042012115E0801B8642EA
S3150000066CECB205F10105F9D904B927B14D1C3034AA
S3150000067C54540127E9B20133092B09D130305054B7
S3150000068C0131C8B2F0BD00210023DFF80CC01F46B3
S3150000069C5CF823600025E2E7F8ED02002DE9F04F47
S315000006AC95B04FF0000B02AC81468A4617461D46A4
S315000006BC5E46A0463B7863B902ABE41AE4B2224626
S315000006CC19465046C847002840F093803444E0B29F
S315000006DC90E0252B13D0BBF1000F14D123700134FD
S315000006EC12AB9C426DD3A4EB0804E4B222464146FD
S315000006FC5046C84700287CD12644F6B260E0BBF1D0
S3150000070C000F00D101373B78632B00F092801BD889
S3150000071C392B09D8302B80F09E80002BCCD0252B82
S3150000072C51D04FF0000BDBE7582B00F08B80622B7F
S3150000073CF7D12B6801936B6800934FF0000B009B6D
S3150000074C9B4543D10835ECE7702B1ED017D8642B8C
S3150000075C01D06C2BE5D16C2B05F1040B28686CD100
S3150000076C7B78752B14BF0121002101D0642B00D19D
S3150000077C01372246FFF766FF04445D46D1E7752B29
S3150000078CE9D0782B5ED0732BCBD1A4EB0804E4B262
S3150000079C224602A9504605F1040B2D68C84740BBFA
S315000007AC2644F6B2C4B201302B5D002BFAD1224698
S315000007BC29465046C847E0B926445D46F6B28346FC
S315000007CC4446013776E723700134AAE7019B20469D
S315000007DC13F80B100222FFF722FF12AB98420446C5
S315000007EC0ED3A0EB0804E4B2224641465046C84755
S315000007FC18B1002015B0BDE8F08F2644F6B2444679
S3150000080C009B013B5B4582BF20232370013412AB56
S3150000081C9C420BD3A4EB0804E4B222464146504654
S3150000082CC8470028E5D12644F6B244460BF1010B25
S3150000083C85E72B6823700435C6E7752B0CBF0021A2
S3150000084C012196E7204602222978FFF7E8FE05F1FA
S3150000085C040B044691E77A7802F0DF02582A19D184
S3150000086C322B07F1010B09D129882F1D04222046B2
S3150000087CFFF7D5FE3D4604465F4652E7342B09D1B9
S3150000088C2F1D2D680422290C2046FFF7C8FE0422D2
S3150000089CA9B2EDE74FF0010B22E700002DE9F04F6E
S315000008AC9B46584B85B01B78109F9DF844A0DDF8ED
S315000008BC5080064689461546002B00F09280072A82
S315000008CC00F291800E9B002B00F08D800F9B002B6D
S315000008DC00F08980129BB3F5006F00F38480012829
S315000008EC01D1002F7FD0484B03EB05131B7B002B4C
S315000008FC7BD0464C1022002168462EF05CFA04EBA5
S3150000090C45141022B9F1000F5CD1494620462EF051
S3150000091C52FAA37843F01003A370E37843F0300344
S3150000092CE370BAF1000F03D1DBB243F00303E370BB
S3150000093C3649129BCDF800B06A01013B885A01EB8F
S3150000094C020C63F30E1088520E9BCCF808300F9BEA
S3150000095CCCF804309DF84C109CF80330012E61F352
S3150000096C83038CF8033042D11323CCF80C309CE86B
S3150000097C0F000CF1100E8EE80F00DCF81C20CCF8E2
S3150000098C14706FF0030161F39F02B9F1010FCCF8FB
S3150000099C1C2004D10F9BCCF81830CCF804701A49E3
S315000009AC2A018B1841F802800027159A5A602846AE
S315000009BC9F605E732246694603F0E4F8384605B03C
S315000009CCBDE8F08F002120462EF0F5F91023A37018
S315000009DC0323E370BAF1000FAAD1DBB243F0300364
S315000009ECA5E70B48EBE70B48E9E70B48E7E7B8F157
S315000009FC000FD4D19CF8023068F304138CF8023043
S31500000A0CCDE700BF0C2700208C2500200C260020EB
S31500000A1C028000F0018000F0078000F038B5104B22
S31500000A2C1B780546BBB1C0B102F00FFD0D49002382
S31500000A3C01EB0312147B3CB92B6001231373146076
S31500000A4C02F009FD204638BD0133082BF0D102F027
S31500000A5C02FD0548F7E70548F5E70548F3E700BF4B
S31500000A6C0C2700208C250020048000F0028000F06A
S31500000A7C018000F038B502F0E8FC0B4A054600236D
S31500000A8CD1180C7B5CB91033802BF9D103F030F8FC
S31500000A9C064B28461C7002F0DEFC204638BD284664
S31500000AAC02F0D9FC0248F9E78C2500200C2700201F
S31500000ABC058000F00D4B1B7810B5044693B1072842
S31500000ACC12D802F0C2FC0A4B03EB04131A7B2AB1B0
S31500000ADC00241C7302F0BFFC204610BD02F0BBFCC8
S31500000AEC0448FAE70448F8E70448F6E70C27002020
S31500000AFC8C250020068000F0028000F0018000F0BA
S31500000B0C13B5164B1868019000238DF8043002F0CB
S31500000B1C9CFC134B1C7824B102F09DFC114802B0CE
S31500000B2C10BD01221A7002F096FC0F4B1C731C7739
S31500000B3C83F82C4083F83C4083F84C4083F85C40A7
S31500000B4C83F86C4083F87C4004230DEB03008DF88E
S31500000B5C073002F0EDFF2046E1E700BF1CEE020075
S31500000B6C0C270020038000F08C25002010B588B0DF
S31500000B7C0E9C07940D9C06949DF8304005940B9C96
S31500000B8C04949DF8284003940024CDE90134009286
S31500000B9C0B46024621462046FFF780FE08B010BDE4
S31500000BAC10B588B00E9C07940D9C06949DF83040A9
S31500000BBC05940B9C04949DF8284003940024CDE9DD
S31500000BCC013400920B46024601212046FFF766FED1
S31500000BDC08B010BD08B50A4B1B785BB107280BD8BB
S31500000BEC084B03EB00131B7B43B1002102F096FF6D
S31500000BFC002008BD0448FCE70448FAE70448F8E777
S31500000C0C0C2700208C250020028000F0018000F0CB
S31500000C1C078000F008B50A4B1B785BB107280BD888
S31500000C2C084B03EB00131B7B43B1012102F076FF4B
S31500000C3C002008BD0448FCE70448FAE70448F8E736
S31500000C4C0C2700208C250020028000F0018000F08B
S31500000C5C078000F008B50A4B1B7853B107280AD851
S31500000C6C084B03EB00131B7B3BB102F0DDFF0020AE
S31500000C7C08BD0548FCE70548FAE70548F8E700BF54
S31500000C8C0C2700208C250020028000F0018000F04B
S31500000C9C078000F00D4B1B7893B1072812D889B149
S31500000CAC0B4B03EB00131B7B73B10A4B1A6A012324
S31500000CBC03FA00F010401ABF00200B700870704742
S31500000CCC0548704705487047054870470C270020B3
S31500000CDC8C25002000200E40028000F0018000F0E0
S31500000CEC078000F00B4B1B7810B50C4663B1072838
S31500000CFC0CD859B1084B03EB00131B7B43B102F024
S31500000D0CA9FF2060002010BD0448FCE70448FAE760
S31500000D1C0448F8E70C2700208C250020028000F000
S31500000D2C018000F0078000F02DE9F843174E326E73
S31500000D3CF36E12EA030800D5FEE7154CDFF8549063
S31500000D4C0127002518EA070F16D02368B7669BB152
S31500000D5CA16862680131A16028469847637B012B24
S31500000D6C0AD148B909EB4513197B1A7F60F3410187
S31500000D7C60F3410219731A770135082D4FEA4707BC
S31500000D8C04F11004DED1BDE8F88300BF00200E404C
S31500000D9C8C2500200C26002070B5094E0446012532
S31500000DAC04B970BD94FAA4F0B0FA80F005FA00F319
S31500000DBC24EA030456F82030002BF1D09847EFE7CD
S31500000DCC10270020054B4FF48022C3F880211A60AF
S31500000DDC4FF48062C3F880211A60704700E100E08E
S31500000DEC38B504460D4602F030FB034B43F824504D
S31500000DFCBDE8384002F02FBB10270020074BD3F874
S31500000E0C2804D3F81C24104020F42A5020F02A0081
S31500000E1C4004400CC3F82404FFF7BEBF00A00040FA
S31500000E2C074BD3F82804D3F81C24104020F4AA400E
S31500000E3C20F055000004000CC3F82404FFF7ACBFE7
S31500000E4C00A00040104A4161136830B51546ABB995
S31500000E5C1060836011E0091B9C6841611A467CB1E5
S31500000E6C23465C698C42F6D9002CF4D052B19060C2
S31500000E7C836013B15A69511A596130BD0022F0E7EB
S31500000E8C2346F4E72860F3E76427002010B500F04A
S31500000E9CB7FA094B094A196831B11368C41A4B6978
S31500000EACA34203D31B1B4B61106003E0C01A002343
S31500000EBC10604B6110BD00BF642700205427002032
S31500000ECC074B1B6810B55C69064B1B6802201C445B
S31500000EDC00F0C4FA2046BDE8104000F097BA00BFF7
S31500000EEC642700205427002070B59DF81450057116
S31500000EFC002516468560049ABDF81850C580044630
S31500000F0C0260C0E903360D4629B961610BB1114681
S31500000F1C984796B1354602F098FA0646FFF7B6FFA3
S31500000F2C29462046FFF78EFF054B1B68A34201D1CD
S31500000F3CFFF7C6FF304602F08EFA002070BD00BFE8
S31500000F4C642700200C4A136800217BB183420AD126
S31500000F5C836879B18B6083681BB15A6941690A440D
S31500000F6C5A610020704719469B68EEE70028EFD0BF
S31500000F7C022070471360EEE76427002070B5124D0F
S31500000F8C02F063FA2C780646CCB9104B1C60104B59
S31500000F9C1C60104B1C8000F0F1F9012000F05EFA89
S31500000FAC00F0AAFA0C4B0246186040F2E7312346D1
S31500000FBC0A482DF03DFD0A4B186001232B70304674
S31500000FCC02F049FA002070BD50270020642700204B
S31500000FDC542700205C2700206027002018FCFFFF08
S31500000FEC582700202DE9F0410546F8B102F02DFAFC
S31500000FFC0F4F0646FFF74AFF2846D7F80080FFF743
S3150000100CA1FF044628B1304602F025FA2046BDE879
S3150000101CF081A8453B6803D123B1FFF751FFF2E7F6
S3150000102C002BF0D1022000F027FAECE72224EDE7A2
S3150000103C64270020F0B50D4685B016461F460446BB
S3150000104C80B1FFF7CFFFBDF82C3002939DF8283006
S3150000105C0022CDE90073294633462046FFF744FFAC
S3150000106C05B0F0BD2220FBE738B50C46054698B115
S3150000107C91B100230B7002F0E8F9084B1B680121B3
S3150000108C0BB122781AB102F0E6F9002038BD9D4268
S3150000109C0CBF21709B68F3E72220F7E7642700203A
S315000010ACF0B587B01F4600230D4616468DF817304F
S315000010BC0446A0B10DF11701FFF7D6FF9DF81720D6
S315000010CC7AB9BDF8343002939DF830302946CDE913
S315000010DC007320463346FFF707FF07B0F0BD22200A
S315000010ECFBE70320F9E70000F8B50C460646C8B145
S315000010FCC1B102F0AAF90546FFF7C8FE7369236071
S3150000110C134B1B68B3420FD023B9284602F0A3F940
S3150000111C03201CE0596922689B680A442260F1E7A7
S3150000112C00230FE0222012E00A4E276800F068F92F
S3150000113C3368C01A8742F3D900F062F93368C01AD3
S3150000114C23681B1A2846236002F085F90020F8BD97
S3150000115C642700205427002070B502F076F9064665
S3150000116C00F04EF9094B1C8805460120A4B200F08C
S3150000117C9BF918B100F044F901340546304602F0EB
S3150000118C6AF9002242EA0500214670BD5C27002060
S3150000119C0A4B1B68834210B50C460CD3084B1968D6
S315000011AC4FF47A720023A0FB01012DF041FC0130B3
S315000011BC2060002010BD2120FCE700BF582700202E
S315000011CC60270020104B1A684FF47A7310B5A0FBF9
S315000011DC0301A2B1531E134211D1B2FA82F2C2F12B
S315000011EC1F02C2F12004A2F1200301FA04F420FA32
S315000011FC02F2224321FA03F342EA030010BD002354
S3150000120C2DF016FCFAE700BF60270020F8B516464D
S3150000121C1BA3D3E900238B4208BF82422AD3174B68
S3150000122C1A684FF47A73A0FB034503FB0155C2B150
S3150000123C531E13EA020014D1B2FA82F2C2F11F0253
S3150000124CC2F12007A2F1200124FA02F305FA07F7EE
S3150000125C3B4325FA01F10B4325FA02F2C6E90032AB
S3150000126CF8BD0023204629462DF0E2FBC6E9000115
S3150000127C0020F5E72120F3E7AFF30080602700207C
S3150000128CEFA7C64B37894100C2072DE9F84F044634
S3150000129C0BD5374A138801339BB21380FFF7F6FD43
S315000012AC344B1B680BB1FFF70BFEA3075DD5324E13
S315000012BCDFF8C09000F0A4F835680746451B02F02D
S315000012CCC4F84FF0000A8046D9F80040002C48D0EC
S315000012DC6369AB4209D95D1B65613760FFF7F0FDA9
S315000012EC4046BDE8F84F02F0B6B8376023462A46AA
S315000012FC5969914209D8187994F804C0844588BF75
S3150000130C1C469B68521A002BF2D1404602F0A3F8F9
S3150000131CD4F81480C4F814A002F097F8834620463B
S3150000132CFFF710FE584602F096F823694BB102F00F
S3150000133C8CF8216983462046FFF784FD584602F057
S3150000134C8AF8E36813B121682046984700F058F8EC
S3150000135C4744ED1B0446054402F077F827468046C1
S3150000136CB2E7022000F088F8BAE7BDE8F88F00BFB4
S3150000137C5C270020642700205427002010B51C4B46
S3150000138C86B05968186803AA03C2197A53F8090F6C
S3150000139C117001909A8817489B79ADF808200121A5
S315000013AC8DF80A30002401F015FC03A88DF80C40CA
S315000013BC8DF8104002F0E4FD01A901208DF80440DF
S315000013CC02F0BEFD0C4A536A23F4FF6323F00703B5
S315000013DC536240F2FF7313620120946002F0CAFD5F
S315000013EC064B4FF00042C3F880211A6006B010BDC0
S315000013FC20EE0200A00914000020044000E100E0E9
S3150000140C014B9868704700BF00200440114A93684E
S3150000141C516D9269520704D4CA1A022A01D899420C
S3150000142C0DD1C21A012A98BF981C0A4BB0F1FF3F86
S3150000143C28BF013058655A6A42F004025A62064ABD
S3150000144C137833B103490B6D43F002030B6500238C
S3150000145C13707047002004403C2000208207054A88
S3150000146C00F00103516A48BF43F004030B43536277
S3150000147C704700BF00200440830700F0010209D525
S3150000148C074B0121197007490B6D23F0030342F03A
S3150000149C04020B6503494B6A23EA02034B6270474D
S315000014AC3C20002000200440064B01289B6904D0F8
S315000014BC022805D1C3F38000704703F00100704782
S315000014CC002070470020044010B501F0BEFF094A09
S315000014DC93690446590703F0010003F0070348BF5C
S315000014EC40F002001362FFF7CFFE2046BDE8104025
S315000014FC01F0B1BF00200440014801F0B9BC00BFA7
S3150000150CA0091400044B4FF04042DA621A6B22F029
S3150000151C40421A63704700BF00300E402C48F0B5AD
S3150000152C002203682B4D114654592CB11E68AC1879
S3150000153C002E36D1234601210832282AF4D101B1D6
S3150000154C03602549254E0B680022144695592DB18A
S3150000155C1F68B518002F2BD12B4601240832282AD8
S3150000156CF4D104B10B6000681D4B026842B3DA6912
S3150000157C007922F0FF020243DA611A6B42F08042D4
S3150000158C09681A630A68164BF2B1DA69097922F40A
S3150000159C7F4242EA0122DA611A6B42F000421A6378
S315000015ACF0BD1E792779B74284BF23460121C3E7D4
S315000015BC1F7995F804C0BC453CBF2B460124CDE7EA
S315000015CC1A6B22F08042DBE71A6B22F00042E6E748
S315000015DC742700208427002078270020AC270020C1
S315000015EC00300E4008B51B4B1B4801221A70002117
S315000015FC28222DF0E0FB2822002118482DF0DBFBD9
S3150000160C174A184B13601849184A13600A684B6D31
S3150000161CC2F30742FF2A02D0DBB2FF2B01D1902383
S3150000162C1922134802EB820103EBD1010160DB00A6
S3150000163C0521B3FBF1F313440E4A1360FFF762FF67
S3150000164C0D4B0122C3F880211A60FFF767FF0020BB
S3150000165C08BD00BF6827002084270020AC27002087
S3150000166C742700207C270020B081E00F782700200B
S3150000167C6C2700207027002000E100E008490B6A67
S3150000168C0A6ADBB2D2B29342F9D1064A0520DB00D4
S3150000169CB3FBF0F31068C31A03F3070040B27047AC
S315000016AC00300E407027002070B5144C226B616A16
S315000016BC0A4011D5124B1B681E6836B100251D60F9
S315000016CC5D60FFF7DBFF2946B0474FF00043E3624E
S315000016DCBDE87040FFF722BF5300F9D5094B1B68D4
S315000016EC1C6834B100221A605A60FFF7C7FF01214B
S315000016FCA047024B4FF08042DA62E9E700300E4019
S3150000170C7827002074270020FFF7CEBF38B141B1EF
S3150000171C013AB2F5006F044838BF00207047034801
S3150000172C70470148704700BF037000F0027000F06C
S3150000173C0D490E4A0B7810B54BB9C2E90033C2E914
S3150000174C023301240C7042F82300002010BD002344
S3150000175C52F823100029F6D08142F4D00133042B21
S3150000176CF6D10348F2E700BFE4270020D427002077
S3150000177C027000F038B504460D4601F066FEA288EC
S3150000178C92B222B92A6001F066FE064838BD63881B
S3150000179C142202FB034308332B6001F05CFE00208D
S315000017ACF4E700BF0B7000F038B504460D4601F0A7
S315000017BC4CFEA3889BB223B92B6001F04CFE0C485F
S315000017CC38BD6388E188142202FB034308332B607F
S315000017DC63885A1C92FBF1F301FB13239BB26380C3
S315000017ECA388013B9BB2A38001F035FE0020E7E7FE
S315000017FC0B7000F07FB5012380F82C3090F8323056
S3150000180C93B90C4A036803920022049002924A6828
S3150000181C0192012200920A68016980681C33FFF765
S3150000182CBFF907B05DF804FB012BEAD0002380F862
S3150000183C2C30F6E7912000007FB5012380F82D307F
S3150000184C90F8323083B9026834320D4B039300237F
S3150000185C049002934B680193012300930B68C168B3
S3150000186C4068FFF783F907E0012B02D102682832A2
S3150000187CEBE7002380F82D3007B05DF804FB00BFC2
S3150000188C91180000F7B5906A01A91446FFF772FF8C
S3150000189C144B984220D0019B00251D619D6001F0E0
S315000018ACD4FD019AD668074626B1D2E9002329460B
S315000018BC2046B04701A9A06AFFF776FFA06A838885
S315000018CC9BB263B101A9FFF755FF01992046FFF7BB
S315000018DCB3FF384601F0BFFD012003B0F0BD84F81C
S315000018EC2D30F6E70B7000F0427E30235343044A4A
S315000018FC1A44437F03EBC2039B001868C0B27047BF
S3150000190C1CA0104213B51D4A002352F82340617FD8
S3150000191C81420ED00133042BF7D102B010BD002842
S3150000192CFBD19DF80730002BF7D06068FFF752F912
S3150000193CF3E794F83130022BEFD12046FFF7D4FFB2
S3150000194C637D2075022BE8D194F82E3003F0FF024C
S3150000195C002BE2D102A9606801F8012DFFF79AF974
S3150000196C237D1BB194F82F30002BD8D0002384F89C
S3150000197C2F306068FFF74EF9CFE700BFD427002061
S3150000198C90F8323053B903680122DA601A69D0072D
S3150000199CFCD55A6F42F001025A677047012B0CD1E5
S315000019AC03685A6C9107FCD401225A609A68D207D4
S315000019BCFCD55A6D42F001025A65704790F83230E8
S315000019CC3BB903685A6F22F001025A670222DA60A9
S315000019DC7047012B09D103685A6C9207FCD45A6DD7
S315000019EC22F001025A6502225A60704710B504466D
S315000019FCFFF786F80021201DFFF710F8014608B105
S31500001A0C044810BD04F10800FFF708F80028F8D0C8
S31500001A1CF6E700BF0E7000F0F8B5044617460D4603
S31500001A2C01F013FDA388E2889A42064605D80023E6
S31500001A3C3B6001F010FD1648F8BD2388142202FB0A
S31500001A4C0343083305F1100C2A4603CA6245186095
S31500001A5C5960154603F10803F6D1106818602388FF
S31500001A6CE188142202FB034308333B6023885A1C8B
S31500001A7C92FBF1F301FB13239BB22380A388013362
S31500001A8C9BB23046A38001F0E6FC0020D4E700BFF1
S31500001A9C0A7000F073B504460D46C07DE67E00293B
S31500001AAC34D001230422314601F0E0FF0123022247
S31500001ABC217F207E01F0DAFF94F83130022B16D10B
S31500001ACC00230122617F607E01F0D0FF00230422F7
S31500001ADCA07EA17F01F0CAFF0123627F607E019385
S31500001AEC0093114601F076FF002002B070BD032B67
S31500001AFCFAD100230122617F607E01F0B7FF00233B
S31500001B0C0422A17FA07E01F0B1FFEDE70B460A4649
S31500001B1C314601F0ABFF2B462A46217F207E01F091
S31500001B2CA5FF94F83130022B10D12B462A46617F43
S31500001B3C607E01F09BFF2B462A46A07EA17F01F01A
S31500001B4C95FF627F607E01950123C9E7032BCBD1FC
S31500001B5C2B462A46617F607E01F088FF2B462A467B
S31500001B6CCFE790F8323013B9036818697047012B28
S31500001B7C1CD103689B6803F00200DA0748BF40F0EB
S31500001B8C0100590748BF40F008001A0748BF40F04B
S31500001B9C2000D90648BF40F040009A0648BF40F0E6
S31500001BAC80005B0603D540F4005070470020704758
S31500001BBC2DE9F3410D460446002879D001F045FC89
S31500001BCC012D06463BD1A36A9B889BB2002B3DD0C8
S31500001BDC6068FFF73FF80023A06A84F82D308388ED
S31500001BEC9BB273B101A9FFF7C5FD01996068364F29
S31500001BFC0831FFF777F8019B1F61A06A83889BB2B7
S31500001C0C53BB2046FFF7ADFF8304FAD5023D012DE9
S31500001C1C10D8A068FFF71EF80023606A84F82C30F1
S31500001C2C83889BB23BBB94F83130032B02D0204601
S31500001C3CFFF7C4FE304601F00EFC002009E0022D31
S31500001C4C38D1636A9B889BB2002BDFD101F003FC71
S31500001C5C1E4802B0BDE8F08101A9FFF7A5FD019B66
S31500001C6CD3F80C80B8F1000FC7D09B680022394618
S31500001C7C2046C047C1E76946FFF77CFD0099A0687E
S31500001C8C114F0831FFF72EF8009B1F61606A83889D
S31500001C9C9BB2002BC7D06946FFF786FD009BDD681B
S31500001CAC002DF3D09B68002239462046A847EDE765
S31500001CBC0748CEE7032DA9D1A36A9B889BB2002BBC
S31500001CCC86D1636A80E700BF097000F0087000F0E7
S31500001CDC027000F0436A9888C0B270472DE9F34150
S31500001CEC0546406A84889846A4B200230E461746D9
S31500001CFCCDE900333CB16946FFF73CFD01A904462A
S31500001D0CA868FEF7EFFF009971B16CB94868019BA2
S31500001D1CC01A3860C8F800300B6833602846FFF7E5
S31500001D2C20FF02B0BDE8F0810021C8F80010396030
S31500001D3C3160F3E7836A9888C0B270472DE9F341A6
S31500001D4C0546806A84889846A4B200230E46174638
S31500001D5CCDE900333CB16946FFF70CFD01A90446F9
S31500001D6C6868FEF7BFFF009971B16CB94868019BB2
S31500001D7CC01A3860C8F800300B6833602846FFF785
S31500001D8CF0FE02B0BDE8F0810021C8F80010396001
S31500001D9C3160F3E7007D70472DE9F04104460E46AD
S31500001DAC1746FFF7B3FC804650BB092001F072FBC7
S31500001DBC0546A26A93889BB213B194F82E3013B3DE
S31500001DCC94F8322022BB23681D6915F0020533D026
S31500001DDC012384F83030002A3FD13744BE422068B4
S31500001DEC36D103699E06FCD555B994F83230002BD2
S31500001DFC42D123685A6F22F002025A670822DA602F
S31500001E0C4046BDE8F081002DD4D0FEF78DFFD0E71B
S31500001E1C012A1BD123689D6815F00205D8D1596C8F
S31500001E2C8807FCD40421596099688907FCD5596D3B
S31500001E3C41F002015965CBE70421D960196989077C
S31500001E4CFCD5596F41F002015967C1E70025BFE780
S31500001E5C16F8011B02F00CFAC0E7012AD0D1374460
S31500001E6CB742206803D183681907FCD5BCE716F87E
S31500001E7C011B01F034FFF3E7012BC1D123685A6C27
S31500001E8C9207FCD45A6D22F002025A6508225A6057
S31500001E9CB6E7000010B50446B0B190F82E3033B951
S31500001EAC90F83130022B0AD06068FEF793FE94F856
S31500001EBC2E300133DBB284F82E30002010BDFFF734
S31500001ECC13FD0028F3D1EFE70048F7E7027000F0A6
S31500001EDC10B50446D0B190F82E30CBB190F82E3018
S31500001EEC012B06D190F83130022B0AD06068FEF730
S31500001EFC91FE94F82E30013BDBB284F82E30002094
S31500001F0C10BDFFF7F1FC0028F3D1EFE70148F7E726
S31500001F1C0148F5E7027000F0057000F037B590F84F
S31500001F2C3150022D044618D1A37F407D01229A40E0
S31500001F3CA37E30215943134B0B4410B903F1806334
S31500001F4C03E0012805D103F1C0631A60002003B039
S31500001F5C30BD217D0029F6D1F0E7012DF6D1037DA8
S31500001F6C73B911238DF80730FFF794FF2A460DF14C
S31500001F7C07012046FFF710FF2046FFF7A9FFE5E70C
S31500001F8C1323EFE70CA0004090F83130032B05D05B
S31500001F9C0229417518BF0175FFF7C0BF004870478D
S31500001FAC057000F010B5044600283AD00321FFF75F
S31500001FBCFFFD00212046FFF7E7FF00212046FFF733
S31500001FCC69FD94F8323003BB23680A22DA600021DB
S31500001FDC206A00F0FFFD94F83130032B03D000216A
S31500001FEC607FFEF7FDFE6068FEF764FDA068FEF7F5
S31500001FFC61FDFEF73FFD636A0020188058809880CB
S3150000200CA36A18805880988010BD012BDFD12068F8
S3150000201C01F051FE23685A6C9207FCD40A225A60CE
S3150000202CD5E70148F0E700BF027000F0F0B587B0C5
S3150000203C04461646FFF76AFB0546F0B9CDE90116CC
S3150000204C04936A460E4B606A039601A90593FFF743
S3150000205CE3FC054688B994F82C3073B92046FFF793
S3150000206C8FFC00992046FFF7C5FB94F83130032B03
S3150000207C03D025752046FFF751FF284607B0F0BD63
S3150000208C017000F073B5506A01A91446FFF772FB94
S3150000209C334B98422FD094F83200019B002836D14E
S315000020AC2268116C11F4007128D02E4919619860C0
S315000020BC4FF40073936401F0C8F90199CD68064694
S315000020CC35B14A688B682046D31A0A680969A8474D
S315000020DC01A9606AFFF768FB606A8588ADB2002DBE
S315000020EC2FD001A9FFF746FB01992046FFF782FB8B
S315000020FC304601F0B0F9012002B070BD106CC50578
S3150000210C1BD51948186199604FF48073D2E70128E2
S3150000211C13D12268D16A11F0800106D011491961D8
S3150000212C0021996080235363C5E7D06A400604D525
S3150000213C0D48186199604023F5E700221A619A60F0
S3150000214CB9E7012323752046FFF7E8FE94F83130F2
S3150000215C84F82C50032BCBD02046FFF72FFCC7E777
S3150000216C0B7000F00D7000F00C7000F02DE9F041D2
S3150000217C094F04460D460FCF88B001AE0FC697E83F
S3150000218C070086E80700002C00F0A98245B9034E2B
S3150000219C304608B0BDE8F08140EE0200037000F056
S315000021AC3822002120462CF006FE2046FFF7C0FA06
S315000021BC06460028ECD12B7C84F83130CB4A2B68B0
S315000021CC2360934284F8320040F07B81C84B236233
S315000021DCC84BE3604FF440232361D5E90623002660
S315000021EC626216805680968084F82C60A3621E80EC
S315000021FC5E809E806B6803936B89ADF81430AB8957
S3150000220CADF81230AB7B8DF810300121EB7BBA4860
S3150000221C84F82D6084F82F6005278DF816308DF81C
S3150000222C117000F0D7FC0121B44800F0D3FC012159
S3150000223C206A00F0CFFC01A928688DF8046001F033
S3150000224CD9FF28686A7A816F2B7ADFF8A0C221F44D
S3150000225CF85121F01F01114341EA03218167032143
S3150000226C41672068604540F05781BB4216D9981FDC
S3150000227C042840F26C81A3F10B00B84240F269814C
S3150000228CA3F11100062840F26681A3F11801062974
S3150000229C40F263811F2B14BFFF263E46042AE675C7
S315000022AC40F25D81511F042940F25B81A2F10A01C3
S315000022BC052940F25881A2F11001062940F25581F8
S315000022CCA2F11701072940F252811F2A14BFFF21E0
S315000022DC00212176002B58D0012B56D0022B54D03E
S315000022EC032B52D0042B50D0052B4ED0062B00F0CE
S315000022FC4881072B00F04781082B00F04681092BFB
S3150000230C00F045810A2B00F044810B2B00F04F8125
S3150000231C0C2B00F02E810D2B00F02D810E2B00F0D6
S3150000232C2C810F2B00F02B81102B00F02A81112B06
S3150000233C00F02381122B00F02281132B00F0218157
S3150000234C142B00F02081152B00F01F81162B00F0AA
S3150000235C1E81172B00F01D81182B00F01C81192BE8
S3150000236C00F01B811A2B00F01A811B2B00F019812F
S3150000237C1C2B00F018811D2B00F017811E2B00F072
S3150000238C16811F2B0CBF0723FF23E376002A00F0D0
S3150000239C8881012A00F01D81022A00F08481032A1B
S315000023AC00F08381042A00F08281052A00F007815F
S315000023BC062A00F00681072A00F00581082A00F09B
S315000023CC0481092A00F003810A2A00F072810B2A83
S315000023DC00F071810C2A00F0EC800D2A00F0EB80E5
S315000023EC0E2A00F0EA800F2A00F0E980102A00F08D
S315000023FCE280112A00F0E180122A00F0E080132A14
S3150000240C00F0DF80142A00F0DE80152A00F0DD8053
S3150000241C162A00F0DC80172A00F04181182A00F0F9
S3150000242C4081192A00F0D5801A2A00F03C811B2A1B
S3150000243C00F03B811C2A00F03A811D2A00F03981FC
S3150000244C1E2A00F038811F2A14BFFF23002323778E
S3150000245C6B7C6376AB7C6377EB7CA3762B7DA37767
S3150000246C01212046FFF716FB064600287FF490AEA6
S3150000247C00F0EBFF2F7C032F804640F020812B6869
S3150000248C2A8CDA675A6E42F004025A665A6F42F088
S3150000249C30025A6728684FF0FF3383642B7C032B7A
S315000024AC0CBF0521042101F075FE2B684FF4406228
S315000024BCDA602046FFF79AFA0646404600F0CBFF54
S315000024CC66E60F4A934206D10E4B23620E4BE3602F
S315000024DC4FF4502380E60D4A93427FF458AE0C4BD2
S315000024EC23620C4BE3604FF4602375E60000014059
S315000024FC0032040001000C004041050000350A00C2
S3150000250C000401400042040001000D0000080140D7
S3150000251C0052040001000E00DFF8D4C160455AD108
S3150000252C052B7FF6BBAE981F042810D9A3F10B0020
S3150000253C05280ED9A3F1110006280CD9A3F1180110
S3150000254C06290AD91F2B14BFFF260526A6E6012647
S3150000255CA4E60226A2E60E46A0E63E469EE600212C
S3150000256CB7E60121B5E60221B3E60321B1E6052162
S3150000257CAFE6072309E7082307E7092305E70A233C
S3150000258C03E70B2301E70C23FFE60D23FDE60E23E1
S3150000259CFBE60F23F9E60023F7E60123F5E6022313
S315000025ACF3E60323F1E60423EFE60523EDE6062323
S315000025BCEBE608234BE7092349E70A2347E70B23F6
S315000025CC45E70C2343E70D2341E70E233FE70F2393
S315000025DC3DE702233BE7434988427FF4D8AD002B05
S315000025EC47D0591E0C2946D9A3F10E0106298CBFDA
S315000025FCFF2105210C2AE17541D9A2F10D0106290D
S3150000260C3BD9A2F11401092939D91F2A14BFFF217C
S3150000261C00212176002B3ED0591E0C2931D90E2BC8
S3150000262C31D00F2B31D0102B31D0112B31D0122BA6
S3150000263C31D0132B31D0142B14BFFF2307230C2AB4
S3150000264CE3763AD90D2A2AD00E2A2AD00F2A2AD076
S3150000265C102A2AD0112A2AD0122A2AD0132A2AD092
S3150000266CA2F11403092B28D91F2A14BFFF23052313
S3150000267CEDE61946BEE7FF21BCE70521C9E7FF21B8
S3150000268CC7E7FF23DBE70023D9E70123D7E70323BB
S3150000269CD5E70423D3E70523D1E70623CFE70023A9
S315000026ACD5E60123D3E60323D1E60423CFE605239F
S315000026BCCDE60623CBE60723C9E6FF23C7E6022FA2
S315000026CC7FF4E8AE607F0849FEF78AFBFEF77AFBDB
S315000026DCA675267567752046FFF720FCDAE6034ECD
S315000026EC56E500BF0008014011190000027000F009
S315000026FC0004014090F83120012A10B5034610D190
S3150000270C02290ED0827D8A4201D1002010BD997516
S3150000271C11B9FFF7DDFBF8E70129F6D1FFF7BAFB94
S3150000272CF3E70148F2E700BF057000F0F0B587B09B
S3150000273C04461646FEF7EAFF054600BBCDE9011630
S3150000274C04936A460F4BA06A039601A90593FFF7FB
S3150000275C63F9054698B994F82D3083B900F075FEE7
S3150000276CA36A9B889BB2064633B100992046FFF7B5
S3150000277C63F8012384F83030304600F06CFE2846AE
S3150000278C07B0F0BD017000F070B588B00D220021C5
S3150000279C294C2A4E04A82CF00EFB002502230121FD
S315000027AC27488DF81010CDE9015503958DF80A30A0
S315000027BC00F010FA294601AA204601F082FC4FF6D9
S315000027CCFF73E3618DF81250354604A9204601F0DB
S315000027DC25FC1C4800F04CFB9DF81230D840013308
S315000027ECDBB20A2B30608DF8123002D8164B9842A9
S315000027FCEBD81648164C00F03BFB1649B1FBF0F132
S3150000280C2868154A0025E1FB004500232046294689
S3150000281C2CF00EF9114B084A1860114B0020187059
S3150000282C936923F0100393610E4B4FF40062C3F8C7
S3150000283C80211A6008B070BD00800140E827002096
S3150000284C000204004041050080841E007000020056
S3150000285C20A1070000B0710B40420F00EC270020AE
S3150000286CF027002000E100E01E4BF7B519681E4C5E
S3150000287C1E4A1F4E0025E0FB014520462946002333
S3150000288C2CF0D6F8DFF86CC04FF6E85400254FF65E
S3150000289CE75E4FF0FF378D4208BF844211D380B2FA
S315000028AC60B1144A516A89B2536A9BB2ADF80630CC
S315000028BCBDF806305B1A9BB29842F5D8002003B0DF
S315000028CCF0BDDCF8242092B2DCF824309BB2ADF8D3
S315000028DC0430BDF804309B1A9BB27345F4D98019A9
S315000028EC7941D8E7E827002020A1070040420F00D5
S315000028FC1802FFFF00800140044BDA68D20604D5AB
S3150000290C10225A61024B01221A7070470080014056
S3150000291CF02700202D4B002A70B52D4D446B08BFB7
S3150000292C1D462C4B14BF1026002698423AD102297C
S3150000293C3FD004D8B9B1012921D000232DE00629B6
S3150000294C31D0812935D00329F7D1234B1A68196860
S3150000295C1B68120C1B0C03F0F00302F4FE421A4324
S3150000296CC1F3034318E01D490B680A6803F4FE43E0
S3150000297C02F00F021A430B6803F0F0030CE0174A3F
S3150000298C1368116812681B0C120C02F0F00203F4A7
S3150000299CFE431343C1F303421343B3402C400D4A89
S315000029AC2343536370BD0E4B1A681B6802F00F026B
S315000029BCE2E7094A13681168126803F4FE4301F052
S315000029CC0F010B4302F0F002E6E700BF0080FFFFA9
S315000029DCFFFF0080002000401482E00F1082E00F01
S315000029EC1882E00F38B50C460223836000228978E2
S315000029FC0546FFF78FFF207961786279030243EA77
S31500002A0C016343EA0243E27843EAC203E2790AB17C
S31500002A1C43F00053227A0AB143F00403A2790AB1B7
S31500002A2C43F00203627A0AB143F00103F328A27859
S31500002A3C06D12AB903299CBF23F0706343F0806347
S31500002A4C51B20029ACBF43EA421343F0E0032B61B9
S31500002A5C6B69002923F4F21323F00703BCBF22F0A1
S31500002A6C80021343227843EA4243E27A0AB143F4E2
S31500002A7C80436B616B0103F18443A27A9A60EB6F1E
S31500002A8CD5F88030EB6838BD0C4B984210D90C4BFE
S31500002A9C984210D9022201230A490B600A49D1F83F
S31500002AAC003123F0807343EA0263C1F800317047AA
S31500002ABC00221346F0E70122FBE700BF0048E801BD
S31500002ACC0090D0034000C84300400E400E4B30B57A
S31500002ADC0E4C5B68C9B2002304EBC30215798D4218
S31500002AEC03D154F8335085420BD20133052BF3D165
S31500002AFC032205494B6823F0407343EA02634B609B
S31500002B0C30BD5279F5E700BF00000E406CEE0200B6
S31500002B1C38B5074C41F67133256C236401F01EFC65
S31500002B2C0021FFF7D3FF0DB10023236438BD00BF8E
S31500002B3C00000E40044B1B685B0603D4034A136863
S31500002B4C002BFCD1704700BF3C300E40C800C6437A
S31500002B5C08B5FFF7EFFF024B5868C0F3014008BDFC
S31500002B6C00300E40044BD3F84421D20703D4D3F8DB
S31500002B7C40211042FBD1704700400E400C4AD2F85F
S31500002B8C9030516A0B4B21F0300141F0100110B519
S31500002B9C5162146BC0F3C31103310F2903EA04030A
S31500002BAC28BF0F21034343EA0173136310BD00BF13
S31500002BBC00400E4000F8FF0F38B5054C41F6713356
S31500002BCC256C2364FFF782FF0DB10023236438BD07
S31500002BDC00000E40C0F30322013A38B50546092A17
S31500002BEC13D8DFE802F023131212051619121C2053
S31500002BFC104C0020C5F3043508B1FFF7B3FF04F100
S31500002C0C047405EBC404A400216038BD00200A4CF2
S31500002C1CF0E70120094CEDE71020094CEAE74FF4E8
S31500002C2C8030084CE6E70020074CE3E70020074C11
S31500002C3CE0E700BFB0400E40C0400E40E0400E4002
S31500002C4CE8400E40F0400E4050410E4000400E4011
S31500002C5CC0F30313013B092B2AD8DFE803F0050B5D
S31500002C6C0F1929291F23374B274BD3F80001C0F323
S31500002C7C04207047244BD3F81401F8E7224BD3F801
S31500002C8C0001C0F30060431C0120984001387047D6
S31500002C9C1D4BD3F80C01C0F3082070471A4BD3F820
S31500002CAC0801F8E7194B984204D0194B984207D003
S31500002CBC00207047144BD3F8203103F00F03E3E7E1
S31500002CCC114BD3F82031C3F30113DDE7114B9842B6
S31500002CDC0CD003F5B01303F580539842E8D10A4B98
S31500002CECD3F82801C0F30120031DCDE7064BD3F81A
S31500002CFC2831E8E7084B9842DAD1034BD3F8300178
S31500002D0C00F00300704700BF00400E40800616001E
S31500002D1C80162E0090171A00A009140008B5FFF7AC
S31500002D2C97FF013008BD000000F00F00013807289E
S31500002D3C48D8DFE800F0040F1947232D4735244BFC
S31500002D4CD3F8943003F00703023B052B3CD8214AF9
S31500002D5CD05C70471E4BD3F8803003F00703013B61
S31500002D6C042B33D81C4AF3E7194BD3F8843003F001
S31500002D7C0703013B042B29D8184AE9E7144BD3F86F
S31500002D8C883003F00703013B042B1FD8144ADFE7F6
S31500002D9C0F4B1B6F13F0010F14BF09200720704750
S31500002DAC0B4BD3F85C3103F03003202B06D0302BC1
S31500002DBC06D0102B0CBF072001207047042070474B
S31500002DCC0820704700207047052070470120704787
S31500002DDC00400E405CEE020062EE020067EE02005E
S31500002DEC62EE020008B50146FFF79EFF1C4B9942A6
S31500002DFC12D01C4B994213D01B4B994204D11B4B3E
S31500002E0CD3F8800000F007000138042825D8DFE845
S31500002E1C00F00B0F17130B00144BD3F88400F1E7DB
S31500002E2C124BD3F88800EDE7BDE8084001F0FABA7A
S31500002E3CBDE8084001F0FCBABDE8084001F0F5BA5F
S31500002E4C01F090FA094BD3F80031C3F300635A1C16
S31500002E5C01239340B0FBF3F008BD0020FCE700BF54
S31500002E6C030020000500240002001E0000400E4056
S31500002E7C00F47813B3F5B01F10B504467DD029D8ED
S31500002E8CB3F5202F07D00AD8B3F5003F62D0B3F5BF
S31500002E9C802F54D05BB9BDE8104001F063BAB3F58E
S31500002EAC602F00F0838004D8B3F5402F58D0002053
S31500002EBC10BDB3F5801F00F09080B3F5A01FF6D1BE
S31500002ECC4C48FFF78FFF4C4BD3F8303103F003031C
S31500002EDCD840EDE7B3F5101F66D011D8B3F5F01F47
S31500002EEC46D0B3F5001F53D0B3F5D01FDFD14348FE
S31500002EFCFFF778FF404BD3F82821C2F3011244E0C8
S31500002F0CB3F5401F46D00BD8B3F5381FCFD13C488C
S31500002F1CFFF768FF384BD3F82031C3F30113D7E71B
S31500002F2CB3F5481F4BD0B3F5781FC0D101F01AFA90
S31500002F3C01462046FFF7F2FEB1FBF0F0B8E701F0D0
S31500002F4C11FA2D4BD3F80C31C3F308230133B0FB24
S31500002F5CF3F0ADE701F006FA274BD3F80831F3E7A7
S31500002F6C01F000FA244BD3F81431C3F30423EDE734
S31500002F7C2348BDE81040FFF735BF2148FFF732FF65
S31500002F8C1D4BD3F8202102F00F0201239340DEE7FC
S31500002F9C1A48EEE71948FFF725FF174BD3F82831E7
S31500002FACC3F301231A1DF0E71248E2E71548FFF7B1
S31500002FBCBBFE072811D009287FF479AF6BE71248BE
S31500002FCCFFF7B2FE072808D0082809D004287FF49A
S31500002FDC6EAFBDE8104001F001BA0C4B186867E7FC
S31500002FEC01F0C0F9044BD3F80031C3F3042303FBFF
S31500002FFC00005DE70500240000400E4003002000A1
S3150000300C02001E0006000E00B80032004020002010
S3150000301C0E4B5A6A12F0300F04D0202913D03029E7
S3150000302C00D011B94FF4400200E0094AD3F89010D1
S3150000303C32EA0101FAD1520246BFD3F8A000C0F31E
S3150000304C8020012070474FF40002EFE700400E404D
S3150000305CFFF3E17F02280AD129B1064B4FF48060B9
S3150000306CC3F8A800596612B10220FFF7D1BF0120A0
S3150000307C704700BF00400E402DE9F34106460F464F
S3150000308C9046072867D8DFE800F0048F25208A666B
S3150000309C660D4FF400754FF4807408230920002F39
S315000030AC68D05EE001A800F09FFF9DF80530012B6B
S315000030BC06D94FF400454FF480440E230F20EEE75B
S315000030CC9DF80430022BF4D8FEE7012402250023D8
S315000030DC2046E4E700294AD0364A536A13F0300FEB
S315000030EC3CD1354BDB6B536ADB0705D5536A23F0B2
S315000030FC300343F0100353620424022303202F4DA4
S3150000310C2C4A2B4414669B001A68002AFCD0B8F192
S3150000311C000F20D00544AD002B68002BFCD0022EEE
S3150000312C19D1C7B1234F796A11F001011BD00122C5
S3150000313C20213046FFF78EFFD7F89C600122002134
S3150000314C0220FFF799FFC6F30A00FFF717FD3C664E
S3150000315C2B68002BFCD002B0BDE8F08104240223BE
S3150000316C03200027CBE73046FFF752FFE4E708259C
S3150000317C022303200F4A0121156601FA03F3D2F844
S3150000318C90101942FBD1B8F1000FE4D00123094A83
S3150000319C03FA00F0D2F890300342FBD1DBE720258E
S315000031AC1024042305207AE78025402406230720D3
S315000031BC75E700BF00400E4000300E408004F21050
S315000031CC112870B506460C4626D1042912D101F0F9
S315000031DC05F90546A8B10021284600F01FFB06F0AC
S315000031EC0F06013E072E71D8DFE806F025186C7025
S315000031FC6A91709C052904D1654B1D68654B9D42EF
S3150000320CE9D8023C0A2C61D8DFE804F02050424988
S3150000321C606060606054BD000025E0E75E4D013CD7
S3150000322C0C2C53D8DFE804F071535A5252615252A7
S3150000323C525052526A00023C0A2C47D8DFE804F07E
S3150000324C0737293046464646463B3E0000250020B9
S3150000325C042401221146FFF70FFFFFF759FC0DB1AD
S3150000326CFFF768FC4D4B5C6701F0A6F8044601F0CD
S3150000327C79F8FFF709FCFFF76BFC01462046FFF7D0
S3150000328C9BFC1DBB28460121BDE8704000F0C6BA68
S3150000329C00254348FFF7F8FB02200446D9E7002532
S315000032AC3F48FFF7F1FB01240320D2E7002501205C
S315000032BC0324CEE7002503200524CAE70724CCE720
S315000032CC384DACE7384DAAE704232B6070BD0122BC
S315000032DC11460020FFF7D0FE0223F6E70122114625
S315000032EC1046FFF7C9FE0123EFE701F03BF8FFF7A5
S315000032FCCBFB2E4B01221A600323E6E70122114673
S3150000330C0720FFF7B9FE0523DFE70023DDE7072CCF
S3150000331C04D0092CDAD1214B012201E01F4B0022EB
S3150000332C1A67D3E7013C072CD0D801A353F824F035
S3150000333C8F330000D9320000D932000081330000EF
S3150000334CD9320000D9320000733300005D3300001F
S3150000335C03221249D1F85C3123F0300343EA0213FD
S3150000336CC1F85C31B2E7012211460420FFF784FE56
S3150000337C0122EEE7012211460220FFF77DFE022212
S3150000338CE7E70022E5E7FFF7C3FB0025072469E71B
S3150000339C4C200020002D310180400E4000400E4094
S315000033AC0148E80188400E4084400E400816C84388
S315000033BC10B504461120FFF7B7FC012200210220AC
S315000033CCFFF75AFE174A217C536A23F001030229A0
S315000033DC08BF43F001035362134B21781960637ADB
S315000033ECA18843EAC123D362136BA07A217A03F036
S315000033FC7F630343E08843EAC02343EAC1130331E6
S3150000340C0F2928BF0F2143EA01731363A37B617B4A
S3150000341C1B0143EA0133E17B0B43217B43EA014366
S3150000342C536310BD00400E40A004C843EFF3108058
S3150000343C72B6704700B962B67047602383F3118881
S3150000344C7047002383F311887047EFF311806023D4
S3150000345C83F31188704780F311887047EFF310835C
S3150000346CDB0706D4EFF311805F2894BF0020012000
S3150000347C70470120704700004109054A00F01F0300
S3150000348C52F82100D840C04300F00100704700BF3D
S3150000349C00E100E010B50446EFF31083DB0733D4EC
S315000034ACFFF7EAFF00282ED1002CA7BF04F16044D9
S315000034BC04F5614404F00F04144BACBF94F80023DC
S315000034CC1A5D5209EFF3118313B1B2EB531F1BD2E2
S315000034DC0F4C6368C3F30803ABB1103BDBB259B2B4
S315000034EC0029B5BF03F00F0301F16043043B03F55C
S315000034FC6143B6BF1B1993F80003187E400982423C
S3150000350C34BF0020012010BD0120FCE714ED00E0C3
S3150000351C00ED00E0034B186880F04000C0F380100B
S3150000352C704700BF3C300E4008B5FFF7F3FF18B1EB
S3150000353C024A1368002BFCD108BD00BFC800C64365
S3150000354C08B5FFF7E7FF80B1FFF7EEFF074B1968E9
S3150000355C5A68C1F30121C2F3014291421A688CBF29
S3150000356C42F0100222F010021A6008BD00300E4024
S3150000357C064B1B68DB0608D5054B1B69C3F30443D6
S3150000358C082B02BF034B044A1A60704700300E40EA
S3150000359C00400E404C200020C0EA210170B5FFF718
S315000035ACB9FF38B1234B1B78C3F1020210239340A9
S315000035BC214A13612149224CD1F8805145F60E035C
S315000035CCC1F88031236823F0AA03DB05DB0D0B66FB
S315000035DCFFF7AAFF184B1B68D80605F0010515D591
S315000035ECD1F84031DA01FBD4164B1B680B61164B34
S315000035FC197805290ED1154B1E68FFF795FF0E4B52
S3150000360C59683046C1F30141FFF7D6FA0E4B1978CB
S3150000361C052902D01120FFF7D3FD2368DB075EBF17
S3150000362C064B02221A661DB1044B0022C3F88021F8
S3150000363C70BD00BF0528002000300E4000400E4033
S3150000364CF427002000280020FE2700204C20002014
S3150000365C10B50B4C0B4BD4F890201A601120FFF7C9
S3150000366C63FB094B1870FFF75FFF084B084A5B6852
S3150000367CC3F301431370074B22691A6010BD00BFD8
S3150000368C00400E40F4270020FE27002000300E409C
S3150000369C05280020002800207047704710B5044606
S315000036AC08B1FFF7D5FFFFF74BFF134A136943F039
S315000036BC04031361FFF7F0FF104B1B68DB0614D5F0
S315000036CCFFF7B4FE2BF082FBFFF7B4FEFFF7E5FF26
S315000036DC6CB1FFF763FF0A4A136823F000431360CB
S315000036EC44B9BDE8104000F067BE30BFEEE7FFF707
S315000036FC3FFFF0E710BD00BF00ED00E000300E40CC
S3150000370C4C310E4010B5044608B1FFF7A1FFFFF788
S3150000371C17FF1B4BD3F8802145F60E01D207C3F8D1
S3150000372C801148BF00224FF42071196648BFC3F8B8
S3150000373C8021144A136943F004031361FFF7ACFFAD
S3150000374C114B1B68DB0614D5FFF770FE2BF03EFB06
S3150000375CFFF770FEFFF7A1FF6CB1FFF71FFF0B4AD7
S3150000376C136823F00043136044B9BDE8104000F021
S3150000377C23BE30BFEEE7FFF7FBFEF0E710BD00BF40
S3150000378C00400E4000ED00E000300E404C310E4083
S3150000379C0A4B9A69996922F4403242F4003241F498
S315000037AC40314AF6E85098609A6199619A6199613C
S315000037BC9A6199619A6199619A61704700300E40DD
S315000037CC70B504460E46FFF7A5FE10B3FFF7ACFE28
S315000037DC104B5B68C3F301439C421AD00E4BD3F8D3
S315000037EC003100F0BFFD022C054602D12146FFF741
S315000037FCE3F9C4F1020210239340064A13610EB199
S3150000380CFFF792FE2CB921462846BDE87040FFF71B
S3150000381CD3B970BD00300E4000400E4038B502469C
S3150000382C0D46FFF777FEB8B142B90C4BD3F8004101
S3150000383C00F098FDC4F3042202FB0002084B1B782F
S3150000384C29463BB1074B9A4204D80220BDE83840C2
S3150000385CFFF7B6BF0020F9E738BD00BF00400E40A9
S3150000386C04280020002D31010378134A002B4378DD
S3150000387C70B514BF04260026002B8378946914BFF8
S3150000388C02250025002B037924F03F0443EA0403A8
S3150000389CC47814BF08210021012C08BF43F0010392
S315000038AC33432B430B4393611368417923F4403321
S315000038BC43EA0143136070BD00300E40304B1A6F63
S315000038CCD96CC90702F0070242D5012A40D9132840
S315000038DC51D9143813288CBF102308232849013BCF
S315000038ECCA6C180322F47F4240EA03231343CB64C9
S315000038FC244BCA6C1B88C2F303222833013202EB19
S3150000390C820003EB5303B3FBF0F3C86C013B072BAC
S3150000391C20F0EE6028BF072340F4801040EA0363D2
S3150000392CCB64194BB3F90030002B10DB283350084D
S3150000393C00EB420203EB5303B3FBF2F30A6D072BC6
S3150000394C28BF072322F0700242EA03130B65704767
S3150000395CDB6CD90706D4012A04D809280BD90A38F6
S3150000396C0928B8E7064BDB6C13F00103B6D0012A25
S3150000397C03D82728AFE70423B0E70023AEE700BF40
S3150000398C00300E40FA270020FC270020054A064B83
S3150000399C1B68136F23F007031843044B1067188832
S315000039ACFFF78CBF00300E408009C643F827002075
S315000039BC074BDA6B42F41052DA639A6FD207FCD4D7
S315000039CC03221A64186C831A58425841704700BF78
S315000039DC00300E40072A70B501F003014FF00F05B9
S315000039EC23D896001A4CB540256004F10074B040FB
S315000039FC20600320B04001FA06F61649086001F172
S31500003A0C00710E601449114489000B609DF810304A
S31500003A1CC1F88030012303FA02F2104BC3F82424B8
S31500003A2C9DF81430C1F8003370BDA2F10804A4004F
S31500003A3C0B4EA54035600B4DA04028600320A040DE
S31500003A4C01FA04F40849086001F100710C60D9E729
S31500003A5C00A4004408A400448020851000A0004067
S31500003A6C04A4004404A400460CA40044F0B54AB1D6
S31500003A7C30261E4C012546438D4034440BB304F1CD
S31500003A8CC06425603024444304F18044072904F5BE
S31500003A9C204419D865688E000F27B74025EA07051C
S31500003AAC02FA06F63543656052B9012202FA01F1B3
S31500003ABC302250430D4A0244A3B102F1C062116098
S31500003ACCF0BD04F18064DCE701F18045083DA66891
S31500003ADCAD000F27AF4026EA070602FA05F5354377
S31500003AECA560E1E702F18062E9E700BF0CA00040A7
S31500003AFC084B4FF40072C3F88020BFF34F8FBFF30F
S31500003B0C6F8F054B0021D9664FF4AA401962FFF757
S31500003B1C61B800BF00E100E000200E40034B0344F7
S31500003B2C9B0081F001011960704700BFA001F110E4
S31500003B3C10B5044601214FF4AA40FFF74BF8B4F830
S31500003B4C013022785BBA9BB243EA02630B4A1360DC
S31500003B5C00231362D36253634FF00043D3664FF0D6
S31500003B6CFF339366064A4FF40071C2F88011E3786E
S31500003B7C5B01DBB282F80933116010BD00200E40E8
S31500003B8C00E100E02DE9F041254D91F80BE091F8AC
S31500003B9C0AC00F7B0C464FF03008C3B2012608FB57
S31500003BAC00509E402368497BC0F880304FEA0E5384
S31500003BBC43EA0C4343EA475322F00302C0F8881049
S31500003BCCC0F88430C0F89820AE66FFF73EFCEB6E6A
S31500003BDC3343EB66237A13B16B6B33436B63637AB4
S31500003BEC13B1EB6A3343EB6222792B6822B1D243D1
S31500003BFC120262F47F42134062790AB143EA02234D
S31500003C0CA2790AB123EA0203E27902B11343044A08
S31500003C1C1360044B1E60D663BDE8F041FFF71BBC76
S31500003C2C00200E4028200E4410B5C0B2012484405A
S31500003C3CFFF70BFC054AD36E23EA0403D366044B49
S31500003C4C1C60BDE81040FFF706BC00BF00200E400C
S31500003C5C20200E44F8B5C3B201259D400446FFF75B
S31500003C6CF4FB0A4B30221E6E9F6A02FB0434D4F816
S31500003C7C8C40FFF7F0FB3D4206D1C4F30A1008B99D
S31500003C8C354200D10130F8BD0020FCE700200E4083
S31500003C9C036CDB0702D4436C0B42FCD17047CB435D
S31500003CAC5B0003F00A0310B541EA03020221FFF799
S31500003CBCEFFF426010BD436C002BFCD10122026465
S31500003CCCEA22426040F2F9720360C3600361436109
S31500003CDC83634263C363436583650364704710B5AE
S31500003CEC02460C469368DB06FCD540211046FFF7CE
S31500003CFCCFFF946210BD0000054B5A685B68054BFC
S31500003D0C41F671321A649A6822F001029A60704781
S31500003D1C00300E4000000E40034B9A6822F0010260
S31500003D2C9A6000221A64704700000E40094A0A4B3A
S31500003D3CD969C90705D512B96FF002007047013A67
S31500003D4CF6E7002AF8D001221861DA60D86940F348
S31500003D5C800070478096980000000E4070B509B937
S31500003D6C002070BD0E4A0023082550F823409461AC
S31500003D7C0C4CD5600133D669F60705D514B96FF02E
S31500003D8C0200EEE7013CF6E7002CF8D0D469A40754
S31500003D9C02D49942E9D1E3E76FF00100E1E700BFF5
S31500003DAC00000E40809698002DE9F8431C4B88467F
S31500003DBC41F671311D6C19641A4907464868496801
S31500003DCC996841F00101ADB2996096084FF000096F
S31500003DDCB14501D3002005E007EB89042046FFF727
S31500003DECA5FF48B10E4B9A6822F001029A600DB1FC
S31500003DFC00221A64BDE8F883C4F30A04C4F500640F
S31500003E0CA408A6EB09039C4228BF1C462146404643
S31500003E1CFFF7A4FF0028E5D1A14408EB8408D7E7F7
S31500003E2C00000E4000300E40204B41F671311A6CEA
S31500003E3C10B519641E494C684968996841F001012E
S31500003E4C996001211861D960D9694C0792B209D5DC
S31500003E5C996821F0010199600AB100221A644FF0A9
S31500003E6CFF301FE00221134CD9601946D869C007F0
S31500003E7C00D56CB9C8698B6810F0020023F00103F9
S31500003E8C8B6007D00AB100230B646FF0010009E0C8
S31500003E9C013CEBE724B902B10C646FF0020001E0BF
S31500003EAC0AB1086410BD1046FCE700BF00000E40C6
S31500003EBC00300E4080969800FFF776BF10B590FA4A
S31500003ECCA0F2054C2368B2FA82F223EA0000914074
S31500003EDC0143216010BD00BF00500E40014B012272
S31500003EEC9A60704700500E40124BF0B55C68124D4C
S31500003EFC124E002318463768EA187F0751685A593C
S31500003F0C08D4B2F5806F03D00DD8B2F5007F01D17D
S31500003F1C41F48071144202D0214208BF1043083389
S31500003F2C482BE8D1F0BDB2F5006FF1D0B2F5803F69
S31500003F3CEDE700BF00500E4094EE0200E841E00FA2
S31500003F4C8B784A789B0143EA82030A781343CA7832
S31500003F5C43EA02130A7943EAC2234A7943EA023353
S31500003F6C8A79043043EA42430001014A13507047F0
S31500003F7C00200440014B1860704700BF00008442CB
S31500003F8C427801790378002A827870B514BF04262A
S31500003F9C0026002AC27814BF10250025002A427973
S31500003FAC4FEA023242EA012242EA0302837914BF43
S31500003FBC20240024002BC37942EA034343EA060378
S31500003FCC027A43EA050314BF4FF400410021234350
S31500003FDC002A14BF4FF4003200220B431343014A4C
S31500003FEC136070BD002004400B4A536911699B0095
S31500003FFC03F03C03C1F381110B438370136903F087
S3150000400C3F0343709369D26903F0F003C2F30312C2
S3150000401C13430370704700BFD0FF0FE02DE9F04F3C
S3150000402C0C780CB902234360002343624B78CA78A0
S3150000403C91F802B08D7A91F808A091F8069091F853
S3150000404C0780002B4B7A4FEA024214BF4FF0400E0A
S3150000405C4FF0000E42EA0B62002B14BF80230023A4
S3150000406C42EA0A02002DCD7A42EA892214BF4FF0A9
S3150000407C200C4FF0000C42EA0822002D0D7B42EA80
S3150000408C0E0214BF102700271343002D0D79497912
S3150000409C43EA0C0314BF082600263B43002D14BF2D
S315000040AC4FF4005500253343002914BF4FF08051BF
S315000040BC00212B430B4303600CB101234360BDE885
S315000040CCF08FF0B5537814781B0643EA8463947921
S315000040DC2343947843EA0443D47843EA04331479AB
S315000040EC43EA8423547943EA0423D479002C147AC2
S315000040FC14BF4FF080470027002C547A14BF4FF0A2
S3150000410C00560026002C947AD27A43EA027343EACC
S3150000411C070314BF102500253343002C01F10601BB
S3150000412C14BF042400242B43090123434350F0BD40
S3150000413C70B5054616461C4619B91448FEF798FE86
S3150000414C0146202C08D001D8ECB170BD402C18D0FB
S3150000415C602CFAD1042200E0082206FB02F35A086E
S3150000416C02EB4112B2FBF3F2094B203A03EAC2020C
S3150000417C2B6823F060032B602B681C432C606A6150
S3150000418CE3E70622E9E71022E7E700BF4041050016
S3150000419CF8FF7F00CB435B0003F00A03C360C160EA
S315000041AC7047000040F6AA63C36041F20502002383
S315000041BC036042600C4A83604361C36482640B4AA9
S315000041CC03669042436702F580628367C36704D037
S315000041DC904202D00649884200D1036500239042E2
S315000041EC836508BFC3657047F9FF010000000140F5
S315000041FC0008014038B50C460546FFF7D3FFA37CF3
S3150000420C1BB1036843F080430360E37C1BB1237D41
S3150000421C43F08003AB65228A637B1343E289134325
S3150000422C6B60D4E90112237B2846FFF781FF637D7F
S3150000423C1BB12B6843F480332B60A37DE27D1B07F7
S3150000424C120502F4E00203F0E04313432B666B6F96
S3150000425C23F030036B676A6F237E13436B672378F7
S3150000426CEB6038BD03691B06FCD5C069C0B270474C
S3150000427C03695B06FCD5416370470368DB060FD404
S3150000428C47F231538268D20701D5013BFAD1036854
S3150000429C03F001038B421EBF00F104704001016064
S315000042AC70470368D90707D583689A0704D48368CF
S315000042BCDB07FCD40123436070474B78CA78002B8C
S315000042CC8B782DE9F04114BF4FF0020E4FF0000E23
S315000042DC002B14BF04230023002A0A7991F80780C7
S315000042EC0C7814BF4FF0080C4FF0000C002A4A79DA
S315000042FC14BF20270027002A8A7914BF40260026DF
S3150000430C002A0A7A4FEA022242EA083291F8098018
S3150000431C42EA0402CC7A897A42EA084242EA01620B
S3150000432C42EA0E0243EA020343EA0C0343EA07039A
S3150000433C14BF102500253343002C14BF4FF0004446
S3150000434C00242B43234347F231528168C90701D518
S3150000435C013AFAD10360BDE8F081000000487047CD
S3150000436C00F04902104AD2F8943003F00703023BDE
S3150000437C032B13D8DFE803F00C14020E0B4B1B684F
S3150000438CD2F80001C0F304200130B3FBF0F0704703
S3150000439C074BF4E7074B1B685B08F1E7054BEEE7A9
S315000043AC4FF40043ECE700BF00400E4050200020C5
S315000043BC482000204C20002008B5FFF7D3FF054B02
S315000043CCD3F80831C3F308230133B0FBF3F0024BE7
S315000043DC186008BD00400E4044200020014B1868B0
S315000043EC704700BF48200020054B1860054BD3F8DA
S315000043FC943003F00703022B01D1FFF7DDBF7047A2
S3150000440C4820002000400E40044B054A9A60D3F821
S3150000441C882042F47002C3F88820704700ED00E053
S3150000442C000100004FF4004070474FF47A7070475B
S3150000443C014B1868704700BF5020002008B5064B8A
S3150000444C1B689B69DB0205D5012803D840F20220C4
S3150000445C2AF002FA012008BD2808E10F064B1B685A
S3150000446C9868C0F30343C0F303621B0243EA0233AA
S3150000447CC0B21843704700BF2808E10F70B5043866
S3150000448CC6B0FB2801F25587DFE810F02C02530F5B
S3150000449C530F530F3502530F530F530F530F530F25
S315000044AC530F530FDD03CB03530F530F950A3B04E6
S315000044BC46049403A303530F8704530F530F9F040F
S315000044CC4401F1021B031C01AE03530F530F570893
S315000044DC530F530FFF013E02EA0C5A0D090DF60C51
S315000044ECD70C360D870D530F530F4F050A07A60130
S315000044FCF30588053906D20666060703FC00B301E8
S3150000450CE801530F1A0423065B05530F530F530F81
S3150000451C530F530F530F530F530197017E01530F34
S3150000452C530F530FD407B406530F530F530F530F98
S3150000453C530F530F530F530FC107AA0439075307D1
S3150000454CBC04D10439051F05530F08059007530FFA
S3150000455C4909AB0AC50AC409DA098F090D0B440AC5
S3150000456C530F200B910C0A0AEA0A610B550BAA0988
S3150000457C9409440B530FBC0189038E02530F530F3E
S3150000458C7207F204530F530FC105F90D960D180E51
S3150000459C300E0C0E240EBA0DD00DA20DE30DAE0D81
S315000045AC530F530F530F530F530F530F530F530FE9
S315000045BC9E06530F530F63045104530F0001530F00
S315000045CC530F3C0E530F760E380FB20EE80E0A0F31
S315000045DC9C0E530F720B940B530F530F530F530F19
S315000045ECA7076809CD0E83097508CC0830090009A0
S315000045FC530F530F530F29045C08530F6808C30855
S3150000460C1D08EF080E0CC402DB02E602530F530F13
S3150000461CC00B530FF70B1E0C530F530F530F530FA7
S3150000462C6B0A12097504B902530F3001F4083508E8
S3150000463C29088F08B2080508110841084C087A0C9D
S3150000464C960CB20CA60C6A0C650C530F530F530F39
S3150000465C530F530FFE0E530F590E530F1B0F2C0FE8
S3150000466C890E6207530F530F530FE3048507C90CCA
S3150000467CBE08C003540377033F032603530F5E02A1
S3150000468CF20753020124204646B070BD12AB0193CB
S3150000469C0AAB00930CAA24ABBB49012024F096FB71
S315000046ACBDF848309DF828202499BDF8300016F046
S315000046BC31F946AAB54902F8EC0D002024F086FB28
S315000046CC0124E0E724AB0CAAB149012024F07EFBBF
S315000046DC24999DF830001FF047FD46AAAB4902F815
S315000046ECD00D002024F072FB0124CCE70CAB24AADD
S315000046FCA849012024F06AFB9DF8301024980DF08F
S3150000470CFFFA46AAA14902F8D00D002024F05EFB60
S3150000471C0124B8E724A824F02FF924A80FF018FBDD
S3150000472C46AA9A4902F8D00D002024F04FFB01242A
S3150000473CA9E70CAA9549012024F048FB24A99DF869
S3150000474C30001FF00FFD46AA904902F8D00D00204C
S3150000475C24F03CFB24A9082024F0F8F89DF89800D6
S3150000476C24F0BCF8BDF89A0024F0C8F89DF89C001B
S3150000477C24F0B4F89DF89D0024F0B0F89DF89E0046
S3150000478C24F0ACF801247EE786230BAA7F498DF82A
S3150000479C4830012024F01AFB24A99DF82C001FF0A8
S315000047ACEAFC46AA12AB02F8E80D7B4900930020FE
S315000047BC24AB24F00BFB012465E724A816F024FD9A
S315000047CC46AA724902F8D00D002024F0FFFA24A85C
S315000047DC24F0C5FA012456E724A816F011FD46AAC2
S315000047EC24AB02F8D00D6D49002024F0EFFA012419
S315000047FC49E746AA012402F8884D6449002024F0B2
S3150000480CE5FA40E70CAA6149012024F0DFFA24A955
S3150000481C9DF8300017F0D6FF46AA5C4902F8D00D79
S3150000482C002024F0D3FABDF8900024F067F89DF828
S3150000483C920024F053F89DF8930024F04FF89DF85D
S3150000484C940024F04BF89DF8950024F047F80DF1F0
S3150000485C9601082024F07AF8012414E746AB0822C6
S3150000486C03F8EC2D4E4924AA012024F0AFFA12A924
S3150000487C24A818F051FB46AA12AB02F8E80D4449DD
S3150000488C002024F0A3FA0124FDE624A912A81FF0A7
S3150000489C2FFC46AA12AB02F8E80D4049002024F082
S315000048AC95FA24A9082024F051F8BDF8980024F0B4
S315000048BC25F89DF89A0024F011F89DF89B0024F039
S315000048CC0DF89DF89C0024F009F8BDF89E0024F024
S315000048DC15F89DF8A00024F001F8299824F022F888
S315000048EC0124D0E646AA012402F8884D2749002067
S315000048FC24F06CFAC7E646AA002002F8880D234974
S3150000490C24F064FA0124BEE612AC0823214624A83E
S3150000491C8DF830301FF014FC46AA0CAB02F8EC0DE7
S3150000492C204901940093002024AB24F04FFA012473
S3150000493CA9E60DF0EDFA46AA144902F8880D0020F6
S3150000494C24F044FA01249EE60CAA1049012024F016
S3150000495C3DFA24A99DF830000DF08AFA46AA0B49B7
S3150000496C02F8D00D002024F031FA9DF8900023F0C7
S3150000497CB5FF9DF8910023F0B1FF9DF8920023F04E
S3150000498CADFF01247FE600BF1CEF02006FEF0200B3
S3150000499C21EF02003EEF0200651A03005EEF0200F3
S315000049AC131C030024EF02000CAABE49012024F0BC
S315000049BC0DFA24A99DF8300016F0A4FE46AAB949B2
S315000049CC02F8D00D002024F001FABDF8900023F077
S315000049DC95FFBDF8920023F091FF9DF8940023F00B
S315000049EC7DFF9DF8950023F079FF9DF8960023F046
S315000049FC75FF9DF8970023F071FF012443E61FF025
S31500004A0C1DFB46AAA74902F8880D002024F0DEF902
S31500004A1C012438E612AC0BAAA249012024F0D6F9DF
S31500004A2C224624A99DF82C001FF00AFB46AA24ABAB
S31500004A3C02F8E80D9C490094002024F0C7F90124E3
S31500004A4C21E61FF001FB46AA964902F8880D0020C4
S31500004A5C24F0BCF9012416E61FF0F4FA46AA914993
S31500004A6C02F8880D002024F0B1F901240BE60CAAFB
S31500004A7C8C49012024F0AAF924A823F07DFF24A94F
S31500004A8C9DF830000FF010FA46AA864902F8D00DB0
S31500004A9C002024F09BF90124F5E50BAA814901209D
S31500004AAC24F094F90CAA12AB8049012024F08EF95B
S31500004ABC46AA012402F8884D7A49002024F086F98A
S31500004ACCE1E510F039FD46AA764902F8880D00207A
S31500004ADC24F07CF90124D6E512AB00930BAA0CAB9F
S31500004AEC7349012024F072F99DF848209DF8301086
S31500004AFC9DF82C001AF066F946AA6A4902F8880D48
S31500004B0C002024F063F90124BDE512AB0CAA694917
S31500004B1C012024F05BF99DF948109DF830001AF03D
S31500004B2C4FF946AA5F4902F8880D002024F04EF989
S31500004B3C0124A8E512AB02930CAB01930BAB0093CB
S31500004B4C0DF126020AAB5C49012024F03FF99DF8D1
S31500004B5C48409DF930309DF82C209DF82810009483
S31500004B6C9DF826001AF028F946AA4E4902F8880D37
S31500004B7C002024F02BF9012485E512AA49490120CD
S31500004B8C24F024F99DF848001AF018F946AA45496C
S31500004B9C02F8880D002024F019F9012473E517F0AA
S31500004BAC05FE46AA3F4902F8880D002024F00EF9AE
S31500004BBC012468E524A823F05FFF24A80FF0DCF994
S31500004BCC46AA384902F8D00D002024F0FFF801243B
S31500004BDC59E50DF015F946AA324902F8880D002060
S31500004BEC24F0F4F801244EE512AA2E49012024F0F3
S31500004BFCEDF89DF848000EF0B7FC46AA294902F8D4
S31500004C0C880D002024F0E2F801243CE526F05AFB3E
S31500004C1C46AA244902F8880D002024F0D7F801246E
S31500004C2C31E512AA1F49012024F0D0F89DF848005E
S31500004C3C1FF0A3FE46AA1B4902F8880D002024F09B
S31500004C4CC5F801241FE50AAB04930DF12603039363
S31500004C5C09AB029324AB019312AB00930DF1220224
S31500004C6C0CAB1649012024F0B1F89DF828400294AB
S31500004C7C9DF8264001949DF82440BDF89030BDF86F
S31500004C8C4820BDF8301000949DF822001FF077FEE6
S31500004C9C46AA044902F8EC0D002024F097F80124EA
S31500004CACF1E400BF6FEF020028EF020032EF0200C2
S31500004CBC39EF02002CEF02002FEF020035EF020055
S31500004CCC24A824F059F824A816F09CFA46AAAA4956
S31500004CDC02F8D00D002024F079F80124D3E412AAAE
S31500004CECA549012024F072F89DF848000EF04EFEFE
S31500004CFC46AAA14902F8880D002024F067F8012481
S31500004D0CC1E424AA9D49012024F060F89C4BBDF80F
S31500004D1C90201A800124B6E424AA9849012024F094
S31500004D2C55F8984BBDF890201A800124ABE412AAD2
S31500004D3C9149012024F04AF89DF848000EF0FAFD3E
S31500004D4C46AA8D4902F8880D002024F03FF801246C
S31500004D5C99E412AA8C49012024F038F89DF94800F0
S31500004D6C0DF0C2F846AA844902F8880D002024F0FA
S31500004D7C2DF8012487E412AA7F49012024F026F895
S31500004D8C9DF848001FF058F946AA7B4902F8880D91
S31500004D9C002024F01BF8012475E40CAB00930BAA3D
S31500004DAC24AB7A49012024F011F89DF8302024997F
S31500004DBC9DF82C000CF068FC46AA6F4902F8D00D41
S31500004DCC002024F003F801245DE40CF02FFD46AA24
S31500004DDC694902F8880D002023F0F8FF012452E4FB
S31500004DEC12AA6549012023F0F1FF9DF8480015F041
S31500004DFC48F946AA604902F8880D002023F0E6FF20
S31500004E0C012440E408230CAA5B498DF848300120A4
S31500004E1C23F0DCFF24A99DF8300015F0EDFE12AB53
S31500004E2C24AA5B49002023F0D1FF01242BE412AA0B
S31500004E3C5149012023F0CAFF9DF8480015F0F4FEF5
S31500004E4C46AA4E4922F8880D002023F0BFFF012404
S31500004E5C19E424A80FF0F4FC46AA474902F8D00D31
S31500004E6C002023F0B3FF24A823F0CDFD01240AE48F
S31500004E7C46AB082203F8E82D454924AA012023F065
S31500004E8CA5FF24A815F0BEFF46AA3B4902F8D00D93
S31500004E9C002023F09BFF0124FFF7F5BB0CAA364933
S31500004EAC012023F093FF24A99DF830001FF0F2F89F
S31500004EBC46AA314902F8D00D002023F087FF24A81A
S31500004ECC23F08EFD0124FFF7DEBB082312AA2B4923
S31500004EDC8DF83030012023F079FF24A9BDF8480065
S31500004EEC0DF072F946AA0CAB02F8EC0D29490093A9
S31500004EFC002024AB23F06AFF0124FFF7C4BB46ABAA
S31500004F0C082203F8E82D224924AA012023F05EFF8B
S31500004F1C24A80DF03DF946AA184922F8D00D002018
S31500004F2C23F054FF0124FFF7AEBB13F041FE46AA53
S31500004F3C114902F8880D002023F048FF0124FFF7E1
S31500004F4CA2BB0CAB009324AA0BAB1349012023F094
S31500004F5C3DFF9DF830209DF82C10BDF890001EF0FA
S31500004F6CEFFD46AA044902F8D00D002023F02EFFCF
S31500004F7C0124FFF788BB00BF6FEF020026EF02008B
S31500004F8C4C24002052240020AD1A03003DEF0200F1
S31500004F9C131C0300651A030041EF020008AB0BAAB1
S31500004FACB449009301200CAB23F010FF24A823F086
S31500004FBCFFFC09AB12AACDE9003202930DF12102D6
S31500004FCC0DF12203AC49012023F000FF129B039341
S31500004FDC9DF8243002939DF8223001930AAC9DF87B
S31500004FEC21309DF82020BDF8301004940093BDF8B4
S31500004FFC2C0024AB1EF0BCFF46AA234602F8F20D89
S3150000500C9E49002023F0E2FE0124FFF73CBB082357
S3150000501C8DF821308DF826300DF1220302930BAB5F
S3150000502C01930DF1210324AC009308AA12AB944909
S3150000503C01200AAE0CAD23F0C9FE9DF82230BDF856
S3150000504C2C20009412A99DF82000029601951EF0C2
S3150000505CFDFF46AA0DF1260302F8F40D88490093CC
S3150000506CCDE901562346002023F0B0FE0124FFF7BC
S3150000507C0ABB0CAA8349012023F0A8FE24A823F01E
S3150000508C97FC0DF1260312AACDE9003202930DF11D
S3150000509C220209AB7849012023F098FE129901915E
S315000050AC0BAC9DF826109DF824309DF82220029416
S315000050BC0091BDF8300024A91EF0E6FE46AA234650
S315000050CC02F8F00D6D49002023F080FE0124FFF755
S315000050DCDABA0CAB24AA6C49012023F077FE9DF8B2
S315000050EC3010BDF8900010F0A3FD46AA674902F8EF
S315000050FCD00D002023F06AFE0124FFF7C4BA24A8C1
S3150000510C23F056FC0AAB12AACDE9013203930DF13A
S3150000511C260300930DF1220209AB5D49012023F011
S3150000512C55FE129801900CAC9DF828009DF826307F
S3150000513C9DF824209DF822100294009024A81EF0BD
S3150000514CAFFE46AA234602F8EC0D4C49002023F08C
S3150000515C3DFE0124FFF797BA24A823F029FC0DF194
S3150000516C260312AACDE90332059309AB02930DF17E
S3150000517C220301930CAB009308AA0DF121034549B8
S3150000518C012023F023FE129803909DF8260002902E
S3150000519C9DF8240001900BAC9DF82200BDF8303030
S315000051AC9DF821209DF820100494009024A81EF050
S315000051BCABFE46AA234602F8F00D3049002023F038
S315000051CC05FE0124FFF75FBA0CAA009224AB324904
S315000051DC012023F0FBFD24999DF830001EF06BFE98
S315000051EC46AA2A4902F8D00D002023F0EFFD01242F
S315000051FCFFF749BA0CAB0AAA02930BABCDE9002315
S3150000520C264924AB012023F0E1FD9DF830309DF8B2
S3150000521C2C2024999DF828001EF05AFE46AA1B49FC
S3150000522C02F8D00D002023F0D1FD0124FFF72BBA94
S3150000523C0CAA1449012023F0C9FD24A823F0B8FBBD
S3150000524C0AAA009212AB1449012023F0BFFD129B4F
S3150000525C9DF82820BDF8300024A91EF0BDFE46AAF4
S3150000526C0A4902F8EC0D002023F0B0FD0124FFF7EB
S3150000527C0ABA00BF45EF02004FEF02005EEF0200D4
S3150000528C49EF020026EF02004BEF02006FEF02001F
S3150000529C4EEF020054EF02006A1A03005CEF0200A4
S315000052AC0CAB0DF12202C749012023F08FFD24A877
S315000052BC23F07EFB0DF1260312AA01930092C2493C
S315000052CC09AA012023F082FD129A01920BAC9DF8DB
S315000052DC26209DF82430BDF83010029400929DF8DB
S315000052EC220024AA1EF0C8FD46AA234602F8F00D99
S315000052FCB649002023F06AFD0124FFF7C4B9082340
S3150000530C8DF830300CAB0BAA0093B14924AB0120BD
S3150000531C23F05CFD24A99DF82C0015F097FD46AAF8
S3150000532CAC4902F8D00D002023F050FD0124FFF704
S3150000533CAAB924AB12AAA349012023F047FDBDF854
S3150000534C90109DF8480015F025FC0124FFF79BB939
S3150000535C24A80FF0A1FA46AA9E4902F8D00D002007
S3150000536C23F034FD24A823F04EFB0124FFF78BB960
S3150000537C46AB082203F8E82D12AA0092964924AAF5
S3150000538C012023F023FD9DF8481024A815F0A0FD5C
S3150000539C0124FFF778B924AA9049012023F016FDC1
S315000053AC249811F097FE0124FFF76DB90CAA8949D0
S315000053BC012023F00BFD24A823F01CFB24A99DF847
S315000053CC30001EF07DFE46AA824902F8D00D002060
S315000053DC23F0FCFC0124FFF756B90BAB24AA01936E
S315000053EC00927F4912AA012023F0F0FC249A9DF822
S315000053FC2C10BDF848001DF0C0FB46AA754902F8F2
S3150000540CE80D002023F0E2FC0124FFF73CB912AAB8
S3150000541C7049012023F0DAFC9DF848001EF0A9FE25
S3150000542C46AA6E4942F8880D002023F0CFFC0124D1
S3150000543CFFF729B908238DF8283012AB01930AAB74
S3150000544C00930CAA24AB6749012023F0BFFCBDF8DE
S3150000545C4820BDF8300024A91EF089FE46AA5D49F5
S3150000546C02F8EC0D002023F0B1FC0124FFF70BB978
S3150000547C12AA5849012023F0A9FC9DF848000EF009
S3150000548C3BFA46AA534902F8880D002023F09EFCED
S3150000549C0124FFF7F8B824F057FD46AA4F4942F805
S315000054AC880D002023F092FC0124FFF7ECB824F0C1
S315000054BC51FD46AA494942F8880D002023F086FC86
S315000054CC0124FFF7E0B824F010FD46AA414902F882
S315000054DC880D002023F07AFC0124FFF7D4B824AA07
S315000054EC4149012023F072FCBDF8900024F020FD08
S315000054FC0124FFF7C8B824AA3649012023F066FC1C
S3150000550C9DF8900024F0C4F80124FFF7BCB824AA37
S3150000551C3249012023F05AFC249824F021FD012461
S3150000552CFFF7B1B824AA2D49012023F04FFC24988B
S3150000553C24F01CFD0124FFF7A6B824F08FFC0124EF
S3150000554CFFF7A1B824F072FA46AA224902F8880D90
