:10000000E039002039920100F16E0000F56E000029
:10001000A70A0A010001000004180FAC20682A0199
:1000200000000000000000000000000000000000D0
:1000300000000000A43303000000000000000000E6
:100040000000000000000000FFFFFFFFFFFFFFFFB8
:10005000FFFFFFFF0070070000000000000000002D
:10006000FFFFFFFFFFFFFFFF280000000000000070
:100070000000000000000000000000000000000080
:100080000000000000000000AC530020AC53002032
:10009000E039002014670300A832030080300020FC
:0C00A000593000200000080000000000A3
:10010000E039002039920100F16E0000F56E000028
:1001100031770000F96E0000016F00003792010096
:1001200037920100379201003792010037920100A7
:10013000056F0000379201003792010037920100ED
:1001400001180000ED0F01002D720000607000002A
:100150003D07010059100100F90F010011100100C5
:10016000F10F0100410D0000150E00001D2B0000D5
:100170004D890000607000006070000029030000DD
:100180003792010060700000390E000060700000BE
:10019000607000006070000060700000607000001F
:1001A000607000006070000060700000607000000F
:1001B0005D100100F50F010029F60000C1150000D7
:1001C0009D1001006070000009F6000060700000E2
:1001D00060700000607000006070000060700000DF
:1001E00060700000379201003792010060700000DB
:0C01F00060700000607000003792010099
:1001FC00F8B500BFF8BC08BC9E467047F8B500BF08
:10020C00F8BC08BC9E46704710B5054C237833B932
:10021C00044B13B10448AFF300800123237010BDCD
:10022C00D03F0020000000001C61030008B5034B08
:10023C001BB103490348AFF3008008BD0000000068
:10024C00D43F00201C610300154B002B08BF134B3F
:10025C009D46A3F5803A00218B460F461348144A5D
:10026C00121A32F0FEFF0F4B002B00D098470E4BAA
:10027C00002B00D098470020002104000D000D48F1
:10028C00002802D00C48AFF3008032F093FF20001E
:10029C00290014F0B5FA32F079FF00BF0000080015
:1002AC00E03900200000000000000000D03F0020DA
:1002BC00AC530020000000000000000070B5134C8F
:1002CC008A00A31822449B781D09062D98BF104E56
:1002DC0003F00F0394BF755DFF25062B05719ABFC4
:1002EC000C4DEB5CFF234371FF3B18BF0123837163
:1002FC00D37014F82130084C437053788370014646
:10030C00204602F07BFC0123A36070BDEC3F002073
:10031C00AF320300A8320300002000407FB5224911
:10032C0022480022FF23CDE901228DF80930037801
:10033C004C6C8D6B03922C40E407DBB228D5022B5E
:10034C0026D88C6C1A4901EB8301A5B2CE781949D9
:10035C0006B326041ED521F813201749012202FAF0
:10036C0003F30A781343154A0B701378CBB10023AF
:10037C001478DC40E407D9B20FD501701078012451
:10038C0004FA03F34340DBB201A81370FFF796FFA6
:10039C0004B070BD21F81350DFE70133032BE7D114
:1003AC00F6E703230370F3E700200040F83F00203A
:1003BC00EC3F0020FC3F0020FA3F0020F93F0020DA
:1003CC0000207047002814BF022000207047012035
:1003DC00704701207047012814BF0220002070478D
:1003EC00012070472DE9F74FDFF87C8007460D465A
:1003FC001446994603F10C0A4FF0010B15B903B0E2
:10040C00BDE8F08F102D2E46164A28BF1026F3B2E9
:10041C00494651F8040B42F8040B5145F9D10193AC
:10042C009AF800101170104888F80F40002288F8D4
:10043C000E2088F800B0013428F00CFD0B48019B0D
:10044C00E4B23A4612F8011B10F801CF81EA0C0114
:10045C0002F8011CD11BC9B29942F3D3AD1BADB24A
:10046C001746CBE70740002006400020054000203F
:10047C002DE9F04F85B016460293BDF838900F9BCE
:10048C00354A01930D468046034600F10C0153F8A2
:10049C00040B42F8040B8B42F9D1304C1B781370CF
:1004AC004923237020464FEA1923A37384F80F9035
:1004BC0028F0D0FC237883EA1623237063784FF05E
:1004CC00020A734063705246A34600271FE0C2F134
:1004DC001001F31B89B29BB28B42A2EB050028BF23
:1004EC000B46039029460398A1EB050C1FFA8CFCD4
:1004FC0008189C45C0B21AD31A44D2B21F44102A11
:10050C001D44BFB203D1204628F0A4FC0022B74200
:10051C00DDD312B1584628F09DFCBAF1010F4FF013
:10052C000002029D4E460BD04FF0010ACDE711F8A8
:10053C0001CB1BF800E08CEA0E0C0BF800C0D2E7E4
:10054C00064B01991B6801980B604346042105B0CA
:10055C00BDE8F04FFFF746BF0740002006400020E3
:10056C00F7B5099FBDF82040CDE9004706461D466A
:10057C00FFF77EFF2CB13346012221462846FFF7B8
:10058C0031FF002003B0F0BD2DE9F743BDF8287012
:10059C000F4C1E4605468846914603463946304662
:1005AC000122FFF71FFF33464A4641462846CDE954
:1005BC000074FFF75DFF042221460B9832F01EFEFB
:1005CC00002814BF7E20002003B0BDE8F08300BFDC
:1005DC000240002073B51C46044D8B181E592E602A
:1005EC00CDE90045FFF7D0FF02B070BD16400020EA
:1005FC000020704701207047012070470020704791
:10060C000120704700207047002070470120704780
:10061C00002070470120704770477047002814BFB6
:10062C000220002070470020704770B516468518D0
:10063C000AB9304470BD01F00F030A2B34BF3024CB
:10064C0037242344013A090905F8013DD2B2EFE7FA
:10065C00F0B5F9B100281CDA2D23B0F1004F13705E
:10066C0000D04042012115E0801B8642ECB205F11E
:10067C000105F9D904B927B14D1C30345454012764
:10068C00E9B20133092B09D1303050540131C8B2D1
:10069C00F0BD00210023DFF80CC01F465CF823607E
:1006AC000025E2E7B83203002DE9F04F95B04FF08A
:1006BC00000B02AC81468A4617461D465E46A04694
:1006CC003B7863B902ABE41AE4B2224619465046B1
:1006DC00C847002840F093803444E0B290E0252BCA
:1006EC0013D0BBF1000F14D12370013412AB9C4218
:1006FC006DD3A4EB0804E4B2224641465046C847E9
:10070C0000287CD12644F6B260E0BBF1000F00D18A
:10071C0001373B78632B00F092801BD8392B09D81A
:10072C00302B80F09E80002BCCD0252B51D04FF05D
:10073C00000BDBE7582B00F08B80622BF7D12B687A
:10074C0001936B6800934FF0000B009B9B4543D1CA
:10075C000835ECE7702B1ED017D8642B01D06C2B0E
:10076C00E5D16C2B05F1040B28686CD17B78752BCB
:10077C0014BF0121002101D0642B00D10137224686
:10078C00FFF766FF04445D46D1E7752BE9D0782B63
:10079C005ED0732BCBD1A4EB0804E4B2224602A9A1
:1007AC00504605F1040B2D68C84740BB2644F6B2F1
:1007BC00C4B201302B5D002BFAD12246294650469B
:1007CC00C847E0B926445D46F6B283464446013735
:1007DC0076E723700134AAE7019B204613F80B102F
:1007EC000222FFF722FF12AB984204460ED3A0EB75
:1007FC000804E4B2224641465046C84718B10020CE
:10080C0015B0BDE8F08F2644F6B24446009B013B80
:10081C005B4582BF20232370013412AB9C420BD367
:10082C00A4EB0804E4B2224641465046C8470028CF
:10083C00E5D12644F6B244460BF1010B85E72B6853
:10084C0023700435C6E7752B0CBF0021012196E7F8
:10085C00204602222978FFF7E8FE05F1040B044636
:10086C0091E77A7802F0DF02582A19D1322B07F17E
:10087C00010B09D129882F1D04222046FFF7D5FE34
:10088C003D4604465F4652E7342B09D12F1D2D6897
:10089C000422290C2046FFF7C8FE0422A9B2EDE77A
:1008AC004FF0010B22E700002DE9F04F9B46584B0F
:1008BC0085B01B78109F9DF844A0DDF8508006464B
:1008CC0089461546002B00F09280072A00F2918091
:1008DC000E9B002B00F08D800F9B002B00F089806D
:1008EC00129BB3F5006F00F38480012801D1002F17
:1008FC007FD0484B03EB05131B7B002B7BD0464C66
:10090C0010220021684632F0ACFC04EB4514102296
:10091C00B9F1000F5CD14946204632F0A2FCA37815
:10092C0043F01003A370E37843F03003E370BAF1A3
:10093C00000F03D1DBB243F00303E3703649129B83
:10094C00CDF800B06A01013B885A01EB020C63F34D
:10095C000E1088520E9BCCF808300F9BCCF804304C
:10096C009DF84C109CF80330012E61F383038CF836
:10097C00033042D11323CCF80C309CE80F000CF15F
:10098C00100E8EE80F00DCF81C20CCF814706FF001
:10099C00030161F39F02B9F1010FCCF81C2004D1C3
:1009AC000F9BCCF81830CCF804701A492A018B181C
:1009BC0041F802800027159A5A6028469F605E73A2
:1009CC002246694603F0ECFB384605B0BDE8F08FD3
:1009DC000021204632F045FC1023A3700323E37062
:1009EC00BAF1000FAAD1DBB243F03003A5E70B48F4
:1009FC00EBE70B48E9E70B48E7E7B8F1000FD4D178
:100A0C009CF8023068F304138CF80230CDE700BF79
:100A1C009C4100201C4000209C400020028000F0E3
:100A2C00018000F0078000F038B5104B1B780546AC
:100A3C00BBB1C0B102F019FE0D49002301EB03124A
:100A4C00147B3CB92B6001231373146002F013FE6A
:100A5C00204638BD0133082BF0D102F00CFE0548BE
:100A6C00F7E70548F5E70548F3E700BF9C41002090
:100A7C001C400020048000F0028000F0018000F097
:100A8C0038B502F0F2FD0B4A05460023D1180C7B59
:100A9C005CB91033802BF9D103F038FB064B284698
:100AAC001C7002F0E8FD204638BD284602F0E3FD3C
:100ABC000248F9E71C4000209C410020058000F012
:100ACC000D4B1B7810B5044693B1072812D802F0D1
:100ADC00CCFD0A4B03EB04131A7B2AB100241C73C4
:100AEC0002F0C9FD204610BD02F0C5FD0448FAE72E
:100AFC000448F8E70448F6E79C4100201C4000201D
:100B0C00068000F0028000F0018000F013B5164B57
:100B1C001868019000238DF8043002F0A6FD134BE9
:100B2C001C7824B102F0A7FD114802B010BD0122BF
:100B3C001A7002F0A0FD0F4B1C731C7783F82C402D
:100B4C0083F83C4083F84C4083F85C4083F86C405D
:100B5C0083F87C4004230DEB03008DF8073003F081
:100B6C00F5FA2046E1E700BFDC3203009C4100208F
:100B7C00038000F01C40002010B588B00E9C079438
:100B8C000D9C06949DF8304005940B9C04949DF8A4
:100B9C00284003940024CDE9013400920B46024610
:100BAC0021462046FFF780FE08B010BD10B588B076
:100BBC000E9C07940D9C06949DF8304005940B9C5C
:100BCC0004949DF8284003940024CDE9013400924C
:100BDC000B46024601212046FFF766FE08B010BD09
:100BEC0008B50A4B1B785BB107280BD8084B03EBF5
:100BFC0000131B7B43B1002103F09EFA002008BDBB
:100C0C000448FCE70448FAE70448F8E79C41002054
:100C1C001C400020028000F0018000F0078000F0F2
:100C2C0008B50A4B1B785BB107280BD8084B03EBB4
:100C3C0000131B7B43B1012103F07EFA002008BD99
:100C4C000448FCE70448FAE70448F8E79C41002014
:100C5C001C400020028000F0018000F0078000F0B2
:100C6C0008B50A4B1B7853B107280AD8084B03EB7D
:100C7C0000131B7B3BB103F0E5FA002008BD0548CF
:100C8C00FCE70548FAE70548F8E700BF9C4100205F
:100C9C001C400020028000F0018000F0078000F072
:100CAC000D4B1B7893B1072812D889B10B4B03EB72
:100CBC0000131B7B73B10A4B1A6A012303FA00F071
:100CCC0010401ABF00200B70087070470548704721
:100CDC0005487047054870479C4100201C40002087
:100CEC0000200E40028000F0018000F0078000F030
:100CFC000B4B1B7810B50C4663B107280CD859B1B7
:100D0C00084B03EB00131B7B43B103F0B1FA2060DB
:100D1C00002010BD0448FCE70448FAE70448F8E753
:100D2C009C4100201C400020028000F0018000F05B
:100D3C00078000F02DE9F843174E326EF36E12EA7D
:100D4C00030800D5FEE7154CDFF854900127002569
:100D5C0018EA070F16D02368B7669BB1A1686268C2
:100D6C000131A16028469847637B012B0AD148B911
:100D7C0009EB4513197B1A7F60F3410160F34102C3
:100D8C0019731A770135082D4FEA470704F110043F
:100D9C00DED1BDE8F88300BF00200E401C400020CF
:100DAC009C40002070B5094E0446012504B970BD65
:100DBC0094FAA4F0B0FA80F005FA00F324EA0304E4
:100DCC0056F82030002BF1D09847EFE7A0410020D7
:100DDC00054B4FF48022C3F880211A604FF48062D7
:100DEC00C3F880211A60704700E100E038B5044672
:100DFC000D4602F03AFC034B43F82450BDE8384052
:100E0C0002F039BCA0410020074BD3F82804D3F8DA
:100E1C001C24104020F42A5020F02A004004400CDE
:100E2C00C3F82404FFF7BEBF00A00040074BD3F863
:100E3C002804D3F81C24104020F4AA4020F05500BC
:100E4C000004000CC3F82404FFF7ACBF00A0004062
:100E5C00104A4161136830B51546ABB91060836018
:100E6C0011E0091B9C6841611A467CB123465C6900
:100E7C008C42F6D9002CF4D052B19060836013B13F
:100E8C005A69511A596130BD0022F0E72346F4E744
:100E9C002860F3E7F841002010B500F027FB094B60
:100EAC00094A196831B11368C41A4B69A34203D3B8
:100EBC001B1B4B61106003E0C01A002310604B61D8
:100ECC0010BD00BFF8410020E441002038B50F4DA3
:100EDC002B685C690E4B1B6802201C4400F034FB31
:100EEC00204600F009FB0B492A6800230B70D088C0
:100EFC00800702D501230B7038BD9268002AFBD005
:100F0C0050690344012BF2D9F6E700BFF8410020E9
:100F1C00E4410020EC41002070B59DF8145005719F
:100F2C00002516468560049ABDF81850C580044605
:100F3C000260C0E903360D4629B961610BB1114657
:100F4C00984796B1354602F090FB0646FFF7A4FF92
:100F5C0029462046FFF77CFF054B1B68A34201D1B5
:100F6C00FFF7B4FF304602F086FB002070BD00BFD7
:100F7C00F84100200C4A136800217BB183420AD14E
:100F8C00836879B18B6083681BB15A6941690A44E3
:100F9C005A610020704719469B68EEE70028EFD095
:100FAC00022070471360EEE7F841002070B5144D35
:100FBC0002F05BFB2C780646D4B9124B1C60124B2A
:100FCC001C60124B1C8000F04FFA012000F0BCFAA0
:100FDC0000F008FB0E4B0246186070B123460D481A
:100FEC0040F2E73131F052FF0B4B186001232B70AC
:100FFC00304602F040FB002070BD2320FCE700BF10
:10100C00E0410020F8410020E4410020EE410020A6
:10101C00F441002018FCFFFFE84100202DE9F041CD
:10102C000546F8B102F021FB0F4F0646FFF734FFDF
:10103C002846D7F80080FFF79DFF044628B13046BC
:10104C0002F019FB2046BDE8F081A8453B6803D1AE
:10105C0023B1FFF73BFFF2E7002BF0D1022000F0A9
:10106C0081FAECE72224EDE7F8410020F0B50D46BB
:10107C0085B016461F46044680B1FFF7CFFFBDF87A
:10108C002C3002939DF828300022CDE900732946BC
:10109C0033462046FFF740FF05B0F0BD2220FBE7AA
:1010AC0038B50C46054698B191B100230B7002F08F
:1010BC00DCFA084B1B6801210BB122781AB102F043
:1010CC00DAFA002038BD9D420CBF21709B68F3E713
:1010DC002220F7E7F8410020F0B587B01F46002327
:1010EC000D4616468DF817300446A0B10DF11701C8
:1010FC00FFF7D6FF9DF817207AB9BDF8343002936C
:10110C009DF830302946CDE9007320463346FFF771
:10111C0003FF07B0F0BD2220FBE70320F9E7000036
:10112C00F8B50C460646C8B1C1B102F09EFA0546A8
:10113C00FFF7B2FE73692360134B1B68B3420FD0E9
:10114C0023B9284602F097FA03201CE0596922685B
:10115C009B680A442260F1E700230FE0222012E092
:10116C000A4E276800F0C2F93368C01A8742F3D9D7
:10117C0000F0BCF93368C01A23681B1A2846236098
:10118C0002F079FA0020F8BDF8410020E44100207B
:10119C00F8B507460E4602F068FA124B1B68054676
:1011AC00002423B9284602F066FA1B2015E05A6980
:1011BC001444DA88BA4213D10B4F00F097F93B680C
:1011CC00C01AA0420AD200F091F93B68C01A201A4A
:1011DC003060284602F04FFA0020F8BD0020F7E7F7
:1011EC009B68DEE7F8410020E4410020014B1878B1
:1011FC00704700BFEC41002038B502F036FA0546C6
:10120C0000F074F90446284602F035FA204638BD41
:10121C0070B502F02AFA064600F068F9094B1C88F2
:10122C0005460120A4B200F0B5F918B100F05EF942
:10123C0001340546304602F01EFA002242EA05004F
:10124C00214670BDEE410020014B1868704700BF6D
:10125C00F44100200A4B1B68834210B50C460CD39A
:10126C00084B19684FF47A720023A0FB010131F08E
:10127C000DFE01302060002010BD2120FCE700BFD6
:10128C00E8410020F4410020104B1A684FF47A73A7
:10129C0010B5A0FB0301A2B1531E134211D1B2FA37
:1012AC0082F2C2F11F02C2F12004A2F1200301FA62
:1012BC0004F420FA02F2224321FA03F342EA030077
:1012CC0010BD002331F0E2FDFAE700BFF44100202D
:1012DC0000000000F8B516461BA3D3E900238B428F
:1012EC0008BF82422AD3174B1A684FF47A73A0FBBB
:1012FC00034503FB0155C2B1531E13EA020014D17E
:10130C00B2FA82F2C2F11F02C2F12007A2F120014F
:10131C0024FA02F305FA07F73B4325FA01F10B43D4
:10132C0025FA02F2C6E90032F8BD00232046294610
:10133C0031F0ACFDC6E900010020F5E72120F3E710
:10134C00AFF30080F4410020EFA7C64B3789410072
:10135C00C2072DE9F84F04460BD53F4A13880133D9
:10136C009BB21380FFF798FD3C4B1B680BB1FFF74A
:10137C00ADFDA3076DD53A4F00F0B8F83D68804637
:10138C00451B02F072F9002683463246B246334BB7
:10139C001C6814B16369AB4214D9012E314B51D185
:1013AC00D288022A4ED11E70002C4ED06369C7F829
:1013BC0000805D1B6561FFF789FD5846BDE8F84F5D
:1013CC0002F059B9C7F8008023462A465969914260
:1013DC0009D8187994F804C0844588BF1C469B68CA
:1013EC00521A002BF2D1584602F045F9D4F814B039
:1013FC00C4F814A002F039F981462046FFF7BAFD73
:10140C00484602F038F923694BB102F02EF92169F4
:10141C0081462046FFF71CFD484602F02CF9E36894
:10142C0013B121682046984700F060F8D844A5EB2A
:10143C0008058146054402F018F901368346224618
:10144C00C846A4E700221A70AEE7022000F08AF822
:10145C00B3E7BDE8F88F00BFEE410020F841002053
:10146C00E4410020F041002010B51C4B86B05968B7
:10147C00186803AA03C2197A53F8090F1170019066
:10148C009A8817489B79ADF8082001218DF80A300D
:10149C00002401F0ABFC03A88DF80C408DF8104033
:1014AC0003F0A0F801A901208DF8044003F07AF8AC
:1014BC000C4A536A23F4FF6323F00703536240F290
:1014CC00FF7313620120946003F086F8064B4FF013
:1014DC000042C3F880211A6006B010BDE032030050
:1014EC00A00914000020044000E100E0014B9868C2
:1014FC00704700BF00200440114A9368516D9269F7
:10150C00520704D4CA1A022A01D899420DD1C21A20
:10151C00012A98BF981C0A4BB0F1FF3F28BF01303D
:10152C0058655A6A42F004025A62064A137833B17B
:10153C0003490B6D43F002030B65002313707047D6
:10154C00002004403C3A00208207054A00F00103C9
:10155C00516A48BF43F004030B435362704700BF0A
:10156C0000200440830700F0010209D5074B01213C
:10157C00197007490B6D23F0030342F004020B654D
:10158C0003494B6A23EA02034B6270473C3A002042
:10159C0000200440064B01289B6904D0022805D189
:1015AC00C3F38000704703F00100704700207047C0
:1015BC000020044010B502F058F8094A936904461B
:1015CC00590703F0010003F0070348BF40F0020085
:1015DC001362FFF7BDFE2046BDE8104002F04BB889
:1015EC0000200440014801F04FBD00BFA0091400C9
:1015FC00044B4FF04042DA621A6B22F040421A63FD
:10160C00704700BF00300E402C48F0B50022036834
:10161C002B4D114654592CB11E68AC18002E36D1E6
:10162C00234601210832282AF4D101B1036025494F
:10163C00254E0B680022144695592DB11F68B5181C
:10164C00002F2BD12B4601240832282AF4D104B1C7
:10165C000B6000681D4B026842B3DA69007922F016
:10166C00FF020243DA611A6B42F0804209681A6386
:10167C000A68164BF2B1DA69097922F47F4242EA20
:10168C000122DA611A6B42F000421A63F0BD1E7936
:10169C002779B74284BF23460121C3E71F7995F808
:1016AC0004C0BC453CBF2B460124CDE71A6B22F08D
:1016BC008042DBE71A6B22F00042E6E7084200208A
:1016CC00184200200C4200204042002000300E4006
:1016DC0008B51B4B1B4801221A700021282231F03F
:1016EC00C0FD28220021184831F0BBFD174A184BC9
:1016FC0013601849184A13600A684B6DC2F307420D
:10170C00FF2A02D0DBB2FF2B01D190231922134800
:10171C0002EB820103EBD1010160DB000521B3FB7D
:10172C00F1F313440E4A1360FFF762FF0D4B0122D5
:10173C00C3F880211A60FFF767FF002008BD00BFC7
:10174C00FC410020184200204042002008420020AA
:10175C0010420020B081E00F0C420020004200201B
:10176C000442002000E100E008490B6A0A6ADBB27F
:10177C00D2B29342F9D1064A0520DB00B3FBF0F359
:10178C001068C31A03F3070040B2704700300E40D4
:10179C000442002070B5144C226B616A0A4011D5CA
:1017AC00124B1B681E6836B100251D605D60FFF78B
:1017BC00DBFF2946B0474FF00043E362BDE87040C1
:1017CC00FFF722BF5300F9D5094B1B681C6834B1D5
:1017DC0000221A605A60FFF7C7FF0121A047024B95
:1017EC004FF08042DA62E9E700300E400C420020F4
:1017FC0008420020FFF7CEBF38B141B1013AB2F533
:10180C00006F044838BF00207047034870470148F8
:10181C00704700BF037000F0027000F038B504464A
:10182C000D4601F022FFA28892B222B92A6001F083
:10183C0022FF064838BD6388142202FB0343083399
:10184C002B6001F018FF0020F4E700BF0B7000F0D4
:10185C0038B504460D4601F008FFA3889BB223B9A6
:10186C002B6001F008FF0C4838BD6388E188142216
:10187C0002FB034308332B6063885A1C92FBF1F381
:10188C0001FB13239BB26380A388013B9BB2A38013
:10189C0001F0F1FE0020E7E70B7000F0034610B5F5
:1018AC0093F832300068012B0AD102F017FD044680
:1018BC00FFF7CAFC24235843B0FBF4F0013010BDF1
:1018CC0002F0C8FFF3E70000427E30235343044A82
:1018DC001A44437F03EBC2039B001868C0B27047E5
:1018EC001CA0104213B51D4A002352F82340617FFF
:1018FC0081420ED00133042BF7D102B010BD002869
:10190C00FBD19DF80730002BF7D06068FFF768F922
:10191C00F3E794F83130022BEFD12046FFF7D4FFD8
:10192C00637D2075022BE8D194F82E3003F0FF0272
:10193C00002BE2D102A9606801F8012DFFF7B0F984
:10194C00237D1BB194F82F30002BD8D0002384F8C2
:10195C002F306068FFF764F9CFE700BF68420020C2
:10196C0090F8323053B903680122DA601A69D00753
:10197C00FCD55A6F42F001025A677047012B0CD10B
:10198C0003685A6C9107FCD401225A609A68D207FA
:10199C00FCD55A6D42F001025A65704790F832300E
:1019AC003BB903685A6F22F001025A670222DA60CF
:1019BC007047012B09D103685A6C9207FCD45A6DFD
:1019CC0022F001025A6502225A6070470F49104BEF
:1019DC000A782AB9C3E90022C3E9022201220A705B
:1019EC00002253F82210814208D00132042AF8D187
:1019FC00002153F821201AB943F821000020704728
:101A0C0001310429F5D10348704700BF784200200A
:101A1C0068420020027000F010B50446FFF776F81B
:101A2C000021201DFFF700F8014608B1044810BD45
:101A3C0004F10800FEF7F8FF0028F8D0F6E700BF25
:101A4C000E7000F0F8B5044617460D4601F00DFE79
:101A5C00A388E2889A42064605D800233B6001F031
:101A6C000AFE1648F8BD2388142202FB03430833F0
:101A7C0005F1100C2A4603CA6245186059601546D8
:101A8C0003F10803F6D1106818602388E18814224A
:101A9C0002FB034308333B6023885A1C92FBF1F38F
:101AAC0001FB13239BB22380A38801339BB23046E6
:101ABC00A38001F0E0FD0020D4E700BF0A7000F025
:101ACC0038B5044601F0D1FD616B013905466163FF
:101ADC0019B9044A012005F0B1FE2846BDE838408A
:101AEC0001F0C9BD1C33030037B591F832200B68E7
:101AFC00012A0BBF9C681C69C4F3C004C4F34014D6
:101B0C000D46084634B1FFF7DBFF022385F8383069
:101B1C0003B030BDFFF7C2FECDE9004401462B46B1
:101B2C00024A0348FFF7D8FAF2E700BFF51A0000A3
:101B3C00044E002038B5044601F097FD636B054652
:101B4C0023B90121054A084605F078FE636B013381
:101B5C0063632846BDE8384001F08DBD1C3303009B
:101B6C007FB5012380F82C3090F8323093B90C4AB1
:101B7C00036803920022049002924A6801920122A7
:101B8C0000920A68016980681C33FFF70FF807B0F0
:101B9C005DF804FB012BEAD0002380F82C30F6E72B
:101BAC0031230000F0B5012380F82D3090F832304D
:101BBC0089B004460F465BBB0568343501F055FD12
:101BCC000DF11F0106461948FFF76AFA40B99DF856
:101BDC001F302BB11548FFF721FA2046FFF770FF95
:101BEC003046012601F047FD204684F83860FFF7A7
:101BFC00A1FF0F4B03930023049402937B68E168CD
:101C0C006068CDE900632A463B68FEF7B5FF0BE040
:101C1C00012B06D105682B6843F4005345F8283B8B
:101C2C00CCE7002380F82D3009B0F0BD044E002025
:101C3C00411C0000F0B585B003A9906A1446FFF76B
:101C4C00EDFD06462046FFF729FE002523460146FA
:101C5C00CDE900551A4A1B48FFF73EFA1A4B9E4233
:101C6C001FD0039B1D619D6001F0FFFC039AD76898
:101C7C00064627B1D2E9002329462046B84703A9D6
:101C8C00A06AFFF7E5FDA06A83889BB263B103A944
:101C9C00FFF7C4FD03992046FFF784FF304601F09F
:101CAC00EAFC012005B0F0BD84F82D3094F83230F8
:101CBC00012B01BF2268136823F400531360EDE776
:101CCC00F51A0000044E00200B7000F073B50446AA
:101CDC000D46C07DE67E002934D001230422314616
:101CEC0002F0D2F901230222217F207E02F0CCF9EE
:101CFC0094F83130022B16D100230122617F607ED3
:101D0C0002F0C2F900230422A07EA17F02F0BCF9EC
:101D1C000123627F607E01930093114602F068F903
:101D2C00002002B070BD032BFAD100230122617F89
:101D3C00607E02F0A9F900230422A17FA07E02F0AC
:101D4C00A3F9EDE70B460A46314602F09DF92B4606
:101D5C002A46217F207E02F097F994F83130022B2D
:101D6C0010D12B462A46617F607E02F08DF92B46FE
:101D7C002A46A07EA17F02F087F9627F607E0195E2
:101D8C000123C9E7032BCBD12B462A46617F607E0A
:101D9C0002F07AF92B462A46CFE790F8323013B985
:101DAC00036818697047012B1CD103689B6803F00A
:101DBC000200DA0748BF40F00100590748BF40F065
:101DCC0008001A0748BF40F02000D90648BF40F071
:101DDC0040009A0648BF40F080005B0603D540F4F3
:101DEC0000507047002070472DE9F3410D46044622
:101DFC00002879D001F039FC012D06463BD1A36AAD
:101E0C009B889BB2002B3DD06068FEF729FF002316
:101E1C00A06A84F82D3083889BB273B101A9FFF7B7
:101E2C00FDFC01996068364F0831FEF761FF019B9C
:101E3C001F61A06A83889BB253BB2046FFF7ADFF9E
:101E4C008304FAD5023D012D10D8A068FEF708FFD7
:101E5C000023606A84F82C3083889BB23BBB94F8D7
:101E6C003130032B02D02046FFF798FD304601F0AD
:101E7C0002FC002009E0022D38D1636A9B889BB2DA
:101E8C00002BDFD101F0F7FB1E4802B0BDE8F0815A
:101E9C0001A9FFF7DDFC019BD3F80C80B8F1000F12
:101EAC00C7D09B68002239462046C047C1E7694627
:101EBC00FFF7B4FC0099A068114F0831FEF718FF2A
:101ECC00009B1F61606A83889BB2002BC7D0694658
:101EDC00FFF7BEFC009BDD68002DF3D09B68002251
:101EEC0039462046A847EDE70748CEE7032DA9D190
:101EFC00A36A9B889BB2002B86D1636A80E700BFE4
:101F0C00097000F0087000F0027000F0436A9888C5
:101F1C00C0B270472DE9F3410546406A8488984663
:101F2C00A4B200230E461746CDE900333CB16946F6
:101F3C00FFF774FC01A90446A868FEF7D9FE0099C6
:101F4C0071B16CB94868019BC01A3860C8F8003090
:101F5C000B6833602846FFF720FF02B0BDE8F08124
:101F6C000021C8F8001039603160F3E7836A988863
:101F7C00C0B270472DE9F3410546806A84889846C3
:101F8C00A4B200230E461746CDE900333CB1694696
:101F9C00FFF744FC01A904466868FEF7A9FE009906
:101FAC0071B16CB94868019BC01A3860C8F8003030
:101FBC000B6833602846FFF7F0FE02B0BDE8F081F5
:101FCC000021C8F8001039603160F3E7007D7047DC
:101FDC002DE9F04104460E461746FFF70DFC8046EE
:101FEC0050BB092001F066FB0546A26A93889BB2A0
:101FFC0013B194F82E3013B394F8322022BB23681B
:10200C001D6915F0020533D0012384F83030002A05
:10201C003FD13744BE42206836D103699E06FCD5B9
:10202C0055B994F83230002B42D123685A6F22F004
:10203C0002025A670822DA604046BDE8F081002DA2
:10204C00D4D0FEF777FED0E7012A1BD123689D6818
:10205C0015F00205D8D1596C8807FCD404215960BD
:10206C0099688907FCD5596D41F002015965CBE798
:10207C000421D96019698907FCD5596F41F0020117
:10208C005967C1E70025BFE716F8011B02F062FC97
:10209C00C0E7012AD0D13744B742206803D1836806
:1020AC001907FCD5BCE716F8011B02F04BF9F3E756
:1020BC00012BC1D123685A6C9207FCD45A6D22F0C3
:1020CC0002025A6508225A60B6E7000010B50446B1
:1020DC00B0B190F82E3033B990F83130022B0AD0D1
:1020EC006068FEF77DFD94F82E300133DBB284F886
:1020FC002E30002010BDFFF7E7FB0028F3D1EFE7EF
:10210C000048F7E7027000F010B50446D0B190F823
:10211C002E30CBB190F82E30012B06D190F8313007
:10212C00022B0AD06068FEF77BFD94F82E30013B41
:10213C00DBB284F82E30002010BDFFF7C5FB002861
:10214C00F3D1EFE70148F7E70148F5E7027000F03B
:10215C00057000F037B590F83150022D044618D1B7
:10216C00A37F407D01229A40A37E30215943134B1B
:10217C000B4410B903F1806303E0012805D103F18E
:10218C00C0631A60002003B030BD217D0029F6D158
:10219C00F0E7012DF6D1037D73B911238DF80730CB
:1021AC00FFF794FF2A460DF107012046FFF710FFB9
:1021BC002046FFF7A9FFE5E71323EFE70CA000404B
:1021CC0090F83130032B05D00229417518BF0175E9
:1021DC00FFF7C0BF00487047057000F037B50446E4
:1021EC00002868D0354B1B7843B1354A002352F890
:1021FC0023108C424FD1002142F82310032120469A
:10220C00FFF7F2FD00212046FFF7DAFF0021204600
:10221C00FFF75CFD94F83230002B40D123680A2282
:10222C00DA600021206A00F0E1FD94F83130032BD4
:10223C0003D00021607FFEF7D9FD6068FEF740FCFB
:10224C00A068FEF73DFCFEF71BFC626A00231380BE
:10225C0053809380A26A13805380938001F005FA17
:10226C000DF1070105461748FEF71AFF28B99DF82E
:10227C00073013B11348FEF7D1FE284601F0FBF9E5
:10228C00636B002B04DD012363632046FFF718FC0E
:10229C00002003B030BD0133042BA8D1AEE7012BD5
:1022AC00BFD1206802F03AF823685A6C9207FCD42C
:1022BC000A225A60B5E70448EBE700BF78420020D9
:1022CC0068420020044E0020027000F0F0B587B088
:1022DC0004461646FFF790FA0546F0B9CDE901160B
:1022EC0004936A460E4B606A039601A90593FFF7A7
:1022FC00A9FB054688B994F82C3073B92046FFF732
:10230C002FFB00992046FFF72BFC94F83130032B60
:10231C0003D025752046FFF71DFF284607B0F0BDFA
:10232C00017000F073B5506A01A91446FFF776FAF4
:10233C00334B98422FD094F83200019B002836D1B1
:10234C002268116C11F4007128D02E491961986023
:10235C004FF40073936401F088F90199CD68064637
:10236C0035B14A688B682046D31A0A680969A847B0
:10237C0001A9606AFFF76CFA606A8588ADB2002D1E
:10238C002FD001A9FFF74AFA01992046FFF7E8FB85
:10239C00304601F070F9012002B070BD106CC5051B
:1023AC001BD51948186199604FF48073D2E7012846
:1023BC0013D12268D16A11F0800106D0114919613C
:1023CC000021996080235363C5E7D06A400604D589
:1023DC000D48186199604023F5E700221A619A6054
:1023EC00B9E7012323752046FFF7B4FE94F831308A
:1023FC0084F82C50032BCBD02046FFF7CFFAC7E73D
:10240C000B7000F00D7000F00C7000F02DE9F04135
:10241C00094F04460D460FCF88B001AE0FC697E8A2
:10242C00070086E80700002C00F0AD8245B9034E8A
:10243C00304608B0BDE8F08100330300037000F0B3
:10244C003C220021204630F00CFF2046FFF7BEFA5C
:10245C0006460028ECD12B7C84F8313001222B6805
:10246C0084F83820CB4A2360934284F8320040F041
:10247C007B81C94B2362C94BE3604FF4402323613A
:10248C00D5E906230026626216805680968084F871
:10249C002C60A3621E805E809E806B6803936B89A8
:1024AC00ADF81430AB89ADF81230AB7B8DF8103031
:1024BC000121EB7BBA4884F82D6084F82F60052746
:1024CC008DF816308DF8117000F090FC0121B54894
:1024DC0000F08CFC0121206A00F088FC01A928681E
:1024EC008DF8046002F0F8F928686A7A816F2B7A0B
:1024FC00DFF8A0C221F4F85121F01F01114341EA89
:10250C0003218167032141672068604540F05881B1
:10251C00BB4216D9981F042840F26D81A3F10B0021
:10252C00B84240F26A81A3F11100062840F267819B
:10253C00A3F11801062940F264811F2B14BFFF265A
:10254C003E46042AE67540F25E81511F042940F292
:10255C005C81A2F10A01052940F25981A2F1100116
:10256C00062940F25681A2F11701072940F2538146
:10257C001F2A14BFFF2100212176002B58D0012BDC
:10258C0056D0022B54D0032B52D0042B50D0052BF9
:10259C004ED0062B00F04981072B00F04881082B08
:1025AC0000F04781092B00F046810A2B00F0458191
:1025BC000B2B00F050810C2B00F02F810D2B00F019
:1025CC002E810E2B00F02D810F2B00F02C81102B67
:1025DC0000F02B81112B00F02481122B00F02381B1
:1025EC00132B00F02281142B00F02181152B00F00D
:1025FC002081162B00F01F81172B00F01E81182B49
:10260C0000F01D81192B00F01C811A2B00F01B818E
:10261C001B2B00F01A811C2B00F019811D2B00F0D4
:10262C0018811E2B00F017811F2B0CBF0723FF23D3
:10263C00E376002A00F08981012A00F01E81022A2B
:10264C0000F08581032A00F08481042A00F0838144
:10265C00052A00F00881062A00F00781072A00F0FD
:10266C000681082A00F00581092A00F004810A2A53
:10267C0000F073810B2A00F072810C2A00F0ED80BF
:10268C000D2A00F0EC800E2A00F0EB800F2A00F0EF
:10269C00EA80102A00F0E380112A00F0E280122A6E
:1026AC0000F0E180132A00F0E080142A00F0DF80B3
:1026BC00152A00F0DE80162A00F0DD80172A00F0C3
:1026CC004281182A00F04181192A00F0D6801A2A7A
:1026DC0000F03D811B2A00F03C811C2A00F03B815C
:1026EC001D2A00F03A811E2A00F039811F2A14BFDE
:1026FC00FF23002323776B7C6376AB7C6377EB7CC7
:10270C00A3762B7DA37701212046FFF7DFFA06463F
:10271C0000287FF48DAE00F0A8FF2F7C032F80469D
:10272C0040F021812B682A8CDA675A6E42F0040241
:10273C005A665A6F42F030025A6728684FF0FF33DE
:10274C0083642B7C032B0CBF0521042102F094F82D
:10275C002B684FF44062DA602046FFF75DF90646BD
:10276C00404600F088FF63E60F4A934206D10F4BB8
:10277C0023620F4BE3604FF4502380E60D4A9342E3
:10278C007FF455AE0C4B23620C4BE3604FF460238B
:10279C0075E600BF000001400032040001000C008F
:1027AC004041050000350A000004014000420400CD
:1027BC0001000D00000801400052040001000E0051
:1027CC00DFF8D4C160455AD1052B7FF6BAAE981FFD
:1027DC00042810D9A3F10B0005280ED9A3F1110080
:1027EC0006280CD9A3F1180106290AD91F2B14BFEE
:1027FC00FF260526A5E60126A3E60226A1E60E463F
:10280C009FE63E469DE60021B6E60121B4E6022194
:10281C00B2E60321B0E60521AEE6072308E708235C
:10282C0006E7092304E70A2302E70B2300E70C233E
:10283C00FEE60D23FCE60E23FAE60F23F8E6002352
:10284C00F6E60123F4E60223F2E60323F0E6042382
:10285C00EEE60523ECE60623EAE608234AE709231D
:10286C0048E70A2346E70B2344E70C2342E70D23F2
:10287C0040E70E233EE70F233CE702233AE74349A8
:10288C0088427FF4D4AD002B47D0591E0C2946D971
:10289C00A3F10E0106298CBFFF2105210C2AE1753D
:1028AC0041D9A2F10D0106293BD9A2F11401092944
:1028BC0039D91F2A14BFFF2100212176002B3ED0CD
:1028CC00591E0C2931D90E2B31D00F2B31D0102B96
:1028DC0031D0112B31D0122B31D0132B31D0142BF2
:1028EC0014BFFF2307230C2AE3763AD90D2A2AD0EA
:1028FC000E2A2AD00F2A2AD0102A2AD0112A2AD0FE
:10290C00122A2AD0132A2AD0A2F11403092B28D96F
:10291C001F2A14BFFF230523ECE61946BEE7FF214F
:10292C00BCE70521C9E7FF21C7E7FF23DBE700234D
:10293C00D9E70123D7E70323D5E70423D3E70523FE
:10294C00D1E70623CFE70023D4E60123D2E6032305
:10295C00D0E60423CEE60523CCE60623CAE60723FD
:10296C00C8E6FF23C6E6022F7FF4E7AE607F084976
:10297C00FEF73CFAFEF72CFAA6752675677520460D
:10298C00FFF7E8FBD9E6034E52E500BF0008014013
:10299C00F1180000027000F00004014090F83120A2
:1029AC00012A10B5034610D102290ED0827D8A422D
:1029BC0001D1002010BD997511B9FFF7A5FBF8E7FF
:1029CC000129F6D1FFF782FBF3E70148F2E700BFDC
:1029DC00057000F0F0B587B004461646FEF70CFF04
:1029EC00054600BBCDE9011604936A460F4BA06A5D
:1029FC00039601A90593FFF725F8054698B994F8B5
:102A0C002D3083B900F031FEA36A9B889BB2064639
:102A1C0033B100992046FFF7C5F8012384F8303014
:102A2C00304600F028FE284607B0F0BD017000F0DB
:102A3C0070B588B00D220021294C2A4E04A830F024
:102A4C0010FC00250223012127488DF81010CDE938
:102A5C00015503958DF80A3000F0C8F9294601AAF2
:102A6C00204601F060FE4FF6FF73E3618DF81250C3
:102A7C00354604A9204601F003FE1C4800F004FB77
:102A8C009DF81230D8400133DBB20A2B30608DF840
:102A9C00123002D8164B9842EBD81648164C00F060
:102AAC00F3FA1649B1FBF0F12868154A0025E1FB51
:102ABC00004500232046294630F0E8F9114B084A1E
:102ACC001860114B00201870936923F01003936168
:102ADC000E4B4FF40062C3F880211A6008B070BD31
:102AEC00008001407C4200200002040040410500AF
:102AFC0080841E007000020020A1070000B0710B42
:102B0C0040420F00804200208442002000E100E09F
:102B1C00044BDA68D20604D510225A61024B01220A
:102B2C001A70704700800140844200202D4B002A0F
:102B3C0070B52D4D446B08BF1D462C4B14BF102691
:102B4C00002698423AD102293FD004D8B9B10129C4
:102B5C0021D000232DE0062931D0812935D003293D
:102B6C00F7D1234B1A6819681B68120C1B0C03F065
:102B7C00F00302F4FE421A43C1F3034318E01D496B
:102B8C000B680A6803F4FE4302F00F021A430B6849
:102B9C0003F0F0030CE0174A1368116812681B0C61
:102BAC00120C02F0F00203F4FE431343C1F3034290
:102BBC001343B3402C400D4A2343536370BD0E4B5B
:102BCC001A681B6802F00F02E2E7094A13681168E1
:102BDC00126803F4FE4301F00F010B4302F0F00204
:102BEC00E6E700BF0080FFFFFFFF008000200040F1
:102BFC001482E00F1082E00F1882E00F38B50C46FB
:102C0C0002238360002289780546FFF78FFF207925
:102C1C0061786279030243EA016343EA0243E27892
:102C2C0043EAC203E2790AB143F00053227A0AB1B3
:102C3C0043F00403A2790AB143F00203627A0AB1A9
:102C4C0043F00103F328A27806D12AB903299CBFCB
:102C5C0023F0706343F0806351B20029ACBF43EAA8
:102C6C00421343F0E0032B616B69002923F4F21348
:102C7C0023F00703BCBF22F080021343227843EAFF
:102C8C004243E27A0AB143F480436B616B0103F176
:102C9C008443A27A9A60EB6FD5F88030EB6838BD2C
:102CAC000C4B984210D90C4B984210D9022201239C
:102CBC000A490B600A49D1F8003123F0807343EACA
:102CCC000263C1F80031704700221346F0E701227D
:102CDC00FBE700BF0048E8010090D0034000C84368
:102CEC0000400E400E4B30B50E4C5B68C9B2002351
:102CFC0004EBC30215798D4203D154F8335085424D
:102D0C000BD20133052BF3D1032205494B6823F079
:102D1C00407343EA02634B6030BD5279F5E700BF64
:102D2C0000000E403433030038B5074C41F67133C4
:102D3C00256C236401F084FE0021FFF7D3FF0DB155
:102D4C000023236438BD00BF00000E40044B1B68F9
:102D5C005B0603D4034A1368002BFCD1704700BFF9
:102D6C003C300E40C800C64308B5FFF7EFFF024BDE
:102D7C005868C0F3014008BD00300E40044BD3F836
:102D8C004421D20703D4D3F840211042FBD1704721
:102D9C0000400E400C4AD2F89030516A0B4B21F097
:102DAC00300141F0100110B55162146BC0F3C31126
:102DBC0003310F2903EA040328BF0F21034343EA1D
:102DCC000173136310BD00BF00400E4000F8FF0FED
:102DDC0038B5054C41F67133256C2364FFF782FF3F
:102DEC000DB10023236438BD00000E40C0F3032254
:102DFC00013A38B50546092A13D8DFE802F0231347
:102E0C001212051619121C20104C0020C5F30435A3
:102E1C0008B1FFF7B3FF04F1047405EBC404A4007C
:102E2C00216038BD00200A4CF0E70120094CEDE789
:102E3C001020094CEAE74FF48030084CE6E70020FC
:102E4C00074CE3E70020074CE0E700BFB0400E4022
:102E5C00C0400E40E0400E40E8400E40F0400E40B6
:102E6C0050410E4000400E40C0F30313013B092BB0
:102E7C002AD8DFE803F0050B0F1929291F23374B3C
:102E8C00274BD3F80001C0F304207047244BD3F830
:102E9C001401F8E7224BD3F80001C0F30060431C87
:102EAC0001209840013870471D4BD3F80C01C0F33A
:102EBC00082070471A4BD3F80801F8E7194B9842D1
:102ECC0004D0194B984207D000207047144BD3F80C
:102EDC00203103F00F03E3E7114BD3F82031C3F398
:102EEC000113DDE7114B98420CD003F5B01303F539
:102EFC0080539842E8D10A4BD3F82801C0F3012043
:102F0C00031DCDE7064BD3F82831E8E7084B984270
:102F1C00DAD1034BD3F8300100F00300704700BF47
:102F2C0000400E408006160080162E0090171A00E6
:102F3C00A009140008B5FFF797FF013008BD000089
:102F4C0000F00F000138072848D8DFE800F0040F24
:102F5C001947232D4735244BD3F8943003F007033E
:102F6C00023B052B3CD8214AD05C70471E4BD3F852
:102F7C00803003F00703013B042B33D81C4AF3E7E2
:102F8C00194BD3F8843003F00703013B042B29D8E9
:102F9C00184AE9E7144BD3F8883003F00703013BD8
:102FAC00042B1FD8144ADFE70F4B1B6F13F0010FD4
:102FBC0014BF0920072070470B4BD3F85C3103F08A
:102FCC003003202B06D0302B06D0102B0CBF072043
:102FDC00012070470420704708207047002070477C
:102FEC00052070470120704700400E402433030039
:102FFC002A3303002F3303002A33030008B501469C
:10300C00FFF79EFF1C4B994212D01C4B994213D0D8
:10301C001B4B994204D11B4BD3F8800000F00700E6
:10302C000138042825D8DFE800F00B0F17130B002C
:10303C00144BD3F88400F1E7124BD3F88800EDE77A
:10304C00BDE8084001F060BDBDE8084001F062BD7C
:10305C00BDE8084001F05BBD01F0F6FC094BD3F86C
:10306C000031C3F300635A1C01239340B0FBF3F00F
:10307C0008BD0020FCE700BF030020000500240071
:10308C0002001E0000400E4000F47813B3F5B01F90
:10309C0010B504467DD029D8B3F5202F07D00AD817
:1030AC00B3F5003F62D0B3F5802F54D05BB9BDE8C7
:1030BC00104001F0C9BCB3F5602F00F0838004D838
:1030CC00B3F5402F58D0002010BDB3F5801F00F091
:1030DC009080B3F5A01FF6D14C48FFF78FFF4C4BF7
:1030EC00D3F8303103F00303D840EDE7B3F5101FEC
:1030FC0066D011D8B3F5F01F46D0B3F5001F53D0EE
:10310C00B3F5D01FDFD14348FFF778FF404BD3F81E
:10311C002821C2F3011244E0B3F5401F46D00BD86E
:10312C00B3F5381FCFD13C48FFF768FF384BD3F8C5
:10313C002031C3F30113D7E7B3F5481F4BD0B3F5D8
:10314C00781FC0D101F080FC01462046FFF7F2FE4B
:10315C00B1FBF0F0B8E701F077FC2D4BD3F80C3154
:10316C00C3F308230133B0FBF3F0ADE701F06CFCC3
:10317C00274BD3F80831F3E701F066FC244BD3F866
:10318C001431C3F30423EDE72348BDE81040FFF7E7
:10319C0035BF2148FFF732FF1D4BD3F8202102F039
:1031AC000F0201239340DEE71A48EEE71948FFF7B8
:1031BC0025FF174BD3F82831C3F301231A1DF0E771
:1031CC001248E2E71548FFF7BBFE072811D0092883
:1031DC007FF479AF6BE71248FFF7B2FE072808D0EF
:1031EC00082809D004287FF46EAFBDE8104001F028
:1031FC0067BC0C4B186867E701F026FC044BD3F84E
:10320C000031C3F3042303FB00005DE70500240039
:10321C0000400E400300200002001E0006000E00BD
:10322C00B8003200403A00200E4B5A6A12F0300FB0
:10323C0004D0202913D0302900D011B94FF440020A
:10324C0000E0094AD3F8901032EA0101FAD1520297
:10325C0046BFD3F8A000C0F38020012070474FF484
:10326C000002EFE700400E40FFF3E17F02280AD195
:10327C0029B1064B4FF48060C3F8A800596612B10F
:10328C000220FFF7D1BF0120704700BF00400E4065
:10329C002DE9F34106460F469046072867D8DFE82C
:1032AC0000F0048F25208A66660D4FF400754FF4EC
:1032BC00807408230920002F68D05EE001A801F07B
:1032CC00C5F99DF80530012B06D94FF400454FF494
:1032DC0080440E230F20EEE79DF80430022BF4D827
:1032EC00FEE70124022500232046E4E700294AD00A
:1032FC00364A536A13F0300F3CD1354BDB6B536AB3
:10330C00DB0705D5536A23F0300343F010035362F7
:10331C000424022303202F4D2C4A2B4414669B00BB
:10332C001A68002AFCD0B8F1000F20D00544AD007B
:10333C002B68002BFCD0022E19D1C7B1234F796A10
:10334C0011F001011BD0012220213046FFF78EFF26
:10335C00D7F89C60012200210220FFF799FFC6F3E9
:10336C000A00FFF717FD3C662B68002BFCD002B05F
:10337C00BDE8F0810424022303200027CBE730466C
:10338C00FFF752FFE4E70825022303200F4A01212F
:10339C00156601FA03F3D2F890101942FBD1B8F17B
:1033AC00000FE4D00123094A03FA00F0D2F8903060
:1033BC000342FBD1DBE720251024042305207AE708
:1033CC00802540240623072075E700BF00400E40EF
:1033DC0000300E408004F210112870B506460C46E1
:1033EC0026D1042912D101F06BFB0546A8B10021AE
:1033FC00284600F0A3FB06F00F06013E072E71D8FD
:10340C00DFE806F025186C706A91709C052904D1D0
:10341C00654B1D68654B9D42E9D8023C0A2C61D86E
:10342C00DFE804F020504249606060606054BD00E9
:10343C000025E0E75E4D013C0C2C53D8DFE804F08E
:10344C0071535A5252615252525052526A00023CBB
:10345C000A2C47D8DFE804F00737293046464646A1
:10346C00463B3E0000250020042401221146FFF7B4
:10347C000FFFFFF759FC0DB1FFF768FC4D4B5C6774
:10348C0001F00CFB044601F0DFFAFFF709FCFFF733
:10349C006BFC01462046FFF79BFC1DBB2846012117
:1034AC00BDE8704000F04ABB00254348FFF7F8FB2D
:1034BC0002200446D9E700253F48FFF7F1FB012421
:1034CC000320D2E7002501200324CEE700250320AA
:1034DC000524CAE70724CCE7384DACE7384DAAE7FA
:1034EC0004232B6070BD012211460020FFF7D0FE93
:1034FC000223F6E7012211461046FFF7C9FE01230D
:10350C00EFE701F0A1FAFFF7CBFB2E4B01221A607B
:10351C000323E6E7012211460720FFF7B9FE052336
:10352C00DFE70023DDE7072C04D0092CDAD1214B8F
:10353C00012201E01F4B00221A67D3E7013C072C44
:10354C00D0D801A353F824F0A7350000F1340000C3
:10355C00F134000099350000F1340000F134000022
:10356C008B3500007535000003221249D1F85C310F
:10357C0023F0300343EA0213C1F85C31B2E70122B5
:10358C0011460420FFF784FE0122EEE701221146CA
:10359C000220FFF77DFE0222E7E70022E5E7FFF7B6
:1035AC00C3FB0025072469E74C3A0020002D3101AC
:1035BC0080400E4000400E400148E80188400E401B
:1035CC0084400E400816C84310B504461120FFF77E
:1035DC00B7FC012200210220FFF75AFE174A217C7A
:1035EC00536A23F00103022908BF43F0010353621D
:1035FC00134B21781960637AA18843EAC123D36203
:10360C00136BA07A217A03F07F630343E08843EACB
:10361C00C02343EAC11303310F2928BF0F2143EA0A
:10362C0001731363A37B617B1B0143EA0133E17BD1
:10363C000B43217B43EA0143536310BD00400E4012
:10364C00A004C84372B6704762B67047EFF310809F
:10365C0072B6704700B962B67047602383F3118865
:10366C007047002383F311887047EFF311806023B8
:10367C0083F31188704780F311887047EFF3108340
:10368C00DB0706D4EFF311805F2894BF00200120E4
:10369C0070470120704700004109054A00F01F03E4
:1036AC0052F82100D840C04300F00100704700BF21
:1036BC0000E100E010B50446EFF31083DB0733D4D0
:1036CC00FFF7EAFF00282ED1002CA7BF04F16044BD
:1036DC0004F5614404F00F04144BACBF94F80023C0
:1036EC001A5D5209EFF3118313B1B2EB531F1BD2C6
:1036FC000F4C6368C3F30803ABB1103BDBB259B298
:10370C000029B5BF03F00F0301F16043043B03F53F
:10371C006143B6BF1B1993F80003187E400982421F
:10372C0034BF0020012010BD0120FCE714ED00E0A7
:10373C0000ED00E0034B186880F04000C0F38010EF
:10374C00704700BF3C300E4042EA032340F20112A6
:10375C0093422BD0B3F5817F08D2012B1DD030D3EF
:10376C00B3F5807F31D0002213461CE040F20122D9
:10377C00934222D006D8B3F5007FF4D1174BD3F87F
:10378C0070310DE0B3F5407F23D040F2013293420B
:10379C00E9D1124BD3F878310BE0104BD3F87431DC
:1037AC00C3F30722DBB203600A6070470B4BD3F8FC
:1037BC0074311A0EC3F30743F5E7084BD3F878318D
:1037CC00EEE7064BD3F86C31EAE7044BD3F86C31D7
:1037DC00EFE7024BD3F87031EBE700BFB081E00F9D
:1037EC0008B5FFF7A7FF18B1024A1368002BFCD1EC
:1037FC0008BD00BFC800C64308B5FFF79BFF80B1EA
:10380C00FFF7EEFF074B19685A68C1F30121C2F3A9
:10381C00014291421A688CBF42F0100222F0100251
:10382C001A6008BD00300E40064B1B68DB0608D53D
:10383C00054B1B69C3F30443082B02BF034B044A1B
:10384C001A60704700300E4000400E404C3A002089
:10385C00C0EA2101154B0228D3F8803113D003287C
:10386C0014D0012814BFDBB2C3F307231B0323F4CA
:10387C007042B1B9BAB90E49CA6E22F47042134300
:10388C00CB6601207047C3F30743EFE71B0EEDE750
:10389C000749D1F8E02022F470421343C1F8E0301C
:1038AC00EFE7002AF4D00020704700BFB081E00F92
:1038BC0000300E4070B5FFF73DFF38B1234B1B783D
:1038CC00C3F1020210239340214A13612149224C77
:1038DC00D1F8805145F60E03C1F88031236823F0EE
:1038EC00AA03DB05DB0D0B66FFF77AFF184B1B6891
:1038FC00D80605F0010515D5D1F84031DA01FBD415
:10390C00164B1B680B61164B197805290ED1154BFC
:10391C001E68FFF765FF0E4B59683046C1F3014135
:10392C00FFF756FA0E4B1978052902D01120FFF734
:10393C0053FD2368DB075EBF064B02221A661DB1DE
:10394C00044B0022C3F8802170BD00BF99420020B7
:10395C0000300E4000400E4088420020944200206F
:10396C00924200204C3A002010B50B4C0B4BD4F873
:10397C0090201A601120FFF7E3FA094B1870FFF73B
:10398C002FFF084B084A5B68C3F301431370074BC6
:10399C0022691A6010BD00BF00400E408842002012
:1039AC009242002000300E409942002094420020A8
:1039BC007047000010B5044608B1FFF7D5FFFFF7BC
:1039CC001BFF134A136943F004031361FFF7F0FF65
:1039DC00104B1B68DB0614D5FFF738FE2FF056FC96
:1039EC00FFF738FE04F0ACF86CB1FFF763FF0A4A3E
:1039FC00136823F00043136044B9BDE8104001F094
:103A0C004DB830BFEEE7FFF70FFFF0E710BD00BF7A
:103A1C0000ED00E000300E404C310E4010B5044675
:103A2C0008B1FFF7A1FFFFF7E7FE1B4BD3F880218E
:103A3C0045F60E01D207C3F8801148BF00224FF49F
:103A4C002071196648BFC3F88021144A136943F0EA
:103A5C0004031361FFF7ACFF114B1B68DB0614D595
:103A6C00FFF7F4FD2FF012FCFFF7F4FD04F068F8FB
:103A7C006CB1FFF71FFF0B4A136823F00043136070
:103A8C0044B9BDE8104001F009B830BFEEE7FFF7CC
:103A9C00CBFEF0E710BD00BF00400E4000ED00E093
:103AAC0000300E404C310E40FFF75EBFFFF702BFF7
:103ABC000A4B9A69996922F4403242F4003241F47B
:103ACC0040314AF6E85098609A6199619A6199611F
:103ADC009A6199619A6199619A61704700300E40C0
:103AEC0070B504460E46FFF725FE10B3FFF778FEBF
:103AFC00104B5B68C3F301439C421AD00E4BD3F8B6
:103B0C00003100F0A1FF022C054602D12146FFF73F
:103B1C005FF9C4F1020210239340064A13610EB1FF
:103B2C00FFF75EFE2CB921462846BDE87040FFF732
:103B3C004FB970BD00300E4000400E4038B5024603
:103B4C000D46FFF7F7FDB8B142B90C4BD3F8004165
:103B5C0000F07AFFC4F3042202FB0002084B1B782E
:103B6C0029463BB1074B9A4204D80220BDE83840A5
:103B7C00FFF7B6BF0020F9E738BD00BF00400E408C
:103B8C0098420020002D3101034B02781A7001215C
:103B9C000020FFF7D3BF00BF9842002006494278AF
:103BAC000B6823F4407343EA0223022A0B6004BF20
:103BBC00024B5B6A704700BF00300E4000400E4065
:103BCC000378134A002B437870B514BF04260026E3
:103BDC00002B8378946914BF02250025002B0379F0
:103BEC0024F03F0443EA0403C47814BF08210021E5
:103BFC00012C08BF43F0010333432B430B43936168
:103C0C001368417923F4403343EA0143136070BDD8
:103C1C0000300E40224B4AF6E85210B5596B5A63ED
:103C2C009A6FD407FCD41B6C13F003031EBF1D4A00
:103C3C0001241460834203D108B91A4B186010BDDB
:103C4C00032B17D0B3B1164A1446936FDB07FCD481
:103C5C00136C23F0030303431364A36F13F00103EA
:103C6C00FBD100300F4A18BF01200129106008BF9A
:103C7C006363E4E7431E012BE5D8094B4FF40022A4
:103C8C00DA629A6FD207FCD41A6C22F0030242F06B
:103C9C0001021A64024A536A1C03FCD5D3E700BF25
:103CAC0000300E40B40AC6432DE9F04F002389B012
:103CBC00CDE90233CDE90433CDE90633A0F5E16358
:103CCC00B3F5966F05460191934603D9002009B0D0
:103CDC00BDE8F08F4D4BB0F5E16F8CBF4FF0010A92
:103CEC004FF0000AD3F8683100F083801A0EC3F34A
:103CFC000743079204934FF496694FF4E164DFF89D
:103D0C001081D8F84C70C7F301773B46524605A991
:103D1C0002A8FFF719FDD8F8E060C6F30126334678
:103D2C00524606A903A8FFF70FFD0798049A2C1B0F
:103D3C00811A6143B1FBF9F3D1182CBF0123002385
:103D4C008842C3D3002BC1D1069A0398131A63433C
:103D5C00B3FBF9F310EB030A2CBF012300235245EC
:103D6C00B4D3002BB2D1059B029A981A4443B4FBEE
:103D7C00F9F912EB09092CBF012000204B45A5D302
:103D8C000028A3D1BBF1000F0ED0D8F85C3023F47F
:103D9C00FE4323F00203B5F5E16F43EA012318BF9C
:103DAC0002200343C8F85C30019B63B30021384602
:103DBC00FFF750FD002889D001213046FFF74AFD5E
:103DCC00002883D0124A536ED14538BFD14623F414
:103DDC00FF73B9F1E70F23F0010328BF4FF0E70998
:103DEC00B5F5E16F18BF43F0010343EA490353668D
:103DFC006DE7C3F30722DBB2079204934FF41679F5
:103E0C004FF496647BE7012061E700BFB081E00FBF
:103E1C0000300E40304B1A6FD96CC90702F0070204
:103E2C0042D5012A40D9132851D9143813288CBFF4
:103E3C00102308232849013BCA6C180322F47F4243
:103E4C0040EA03231343CB64244BCA6C1B88C2F394
:103E5C0003222833013202EB820003EB5303B3FB42
:103E6C00F0F3C86C013B072B20F0EE6028BF072352
:103E7C0040F4801040EA0363CB64194BB3F9003073
:103E8C00002B10DB2833500800EB420203EB5303EA
:103E9C00B3FBF2F30A6D072B28BF072322F0700245
:103EAC0042EA03130B657047DB6CD90706D4012A71
:103EBC0004D809280BD90A380928B8E7064BDB6C5B
:103ECC0013F00103B6D0012A03D82728AFE7042347
:103EDC00B0E70023AEE700BF00300E408E4200205A
:103EEC0090420020054A064B1B68136F23F0070312
:103EFC001843044B10671888FFF78CBF00300E4036
:103F0C008009C6438C420020C1884A2970B50446FA
:103F1C008588B0F90C604ED9B1F5FA7F4DD340F6D7
:103F2C00C313994294BF4FF000514FF040512848B1
:103F3C00C36C23F0405323F00103002EA8BF43F0C1
:103F4C0001030B43C364D0F8E03043F44073C0F872
:103F5C00E030204B1D80C36E43F08073C3661E4B54
:103F6C00186800B10420FFF7BDFF1C4B2189198094
:103F7C001B4BB4F90C20A0881A80FFF74BFFA37BD6
:103F8C00F3B1012B20D0012211466088FFF78CFE83
:103F9C00054670B10E4A6078D36B43F48063D363EB
:103FAC00FFF738FEA37AA3F12002534253410D4A86
:103FBC001360284670BD0021B9E74FF08051B6E779
:103FCC00034B094A9A65DEE7014B084AFAE700BF42
:103FDC0000300E408C4200208009C6438E420020E7
:103FEC00904200209407C64377402057372110B7E2
:103FFC00072A70B501F003014FF00F0523D8960086
:10400C001A4CB540256004F10074B04020600320C8
:10401C00B04001FA06F61649086001F100710E6015
:10402C001449114489000B609DF81030C1F88030A0
:10403C00012303FA02F2104BC3F824249DF8143028
:10404C00C1F8003370BDA2F10804A4000B4EA540CA
:10405C0035600B4DA04028600320A04001FA04F409
:10406C000849086001F100710C60D9E700A4004414
:10407C0008A400448020851000A0004004A4004443
:10408C0004A400460CA40044F0B54AB130261E4CE2
:10409C00012546438D4034440BB304F1C0642560C4
:1040AC003024444304F18044072904F5204419D8F2
:1040BC0065688E000F27B74025EA070502FA06F659
:1040CC003543656052B9012202FA01F130225043A6
:1040DC000D4A0244A3B102F1C0621160F0BD04F1BB
:1040EC008064DCE701F18045083DA668AD000F2730
:1040FC00AF4026EA070602FA05F53543A560E1E76D
:10410C0002F18062E9E700BF0CA00040084B4FF4BD
:10411C000072C3F88020BFF34F8FBFF36F8F054B36
:10412C000021D9664FF4AA401962FEF75FBE00BFAA
:10413C0000E100E000200E40034B03449B0081F0A3
:10414C0001011960704700BFA001F11010B50446C1
:10415C0001214FF4AA40FEF749FEB4F80130227851
:10416C005BBA9BB243EA02630B4A136000231362EF
:10417C00D36253634FF00043D3664FF0FF33936623
:10418C00064A4FF40071C2F88011E3785B01DBB290
:10419C0082F80933116010BD00200E4000E100E0F0
:1041AC002DE9F041254D91F80BE091F80AC00F7BF9
:1041BC000C464FF03008C3B2012608FB00509E405D
:1041CC002368497BC0F880304FEA0E5343EA0C4316
:1041DC0043EA475322F00302C0F88810C0F8843039
:1041EC00C0F89820AE66FFF740FAEB6E3343EB66EF
:1041FC00237A13B16B6B33436B63637A13B1EB6A42
:10420C003343EB6222792B6822B1D243120262F45F
:10421C007F42134062790AB143EA0223A2790AB1C0
:10422C0023EA0203E27902B11343044A1360044BFC
:10423C001E60D663BDE8F041FFF71DBA00200E40AA
:10424C0028200E4410B5C0B201248440FFF70DFAAB
:10425C00054AD36E23EA0403D366044B1C60BDE805
:10426C001040FFF708BA00BF00200E4020200E447B
:10427C00F8B5C3B201259D400446FFF7F6F90A4B89
:10428C0030221E6E9F6A02FB0434D4F88C40FFF778
:10429C00F2F93D4206D1C4F30A1008B9354200D1F7
:1042AC000130F8BD0020FCE700200E40036CDB075A
:1042BC0002D4436C0B42FCD170470000064B0B4000
:1042CC0003F58073B0FBF3F203FB12000002B0FBAA
:1042DC00F3F000EB02207047F8FF0100074B984207
:1042EC0010B5044607D10648FEF7CEFEE168BDE8DE
:1042FC001040FFF7E3BF002010BD00BF00A004403A
:10430C0090171A00CB435B0003F00A0310B541EA87
:10431C0003020221FFF7CAFF426010BD436C002B61
:10432C00FCD101220264EA22426040F2F97203607D
:10433C00C3600361436183634263C3634365836505
:10434C000364704710B502460C469368DB06FCD537
:10435C0040211046FFF7AAFF946210BD054B5A6826
:10436C005B68054B41F671321A649A6822F00102BF
:10437C009A60704700300E4000000E40034B9A6864
:10438C0022F001029A6000221A64704700000E406D
:10439C00094A0A4BD969C90705D512B96FF0020051
:1043AC007047013AF6E7002AF8D001221861DA606A
:1043BC00D86940F3800070478096980000000E404A
:1043CC0070B509B9002070BD0E4A0023082550F8BD
:1043DC00234094610C4CD5600133D669F60705D5A2
:1043EC0014B96FF00200EEE7013CF6E7002CF8D0B0
:1043FC00D469A40702D49942E9D1E3E76FF0010034
:10440C00E1E700BF00000E40809698002DE9F843CC
:10441C001C4B884641F671311D6C19641A490746CC
:10442C0048684968996841F00101ADB299609608F5
:10443C004FF00009B14501D3002005E007EB8904DA
:10444C002046FFF7A5FF48B10E4B9A6822F00102F7
:10445C009A600DB100221A64BDE8F883C4F30A0413
:10446C00C4F50064A408A6EB09039C4228BF1C46B3
:10447C0021464046FFF7A4FF0028E5D1A14408EBF4
:10448C008408D7E700000E4000300E40204B41F668
:10449C0071311A6C10B519641E494C6849689968D9
:1044AC0041F00101996001211861D960D9694C076B
:1044BC0092B209D5996821F0010199600AB10022E4
:1044CC001A644FF0FF301FE00221134CD9601946DB
:1044DC00D869C00700D56CB9C8698B6810F00200A8
:1044EC0023F001038B6007D00AB100230B646FF03B
:1044FC00010009E0013CEBE724B902B10C646FF058
:10450C00020001E00AB1086410BD1046FCE700BFD0
:10451C0000000E4000300E4080969800FFF776BFEA
:10452C0010B590FAA0F2054C2368B2FA82F223EA95
:10453C00000091400143216010BD00BF00500E40AF
:10454C00014B01229A60704700500E40124BF0B59F
:10455C005C68124D124E002318463768EA187F0724
:10456C0051685A5908D4B2F5806F03D00DD8B2F502
:10457C00007F01D141F48071144202D0214208BF66
:10458C0010430833482BE8D1F0BDB2F5006FF1D0E1
:10459C00B2F5803FEDE700BF00500E405C330300E6
:1045AC00E841E00F8B784A789B0143EA82030A7852
:1045BC001343CA7843EA02130A7943EAC2234A79BD
:1045CC0043EA02338A79043043EA42430001014A48
:1045DC001350704700200440014B1860704700BF17
:1045EC0000008442427801790378002A827870B501
:1045FC0014BF04260026002AC27814BF10250025FB
:10460C00002A42794FEA023242EA012242EA0302CC
:10461C00837914BF20240024002BC37942EA03437E
:10462C0043EA0603027A43EA050314BF4FF4004140
:10463C0000212343002A14BF4FF4003200220B4305
:10464C001343014A136070BD002004400B4A5369A8
:10465C0011699B0003F03C03C1F381110B43837080
:10466C00136903F03F0343709369D26903F0F003BD
:10467C00C2F3031213430370704700BFD0FF0FE067
:10468C002DE9F04F0C780CB90223436000234362F0
:10469C004B78CA7891F802B08D7A91F808A091F80D
:1046AC00069091F80780002B4B7A4FEA024214BF18
:1046BC004FF0400E4FF0000E42EA0B62002B14BF7D
:1046CC008023002342EA0A02002DCD7A42EA892295
:1046DC0014BF4FF0200C4FF0000C42EA0822002DC2
:1046EC000D7B42EA0E0214BF102700271343002D46
:1046FC000D79497943EA0C0314BF082600263B4385
:10470C00002D14BF4FF4005500253343002914BF6E
:10471C004FF0805100212B430B4303600CB101235C
:10472C004360BDE8F08FF0B5537814781B0643EA6C
:10473C00846394792343947843EA0443D47843EA1A
:10474C000433147943EA8423547943EA0423D47957
:10475C00002C147A14BF4FF080470027002C547A99
:10476C0014BF4FF000560026002C947AD27A43EAFC
:10477C00027343EA070314BF102500253343002CB2
:10478C0001F1060114BF042400242B430901234327
:10479C004350F0BD70B5054616461C4619B9144871
:1047AC00FEF772FC0146202C08D001D8ECB170BD8C
:1047BC00402C18D0602CFAD1042200E0082206FB11
:1047CC0002F35A0802EB4112B2FBF3F2094B203A06
:1047DC0003EAC2022B6823F060032B602B681C4396
:1047EC002C606A61E3E70622E9E71022E7E700BFE5
:1047FC0040410500F8FF7F00F8B5154F14460F40F7
:10480C001ABB202B07D0402B07D0002B0CBF102538
:10481C004025012603E01D46FBE78025032607F50E
:10482C0080777E430023324619462EF02FFB5443EB
:10483C0000FB05F705FB0344A2FB050121443246AE
:10484C0000232EF023FB3844F8BD80250024E0E73C
:10485C00F8FF7F0070B5044605680648FEF714FCA7
:10486C002368616905F0010203F06003BDE8704044
:10487C00FFF7C2BF40410500CB435B0003F00A03C6
:10488C00C360C1607047000040F6AA63C36041F288
:10489C0005020023036042600C4A83604361C364D9
:1048AC0082640B4A03669042436702F58062836719
:1048BC00C36704D0904202D00649884200D10365F8
:1048CC0000239042836508BFC3657047F9FF010060
:1048DC00000001400008014038B50C460546FFF7C2
:1048EC00D3FFA37C1BB1036843F080430360E37CDC
:1048FC001BB1237D43F08003AB65228A637B13439A
:10490C00E28913436B60D4E90112237B2846FFF73D
:10491C0041FF637D1BB12B6843F480332B60A37D77
:10492C00E27D1B07120502F4E00203F0E04313439F
:10493C002B666B6F23F030036B676A6F237E134318
:10494C006B672378EB6038BD03691B06FCD5C06927
:10495C00C0B2704703695B06FCD5416370470368BE
:10496C00DB060FD447F231538268D20701D5013BE5
:10497C00FAD1036803F001038B421EBF00F10470EF
:10498C004001016070470368D90707D583689A070F
:10499C0004D48368DB07FCD40123436070474B7855
:1049AC00CA78002B8B782DE9F04114BF4FF0020E22
:1049BC004FF0000E002B14BF04230023002A0A79A9
:1049CC0091F807800C7814BF4FF0080C4FF0000CD6
:1049DC00002A4A7914BF20270027002A8A7914BF9D
:1049EC0040260026002A0A7A4FEA022242EA0832BE
:1049FC0091F8098042EA0402CC7A897A42EA0842A8
:104A0C0042EA016242EA0E0243EA020343EA0C0361
:104A1C0043EA070314BF102500253343002C14BFB1
:104A2C004FF0004400242B43234347F2315281685A
:104A3C00C90701D5013AFAD10360BDE8F081000045
:104A4C000048704700F04902104AD2F8943003F045
:104A5C000703023B032B13D8DFE803F00C14020E00
:104A6C000B4B1B68D2F80001C0F304200130B3FBE0
:104A7C00F0F07047074BF4E7074B1B685B08F1E756
:104A8C00054BEEE74FF40043ECE700BF00400E404F
:104A9C00503A0020483A00204C3A002008B5FFF765
:104AAC00D3FF054BD3F80831C3F308230133B0FB14
:104ABC00F3F0024B186008BD00400E40443A002051
:104ACC00014B1868704700BF483A0020054B18602E
:104ADC00054BD3F8943003F00703022B01D1FFF7F9
:104AEC00DDBF7047483A002000400E40044B054A99
:104AFC009A60D3F8882042F47002C3F8882070477B
:104B0C0000ED00E0000100004FF4004070474FF44E
:104B1C007A707047014B1868704700BF503A0020FC
:104B2C0008B5064B1B689B69DB0205D5012803D829
:104B3C0040F2022014F060FC012008BD2808E10FAF
:104B4C00064B1B689868C0F30343C0F303621B0257
:104B5C0043EA0233C0B21843704700BF2808E10F84
:104B6C0070B50438C6B0FB2801F25D87DFE810F0A1
:104B7C002C025B0F5B0F5B0F35025B0F5B0F5B0F48
:104B8C005B0F5B0F5B0F5B0FDD03CB035B0F5B0FEF
:104B9C009D0A3B0446049403A3035B0F87045B0F3D
:104BAC005B0F9F044401F1021B031C01AE035B0F5E
:104BBC005B0F57085B0F5B0FFF013E02F20C620D9F
:104BCC00110DFE0CDF0C3E0D8F0D5B0F5B0F4F05B7
:104BDC000A07A601F30588053906D20666060703FF
:104BEC00FC00B301E8015B0F1A0423065B055B0FA5
:104BFC005B0F5B0F5B0F5B0F5B0F5B0F5301970141
:104C0C007E015B0F5B0F5B0FD407B4065B0F5B0F72
:104C1C005B0F5B0F5B0F5B0F5B0F5B0FC107AA0496
:104C2C0039075307BC04D10439051F055B0F080570
:104C3C0090075B0F4909B30ACD0AC409DA098F0939
:104C4C00150B440A5B0F280B990C0A0AF20A690B24
:104C5C005D0BAA0994094C0B5B0FBC0189038E02F6
:104C6C005B0F5B0F7207F2045B0F5B0FC105010E4C
:104C7C009E0D200E380E140E2C0EC20DD80DAA0D42
:104C8C00EB0DB60D5B0F5B0F5B0F5B0F5B0F5B0FE1
:104C9C005B0F5B0F9E065B0F5B0F630451045B0F96
:104CAC0000015B0F5B0F440E5B0F7E0E400FBA0EC4
:104CBC00F00E120FA40E5B0F7A0B9C0B5B0F5B0FAD
:104CCC005B0F5B0FA7076809D50E83097508CC0825
:104CDC00300900095B0F5B0F5B0F29045C085B0F4D
:104CEC006808C3081D08EF08160CC402DB02E602B4
:104CFC005B0F5B0FC80B5B0FFF0B260C5B0F5B0F87
:104D0C005B0F5B0F6F0A12097504B9025B0F300160
:104D1C00F408350829088F08B2080508110841085D
:104D2C004C08820C9E0CBA0CAE0C720C6D0C5B0F0A
:104D3C005B0F5B0F5B0F5B0F060F5B0F610E5B0F67
:104D4C00230F340F910E62075B0F5B0F5B0FE304B5
:104D5C008507D10CBE08C003540377033F03260319
:104D6C005B0F5E02F20753020124204646B070BD71
:104D7C0012AB01930AAB00930CAA24ABBB490120E4
:104D8C0011F038FABDF848309DF828202499BDF868
:104D9C00300023F00FFD46AAB54902F8EC0D0020B7
:104DAC0011F028FA0124E0E724AB0CAAB149012048
:104DBC0011F020FA24999DF830000EF0A3FA46AABF
:104DCC00AB4902F8D00D002011F014FA0124CCE705
:104DDC000CAB24AAA849012011F00CFA9DF8301054
:104DEC00249819F0CDF846AAA14902F8D00D00205C
:104DFC0011F000FA0124B8E724A810F0D1FF24A880
:104E0C001CF010F946AA9A4902F8D00D002011F0B6
:104E1C00F1F90124A9E70CAA9549012011F0EAF94E
:104E2C0024A99DF830000EF06BFA46AA904902F8BE
:104E3C00D00D002011F0DEF924A9082010F09AFF03
:104E4C009DF8980010F05EFFBDF89A0010F06AFF14
:104E5C009DF89C0010F056FF9DF89D0010F052FF3D
:104E6C009DF89E0010F04EFF01247EE786230BAACE
:104E7C007F498DF84830012011F0BCF924A99DF828
:104E8C002C000EF046FA46AA12AB02F8E80D7B494C
:104E9C000093002024AB11F0ADF9012465E724A8A0
:104EAC0024F01AF946AA724902F8D00D002011F02C
:104EBC00A1F924A811F067F9012456E724A824F0DD
:104ECC0007F946AA24AB02F8D00D6D49002011F069
:104EDC0091F9012449E746AA012402F8884D644956
:104EEC00002011F087F940E70CAA6149012011F06C
:104EFC0081F924A99DF8300025F046FD46AA5C49AD
:104F0C0002F8D00D002011F075F9BDF8900010F0EA
:104F1C0009FF9DF8920010F0F5FE9DF8930010F03B
:104F2C00F1FE9DF8940010F0EDFE9DF8950010F048
:104F3C00E9FE0DF19601082010F01CFF012414E786
:104F4C0046AB082203F8EC2D4E4924AA012011F09F
:104F5C0051F912A924A826F0B1F946AA12AB02F80D
:104F6C00E80D4449002011F045F90124FDE624A97F
:104F7C0012A80EF08DF946AA12AB02F8E80D4049C2
:104F8C00002011F037F924A9082010F0F3FEBDF829
:104F9C00980010F0C7FE9DF89A0010F0B3FE9DF833
:104FAC009B0010F0AFFE9DF89C0010F0ABFEBDF81E
:104FBC009E0010F0B7FE9DF8A00010F0A3FE2998FB
:104FCC0010F0C4FE0124D0E646AA012402F8884D54
:104FDC002749002011F00EF9C7E646AA002002F876
:104FEC00880D234911F006F90124BEE612AC082302
:104FFC00214624A88DF830300EF071F946AA0CAB7E
:10500C0002F8EC0D204901940093002024AB11F020
:10501C00F1F80124A9E619F060F946AA144902F83E
:10502C00880D002011F0E6F801249EE60CAA104928
:10503C00012011F0DFF824A99DF8300019F0D0F808
:10504C0046AA0B4902F8D00D002011F0D3F89DF8B8
:10505C00900010F057FE9DF8910010F053FE9DF853
:10506C00920010F04FFE01247FE600BFE4330300F2
:10507C0034340300E9330300033403009D5C030064
:10508C00233403008E3C0300EC3303000CAABE490E
:10509C00012011F0AFF824A99DF8300024F0E6FAB5
:1050AC0046AAB94902F8D00D002011F0A3F8BDF8BA
:1050BC00900010F037FEBDF8920010F033FE9DF812
:1050CC00940010F01FFE9DF8950010F01BFE9DF84B
:1050DC00960010F017FE9DF8970010F013FE0124B7
:1050EC0043E60EF077F846AAA74902F8880D00208F
:1050FC0011F080F8012438E612AC0BAAA249012069
:10510C0011F078F8224624A99DF82C000EF064F8D2
:10511C0046AA24AB02F8E80D9C490094002011F03B
:10512C0069F8012421E60EF05BF846AA964902F8CC
:10513C00880D002011F05EF8012416E60EF04EF8F2
:10514C0046AA914902F8880D002011F053F8012469
:10515C000BE60CAA8C49012011F04CF824A810F095
:10516C001FFE24A99DF830001CF02AF846AA864997
:10517C0002F8D00D002011F03DF80124F5E50BAA42
:10518C008149012011F036F80CAA12AB804901209C
:10519C0011F030F846AA012402F8884D7A49002013
:1051AC0011F028F8E1E51DF00BFD46AA764902F84E
:1051BC00880D002011F01EF80124D6E512AB0093E7
:1051CC000BAA0CAB7349012011F014F89DF8482080
:1051DC009DF830109DF82C0028F076FC46AA6A4900
:1051EC0002F8880D002011F005F80124BDE512AB82
:1051FC000CAA6949012010F0FDFF9DF948109DF89B
:10520C00300028F05FFC46AA5F4902F8880D0020A8
:10521C0010F0F0FF0124A8E512AB02930CAB019344
:10522C000BAB00930DF126020AAB5C49012010F088
:10523C00E1FF9DF848409DF930309DF82C209DF8F9
:10524C00281000949DF8260028F038FC46AA4E49F8
:10525C0002F8880D002010F0CDFF012485E512AA7C
:10526C004949012010F0C6FF9DF8480028F028FCA1
:10527C0046AA454902F8880D002010F0BBFF012416
:10528C0073E525F06DFB46AA3F4902F8880D002016
:10529C0010F0B0FF012468E524A810F001FE24A84A
:1052AC001BF0F6FF46AA384902F8D00D002010F08A
:1052BC00A1FF012459E518F039FF46AA324902F83A
:1052CC00880D002010F096FF01244EE512AA2E49FD
:1052DC00012010F08FFF9DF848001BF097F946AAAB
:1052EC00294902F8880D002010F084FF01243CE5C8
:1052FC0005F0EAFB46AA244902F8880D002010F0BC
:10530C0079FF012431E512AA1F49012010F072FF28
:10531C009DF848000EF026FC46AA1B4902F8880DA1
:10532C00002010F067FF01241FE50AAB04930DF178
:10533C002603039309AB029324AB019312AB0093A6
:10534C000DF122020CAB1649012010F053FF9DF811
:10535C00284002949DF8264001949DF82440BDF805
:10536C009030BDF84820BDF8301000949DF8220014
:10537C000EF0FAFB46AA044902F8EC0D002010F0DE
:10538C0039FF0124F1E400BF34340300F03303008F
:10539C00F7330300FE3303002D360300F433030010
:1053AC00FA33030024A810F0FBFE24A823F092FE8D
:1053BC0046AAAA4902F8D00D002010F01BFF0124C8
:1053CC00D3E412AAA549012010F014FF9DF848005F
:1053DC001BF0B0FB46AAA14902F8880D002010F082
:1053EC0009FF0124C1E424AA9D49012010F002FF09
:1053FC009C4BBDF890201A800124B6E424AA98494D
:10540C00012010F0F7FE984BBDF890201A80012473
:10541C00ABE412AA9149012010F0ECFE9DF8480073
:10542C001BF054FB46AA8D4902F8880D002010F0A1
:10543C00E1FE012499E412AA8C49012010F0DAFE55
:10544C009DF9480018F020FF46AA844902F8880DFF
:10545C00002010F0CFFE012487E412AA7F4901201E
:10546C0010F0C8FE9DF848000DF0B2FE46AA7B492C
:10547C0002F8880D002010F0BDFE012475E40CAB81
:10548C0000930BAA24AB7A49012010F0B3FE9DF8CF
:10549C00302024999DF82C0018F0D0FC46AA6F49B6
:1054AC0002F8D00D002010F0A5FE01245DE418F0E8
:1054BC0059FD46AA694902F8880D002010F09AFEA1
:1054CC00012452E412AA6549012010F093FE9DF8C4
:1054DC00480022F0EEFC46AA604902F8880D002034
:1054EC0010F088FE012440E408230CAA5B498DF8D7
:1054FC004830012010F07EFE24A99DF8300023F0E6
:10550C00CBFA12AB24AA5B49002010F073FE0124E5
:10551C002BE412AA5149012010F06CFE9DF84800B2
:10552C0023F0D2FA46AA4E4922F8880D002010F03A
:10553C0061FE012419E424A81CF0E2FB46AA4749A9
:10554C0002F8D00D002010F055FE24A810F06FFCCE
:10555C0001240AE446AB082203F8E82D454924AAA5
:10556C00012010F047FE24A823F0B2FB46AA3B49C9
:10557C0002F8D00D002010F03DFE0124FFF7F5BB22
:10558C000CAA3649012010F035FE24A99DF83000F4
:10559C000DF04CFE46AA314902F8D00D002010F057
:1055AC0029FE24A810F030FC0124FFF7DEBB0823F1
:1055BC0012AA2B498DF83030012010F01BFE24A9C3
:1055CC00BDF8480019F068F846AA0CAB02F8EC0DCF
:1055DC0029490093002024AB10F00CFE0124FFF7A6
:1055EC00C4BB46AB082203F8E82D224924AA0120AB
:1055FC0010F000FE24A819F01DF846AA184922F84C
:10560C00D00D002010F0F6FD0124FFF7AEBB21F009
:10561C006BF946AA114902F8880D002010F0EAFD3A
:10562C000124FFF7A2BB0CAB009324AA0BAB1349CC
:10563C00012010F0DFFD9DF830209DF82C10BDF8F6
:10564C0090000DF0FDFB46AA044902F8D00D002095
:10565C0010F0D0FD0124FFF788BB00BF34340300E9
:10566C00EE330300443F00204A3F0020E55C03007A
:10567C00023403008E3C03009D5C030006340300DF
:10568C0008AB0BAAB449009301200CAB10F0B2FD8F
:10569C0024A810F0A1FB09AB12AACDE900320293A9
:1056AC000DF121020DF12203AC49012010F0A2FDF5
:1056BC00129B03939DF8243002939DF822300193A2
:1056CC000AAC9DF821309DF82020BDF830100494D0
:1056DC000093BDF82C0024AB0DF01FFD46AA234609
:1056EC0002F8F20D9E49002010F084FD0124FFF712
:1056FC003CBB08238DF821308DF826300DF12203A8
:10570C0002930BAB01930DF1210324AC009308AA77
:10571C0012AB944901200AAE0CAD10F06BFD9DF854
:10572C002230BDF82C20009412A99DF8200002967E
:10573C0001950DF057FD46AA0DF1260302F8F40D64
:10574C0088490093CDE901562346002010F052FD04
:10575C000124FFF70ABB0CAA8349012010F04AFD73
:10576C0024A810F039FB0DF1260312AACDE9003262
:10577C0002930DF1220209AB7849012010F03AFD99
:10578C00129901910BAC9DF826109DF824309DF8D0
:10579C00222002940091BDF8300024A90DF054FC95
:1057AC0046AA234602F8F00D6D49002010F022FDA8
:1057BC000124FFF7DABA0CAB24AA6C49012010F0D3
:1057CC0019FD9DF83010BDF890001DF0D5FD46AACE
:1057DC00674902F8D00D002010F00CFD0124FFF7F2
:1057EC00C4BA24A810F0F8FA0AAB12AACDE9013217
:1057FC0003930DF1260300930DF1220209AB5D49D1
:10580C00012010F0F7FC129801900CAC9DF82800C8
:10581C009DF826309DF824209DF8221002940090CB
:10582C0024A80DF01DFC46AA234602F8EC0D4C49A9
:10583C00002010F0DFFC0124FFF797BA24A810F029
:10584C00CBFA0DF1260312AACDE90332059309AB6D
:10585C0002930DF1220301930CAB009308AA0DF1F6
:10586C0021034549012010F0C5FC129803909DF8C6
:10587C00260002909DF8240001900BAC9DF82200AC
:10588C00BDF830309DF821209DF820100494009034
:10589C0024A80DF013FC46AA234602F8F00D30495B
:1058AC00002010F0A7FC0124FFF75FBA0CAA0092AD
:1058BC0024AB3249012010F09DFC24999DF8300056
:1058CC000DF0D9FB46AA2A4902F8D00D002010F0A1
:1058DC0091FC0124FFF749BA0CAB0AAA02930BAB5B
:1058EC00CDE90023264924AB012010F083FC9DF860
:1058FC0030309DF82C2024999DF828000DF0C8FB21
:10590C0046AA1B4902F8D00D002010F073FC0124AC
:10591C00FFF72BBA0CAA1449012010F06BFC24A839
:10592C0010F05AFA0AAA009212AB1449012010F096
:10593C0061FC129B9DF82820BDF8300024A90DF0C5
:10594C001BFC46AA0A4902F8EC0D002010F052FC90
:10595C000124FFF70ABA00BF0A3403001434030011
:10596C00233403000E340300EE3303001034030021
:10597C00343403001334030019340300A25C030015
:10598C00213403000CAB0DF12202C749012010F0A9
:10599C0031FC24A810F020FA0DF1260312AA019371
:1059AC000092C24909AA012010F024FC129A01921B
:1059BC000BAC9DF826209DF82430BDF830100294D5
:1059CC0000929DF8220024AA0DF036FB46AA23462D
:1059DC0002F8F00DB649002010F00CFC0124FFF782
:1059EC00C4B908238DF830300CAB0BAA0093B14925
:1059FC0024AB012010F0FEFB24A99DF82C0023F011
:105A0C008BF946AAAC4902F8D00D002010F0F2FB3D
:105A1C000124FFF7AAB924AB12AAA349012010F064
:105A2C00E9FBBDF890109DF8480023F003F8012421
:105A3C00FFF79BB924A81CF08FF946AA9E4902F8DF
:105A4C00D00D002010F0D6FB24A810F0F0F90124A2
:105A5C00FFF78BB946AB082203F8E82D12AA009287
:105A6C00964924AA012010F0C5FB9DF8481024A8E3
:105A7C0023F098F90124FFF778B924AA9049012062
:105A8C0010F0B8FB24981EF0A3FF0124FFF76DB9AA
:105A9C000CAA8949012010F0ADFB24A810F0BEF926
:105AAC0024A99DF830000DF0D9FB46AA824902F8D2
:105ABC00D00D002010F09EFB0124FFF756B90BAB64
:105ACC0024AA019300927F4912AA012010F092FBA4
:105ADC00249A9DF82C10BDF848000EF086FE46AABC
:105AEC00754902F8E80D002010F084FB0124FFF743
:105AFC003CB912AA7049012010F07CFB9DF84800BB
:105B0C000DF005FC46AA6E4942F8880D002010F0F5
:105B1C0071FB0124FFF729B908238DF8283012AB4B
